{
	"contracts/presale.sol": {
		"TokenPresale": {
			"abi": [
				{
					"inputs": [
						{
							"internalType": "address payable",
							"name": "_fundWallet",
							"type": "address"
						},
						{
							"internalType": "uint256",
							"name": "_presaleRate",
							"type": "uint256"
						},
						{
							"internalType": "uint256",
							"name": "_softCap",
							"type": "uint256"
						},
						{
							"internalType": "uint256",
							"name": "_hardCap",
							"type": "uint256"
						},
						{
							"internalType": "uint256",
							"name": "_minPurchase",
							"type": "uint256"
						},
						{
							"internalType": "uint256",
							"name": "_maxPurchase",
							"type": "uint256"
						},
						{
							"internalType": "uint256",
							"name": "_presaleStart",
							"type": "uint256"
						},
						{
							"internalType": "uint256",
							"name": "_presaleDuration",
							"type": "uint256"
						}
					],
					"stateMutability": "nonpayable",
					"type": "constructor"
				},
				{
					"anonymous": false,
					"inputs": [
						{
							"indexed": true,
							"internalType": "address",
							"name": "previousOwner",
							"type": "address"
						},
						{
							"indexed": true,
							"internalType": "address",
							"name": "newOwner",
							"type": "address"
						}
					],
					"name": "OwnershipTransferred",
					"type": "event"
				},
				{
					"anonymous": false,
					"inputs": [
						{
							"indexed": false,
							"internalType": "uint256",
							"name": "totalRaised",
							"type": "uint256"
						}
					],
					"name": "PresaleFinalized",
					"type": "event"
				},
				{
					"anonymous": false,
					"inputs": [
						{
							"indexed": true,
							"internalType": "address",
							"name": "refundee",
							"type": "address"
						},
						{
							"indexed": false,
							"internalType": "uint256",
							"name": "ethAmount",
							"type": "uint256"
						}
					],
					"name": "RefundsClaimed",
					"type": "event"
				},
				{
					"anonymous": false,
					"inputs": [
						{
							"indexed": true,
							"internalType": "address",
							"name": "purchaser",
							"type": "address"
						},
						{
							"indexed": false,
							"internalType": "uint256",
							"name": "ethAmount",
							"type": "uint256"
						},
						{
							"indexed": false,
							"internalType": "uint256",
							"name": "tokenAmount",
							"type": "uint256"
						}
					],
					"name": "TokensPurchased",
					"type": "event"
				},
				{
					"inputs": [
						{
							"internalType": "uint256",
							"name": "ethAmount",
							"type": "uint256"
						}
					],
					"name": "calculateTokenAmount",
					"outputs": [
						{
							"internalType": "uint256",
							"name": "",
							"type": "uint256"
						}
					],
					"stateMutability": "view",
					"type": "function"
				},
				{
					"inputs": [],
					"name": "claimTokens",
					"outputs": [],
					"stateMutability": "nonpayable",
					"type": "function"
				},
				{
					"inputs": [
						{
							"internalType": "address",
							"name": "",
							"type": "address"
						}
					],
					"name": "contributions",
					"outputs": [
						{
							"internalType": "uint256",
							"name": "",
							"type": "uint256"
						}
					],
					"stateMutability": "view",
					"type": "function"
				},
				{
					"inputs": [],
					"name": "finalize",
					"outputs": [],
					"stateMutability": "nonpayable",
					"type": "function"
				},
				{
					"inputs": [],
					"name": "fundWallet",
					"outputs": [
						{
							"internalType": "address payable",
							"name": "",
							"type": "address"
						}
					],
					"stateMutability": "view",
					"type": "function"
				},
				{
					"inputs": [],
					"name": "hardCap",
					"outputs": [
						{
							"internalType": "uint256",
							"name": "",
							"type": "uint256"
						}
					],
					"stateMutability": "view",
					"type": "function"
				},
				{
					"inputs": [],
					"name": "maxPurchase",
					"outputs": [
						{
							"internalType": "uint256",
							"name": "",
							"type": "uint256"
						}
					],
					"stateMutability": "view",
					"type": "function"
				},
				{
					"inputs": [],
					"name": "minPurchase",
					"outputs": [
						{
							"internalType": "uint256",
							"name": "",
							"type": "uint256"
						}
					],
					"stateMutability": "view",
					"type": "function"
				},
				{
					"inputs": [],
					"name": "owner",
					"outputs": [
						{
							"internalType": "address",
							"name": "",
							"type": "address"
						}
					],
					"stateMutability": "view",
					"type": "function"
				},
				{
					"inputs": [],
					"name": "participate",
					"outputs": [],
					"stateMutability": "payable",
					"type": "function"
				},
				{
					"inputs": [],
					"name": "presaleEnd",
					"outputs": [
						{
							"internalType": "uint256",
							"name": "",
							"type": "uint256"
						}
					],
					"stateMutability": "view",
					"type": "function"
				},
				{
					"inputs": [],
					"name": "presaleFinalized",
					"outputs": [
						{
							"internalType": "bool",
							"name": "",
							"type": "bool"
						}
					],
					"stateMutability": "view",
					"type": "function"
				},
				{
					"inputs": [],
					"name": "presaleRate",
					"outputs": [
						{
							"internalType": "uint256",
							"name": "",
							"type": "uint256"
						}
					],
					"stateMutability": "view",
					"type": "function"
				},
				{
					"inputs": [],
					"name": "presaleStart",
					"outputs": [
						{
							"internalType": "uint256",
							"name": "",
							"type": "uint256"
						}
					],
					"stateMutability": "view",
					"type": "function"
				},
				{
					"inputs": [
						{
							"internalType": "address",
							"name": "tokenAddress",
							"type": "address"
						}
					],
					"name": "recoverERC20",
					"outputs": [],
					"stateMutability": "nonpayable",
					"type": "function"
				},
				{
					"inputs": [
						{
							"internalType": "address",
							"name": "",
							"type": "address"
						}
					],
					"name": "refundClaimed",
					"outputs": [
						{
							"internalType": "bool",
							"name": "",
							"type": "bool"
						}
					],
					"stateMutability": "view",
					"type": "function"
				},
				{
					"inputs": [],
					"name": "refundsEnabled",
					"outputs": [
						{
							"internalType": "bool",
							"name": "",
							"type": "bool"
						}
					],
					"stateMutability": "view",
					"type": "function"
				},
				{
					"inputs": [],
					"name": "renounceOwnership",
					"outputs": [],
					"stateMutability": "nonpayable",
					"type": "function"
				},
				{
					"inputs": [],
					"name": "softCap",
					"outputs": [
						{
							"internalType": "uint256",
							"name": "",
							"type": "uint256"
						}
					],
					"stateMutability": "view",
					"type": "function"
				},
				{
					"inputs": [],
					"name": "token",
					"outputs": [
						{
							"internalType": "contract IERC20",
							"name": "",
							"type": "address"
						}
					],
					"stateMutability": "view",
					"type": "function"
				},
				{
					"inputs": [],
					"name": "totalRaised",
					"outputs": [
						{
							"internalType": "uint256",
							"name": "",
							"type": "uint256"
						}
					],
					"stateMutability": "view",
					"type": "function"
				},
				{
					"inputs": [
						{
							"internalType": "address",
							"name": "newOwner",
							"type": "address"
						}
					],
					"name": "transferOwnership",
					"outputs": [],
					"stateMutability": "nonpayable",
					"type": "function"
				},
				{
					"inputs": [],
					"name": "withdrawUnsoldTokens",
					"outputs": [],
					"stateMutability": "nonpayable",
					"type": "function"
				}
			],
			"devdoc": {
				"kind": "dev",
				"methods": {
					"owner()": {
						"details": "Returns the address of the current owner."
					},
					"renounceOwnership()": {
						"details": "Leaves the contract without owner. It will not be possible to call `onlyOwner` functions. Can only be called by the current owner. NOTE: Renouncing ownership will leave the contract without an owner, thereby disabling any functionality that is only available to the owner."
					},
					"transferOwnership(address)": {
						"details": "Transfers ownership of the contract to a new account (`newOwner`). Can only be called by the current owner."
					}
				},
				"version": 1
			},
			"evm": {
				"assembly": "    /* \"contracts/presale.sol\":322:5314  contract TokenPresale is Ownable, ReentrancyGuard {... */\n  mstore(0x40, 0x80)\n    /* \"contracts/presale.sol\":1455:2455  constructor(... */\n  callvalue\n  dup1\n  iszero\n  tag_1\n  jumpi\n  revert(0x00, 0x00)\ntag_1:\n  pop\n  mload(0x40)\n  sub(codesize, bytecodeSize)\n  dup1\n  bytecodeSize\n  dup4\n  codecopy\n  dup2\n  dup2\n  add\n  0x40\n  mstore\n  dup2\n  add\n  swap1\n  tag_2\n  swap2\n  swap1\n  tag_3\n  jump\t// in\ntag_2:\n    /* \"@openzeppelin/contracts@4.9.0/access/Ownable.sol\":936:968  _transferOwnership(_msgSender()) */\n  tag_8\n    /* \"@openzeppelin/contracts@4.9.0/access/Ownable.sol\":955:967  _msgSender() */\n  tag_9\n    /* \"@openzeppelin/contracts@4.9.0/access/Ownable.sol\":955:965  _msgSender */\n  shl(0x20, tag_10)\n    /* \"@openzeppelin/contracts@4.9.0/access/Ownable.sol\":955:967  _msgSender() */\n  0x20\n  shr\n  jump\t// in\ntag_9:\n    /* \"@openzeppelin/contracts@4.9.0/access/Ownable.sol\":936:954  _transferOwnership */\n  shl(0x20, tag_11)\n    /* \"@openzeppelin/contracts@4.9.0/access/Ownable.sol\":936:968  _transferOwnership(_msgSender()) */\n  0x20\n  shr\n  jump\t// in\ntag_8:\n    /* \"@openzeppelin/contracts@4.9.0/security/ReentrancyGuard.sol\":1716:1717  1 */\n  0x01\n    /* \"@openzeppelin/contracts@4.9.0/security/ReentrancyGuard.sol\":1821:1828  _status */\n  dup1\n    /* \"@openzeppelin/contracts@4.9.0/security/ReentrancyGuard.sol\":1821:1843  _status = _NOT_ENTERED */\n  dup2\n  swap1\n  sstore\n  pop\n    /* \"contracts/presale.sol\":1768:1769  0 */\n  0x00\n    /* \"contracts/presale.sol\":1745:1770  _fundWallet != address(0) */\n  0xffffffffffffffffffffffffffffffffffffffff\n  and\n    /* \"contracts/presale.sol\":1745:1756  _fundWallet */\n  dup9\n    /* \"contracts/presale.sol\":1745:1770  _fundWallet != address(0) */\n  0xffffffffffffffffffffffffffffffffffffffff\n  and\n  sub\n    /* \"contracts/presale.sol\":1737:1794  require(_fundWallet != address(0), \"Invalid fund wallet\") */\n  tag_14\n  jumpi\n  mload(0x40)\n  0x08c379a000000000000000000000000000000000000000000000000000000000\n  dup2\n  mstore\n  0x04\n  add\n  tag_15\n  swap1\n  tag_16\n  jump\t// in\ntag_15:\n  mload(0x40)\n  dup1\n  swap2\n  sub\n  swap1\n  revert\ntag_14:\n    /* \"contracts/presale.sol\":1828:1829  0 */\n  0x00\n    /* \"contracts/presale.sol\":1813:1825  _presaleRate */\n  dup8\n    /* \"contracts/presale.sol\":1813:1829  _presaleRate > 0 */\n  gt\n    /* \"contracts/presale.sol\":1805:1861  require(_presaleRate > 0, \"Rate must be greater than 0\") */\n  tag_17\n  jumpi\n  mload(0x40)\n  0x08c379a000000000000000000000000000000000000000000000000000000000\n  dup2\n  mstore\n  0x04\n  add\n  tag_18\n  swap1\n  tag_19\n  jump\t// in\ntag_18:\n  mload(0x40)\n  dup1\n  swap2\n  sub\n  swap1\n  revert\ntag_17:\n    /* \"contracts/presale.sol\":1891:1892  0 */\n  0x00\n    /* \"contracts/presale.sol\":1880:1888  _softCap */\n  dup7\n    /* \"contracts/presale.sol\":1880:1892  _softCap > 0 */\n  gt\n    /* \"contracts/presale.sol\":1880:1915  _softCap > 0 && _hardCap > _softCap */\n  dup1\n  iszero\n  tag_20\n  jumpi\n  pop\n    /* \"contracts/presale.sol\":1907:1915  _softCap */\n  dup6\n    /* \"contracts/presale.sol\":1896:1904  _hardCap */\n  dup6\n    /* \"contracts/presale.sol\":1896:1915  _hardCap > _softCap */\n  gt\n    /* \"contracts/presale.sol\":1880:1915  _softCap > 0 && _hardCap > _softCap */\ntag_20:\n    /* \"contracts/presale.sol\":1872:1932  require(_softCap > 0 && _hardCap > _softCap, \"Invalid caps\") */\n  tag_21\n  jumpi\n  mload(0x40)\n  0x08c379a000000000000000000000000000000000000000000000000000000000\n  dup2\n  mstore\n  0x04\n  add\n  tag_22\n  swap1\n  tag_23\n  jump\t// in\ntag_22:\n  mload(0x40)\n  dup1\n  swap2\n  sub\n  swap1\n  revert\ntag_21:\n    /* \"contracts/presale.sol\":1967:1979  _minPurchase */\n  dup4\n    /* \"contracts/presale.sol\":1951:1963  _maxPurchase */\n  dup4\n    /* \"contracts/presale.sol\":1951:1979  _maxPurchase >= _minPurchase */\n  lt\n  iszero\n    /* \"contracts/presale.sol\":1943:2007  require(_maxPurchase >= _minPurchase, \"Invalid purchase limits\") */\n  tag_24\n  jumpi\n  mload(0x40)\n  0x08c379a000000000000000000000000000000000000000000000000000000000\n  dup2\n  mstore\n  0x04\n  add\n  tag_25\n  swap1\n  tag_26\n  jump\t// in\ntag_25:\n  mload(0x40)\n  dup1\n  swap2\n  sub\n  swap1\n  revert\ntag_24:\n    /* \"contracts/presale.sol\":2105:2147  0xF6e734e8206756aDD13daA30f2cdE3dDc8E8345f */\n  0xf6e734e8206756add13daa30f2cde3ddc8e8345f\n    /* \"contracts/presale.sol\":2090:2095  token */\n  0x02\n  0x00\n    /* \"contracts/presale.sol\":2090:2148  token = IERC20(0xF6e734e8206756aDD13daA30f2cdE3dDc8E8345f) */\n  0x0100\n  exp\n  dup2\n  sload\n  dup2\n  0xffffffffffffffffffffffffffffffffffffffff\n  mul\n  not\n  and\n  swap1\n  dup4\n  0xffffffffffffffffffffffffffffffffffffffff\n  and\n  mul\n  or\n  swap1\n  sstore\n  pop\n    /* \"contracts/presale.sol\":2172:2183  _fundWallet */\n  dup8\n    /* \"contracts/presale.sol\":2159:2169  fundWallet */\n  0x03\n  0x00\n    /* \"contracts/presale.sol\":2159:2183  fundWallet = _fundWallet */\n  0x0100\n  exp\n  dup2\n  sload\n  dup2\n  0xffffffffffffffffffffffffffffffffffffffff\n  mul\n  not\n  and\n  swap1\n  dup4\n  0xffffffffffffffffffffffffffffffffffffffff\n  and\n  mul\n  or\n  swap1\n  sstore\n  pop\n    /* \"contracts/presale.sol\":2208:2220  _presaleRate */\n  dup7\n    /* \"contracts/presale.sol\":2194:2205  presaleRate */\n  0x04\n    /* \"contracts/presale.sol\":2194:2220  presaleRate = _presaleRate */\n  dup2\n  swap1\n  sstore\n  pop\n    /* \"contracts/presale.sol\":2241:2249  _softCap */\n  dup6\n    /* \"contracts/presale.sol\":2231:2238  softCap */\n  0x05\n    /* \"contracts/presale.sol\":2231:2249  softCap = _softCap */\n  dup2\n  swap1\n  sstore\n  pop\n    /* \"contracts/presale.sol\":2270:2278  _hardCap */\n  dup5\n    /* \"contracts/presale.sol\":2260:2267  hardCap */\n  0x06\n    /* \"contracts/presale.sol\":2260:2278  hardCap = _hardCap */\n  dup2\n  swap1\n  sstore\n  pop\n    /* \"contracts/presale.sol\":2303:2315  _minPurchase */\n  dup4\n    /* \"contracts/presale.sol\":2289:2300  minPurchase */\n  0x07\n    /* \"contracts/presale.sol\":2289:2315  minPurchase = _minPurchase */\n  dup2\n  swap1\n  sstore\n  pop\n    /* \"contracts/presale.sol\":2340:2352  _maxPurchase */\n  dup3\n    /* \"contracts/presale.sol\":2326:2337  maxPurchase */\n  0x08\n    /* \"contracts/presale.sol\":2326:2352  maxPurchase = _maxPurchase */\n  dup2\n  swap1\n  sstore\n  pop\n    /* \"contracts/presale.sol\":2378:2391  _presaleStart */\n  dup2\n    /* \"contracts/presale.sol\":2363:2375  presaleStart */\n  0x09\n    /* \"contracts/presale.sol\":2363:2391  presaleStart = _presaleStart */\n  dup2\n  swap1\n  sstore\n  pop\n    /* \"contracts/presale.sol\":2431:2447  _presaleDuration */\n  dup1\n    /* \"contracts/presale.sol\":2415:2428  _presaleStart */\n  dup3\n    /* \"contracts/presale.sol\":2415:2447  _presaleStart + _presaleDuration */\n  tag_27\n  swap2\n  swap1\n  tag_28\n  jump\t// in\ntag_27:\n    /* \"contracts/presale.sol\":2402:2412  presaleEnd */\n  0x0a\n    /* \"contracts/presale.sol\":2402:2447  presaleEnd = _presaleStart + _presaleDuration */\n  dup2\n  swap1\n  sstore\n  pop\n    /* \"contracts/presale.sol\":1455:2455  constructor(... */\n  pop\n  pop\n  pop\n  pop\n  pop\n  pop\n  pop\n  pop\n    /* \"contracts/presale.sol\":322:5314  contract TokenPresale is Ownable, ReentrancyGuard {... */\n  jump(tag_29)\n    /* \"@openzeppelin/contracts@4.9.0/utils/Context.sol\":640:736  function _msgSender() internal view virtual returns (address) {... */\ntag_10:\n    /* \"@openzeppelin/contracts@4.9.0/utils/Context.sol\":693:700  address */\n  0x00\n    /* \"@openzeppelin/contracts@4.9.0/utils/Context.sol\":719:729  msg.sender */\n  caller\n    /* \"@openzeppelin/contracts@4.9.0/utils/Context.sol\":712:729  return msg.sender */\n  swap1\n  pop\n    /* \"@openzeppelin/contracts@4.9.0/utils/Context.sol\":640:736  function _msgSender() internal view virtual returns (address) {... */\n  swap1\n  jump\t// out\n    /* \"@openzeppelin/contracts@4.9.0/access/Ownable.sol\":2426:2613  function _transferOwnership(address newOwner) internal virtual {... */\ntag_11:\n    /* \"@openzeppelin/contracts@4.9.0/access/Ownable.sol\":2499:2515  address oldOwner */\n  0x00\n    /* \"@openzeppelin/contracts@4.9.0/access/Ownable.sol\":2518:2524  _owner */\n  0x00\n  0x00\n  swap1\n  sload\n  swap1\n  0x0100\n  exp\n  swap1\n  div\n  0xffffffffffffffffffffffffffffffffffffffff\n  and\n    /* \"@openzeppelin/contracts@4.9.0/access/Ownable.sol\":2499:2524  address oldOwner = _owner */\n  swap1\n  pop\n    /* \"@openzeppelin/contracts@4.9.0/access/Ownable.sol\":2543:2551  newOwner */\n  dup2\n    /* \"@openzeppelin/contracts@4.9.0/access/Ownable.sol\":2534:2540  _owner */\n  0x00\n  0x00\n    /* \"@openzeppelin/contracts@4.9.0/access/Ownable.sol\":2534:2551  _owner = newOwner */\n  0x0100\n  exp\n  dup2\n  sload\n  dup2\n  0xffffffffffffffffffffffffffffffffffffffff\n  mul\n  not\n  and\n  swap1\n  dup4\n  0xffffffffffffffffffffffffffffffffffffffff\n  and\n  mul\n  or\n  swap1\n  sstore\n  pop\n    /* \"@openzeppelin/contracts@4.9.0/access/Ownable.sol\":2597:2605  newOwner */\n  dup2\n    /* \"@openzeppelin/contracts@4.9.0/access/Ownable.sol\":2566:2606  OwnershipTransferred(oldOwner, newOwner) */\n  0xffffffffffffffffffffffffffffffffffffffff\n  and\n    /* \"@openzeppelin/contracts@4.9.0/access/Ownable.sol\":2587:2595  oldOwner */\n  dup2\n    /* \"@openzeppelin/contracts@4.9.0/access/Ownable.sol\":2566:2606  OwnershipTransferred(oldOwner, newOwner) */\n  0xffffffffffffffffffffffffffffffffffffffff\n  and\n  0x8be0079c531659141344cd1fd0a4f28419497f9722a3daafe3b4186f6b6457e0\n  mload(0x40)\n  mload(0x40)\n  dup1\n  swap2\n  sub\n  swap1\n  log3\n    /* \"@openzeppelin/contracts@4.9.0/access/Ownable.sol\":2489:2613  {... */\n  pop\n    /* \"@openzeppelin/contracts@4.9.0/access/Ownable.sol\":2426:2613  function _transferOwnership(address newOwner) internal virtual {... */\n  pop\n  jump\t// out\n    /* \"#utility.yul\":88:205   */\ntag_33:\n    /* \"#utility.yul\":197:198   */\n  0x00\n    /* \"#utility.yul\":194:195   */\n  0x00\n    /* \"#utility.yul\":187:199   */\n  revert\n    /* \"#utility.yul\":334:460   */\ntag_35:\n    /* \"#utility.yul\":371:378   */\n  0x00\n    /* \"#utility.yul\":411:453   */\n  0xffffffffffffffffffffffffffffffffffffffff\n    /* \"#utility.yul\":404:409   */\n  dup3\n    /* \"#utility.yul\":400:454   */\n  and\n    /* \"#utility.yul\":389:454   */\n  swap1\n  pop\n    /* \"#utility.yul\":334:460   */\n  swap2\n  swap1\n  pop\n  jump\t// out\n    /* \"#utility.yul\":466:570   */\ntag_36:\n    /* \"#utility.yul\":511:518   */\n  0x00\n    /* \"#utility.yul\":540:564   */\n  tag_58\n    /* \"#utility.yul\":558:563   */\n  dup3\n    /* \"#utility.yul\":540:564   */\n  tag_35\n  jump\t// in\ntag_58:\n    /* \"#utility.yul\":529:564   */\n  swap1\n  pop\n    /* \"#utility.yul\":466:570   */\n  swap2\n  swap1\n  pop\n  jump\t// out\n    /* \"#utility.yul\":576:714   */\ntag_37:\n    /* \"#utility.yul\":657:689   */\n  tag_60\n    /* \"#utility.yul\":683:688   */\n  dup2\n    /* \"#utility.yul\":657:689   */\n  tag_36\n  jump\t// in\ntag_60:\n    /* \"#utility.yul\":650:655   */\n  dup2\n    /* \"#utility.yul\":647:690   */\n  eq\n    /* \"#utility.yul\":637:708   */\n  tag_61\n  jumpi\n    /* \"#utility.yul\":704:705   */\n  0x00\n    /* \"#utility.yul\":701:702   */\n  0x00\n    /* \"#utility.yul\":694:706   */\n  revert\n    /* \"#utility.yul\":637:708   */\ntag_61:\n    /* \"#utility.yul\":576:714   */\n  pop\n  jump\t// out\n    /* \"#utility.yul\":720:879   */\ntag_38:\n    /* \"#utility.yul\":785:790   */\n  0x00\n    /* \"#utility.yul\":816:822   */\n  dup2\n    /* \"#utility.yul\":810:823   */\n  mload\n    /* \"#utility.yul\":801:823   */\n  swap1\n  pop\n    /* \"#utility.yul\":832:873   */\n  tag_63\n    /* \"#utility.yul\":867:872   */\n  dup2\n    /* \"#utility.yul\":832:873   */\n  tag_37\n  jump\t// in\ntag_63:\n    /* \"#utility.yul\":720:879   */\n  swap3\n  swap2\n  pop\n  pop\n  jump\t// out\n    /* \"#utility.yul\":885:962   */\ntag_39:\n    /* \"#utility.yul\":922:929   */\n  0x00\n    /* \"#utility.yul\":951:956   */\n  dup2\n    /* \"#utility.yul\":940:956   */\n  swap1\n  pop\n    /* \"#utility.yul\":885:962   */\n  swap2\n  swap1\n  pop\n  jump\t// out\n    /* \"#utility.yul\":968:1090   */\ntag_40:\n    /* \"#utility.yul\":1041:1065   */\n  tag_66\n    /* \"#utility.yul\":1059:1064   */\n  dup2\n    /* \"#utility.yul\":1041:1065   */\n  tag_39\n  jump\t// in\ntag_66:\n    /* \"#utility.yul\":1034:1039   */\n  dup2\n    /* \"#utility.yul\":1031:1066   */\n  eq\n    /* \"#utility.yul\":1021:1084   */\n  tag_67\n  jumpi\n    /* \"#utility.yul\":1080:1081   */\n  0x00\n    /* \"#utility.yul\":1077:1078   */\n  0x00\n    /* \"#utility.yul\":1070:1082   */\n  revert\n    /* \"#utility.yul\":1021:1084   */\ntag_67:\n    /* \"#utility.yul\":968:1090   */\n  pop\n  jump\t// out\n    /* \"#utility.yul\":1096:1239   */\ntag_41:\n    /* \"#utility.yul\":1153:1158   */\n  0x00\n    /* \"#utility.yul\":1184:1190   */\n  dup2\n    /* \"#utility.yul\":1178:1191   */\n  mload\n    /* \"#utility.yul\":1169:1191   */\n  swap1\n  pop\n    /* \"#utility.yul\":1200:1233   */\n  tag_69\n    /* \"#utility.yul\":1227:1232   */\n  dup2\n    /* \"#utility.yul\":1200:1233   */\n  tag_40\n  jump\t// in\ntag_69:\n    /* \"#utility.yul\":1096:1239   */\n  swap3\n  swap2\n  pop\n  pop\n  jump\t// out\n    /* \"#utility.yul\":1245:2709   */\ntag_3:\n    /* \"#utility.yul\":1386:1392   */\n  0x00\n    /* \"#utility.yul\":1394:1400   */\n  0x00\n    /* \"#utility.yul\":1402:1408   */\n  0x00\n    /* \"#utility.yul\":1410:1416   */\n  0x00\n    /* \"#utility.yul\":1418:1424   */\n  0x00\n    /* \"#utility.yul\":1426:1432   */\n  0x00\n    /* \"#utility.yul\":1434:1440   */\n  0x00\n    /* \"#utility.yul\":1442:1448   */\n  0x00\n    /* \"#utility.yul\":1491:1494   */\n  0x0100\n    /* \"#utility.yul\":1479:1488   */\n  dup10\n    /* \"#utility.yul\":1470:1477   */\n  dup12\n    /* \"#utility.yul\":1466:1489   */\n  sub\n    /* \"#utility.yul\":1462:1495   */\n  slt\n    /* \"#utility.yul\":1459:1579   */\n  iszero\n  tag_71\n  jumpi\n    /* \"#utility.yul\":1498:1577   */\n  tag_72\n  tag_33\n  jump\t// in\ntag_72:\n    /* \"#utility.yul\":1459:1579   */\ntag_71:\n    /* \"#utility.yul\":1618:1619   */\n  0x00\n    /* \"#utility.yul\":1643:1715   */\n  tag_73\n    /* \"#utility.yul\":1707:1714   */\n  dup12\n    /* \"#utility.yul\":1698:1704   */\n  dup3\n    /* \"#utility.yul\":1687:1696   */\n  dup13\n    /* \"#utility.yul\":1683:1705   */\n  add\n    /* \"#utility.yul\":1643:1715   */\n  tag_38\n  jump\t// in\ntag_73:\n    /* \"#utility.yul\":1633:1715   */\n  swap9\n  pop\n    /* \"#utility.yul\":1589:1725   */\n  pop\n    /* \"#utility.yul\":1764:1766   */\n  0x20\n    /* \"#utility.yul\":1790:1854   */\n  tag_74\n    /* \"#utility.yul\":1846:1853   */\n  dup12\n    /* \"#utility.yul\":1837:1843   */\n  dup3\n    /* \"#utility.yul\":1826:1835   */\n  dup13\n    /* \"#utility.yul\":1822:1844   */\n  add\n    /* \"#utility.yul\":1790:1854   */\n  tag_41\n  jump\t// in\ntag_74:\n    /* \"#utility.yul\":1780:1854   */\n  swap8\n  pop\n    /* \"#utility.yul\":1735:1864   */\n  pop\n    /* \"#utility.yul\":1903:1905   */\n  0x40\n    /* \"#utility.yul\":1929:1993   */\n  tag_75\n    /* \"#utility.yul\":1985:1992   */\n  dup12\n    /* \"#utility.yul\":1976:1982   */\n  dup3\n    /* \"#utility.yul\":1965:1974   */\n  dup13\n    /* \"#utility.yul\":1961:1983   */\n  add\n    /* \"#utility.yul\":1929:1993   */\n  tag_41\n  jump\t// in\ntag_75:\n    /* \"#utility.yul\":1919:1993   */\n  swap7\n  pop\n    /* \"#utility.yul\":1874:2003   */\n  pop\n    /* \"#utility.yul\":2042:2044   */\n  0x60\n    /* \"#utility.yul\":2068:2132   */\n  tag_76\n    /* \"#utility.yul\":2124:2131   */\n  dup12\n    /* \"#utility.yul\":2115:2121   */\n  dup3\n    /* \"#utility.yul\":2104:2113   */\n  dup13\n    /* \"#utility.yul\":2100:2122   */\n  add\n    /* \"#utility.yul\":2068:2132   */\n  tag_41\n  jump\t// in\ntag_76:\n    /* \"#utility.yul\":2058:2132   */\n  swap6\n  pop\n    /* \"#utility.yul\":2013:2142   */\n  pop\n    /* \"#utility.yul\":2181:2184   */\n  0x80\n    /* \"#utility.yul\":2208:2272   */\n  tag_77\n    /* \"#utility.yul\":2264:2271   */\n  dup12\n    /* \"#utility.yul\":2255:2261   */\n  dup3\n    /* \"#utility.yul\":2244:2253   */\n  dup13\n    /* \"#utility.yul\":2240:2262   */\n  add\n    /* \"#utility.yul\":2208:2272   */\n  tag_41\n  jump\t// in\ntag_77:\n    /* \"#utility.yul\":2198:2272   */\n  swap5\n  pop\n    /* \"#utility.yul\":2152:2282   */\n  pop\n    /* \"#utility.yul\":2321:2324   */\n  0xa0\n    /* \"#utility.yul\":2348:2412   */\n  tag_78\n    /* \"#utility.yul\":2404:2411   */\n  dup12\n    /* \"#utility.yul\":2395:2401   */\n  dup3\n    /* \"#utility.yul\":2384:2393   */\n  dup13\n    /* \"#utility.yul\":2380:2402   */\n  add\n    /* \"#utility.yul\":2348:2412   */\n  tag_41\n  jump\t// in\ntag_78:\n    /* \"#utility.yul\":2338:2412   */\n  swap4\n  pop\n    /* \"#utility.yul\":2292:2422   */\n  pop\n    /* \"#utility.yul\":2461:2464   */\n  0xc0\n    /* \"#utility.yul\":2488:2552   */\n  tag_79\n    /* \"#utility.yul\":2544:2551   */\n  dup12\n    /* \"#utility.yul\":2535:2541   */\n  dup3\n    /* \"#utility.yul\":2524:2533   */\n  dup13\n    /* \"#utility.yul\":2520:2542   */\n  add\n    /* \"#utility.yul\":2488:2552   */\n  tag_41\n  jump\t// in\ntag_79:\n    /* \"#utility.yul\":2478:2552   */\n  swap3\n  pop\n    /* \"#utility.yul\":2432:2562   */\n  pop\n    /* \"#utility.yul\":2601:2604   */\n  0xe0\n    /* \"#utility.yul\":2628:2692   */\n  tag_80\n    /* \"#utility.yul\":2684:2691   */\n  dup12\n    /* \"#utility.yul\":2675:2681   */\n  dup3\n    /* \"#utility.yul\":2664:2673   */\n  dup13\n    /* \"#utility.yul\":2660:2682   */\n  add\n    /* \"#utility.yul\":2628:2692   */\n  tag_41\n  jump\t// in\ntag_80:\n    /* \"#utility.yul\":2618:2692   */\n  swap2\n  pop\n    /* \"#utility.yul\":2572:2702   */\n  pop\n    /* \"#utility.yul\":1245:2709   */\n  swap3\n  swap6\n  swap9\n  pop\n  swap3\n  swap6\n  swap9\n  swap1\n  swap4\n  swap7\n  pop\n  jump\t// out\n    /* \"#utility.yul\":2715:2884   */\ntag_42:\n    /* \"#utility.yul\":2799:2810   */\n  0x00\n    /* \"#utility.yul\":2833:2839   */\n  dup3\n    /* \"#utility.yul\":2828:2831   */\n  dup3\n    /* \"#utility.yul\":2821:2840   */\n  mstore\n    /* \"#utility.yul\":2873:2877   */\n  0x20\n    /* \"#utility.yul\":2868:2871   */\n  dup3\n    /* \"#utility.yul\":2864:2878   */\n  add\n    /* \"#utility.yul\":2849:2878   */\n  swap1\n  pop\n    /* \"#utility.yul\":2715:2884   */\n  swap3\n  swap2\n  pop\n  pop\n  jump\t// out\n    /* \"#utility.yul\":2890:3059   */\ntag_43:\n    /* \"#utility.yul\":3030:3051   */\n  0x496e76616c69642066756e642077616c6c657400000000000000000000000000\n    /* \"#utility.yul\":3026:3027   */\n  0x00\n    /* \"#utility.yul\":3018:3024   */\n  dup3\n    /* \"#utility.yul\":3014:3028   */\n  add\n    /* \"#utility.yul\":3007:3052   */\n  mstore\n    /* \"#utility.yul\":2890:3059   */\n  pop\n  jump\t// out\n    /* \"#utility.yul\":3065:3431   */\ntag_44:\n    /* \"#utility.yul\":3207:3210   */\n  0x00\n    /* \"#utility.yul\":3228:3295   */\n  tag_84\n    /* \"#utility.yul\":3292:3294   */\n  0x13\n    /* \"#utility.yul\":3287:3290   */\n  dup4\n    /* \"#utility.yul\":3228:3295   */\n  tag_42\n  jump\t// in\ntag_84:\n    /* \"#utility.yul\":3221:3295   */\n  swap2\n  pop\n    /* \"#utility.yul\":3304:3397   */\n  tag_85\n    /* \"#utility.yul\":3393:3396   */\n  dup3\n    /* \"#utility.yul\":3304:3397   */\n  tag_43\n  jump\t// in\ntag_85:\n    /* \"#utility.yul\":3422:3424   */\n  0x20\n    /* \"#utility.yul\":3417:3420   */\n  dup3\n    /* \"#utility.yul\":3413:3425   */\n  add\n    /* \"#utility.yul\":3406:3425   */\n  swap1\n  pop\n    /* \"#utility.yul\":3065:3431   */\n  swap2\n  swap1\n  pop\n  jump\t// out\n    /* \"#utility.yul\":3437:3856   */\ntag_16:\n    /* \"#utility.yul\":3603:3607   */\n  0x00\n    /* \"#utility.yul\":3641:3643   */\n  0x20\n    /* \"#utility.yul\":3630:3639   */\n  dup3\n    /* \"#utility.yul\":3626:3644   */\n  add\n    /* \"#utility.yul\":3618:3644   */\n  swap1\n  pop\n    /* \"#utility.yul\":3690:3699   */\n  dup2\n    /* \"#utility.yul\":3684:3688   */\n  dup2\n    /* \"#utility.yul\":3680:3700   */\n  sub\n    /* \"#utility.yul\":3676:3677   */\n  0x00\n    /* \"#utility.yul\":3665:3674   */\n  dup4\n    /* \"#utility.yul\":3661:3678   */\n  add\n    /* \"#utility.yul\":3654:3701   */\n  mstore\n    /* \"#utility.yul\":3718:3849   */\n  tag_87\n    /* \"#utility.yul\":3844:3848   */\n  dup2\n    /* \"#utility.yul\":3718:3849   */\n  tag_44\n  jump\t// in\ntag_87:\n    /* \"#utility.yul\":3710:3849   */\n  swap1\n  pop\n    /* \"#utility.yul\":3437:3856   */\n  swap2\n  swap1\n  pop\n  jump\t// out\n    /* \"#utility.yul\":3862:4039   */\ntag_45:\n    /* \"#utility.yul\":4002:4031   */\n  0x52617465206d7573742062652067726561746572207468616e20300000000000\n    /* \"#utility.yul\":3998:3999   */\n  0x00\n    /* \"#utility.yul\":3990:3996   */\n  dup3\n    /* \"#utility.yul\":3986:4000   */\n  add\n    /* \"#utility.yul\":3979:4032   */\n  mstore\n    /* \"#utility.yul\":3862:4039   */\n  pop\n  jump\t// out\n    /* \"#utility.yul\":4045:4411   */\ntag_46:\n    /* \"#utility.yul\":4187:4190   */\n  0x00\n    /* \"#utility.yul\":4208:4275   */\n  tag_90\n    /* \"#utility.yul\":4272:4274   */\n  0x1b\n    /* \"#utility.yul\":4267:4270   */\n  dup4\n    /* \"#utility.yul\":4208:4275   */\n  tag_42\n  jump\t// in\ntag_90:\n    /* \"#utility.yul\":4201:4275   */\n  swap2\n  pop\n    /* \"#utility.yul\":4284:4377   */\n  tag_91\n    /* \"#utility.yul\":4373:4376   */\n  dup3\n    /* \"#utility.yul\":4284:4377   */\n  tag_45\n  jump\t// in\ntag_91:\n    /* \"#utility.yul\":4402:4404   */\n  0x20\n    /* \"#utility.yul\":4397:4400   */\n  dup3\n    /* \"#utility.yul\":4393:4405   */\n  add\n    /* \"#utility.yul\":4386:4405   */\n  swap1\n  pop\n    /* \"#utility.yul\":4045:4411   */\n  swap2\n  swap1\n  pop\n  jump\t// out\n    /* \"#utility.yul\":4417:4836   */\ntag_19:\n    /* \"#utility.yul\":4583:4587   */\n  0x00\n    /* \"#utility.yul\":4621:4623   */\n  0x20\n    /* \"#utility.yul\":4610:4619   */\n  dup3\n    /* \"#utility.yul\":4606:4624   */\n  add\n    /* \"#utility.yul\":4598:4624   */\n  swap1\n  pop\n    /* \"#utility.yul\":4670:4679   */\n  dup2\n    /* \"#utility.yul\":4664:4668   */\n  dup2\n    /* \"#utility.yul\":4660:4680   */\n  sub\n    /* \"#utility.yul\":4656:4657   */\n  0x00\n    /* \"#utility.yul\":4645:4654   */\n  dup4\n    /* \"#utility.yul\":4641:4658   */\n  add\n    /* \"#utility.yul\":4634:4681   */\n  mstore\n    /* \"#utility.yul\":4698:4829   */\n  tag_93\n    /* \"#utility.yul\":4824:4828   */\n  dup2\n    /* \"#utility.yul\":4698:4829   */\n  tag_46\n  jump\t// in\ntag_93:\n    /* \"#utility.yul\":4690:4829   */\n  swap1\n  pop\n    /* \"#utility.yul\":4417:4836   */\n  swap2\n  swap1\n  pop\n  jump\t// out\n    /* \"#utility.yul\":4842:5004   */\ntag_47:\n    /* \"#utility.yul\":4982:4996   */\n  0x496e76616c696420636170730000000000000000000000000000000000000000\n    /* \"#utility.yul\":4978:4979   */\n  0x00\n    /* \"#utility.yul\":4970:4976   */\n  dup3\n    /* \"#utility.yul\":4966:4980   */\n  add\n    /* \"#utility.yul\":4959:4997   */\n  mstore\n    /* \"#utility.yul\":4842:5004   */\n  pop\n  jump\t// out\n    /* \"#utility.yul\":5010:5376   */\ntag_48:\n    /* \"#utility.yul\":5152:5155   */\n  0x00\n    /* \"#utility.yul\":5173:5240   */\n  tag_96\n    /* \"#utility.yul\":5237:5239   */\n  0x0c\n    /* \"#utility.yul\":5232:5235   */\n  dup4\n    /* \"#utility.yul\":5173:5240   */\n  tag_42\n  jump\t// in\ntag_96:\n    /* \"#utility.yul\":5166:5240   */\n  swap2\n  pop\n    /* \"#utility.yul\":5249:5342   */\n  tag_97\n    /* \"#utility.yul\":5338:5341   */\n  dup3\n    /* \"#utility.yul\":5249:5342   */\n  tag_47\n  jump\t// in\ntag_97:\n    /* \"#utility.yul\":5367:5369   */\n  0x20\n    /* \"#utility.yul\":5362:5365   */\n  dup3\n    /* \"#utility.yul\":5358:5370   */\n  add\n    /* \"#utility.yul\":5351:5370   */\n  swap1\n  pop\n    /* \"#utility.yul\":5010:5376   */\n  swap2\n  swap1\n  pop\n  jump\t// out\n    /* \"#utility.yul\":5382:5801   */\ntag_23:\n    /* \"#utility.yul\":5548:5552   */\n  0x00\n    /* \"#utility.yul\":5586:5588   */\n  0x20\n    /* \"#utility.yul\":5575:5584   */\n  dup3\n    /* \"#utility.yul\":5571:5589   */\n  add\n    /* \"#utility.yul\":5563:5589   */\n  swap1\n  pop\n    /* \"#utility.yul\":5635:5644   */\n  dup2\n    /* \"#utility.yul\":5629:5633   */\n  dup2\n    /* \"#utility.yul\":5625:5645   */\n  sub\n    /* \"#utility.yul\":5621:5622   */\n  0x00\n    /* \"#utility.yul\":5610:5619   */\n  dup4\n    /* \"#utility.yul\":5606:5623   */\n  add\n    /* \"#utility.yul\":5599:5646   */\n  mstore\n    /* \"#utility.yul\":5663:5794   */\n  tag_99\n    /* \"#utility.yul\":5789:5793   */\n  dup2\n    /* \"#utility.yul\":5663:5794   */\n  tag_48\n  jump\t// in\ntag_99:\n    /* \"#utility.yul\":5655:5794   */\n  swap1\n  pop\n    /* \"#utility.yul\":5382:5801   */\n  swap2\n  swap1\n  pop\n  jump\t// out\n    /* \"#utility.yul\":5807:5980   */\ntag_49:\n    /* \"#utility.yul\":5947:5972   */\n  0x496e76616c6964207075726368617365206c696d697473000000000000000000\n    /* \"#utility.yul\":5943:5944   */\n  0x00\n    /* \"#utility.yul\":5935:5941   */\n  dup3\n    /* \"#utility.yul\":5931:5945   */\n  add\n    /* \"#utility.yul\":5924:5973   */\n  mstore\n    /* \"#utility.yul\":5807:5980   */\n  pop\n  jump\t// out\n    /* \"#utility.yul\":5986:6352   */\ntag_50:\n    /* \"#utility.yul\":6128:6131   */\n  0x00\n    /* \"#utility.yul\":6149:6216   */\n  tag_102\n    /* \"#utility.yul\":6213:6215   */\n  0x17\n    /* \"#utility.yul\":6208:6211   */\n  dup4\n    /* \"#utility.yul\":6149:6216   */\n  tag_42\n  jump\t// in\ntag_102:\n    /* \"#utility.yul\":6142:6216   */\n  swap2\n  pop\n    /* \"#utility.yul\":6225:6318   */\n  tag_103\n    /* \"#utility.yul\":6314:6317   */\n  dup3\n    /* \"#utility.yul\":6225:6318   */\n  tag_49\n  jump\t// in\ntag_103:\n    /* \"#utility.yul\":6343:6345   */\n  0x20\n    /* \"#utility.yul\":6338:6341   */\n  dup3\n    /* \"#utility.yul\":6334:6346   */\n  add\n    /* \"#utility.yul\":6327:6346   */\n  swap1\n  pop\n    /* \"#utility.yul\":5986:6352   */\n  swap2\n  swap1\n  pop\n  jump\t// out\n    /* \"#utility.yul\":6358:6777   */\ntag_26:\n    /* \"#utility.yul\":6524:6528   */\n  0x00\n    /* \"#utility.yul\":6562:6564   */\n  0x20\n    /* \"#utility.yul\":6551:6560   */\n  dup3\n    /* \"#utility.yul\":6547:6565   */\n  add\n    /* \"#utility.yul\":6539:6565   */\n  swap1\n  pop\n    /* \"#utility.yul\":6611:6620   */\n  dup2\n    /* \"#utility.yul\":6605:6609   */\n  dup2\n    /* \"#utility.yul\":6601:6621   */\n  sub\n    /* \"#utility.yul\":6597:6598   */\n  0x00\n    /* \"#utility.yul\":6586:6595   */\n  dup4\n    /* \"#utility.yul\":6582:6599   */\n  add\n    /* \"#utility.yul\":6575:6622   */\n  mstore\n    /* \"#utility.yul\":6639:6770   */\n  tag_105\n    /* \"#utility.yul\":6765:6769   */\n  dup2\n    /* \"#utility.yul\":6639:6770   */\n  tag_50\n  jump\t// in\ntag_105:\n    /* \"#utility.yul\":6631:6770   */\n  swap1\n  pop\n    /* \"#utility.yul\":6358:6777   */\n  swap2\n  swap1\n  pop\n  jump\t// out\n    /* \"#utility.yul\":6783:6963   */\ntag_51:\n    /* \"#utility.yul\":6831:6908   */\n  0x4e487b7100000000000000000000000000000000000000000000000000000000\n    /* \"#utility.yul\":6828:6829   */\n  0x00\n    /* \"#utility.yul\":6821:6909   */\n  mstore\n    /* \"#utility.yul\":6928:6932   */\n  0x11\n    /* \"#utility.yul\":6925:6926   */\n  0x04\n    /* \"#utility.yul\":6918:6933   */\n  mstore\n    /* \"#utility.yul\":6952:6956   */\n  0x24\n    /* \"#utility.yul\":6949:6950   */\n  0x00\n    /* \"#utility.yul\":6942:6957   */\n  revert\n    /* \"#utility.yul\":6969:7160   */\ntag_28:\n    /* \"#utility.yul\":7009:7012   */\n  0x00\n    /* \"#utility.yul\":7028:7048   */\n  tag_108\n    /* \"#utility.yul\":7046:7047   */\n  dup3\n    /* \"#utility.yul\":7028:7048   */\n  tag_39\n  jump\t// in\ntag_108:\n    /* \"#utility.yul\":7023:7048   */\n  swap2\n  pop\n    /* \"#utility.yul\":7062:7082   */\n  tag_109\n    /* \"#utility.yul\":7080:7081   */\n  dup4\n    /* \"#utility.yul\":7062:7082   */\n  tag_39\n  jump\t// in\ntag_109:\n    /* \"#utility.yul\":7057:7082   */\n  swap3\n  pop\n    /* \"#utility.yul\":7105:7106   */\n  dup3\n    /* \"#utility.yul\":7102:7103   */\n  dup3\n    /* \"#utility.yul\":7098:7107   */\n  add\n    /* \"#utility.yul\":7091:7107   */\n  swap1\n  pop\n    /* \"#utility.yul\":7126:7129   */\n  dup1\n    /* \"#utility.yul\":7123:7124   */\n  dup3\n    /* \"#utility.yul\":7120:7130   */\n  gt\n    /* \"#utility.yul\":7117:7153   */\n  iszero\n  tag_110\n  jumpi\n    /* \"#utility.yul\":7133:7151   */\n  tag_111\n  tag_51\n  jump\t// in\ntag_111:\n    /* \"#utility.yul\":7117:7153   */\ntag_110:\n    /* \"#utility.yul\":6969:7160   */\n  swap3\n  swap2\n  pop\n  pop\n  jump\t// out\n    /* \"contracts/presale.sol\":322:5314  contract TokenPresale is Ownable, ReentrancyGuard {... */\ntag_29:\n  dataSize(sub_0)\n  dup1\n  dataOffset(sub_0)\n  0x00\n  codecopy\n  0x00\n  return\nstop\n\nsub_0: assembly {\n        /* \"contracts/presale.sol\":322:5314  contract TokenPresale is Ownable, ReentrancyGuard {... */\n      mstore(0x40, 0x80)\n      jumpi(tag_1, lt(calldatasize, 0x04))\n      shr(0xe0, calldataload(0x00))\n      dup1\n      0x906a26e0\n      gt\n      tag_25\n      jumpi\n      dup1\n      0xc8bdbfb6\n      gt\n      tag_26\n      jumpi\n      dup1\n      0xc8bdbfb6\n      eq\n      tag_19\n      jumpi\n      dup1\n      0xd11711a2\n      eq\n      tag_20\n      jumpi\n      dup1\n      0xde8801e5\n      eq\n      tag_21\n      jumpi\n      dup1\n      0xf2fde38b\n      eq\n      tag_22\n      jumpi\n      dup1\n      0xfb86a404\n      eq\n      tag_23\n      jumpi\n      dup1\n      0xfc0c546a\n      eq\n      tag_24\n      jumpi\n      jump(tag_1)\n    tag_26:\n      dup1\n      0x906a26e0\n      eq\n      tag_13\n      jumpi\n      dup1\n      0x977b055b\n      eq\n      tag_14\n      jumpi\n      dup1\n      0x9e8c708e\n      eq\n      tag_15\n      jumpi\n      dup1\n      0xa24bcf46\n      eq\n      tag_16\n      jumpi\n      dup1\n      0xb557478a\n      eq\n      tag_17\n      jumpi\n      dup1\n      0xc5c4744c\n      eq\n      tag_18\n      jumpi\n      jump(tag_1)\n    tag_25:\n      dup1\n      0x4bb278f3\n      gt\n      tag_27\n      jumpi\n      dup1\n      0x4bb278f3\n      eq\n      tag_7\n      jumpi\n      dup1\n      0x532f1179\n      eq\n      tag_8\n      jumpi\n      dup1\n      0x664a1ad6\n      eq\n      tag_9\n      jumpi\n      dup1\n      0x6d498093\n      eq\n      tag_10\n      jumpi\n      dup1\n      0x715018a6\n      eq\n      tag_11\n      jumpi\n      dup1\n      0x8da5cb5b\n      eq\n      tag_12\n      jumpi\n      jump(tag_1)\n    tag_27:\n      dup1\n      0x229f3e29\n      eq\n      tag_2\n      jumpi\n      dup1\n      0x33b5b62e\n      eq\n      tag_3\n      jumpi\n      dup1\n      0x42e94c90\n      eq\n      tag_4\n      jumpi\n      dup1\n      0x42f39381\n      eq\n      tag_5\n      jumpi\n      dup1\n      0x48c54b9d\n      eq\n      tag_6\n      jumpi\n    tag_1:\n      revert(0x00, 0x00)\n        /* \"contracts/presale.sol\":906:931  uint256 public presaleEnd */\n    tag_2:\n      callvalue\n      dup1\n      iszero\n      tag_28\n      jumpi\n      revert(0x00, 0x00)\n    tag_28:\n      pop\n      tag_29\n      tag_30\n      jump\t// in\n    tag_29:\n      mload(0x40)\n      tag_31\n      swap2\n      swap1\n      tag_32\n      jump\t// in\n    tag_31:\n      mload(0x40)\n      dup1\n      swap2\n      sub\n      swap1\n      return\n        /* \"contracts/presale.sol\":675:701  uint256 public minPurchase */\n    tag_3:\n      callvalue\n      dup1\n      iszero\n      tag_33\n      jumpi\n      revert(0x00, 0x00)\n    tag_33:\n      pop\n      tag_34\n      tag_35\n      jump\t// in\n    tag_34:\n      mload(0x40)\n      tag_36\n      swap2\n      swap1\n      tag_32\n      jump\t// in\n    tag_36:\n      mload(0x40)\n      dup1\n      swap2\n      sub\n      swap1\n      return\n        /* \"contracts/presale.sol\":1119:1167  mapping(address => uint256) public contributions */\n    tag_4:\n      callvalue\n      dup1\n      iszero\n      tag_37\n      jumpi\n      revert(0x00, 0x00)\n    tag_37:\n      pop\n      tag_38\n      0x04\n      dup1\n      calldatasize\n      sub\n      dup2\n      add\n      swap1\n      tag_39\n      swap2\n      swap1\n      tag_40\n      jump\t// in\n    tag_39:\n      tag_41\n      jump\t// in\n    tag_38:\n      mload(0x40)\n      tag_42\n      swap2\n      swap1\n      tag_32\n      jump\t// in\n    tag_42:\n      mload(0x40)\n      dup1\n      swap2\n      sub\n      swap1\n      return\n        /* \"contracts/presale.sol\":486:512  uint256 public presaleRate */\n    tag_5:\n      callvalue\n      dup1\n      iszero\n      tag_43\n      jumpi\n      revert(0x00, 0x00)\n    tag_43:\n      pop\n      tag_44\n      tag_45\n      jump\t// in\n    tag_44:\n      mload(0x40)\n      tag_46\n      swap2\n      swap1\n      tag_32\n      jump\t// in\n    tag_46:\n      mload(0x40)\n      dup1\n      swap2\n      sub\n      swap1\n      return\n        /* \"contracts/presale.sol\":4056:4521  function claimTokens() external nonReentrant {... */\n    tag_6:\n      callvalue\n      dup1\n      iszero\n      tag_47\n      jumpi\n      revert(0x00, 0x00)\n    tag_47:\n      pop\n      tag_48\n      tag_49\n      jump\t// in\n    tag_48:\n      stop\n        /* \"contracts/presale.sol\":3572:4044  function finalize() external onlyOwner {... */\n    tag_7:\n      callvalue\n      dup1\n      iszero\n      tag_50\n      jumpi\n      revert(0x00, 0x00)\n    tag_50:\n      pop\n      tag_51\n      tag_52\n      jump\t// in\n    tag_51:\n      stop\n        /* \"contracts/presale.sol\":1080:1106  bool public refundsEnabled */\n    tag_8:\n      callvalue\n      dup1\n      iszero\n      tag_53\n      jumpi\n      revert(0x00, 0x00)\n    tag_53:\n      pop\n      tag_54\n      tag_55\n      jump\t// in\n    tag_54:\n      mload(0x40)\n      tag_56\n      swap2\n      swap1\n      tag_57\n      jump\t// in\n    tag_56:\n      mload(0x40)\n      dup1\n      swap2\n      sub\n      swap1\n      return\n        /* \"contracts/presale.sol\":440:473  address payable public fundWallet */\n    tag_9:\n      callvalue\n      dup1\n      iszero\n      tag_58\n      jumpi\n      revert(0x00, 0x00)\n    tag_58:\n      pop\n      tag_59\n      tag_60\n      jump\t// in\n    tag_59:\n      mload(0x40)\n      tag_61\n      swap2\n      swap1\n      tag_62\n      jump\t// in\n    tag_61:\n      mload(0x40)\n      dup1\n      swap2\n      sub\n      swap1\n      return\n        /* \"contracts/presale.sol\":1045:1073  bool public presaleFinalized */\n    tag_10:\n      callvalue\n      dup1\n      iszero\n      tag_63\n      jumpi\n      revert(0x00, 0x00)\n    tag_63:\n      pop\n      tag_64\n      tag_65\n      jump\t// in\n    tag_64:\n      mload(0x40)\n      tag_66\n      swap2\n      swap1\n      tag_57\n      jump\t// in\n    tag_66:\n      mload(0x40)\n      dup1\n      swap2\n      sub\n      swap1\n      return\n        /* \"@openzeppelin/contracts@4.9.0/access/Ownable.sol\":1824:1925  function renounceOwnership() public virtual onlyOwner {... */\n    tag_11:\n      callvalue\n      dup1\n      iszero\n      tag_67\n      jumpi\n      revert(0x00, 0x00)\n    tag_67:\n      pop\n      tag_68\n      tag_69\n      jump\t// in\n    tag_68:\n      stop\n        /* \"@openzeppelin/contracts@4.9.0/access/Ownable.sol\":1201:1286  function owner() public view virtual returns (address) {... */\n    tag_12:\n      callvalue\n      dup1\n      iszero\n      tag_70\n      jumpi\n      revert(0x00, 0x00)\n    tag_70:\n      pop\n      tag_71\n      tag_72\n      jump\t// in\n    tag_71:\n      mload(0x40)\n      tag_73\n      swap2\n      swap1\n      tag_74\n      jump\t// in\n    tag_73:\n      mload(0x40)\n      dup1\n      swap2\n      sub\n      swap1\n      return\n        /* \"contracts/presale.sol\":553:575  uint256 public softCap */\n    tag_13:\n      callvalue\n      dup1\n      iszero\n      tag_75\n      jumpi\n      revert(0x00, 0x00)\n    tag_75:\n      pop\n      tag_76\n      tag_77\n      jump\t// in\n    tag_76:\n      mload(0x40)\n      tag_78\n      swap2\n      swap1\n      tag_32\n      jump\t// in\n    tag_78:\n      mload(0x40)\n      dup1\n      swap2\n      sub\n      swap1\n      return\n        /* \"contracts/presale.sol\":752:778  uint256 public maxPurchase */\n    tag_14:\n      callvalue\n      dup1\n      iszero\n      tag_79\n      jumpi\n      revert(0x00, 0x00)\n    tag_79:\n      pop\n      tag_80\n      tag_81\n      jump\t// in\n    tag_80:\n      mload(0x40)\n      tag_82\n      swap2\n      swap1\n      tag_32\n      jump\t// in\n    tag_82:\n      mload(0x40)\n      dup1\n      swap2\n      sub\n      swap1\n      return\n        /* \"contracts/presale.sol\":4939:5311  function recoverERC20(address tokenAddress) external onlyOwner {... */\n    tag_15:\n      callvalue\n      dup1\n      iszero\n      tag_83\n      jumpi\n      revert(0x00, 0x00)\n    tag_83:\n      pop\n      tag_84\n      0x04\n      dup1\n      calldatasize\n      sub\n      dup2\n      add\n      swap1\n      tag_85\n      swap2\n      swap1\n      tag_40\n      jump\t// in\n    tag_85:\n      tag_86\n      jump\t// in\n    tag_84:\n      stop\n        /* \"contracts/presale.sol\":3387:3560  function calculateTokenAmount(uint256 ethAmount) public view returns (uint256) {... */\n    tag_16:\n      callvalue\n      dup1\n      iszero\n      tag_87\n      jumpi\n      revert(0x00, 0x00)\n    tag_87:\n      pop\n      tag_88\n      0x04\n      dup1\n      calldatasize\n      sub\n      dup2\n      add\n      swap1\n      tag_89\n      swap2\n      swap1\n      tag_90\n      jump\t// in\n    tag_89:\n      tag_91\n      jump\t// in\n    tag_88:\n      mload(0x40)\n      tag_92\n      swap2\n      swap1\n      tag_32\n      jump\t// in\n    tag_92:\n      mload(0x40)\n      dup1\n      swap2\n      sub\n      swap1\n      return\n        /* \"contracts/presale.sol\":1174:1219  mapping(address => bool) public refundClaimed */\n    tag_17:\n      callvalue\n      dup1\n      iszero\n      tag_93\n      jumpi\n      revert(0x00, 0x00)\n    tag_93:\n      pop\n      tag_94\n      0x04\n      dup1\n      calldatasize\n      sub\n      dup2\n      add\n      swap1\n      tag_95\n      swap2\n      swap1\n      tag_40\n      jump\t// in\n    tag_95:\n      tag_96\n      jump\t// in\n    tag_94:\n      mload(0x40)\n      tag_97\n      swap2\n      swap1\n      tag_57\n      jump\t// in\n    tag_97:\n      mload(0x40)\n      dup1\n      swap2\n      sub\n      swap1\n      return\n        /* \"contracts/presale.sol\":981:1007  uint256 public totalRaised */\n    tag_18:\n      callvalue\n      dup1\n      iszero\n      tag_98\n      jumpi\n      revert(0x00, 0x00)\n    tag_98:\n      pop\n      tag_99\n      tag_100\n      jump\t// in\n    tag_99:\n      mload(0x40)\n      tag_101\n      swap2\n      swap1\n      tag_32\n      jump\t// in\n    tag_101:\n      mload(0x40)\n      dup1\n      swap2\n      sub\n      swap1\n      return\n        /* \"contracts/presale.sol\":4533:4862  function withdrawUnsoldTokens() external onlyOwner {... */\n    tag_19:\n      callvalue\n      dup1\n      iszero\n      tag_102\n      jumpi\n      revert(0x00, 0x00)\n    tag_102:\n      pop\n      tag_103\n      tag_104\n      jump\t// in\n    tag_103:\n      stop\n        /* \"contracts/presale.sol\":2467:3375  function participate() external payable nonReentrant {... */\n    tag_20:\n      tag_105\n      tag_106\n      jump\t// in\n    tag_105:\n      stop\n        /* \"contracts/presale.sol\":835:862  uint256 public presaleStart */\n    tag_21:\n      callvalue\n      dup1\n      iszero\n      tag_107\n      jumpi\n      revert(0x00, 0x00)\n    tag_107:\n      pop\n      tag_108\n      tag_109\n      jump\t// in\n    tag_108:\n      mload(0x40)\n      tag_110\n      swap2\n      swap1\n      tag_32\n      jump\t// in\n    tag_110:\n      mload(0x40)\n      dup1\n      swap2\n      sub\n      swap1\n      return\n        /* \"@openzeppelin/contracts@4.9.0/access/Ownable.sol\":2074:2272  function transferOwnership(address newOwner) public virtual onlyOwner {... */\n    tag_22:\n      callvalue\n      dup1\n      iszero\n      tag_111\n      jumpi\n      revert(0x00, 0x00)\n    tag_111:\n      pop\n      tag_112\n      0x04\n      dup1\n      calldatasize\n      sub\n      dup2\n      add\n      swap1\n      tag_113\n      swap2\n      swap1\n      tag_40\n      jump\t// in\n    tag_113:\n      tag_114\n      jump\t// in\n    tag_112:\n      stop\n        /* \"contracts/presale.sol\":614:636  uint256 public hardCap */\n    tag_23:\n      callvalue\n      dup1\n      iszero\n      tag_115\n      jumpi\n      revert(0x00, 0x00)\n    tag_115:\n      pop\n      tag_116\n      tag_117\n      jump\t// in\n    tag_116:\n      mload(0x40)\n      tag_118\n      swap2\n      swap1\n      tag_32\n      jump\t// in\n    tag_118:\n      mload(0x40)\n      dup1\n      swap2\n      sub\n      swap1\n      return\n        /* \"contracts/presale.sol\":414:433  IERC20 public token */\n    tag_24:\n      callvalue\n      dup1\n      iszero\n      tag_119\n      jumpi\n      revert(0x00, 0x00)\n    tag_119:\n      pop\n      tag_120\n      tag_121\n      jump\t// in\n    tag_120:\n      mload(0x40)\n      tag_122\n      swap2\n      swap1\n      tag_123\n      jump\t// in\n    tag_122:\n      mload(0x40)\n      dup1\n      swap2\n      sub\n      swap1\n      return\n        /* \"contracts/presale.sol\":906:931  uint256 public presaleEnd */\n    tag_30:\n      sload(0x0a)\n      dup2\n      jump\t// out\n        /* \"contracts/presale.sol\":675:701  uint256 public minPurchase */\n    tag_35:\n      sload(0x07)\n      dup2\n      jump\t// out\n        /* \"contracts/presale.sol\":1119:1167  mapping(address => uint256) public contributions */\n    tag_41:\n      mstore(0x20, 0x0d)\n      dup1\n      0x00\n      mstore\n      keccak256(0x00, 0x40)\n      0x00\n      swap2\n      pop\n      swap1\n      pop\n      sload\n      dup2\n      jump\t// out\n        /* \"contracts/presale.sol\":486:512  uint256 public presaleRate */\n    tag_45:\n      sload(0x04)\n      dup2\n      jump\t// out\n        /* \"contracts/presale.sol\":4056:4521  function claimTokens() external nonReentrant {... */\n    tag_49:\n        /* \"@openzeppelin/contracts@4.9.0/security/ReentrancyGuard.sol\":2261:2282  _nonReentrantBefore() */\n      tag_125\n        /* \"@openzeppelin/contracts@4.9.0/security/ReentrancyGuard.sol\":2261:2280  _nonReentrantBefore */\n      tag_126\n        /* \"@openzeppelin/contracts@4.9.0/security/ReentrancyGuard.sol\":2261:2282  _nonReentrantBefore() */\n      jump\t// in\n    tag_125:\n        /* \"contracts/presale.sol\":4120:4136  presaleFinalized */\n      0x0c\n      0x00\n      swap1\n      sload\n      swap1\n      0x0100\n      exp\n      swap1\n      div\n      0xff\n      and\n        /* \"contracts/presale.sol\":4112:4162  require(presaleFinalized, \"Presale not finalized\") */\n      tag_128\n      jumpi\n      mload(0x40)\n      0x08c379a000000000000000000000000000000000000000000000000000000000\n      dup2\n      mstore\n      0x04\n      add\n      tag_129\n      swap1\n      tag_130\n      jump\t// in\n    tag_129:\n      mload(0x40)\n      dup1\n      swap2\n      sub\n      swap1\n      revert\n    tag_128:\n        /* \"contracts/presale.sol\":4182:4196  refundsEnabled */\n      0x0c\n      0x01\n      swap1\n      sload\n      swap1\n      0x0100\n      exp\n      swap1\n      div\n      0xff\n      and\n        /* \"contracts/presale.sol\":4181:4196  !refundsEnabled */\n      iszero\n        /* \"contracts/presale.sol\":4173:4215  require(!refundsEnabled, \"Presale failed\") */\n      tag_131\n      jumpi\n      mload(0x40)\n      0x08c379a000000000000000000000000000000000000000000000000000000000\n      dup2\n      mstore\n      0x04\n      add\n      tag_132\n      swap1\n      tag_133\n      jump\t// in\n    tag_132:\n      mload(0x40)\n      dup1\n      swap2\n      sub\n      swap1\n      revert\n    tag_131:\n        /* \"contracts/presale.sol\":4262:4263  0 */\n      0x00\n        /* \"contracts/presale.sol\":4234:4247  contributions */\n      0x0d\n        /* \"contracts/presale.sol\":4234:4259  contributions[msg.sender] */\n      0x00\n        /* \"contracts/presale.sol\":4248:4258  msg.sender */\n      caller\n        /* \"contracts/presale.sol\":4234:4259  contributions[msg.sender] */\n      0xffffffffffffffffffffffffffffffffffffffff\n      and\n      0xffffffffffffffffffffffffffffffffffffffff\n      and\n      dup2\n      mstore\n      0x20\n      add\n      swap1\n      dup2\n      mstore\n      0x20\n      add\n      0x00\n      keccak256\n      sload\n        /* \"contracts/presale.sol\":4234:4263  contributions[msg.sender] > 0 */\n      gt\n        /* \"contracts/presale.sol\":4226:4289  require(contributions[msg.sender] > 0, \"No contribution found\") */\n      tag_134\n      jumpi\n      mload(0x40)\n      0x08c379a000000000000000000000000000000000000000000000000000000000\n      dup2\n      mstore\n      0x04\n      add\n      tag_135\n      swap1\n      tag_136\n      jump\t// in\n    tag_135:\n      mload(0x40)\n      dup1\n      swap2\n      sub\n      swap1\n      revert\n    tag_134:\n        /* \"contracts/presale.sol\":4310:4329  uint256 tokenAmount */\n      0x00\n        /* \"contracts/presale.sol\":4332:4379  calculateTokenAmount(contributions[msg.sender]) */\n      tag_137\n        /* \"contracts/presale.sol\":4353:4366  contributions */\n      0x0d\n        /* \"contracts/presale.sol\":4353:4378  contributions[msg.sender] */\n      0x00\n        /* \"contracts/presale.sol\":4367:4377  msg.sender */\n      caller\n        /* \"contracts/presale.sol\":4353:4378  contributions[msg.sender] */\n      0xffffffffffffffffffffffffffffffffffffffff\n      and\n      0xffffffffffffffffffffffffffffffffffffffff\n      and\n      dup2\n      mstore\n      0x20\n      add\n      swap1\n      dup2\n      mstore\n      0x20\n      add\n      0x00\n      keccak256\n      sload\n        /* \"contracts/presale.sol\":4332:4352  calculateTokenAmount */\n      tag_91\n        /* \"contracts/presale.sol\":4332:4379  calculateTokenAmount(contributions[msg.sender]) */\n      jump\t// in\n    tag_137:\n        /* \"contracts/presale.sol\":4310:4379  uint256 tokenAmount = calculateTokenAmount(contributions[msg.sender]) */\n      swap1\n      pop\n        /* \"contracts/presale.sol\":4418:4419  0 */\n      0x00\n        /* \"contracts/presale.sol\":4390:4403  contributions */\n      0x0d\n        /* \"contracts/presale.sol\":4390:4415  contributions[msg.sender] */\n      0x00\n        /* \"contracts/presale.sol\":4404:4414  msg.sender */\n      caller\n        /* \"contracts/presale.sol\":4390:4415  contributions[msg.sender] */\n      0xffffffffffffffffffffffffffffffffffffffff\n      and\n      0xffffffffffffffffffffffffffffffffffffffff\n      and\n      dup2\n      mstore\n      0x20\n      add\n      swap1\n      dup2\n      mstore\n      0x20\n      add\n      0x00\n      keccak256\n        /* \"contracts/presale.sol\":4390:4419  contributions[msg.sender] = 0 */\n      dup2\n      swap1\n      sstore\n      pop\n        /* \"contracts/presale.sol\":4448:4453  token */\n      0x02\n      0x00\n      swap1\n      sload\n      swap1\n      0x0100\n      exp\n      swap1\n      div\n      0xffffffffffffffffffffffffffffffffffffffff\n      and\n        /* \"contracts/presale.sol\":4448:4462  token.transfer */\n      0xffffffffffffffffffffffffffffffffffffffff\n      and\n      0xa9059cbb\n        /* \"contracts/presale.sol\":4463:4473  msg.sender */\n      caller\n        /* \"contracts/presale.sol\":4475:4486  tokenAmount */\n      dup4\n        /* \"contracts/presale.sol\":4448:4487  token.transfer(msg.sender, tokenAmount) */\n      mload(0x40)\n      dup4\n      0xffffffff\n      and\n      0xe0\n      shl\n      dup2\n      mstore\n      0x04\n      add\n      tag_138\n      swap3\n      swap2\n      swap1\n      tag_139\n      jump\t// in\n    tag_138:\n      0x20\n      mload(0x40)\n      dup1\n      dup4\n      sub\n      dup2\n      0x00\n      dup8\n      gas\n      call\n      iszero\n      dup1\n      iszero\n      tag_141\n      jumpi\n      returndatacopy(0x00, 0x00, returndatasize)\n      revert(0x00, returndatasize)\n    tag_141:\n      pop\n      pop\n      pop\n      pop\n      mload(0x40)\n      returndatasize\n      not(0x1f)\n      0x1f\n      dup3\n      add\n      and\n      dup3\n      add\n      dup1\n      0x40\n      mstore\n      pop\n      dup2\n      add\n      swap1\n      tag_142\n      swap2\n      swap1\n      tag_143\n      jump\t// in\n    tag_142:\n        /* \"contracts/presale.sol\":4440:4513  require(token.transfer(msg.sender, tokenAmount), \"Token transfer failed\") */\n      tag_144\n      jumpi\n      mload(0x40)\n      0x08c379a000000000000000000000000000000000000000000000000000000000\n      dup2\n      mstore\n      0x04\n      add\n      tag_145\n      swap1\n      tag_146\n      jump\t// in\n    tag_145:\n      mload(0x40)\n      dup1\n      swap2\n      sub\n      swap1\n      revert\n    tag_144:\n        /* \"contracts/presale.sol\":4101:4521  {... */\n      pop\n        /* \"@openzeppelin/contracts@4.9.0/security/ReentrancyGuard.sol\":2303:2323  _nonReentrantAfter() */\n      tag_147\n        /* \"@openzeppelin/contracts@4.9.0/security/ReentrancyGuard.sol\":2303:2321  _nonReentrantAfter */\n      tag_148\n        /* \"@openzeppelin/contracts@4.9.0/security/ReentrancyGuard.sol\":2303:2323  _nonReentrantAfter() */\n      jump\t// in\n    tag_147:\n        /* \"contracts/presale.sol\":4056:4521  function claimTokens() external nonReentrant {... */\n      jump\t// out\n        /* \"contracts/presale.sol\":3572:4044  function finalize() external onlyOwner {... */\n    tag_52:\n        /* \"@openzeppelin/contracts@4.9.0/access/Ownable.sol\":1094:1107  _checkOwner() */\n      tag_150\n        /* \"@openzeppelin/contracts@4.9.0/access/Ownable.sol\":1094:1105  _checkOwner */\n      tag_151\n        /* \"@openzeppelin/contracts@4.9.0/access/Ownable.sol\":1094:1107  _checkOwner() */\n      jump\t// in\n    tag_150:\n        /* \"contracts/presale.sol\":3648:3658  presaleEnd */\n      sload(0x0a)\n        /* \"contracts/presale.sol\":3630:3645  block.timestamp */\n      timestamp\n        /* \"contracts/presale.sol\":3630:3658  block.timestamp > presaleEnd */\n      gt\n        /* \"contracts/presale.sol\":3630:3684  block.timestamp > presaleEnd || totalRaised >= hardCap */\n      dup1\n      tag_153\n      jumpi\n      pop\n        /* \"contracts/presale.sol\":3677:3684  hardCap */\n      sload(0x06)\n        /* \"contracts/presale.sol\":3662:3673  totalRaised */\n      sload(0x0b)\n        /* \"contracts/presale.sol\":3662:3684  totalRaised >= hardCap */\n      lt\n      iszero\n        /* \"contracts/presale.sol\":3630:3684  block.timestamp > presaleEnd || totalRaised >= hardCap */\n    tag_153:\n        /* \"contracts/presale.sol\":3622:3708  require(block.timestamp > presaleEnd || totalRaised >= hardCap, \"Cannot finalize yet\") */\n      tag_154\n      jumpi\n      mload(0x40)\n      0x08c379a000000000000000000000000000000000000000000000000000000000\n      dup2\n      mstore\n      0x04\n      add\n      tag_155\n      swap1\n      tag_156\n      jump\t// in\n    tag_155:\n      mload(0x40)\n      dup1\n      swap2\n      sub\n      swap1\n      revert\n    tag_154:\n        /* \"contracts/presale.sol\":3728:3744  presaleFinalized */\n      0x0c\n      0x00\n      swap1\n      sload\n      swap1\n      0x0100\n      exp\n      swap1\n      div\n      0xff\n      and\n        /* \"contracts/presale.sol\":3727:3744  !presaleFinalized */\n      iszero\n        /* \"contracts/presale.sol\":3719:3766  require(!presaleFinalized, \"Already finalized\") */\n      tag_157\n      jumpi\n      mload(0x40)\n      0x08c379a000000000000000000000000000000000000000000000000000000000\n      dup2\n      mstore\n      0x04\n      add\n      tag_158\n      swap1\n      tag_159\n      jump\t// in\n    tag_158:\n      mload(0x40)\n      dup1\n      swap2\n      sub\n      swap1\n      revert\n    tag_157:\n        /* \"contracts/presale.sol\":3806:3810  true */\n      0x01\n        /* \"contracts/presale.sol\":3787:3803  presaleFinalized */\n      0x0c\n      0x00\n        /* \"contracts/presale.sol\":3787:3810  presaleFinalized = true */\n      0x0100\n      exp\n      dup2\n      sload\n      dup2\n      0xff\n      mul\n      not\n      and\n      swap1\n      dup4\n      iszero\n      iszero\n      mul\n      or\n      swap1\n      sstore\n      pop\n        /* \"contracts/presale.sol\":3850:3857  softCap */\n      sload(0x05)\n        /* \"contracts/presale.sol\":3835:3846  totalRaised */\n      sload(0x0b)\n        /* \"contracts/presale.sol\":3835:3857  totalRaised >= softCap */\n      lt\n        /* \"contracts/presale.sol\":3831:3982  if (totalRaised >= softCap) {... */\n      tag_160\n      jumpi\n        /* \"contracts/presale.sol\":3874:3884  fundWallet */\n      0x03\n      0x00\n      swap1\n      sload\n      swap1\n      0x0100\n      exp\n      swap1\n      div\n      0xffffffffffffffffffffffffffffffffffffffff\n      and\n        /* \"contracts/presale.sol\":3874:3893  fundWallet.transfer */\n      0xffffffffffffffffffffffffffffffffffffffff\n      and\n        /* \"contracts/presale.sol\":3874:3916  fundWallet.transfer(address(this).balance) */\n      0x08fc\n        /* \"contracts/presale.sol\":3894:3915  address(this).balance */\n      selfbalance\n        /* \"contracts/presale.sol\":3874:3916  fundWallet.transfer(address(this).balance) */\n      swap1\n      dup2\n      iszero\n      mul\n      swap1\n      mload(0x40)\n      0x00\n      mload(0x40)\n      dup1\n      dup4\n      sub\n      dup2\n      dup6\n      dup9\n      dup9\n      call\n      swap4\n      pop\n      pop\n      pop\n      pop\n      iszero\n      dup1\n      iszero\n      tag_162\n      jumpi\n      returndatacopy(0x00, 0x00, returndatasize)\n      revert(0x00, returndatasize)\n    tag_162:\n      pop\n        /* \"contracts/presale.sol\":3831:3982  if (totalRaised >= softCap) {... */\n      jump(tag_163)\n    tag_160:\n        /* \"contracts/presale.sol\":3966:3970  true */\n      0x01\n        /* \"contracts/presale.sol\":3949:3963  refundsEnabled */\n      0x0c\n      0x01\n        /* \"contracts/presale.sol\":3949:3970  refundsEnabled = true */\n      0x0100\n      exp\n      dup2\n      sload\n      dup2\n      0xff\n      mul\n      not\n      and\n      swap1\n      dup4\n      iszero\n      iszero\n      mul\n      or\n      swap1\n      sstore\n      pop\n        /* \"contracts/presale.sol\":3831:3982  if (totalRaised >= softCap) {... */\n    tag_163:\n        /* \"contracts/presale.sol\":4007:4036  PresaleFinalized(totalRaised) */\n      0xba77ddc9e26933f19061480be65d8ea3dcf88fb70efd476df9515333cabee8c4\n        /* \"contracts/presale.sol\":4024:4035  totalRaised */\n      sload(0x0b)\n        /* \"contracts/presale.sol\":4007:4036  PresaleFinalized(totalRaised) */\n      mload(0x40)\n      tag_164\n      swap2\n      swap1\n      tag_32\n      jump\t// in\n    tag_164:\n      mload(0x40)\n      dup1\n      swap2\n      sub\n      swap1\n      log1\n        /* \"contracts/presale.sol\":3572:4044  function finalize() external onlyOwner {... */\n      jump\t// out\n        /* \"contracts/presale.sol\":1080:1106  bool public refundsEnabled */\n    tag_55:\n      0x0c\n      0x01\n      swap1\n      sload\n      swap1\n      0x0100\n      exp\n      swap1\n      div\n      0xff\n      and\n      dup2\n      jump\t// out\n        /* \"contracts/presale.sol\":440:473  address payable public fundWallet */\n    tag_60:\n      0x03\n      0x00\n      swap1\n      sload\n      swap1\n      0x0100\n      exp\n      swap1\n      div\n      0xffffffffffffffffffffffffffffffffffffffff\n      and\n      dup2\n      jump\t// out\n        /* \"contracts/presale.sol\":1045:1073  bool public presaleFinalized */\n    tag_65:\n      0x0c\n      0x00\n      swap1\n      sload\n      swap1\n      0x0100\n      exp\n      swap1\n      div\n      0xff\n      and\n      dup2\n      jump\t// out\n        /* \"@openzeppelin/contracts@4.9.0/access/Ownable.sol\":1824:1925  function renounceOwnership() public virtual onlyOwner {... */\n    tag_69:\n        /* \"@openzeppelin/contracts@4.9.0/access/Ownable.sol\":1094:1107  _checkOwner() */\n      tag_166\n        /* \"@openzeppelin/contracts@4.9.0/access/Ownable.sol\":1094:1105  _checkOwner */\n      tag_151\n        /* \"@openzeppelin/contracts@4.9.0/access/Ownable.sol\":1094:1107  _checkOwner() */\n      jump\t// in\n    tag_166:\n        /* \"@openzeppelin/contracts@4.9.0/access/Ownable.sol\":1888:1918  _transferOwnership(address(0)) */\n      tag_168\n        /* \"@openzeppelin/contracts@4.9.0/access/Ownable.sol\":1915:1916  0 */\n      0x00\n        /* \"@openzeppelin/contracts@4.9.0/access/Ownable.sol\":1888:1906  _transferOwnership */\n      tag_169\n        /* \"@openzeppelin/contracts@4.9.0/access/Ownable.sol\":1888:1918  _transferOwnership(address(0)) */\n      jump\t// in\n    tag_168:\n        /* \"@openzeppelin/contracts@4.9.0/access/Ownable.sol\":1824:1925  function renounceOwnership() public virtual onlyOwner {... */\n      jump\t// out\n        /* \"@openzeppelin/contracts@4.9.0/access/Ownable.sol\":1201:1286  function owner() public view virtual returns (address) {... */\n    tag_72:\n        /* \"@openzeppelin/contracts@4.9.0/access/Ownable.sol\":1247:1254  address */\n      0x00\n        /* \"@openzeppelin/contracts@4.9.0/access/Ownable.sol\":1273:1279  _owner */\n      0x00\n      0x00\n      swap1\n      sload\n      swap1\n      0x0100\n      exp\n      swap1\n      div\n      0xffffffffffffffffffffffffffffffffffffffff\n      and\n        /* \"@openzeppelin/contracts@4.9.0/access/Ownable.sol\":1266:1279  return _owner */\n      swap1\n      pop\n        /* \"@openzeppelin/contracts@4.9.0/access/Ownable.sol\":1201:1286  function owner() public view virtual returns (address) {... */\n      swap1\n      jump\t// out\n        /* \"contracts/presale.sol\":553:575  uint256 public softCap */\n    tag_77:\n      sload(0x05)\n      dup2\n      jump\t// out\n        /* \"contracts/presale.sol\":752:778  uint256 public maxPurchase */\n    tag_81:\n      sload(0x08)\n      dup2\n      jump\t// out\n        /* \"contracts/presale.sol\":4939:5311  function recoverERC20(address tokenAddress) external onlyOwner {... */\n    tag_86:\n        /* \"@openzeppelin/contracts@4.9.0/access/Ownable.sol\":1094:1107  _checkOwner() */\n      tag_172\n        /* \"@openzeppelin/contracts@4.9.0/access/Ownable.sol\":1094:1105  _checkOwner */\n      tag_151\n        /* \"@openzeppelin/contracts@4.9.0/access/Ownable.sol\":1094:1107  _checkOwner() */\n      jump\t// in\n    tag_172:\n        /* \"contracts/presale.sol\":5045:5050  token */\n      0x02\n      0x00\n      swap1\n      sload\n      swap1\n      0x0100\n      exp\n      swap1\n      div\n      0xffffffffffffffffffffffffffffffffffffffff\n      and\n        /* \"contracts/presale.sol\":5021:5051  tokenAddress != address(token) */\n      0xffffffffffffffffffffffffffffffffffffffff\n      and\n        /* \"contracts/presale.sol\":5021:5033  tokenAddress */\n      dup2\n        /* \"contracts/presale.sol\":5021:5051  tokenAddress != address(token) */\n      0xffffffffffffffffffffffffffffffffffffffff\n      and\n      sub\n        /* \"contracts/presale.sol\":5013:5084  require(tokenAddress != address(token), \"Cannot recover presale token\") */\n      tag_174\n      jumpi\n      mload(0x40)\n      0x08c379a000000000000000000000000000000000000000000000000000000000\n      dup2\n      mstore\n      0x04\n      add\n      tag_175\n      swap1\n      tag_176\n      jump\t// in\n    tag_175:\n      mload(0x40)\n      dup1\n      swap2\n      sub\n      swap1\n      revert\n    tag_174:\n        /* \"contracts/presale.sol\":5105:5126  IERC20 tokenToRecover */\n      0x00\n        /* \"contracts/presale.sol\":5136:5148  tokenAddress */\n      dup2\n        /* \"contracts/presale.sol\":5105:5149  IERC20 tokenToRecover = IERC20(tokenAddress) */\n      swap1\n      pop\n        /* \"contracts/presale.sol\":5160:5175  uint256 balance */\n      0x00\n        /* \"contracts/presale.sol\":5178:5192  tokenToRecover */\n      dup2\n        /* \"contracts/presale.sol\":5178:5202  tokenToRecover.balanceOf */\n      0xffffffffffffffffffffffffffffffffffffffff\n      and\n      0x70a08231\n        /* \"contracts/presale.sol\":5211:5215  this */\n      address\n        /* \"contracts/presale.sol\":5178:5217  tokenToRecover.balanceOf(address(this)) */\n      mload(0x40)\n      dup3\n      0xffffffff\n      and\n      0xe0\n      shl\n      dup2\n      mstore\n      0x04\n      add\n      tag_177\n      swap2\n      swap1\n      tag_74\n      jump\t// in\n    tag_177:\n      0x20\n      mload(0x40)\n      dup1\n      dup4\n      sub\n      dup2\n      dup7\n      gas\n      staticcall\n      iszero\n      dup1\n      iszero\n      tag_179\n      jumpi\n      returndatacopy(0x00, 0x00, returndatasize)\n      revert(0x00, returndatasize)\n    tag_179:\n      pop\n      pop\n      pop\n      pop\n      mload(0x40)\n      returndatasize\n      not(0x1f)\n      0x1f\n      dup3\n      add\n      and\n      dup3\n      add\n      dup1\n      0x40\n      mstore\n      pop\n      dup2\n      add\n      swap1\n      tag_180\n      swap2\n      swap1\n      tag_181\n      jump\t// in\n    tag_180:\n        /* \"contracts/presale.sol\":5160:5217  uint256 balance = tokenToRecover.balanceOf(address(this)) */\n      swap1\n      pop\n        /* \"contracts/presale.sol\":5236:5250  tokenToRecover */\n      dup2\n        /* \"contracts/presale.sol\":5236:5259  tokenToRecover.transfer */\n      0xffffffffffffffffffffffffffffffffffffffff\n      and\n      0xa9059cbb\n        /* \"contracts/presale.sol\":5260:5267  owner() */\n      tag_182\n        /* \"contracts/presale.sol\":5260:5265  owner */\n      tag_72\n        /* \"contracts/presale.sol\":5260:5267  owner() */\n      jump\t// in\n    tag_182:\n        /* \"contracts/presale.sol\":5269:5276  balance */\n      dup4\n        /* \"contracts/presale.sol\":5236:5277  tokenToRecover.transfer(owner(), balance) */\n      mload(0x40)\n      dup4\n      0xffffffff\n      and\n      0xe0\n      shl\n      dup2\n      mstore\n      0x04\n      add\n      tag_183\n      swap3\n      swap2\n      swap1\n      tag_139\n      jump\t// in\n    tag_183:\n      0x20\n      mload(0x40)\n      dup1\n      dup4\n      sub\n      dup2\n      0x00\n      dup8\n      gas\n      call\n      iszero\n      dup1\n      iszero\n      tag_185\n      jumpi\n      returndatacopy(0x00, 0x00, returndatasize)\n      revert(0x00, returndatasize)\n    tag_185:\n      pop\n      pop\n      pop\n      pop\n      mload(0x40)\n      returndatasize\n      not(0x1f)\n      0x1f\n      dup3\n      add\n      and\n      dup3\n      add\n      dup1\n      0x40\n      mstore\n      pop\n      dup2\n      add\n      swap1\n      tag_186\n      swap2\n      swap1\n      tag_143\n      jump\t// in\n    tag_186:\n        /* \"contracts/presale.sol\":5228:5303  require(tokenToRecover.transfer(owner(), balance), \"Token recovery failed\") */\n      tag_187\n      jumpi\n      mload(0x40)\n      0x08c379a000000000000000000000000000000000000000000000000000000000\n      dup2\n      mstore\n      0x04\n      add\n      tag_188\n      swap1\n      tag_189\n      jump\t// in\n    tag_188:\n      mload(0x40)\n      dup1\n      swap2\n      sub\n      swap1\n      revert\n    tag_187:\n        /* \"contracts/presale.sol\":5002:5311  {... */\n      pop\n      pop\n        /* \"contracts/presale.sol\":4939:5311  function recoverERC20(address tokenAddress) external onlyOwner {... */\n      pop\n      jump\t// out\n        /* \"contracts/presale.sol\":3387:3560  function calculateTokenAmount(uint256 ethAmount) public view returns (uint256) {... */\n    tag_91:\n        /* \"contracts/presale.sol\":3457:3464  uint256 */\n      0x00\n        /* \"contracts/presale.sol\":3484:3524  ethAmount.mul(presaleRate).mul(10 ** 18) */\n      tag_191\n        /* \"contracts/presale.sol\":3515:3523  10 ** 18 */\n      0x0de0b6b3a7640000\n        /* \"contracts/presale.sol\":3484:3510  ethAmount.mul(presaleRate) */\n      tag_192\n        /* \"contracts/presale.sol\":3498:3509  presaleRate */\n      sload(0x04)\n        /* \"contracts/presale.sol\":3484:3493  ethAmount */\n      dup6\n        /* \"contracts/presale.sol\":3484:3497  ethAmount.mul */\n      tag_193\n      swap1\n        /* \"contracts/presale.sol\":3484:3510  ethAmount.mul(presaleRate) */\n      swap2\n      swap1\n      0xffffffff\n      and\n      jump\t// in\n    tag_192:\n        /* \"contracts/presale.sol\":3484:3514  ethAmount.mul(presaleRate).mul */\n      tag_193\n      swap1\n        /* \"contracts/presale.sol\":3484:3524  ethAmount.mul(presaleRate).mul(10 ** 18) */\n      swap2\n      swap1\n      0xffffffff\n      and\n      jump\t// in\n    tag_191:\n        /* \"contracts/presale.sol\":3477:3524  return ethAmount.mul(presaleRate).mul(10 ** 18) */\n      swap1\n      pop\n        /* \"contracts/presale.sol\":3387:3560  function calculateTokenAmount(uint256 ethAmount) public view returns (uint256) {... */\n      swap2\n      swap1\n      pop\n      jump\t// out\n        /* \"contracts/presale.sol\":1174:1219  mapping(address => bool) public refundClaimed */\n    tag_96:\n      mstore(0x20, 0x0e)\n      dup1\n      0x00\n      mstore\n      keccak256(0x00, 0x40)\n      0x00\n      swap2\n      pop\n      sload\n      swap1\n      0x0100\n      exp\n      swap1\n      div\n      0xff\n      and\n      dup2\n      jump\t// out\n        /* \"contracts/presale.sol\":981:1007  uint256 public totalRaised */\n    tag_100:\n      sload(0x0b)\n      dup2\n      jump\t// out\n        /* \"contracts/presale.sol\":4533:4862  function withdrawUnsoldTokens() external onlyOwner {... */\n    tag_104:\n        /* \"@openzeppelin/contracts@4.9.0/access/Ownable.sol\":1094:1107  _checkOwner() */\n      tag_195\n        /* \"@openzeppelin/contracts@4.9.0/access/Ownable.sol\":1094:1105  _checkOwner */\n      tag_151\n        /* \"@openzeppelin/contracts@4.9.0/access/Ownable.sol\":1094:1107  _checkOwner() */\n      jump\t// in\n    tag_195:\n        /* \"contracts/presale.sol\":4603:4619  presaleFinalized */\n      0x0c\n      0x00\n      swap1\n      sload\n      swap1\n      0x0100\n      exp\n      swap1\n      div\n      0xff\n      and\n        /* \"contracts/presale.sol\":4595:4645  require(presaleFinalized, \"Presale not finalized\") */\n      tag_197\n      jumpi\n      mload(0x40)\n      0x08c379a000000000000000000000000000000000000000000000000000000000\n      dup2\n      mstore\n      0x04\n      add\n      tag_198\n      swap1\n      tag_130\n      jump\t// in\n    tag_198:\n      mload(0x40)\n      dup1\n      swap2\n      sub\n      swap1\n      revert\n    tag_197:\n        /* \"contracts/presale.sol\":4665:4679  refundsEnabled */\n      0x0c\n      0x01\n      swap1\n      sload\n      swap1\n      0x0100\n      exp\n      swap1\n      div\n      0xff\n      and\n        /* \"contracts/presale.sol\":4664:4679  !refundsEnabled */\n      iszero\n        /* \"contracts/presale.sol\":4656:4698  require(!refundsEnabled, \"Presale failed\") */\n      tag_199\n      jumpi\n      mload(0x40)\n      0x08c379a000000000000000000000000000000000000000000000000000000000\n      dup2\n      mstore\n      0x04\n      add\n      tag_200\n      swap1\n      tag_133\n      jump\t// in\n    tag_200:\n      mload(0x40)\n      dup1\n      swap2\n      sub\n      swap1\n      revert\n    tag_199:\n        /* \"contracts/presale.sol\":4719:4739  uint256 unsoldTokens */\n      0x00\n        /* \"contracts/presale.sol\":4742:4747  token */\n      0x02\n      0x00\n      swap1\n      sload\n      swap1\n      0x0100\n      exp\n      swap1\n      div\n      0xffffffffffffffffffffffffffffffffffffffff\n      and\n        /* \"contracts/presale.sol\":4742:4757  token.balanceOf */\n      0xffffffffffffffffffffffffffffffffffffffff\n      and\n      0x70a08231\n        /* \"contracts/presale.sol\":4766:4770  this */\n      address\n        /* \"contracts/presale.sol\":4742:4772  token.balanceOf(address(this)) */\n      mload(0x40)\n      dup3\n      0xffffffff\n      and\n      0xe0\n      shl\n      dup2\n      mstore\n      0x04\n      add\n      tag_201\n      swap2\n      swap1\n      tag_74\n      jump\t// in\n    tag_201:\n      0x20\n      mload(0x40)\n      dup1\n      dup4\n      sub\n      dup2\n      dup7\n      gas\n      staticcall\n      iszero\n      dup1\n      iszero\n      tag_203\n      jumpi\n      returndatacopy(0x00, 0x00, returndatasize)\n      revert(0x00, returndatasize)\n    tag_203:\n      pop\n      pop\n      pop\n      pop\n      mload(0x40)\n      returndatasize\n      not(0x1f)\n      0x1f\n      dup3\n      add\n      and\n      dup3\n      add\n      dup1\n      0x40\n      mstore\n      pop\n      dup2\n      add\n      swap1\n      tag_204\n      swap2\n      swap1\n      tag_181\n      jump\t// in\n    tag_204:\n        /* \"contracts/presale.sol\":4719:4772  uint256 unsoldTokens = token.balanceOf(address(this)) */\n      swap1\n      pop\n        /* \"contracts/presale.sol\":4791:4796  token */\n      0x02\n      0x00\n      swap1\n      sload\n      swap1\n      0x0100\n      exp\n      swap1\n      div\n      0xffffffffffffffffffffffffffffffffffffffff\n      and\n        /* \"contracts/presale.sol\":4791:4805  token.transfer */\n      0xffffffffffffffffffffffffffffffffffffffff\n      and\n      0xa9059cbb\n        /* \"contracts/presale.sol\":4806:4813  owner() */\n      tag_205\n        /* \"contracts/presale.sol\":4806:4811  owner */\n      tag_72\n        /* \"contracts/presale.sol\":4806:4813  owner() */\n      jump\t// in\n    tag_205:\n        /* \"contracts/presale.sol\":4815:4827  unsoldTokens */\n      dup4\n        /* \"contracts/presale.sol\":4791:4828  token.transfer(owner(), unsoldTokens) */\n      mload(0x40)\n      dup4\n      0xffffffff\n      and\n      0xe0\n      shl\n      dup2\n      mstore\n      0x04\n      add\n      tag_206\n      swap3\n      swap2\n      swap1\n      tag_139\n      jump\t// in\n    tag_206:\n      0x20\n      mload(0x40)\n      dup1\n      dup4\n      sub\n      dup2\n      0x00\n      dup8\n      gas\n      call\n      iszero\n      dup1\n      iszero\n      tag_208\n      jumpi\n      returndatacopy(0x00, 0x00, returndatasize)\n      revert(0x00, returndatasize)\n    tag_208:\n      pop\n      pop\n      pop\n      pop\n      mload(0x40)\n      returndatasize\n      not(0x1f)\n      0x1f\n      dup3\n      add\n      and\n      dup3\n      add\n      dup1\n      0x40\n      mstore\n      pop\n      dup2\n      add\n      swap1\n      tag_209\n      swap2\n      swap1\n      tag_143\n      jump\t// in\n    tag_209:\n        /* \"contracts/presale.sol\":4783:4854  require(token.transfer(owner(), unsoldTokens), \"Token transfer failed\") */\n      tag_210\n      jumpi\n      mload(0x40)\n      0x08c379a000000000000000000000000000000000000000000000000000000000\n      dup2\n      mstore\n      0x04\n      add\n      tag_211\n      swap1\n      tag_146\n      jump\t// in\n    tag_211:\n      mload(0x40)\n      dup1\n      swap2\n      sub\n      swap1\n      revert\n    tag_210:\n        /* \"contracts/presale.sol\":4584:4862  {... */\n      pop\n        /* \"contracts/presale.sol\":4533:4862  function withdrawUnsoldTokens() external onlyOwner {... */\n      jump\t// out\n        /* \"contracts/presale.sol\":2467:3375  function participate() external payable nonReentrant {... */\n    tag_106:\n        /* \"@openzeppelin/contracts@4.9.0/security/ReentrancyGuard.sol\":2261:2282  _nonReentrantBefore() */\n      tag_213\n        /* \"@openzeppelin/contracts@4.9.0/security/ReentrancyGuard.sol\":2261:2280  _nonReentrantBefore */\n      tag_126\n        /* \"@openzeppelin/contracts@4.9.0/security/ReentrancyGuard.sol\":2261:2282  _nonReentrantBefore() */\n      jump\t// in\n    tag_213:\n        /* \"contracts/presale.sol\":2558:2570  presaleStart */\n      sload(0x09)\n        /* \"contracts/presale.sol\":2539:2554  block.timestamp */\n      timestamp\n        /* \"contracts/presale.sol\":2539:2570  block.timestamp >= presaleStart */\n      lt\n      iszero\n        /* \"contracts/presale.sol\":2531:2594  require(block.timestamp >= presaleStart, \"Presale not started\") */\n      tag_215\n      jumpi\n      mload(0x40)\n      0x08c379a000000000000000000000000000000000000000000000000000000000\n      dup2\n      mstore\n      0x04\n      add\n      tag_216\n      swap1\n      tag_217\n      jump\t// in\n    tag_216:\n      mload(0x40)\n      dup1\n      swap2\n      sub\n      swap1\n      revert\n    tag_215:\n        /* \"contracts/presale.sol\":2632:2642  presaleEnd */\n      sload(0x0a)\n        /* \"contracts/presale.sol\":2613:2628  block.timestamp */\n      timestamp\n        /* \"contracts/presale.sol\":2613:2642  block.timestamp <= presaleEnd */\n      gt\n      iszero\n        /* \"contracts/presale.sol\":2605:2660  require(block.timestamp <= presaleEnd, \"Presale ended\") */\n      tag_218\n      jumpi\n      mload(0x40)\n      0x08c379a000000000000000000000000000000000000000000000000000000000\n      dup2\n      mstore\n      0x04\n      add\n      tag_219\n      swap1\n      tag_220\n      jump\t// in\n    tag_219:\n      mload(0x40)\n      dup1\n      swap2\n      sub\n      swap1\n      revert\n    tag_218:\n        /* \"contracts/presale.sol\":2680:2696  presaleFinalized */\n      0x0c\n      0x00\n      swap1\n      sload\n      swap1\n      0x0100\n      exp\n      swap1\n      div\n      0xff\n      and\n        /* \"contracts/presale.sol\":2679:2696  !presaleFinalized */\n      iszero\n        /* \"contracts/presale.sol\":2671:2718  require(!presaleFinalized, \"Presale finalized\") */\n      tag_221\n      jumpi\n      mload(0x40)\n      0x08c379a000000000000000000000000000000000000000000000000000000000\n      dup2\n      mstore\n      0x04\n      add\n      tag_222\n      swap1\n      tag_223\n      jump\t// in\n    tag_222:\n      mload(0x40)\n      dup1\n      swap2\n      sub\n      swap1\n      revert\n    tag_221:\n        /* \"contracts/presale.sol\":2750:2761  minPurchase */\n      sload(0x07)\n        /* \"contracts/presale.sol\":2737:2746  msg.value */\n      callvalue\n        /* \"contracts/presale.sol\":2737:2761  msg.value >= minPurchase */\n      lt\n      iszero\n        /* \"contracts/presale.sol\":2729:2792  require(msg.value >= minPurchase, \"Below minimum contribution\") */\n      tag_224\n      jumpi\n      mload(0x40)\n      0x08c379a000000000000000000000000000000000000000000000000000000000\n      dup2\n      mstore\n      0x04\n      add\n      tag_225\n      swap1\n      tag_226\n      jump\t// in\n    tag_225:\n      mload(0x40)\n      dup1\n      swap2\n      sub\n      swap1\n      revert\n    tag_224:\n        /* \"contracts/presale.sol\":2855:2866  maxPurchase */\n      sload(0x08)\n        /* \"contracts/presale.sol\":2811:2851  msg.value.add(contributions[msg.sender]) */\n      tag_227\n        /* \"contracts/presale.sol\":2825:2838  contributions */\n      0x0d\n        /* \"contracts/presale.sol\":2825:2850  contributions[msg.sender] */\n      0x00\n        /* \"contracts/presale.sol\":2839:2849  msg.sender */\n      caller\n        /* \"contracts/presale.sol\":2825:2850  contributions[msg.sender] */\n      0xffffffffffffffffffffffffffffffffffffffff\n      and\n      0xffffffffffffffffffffffffffffffffffffffff\n      and\n      dup2\n      mstore\n      0x20\n      add\n      swap1\n      dup2\n      mstore\n      0x20\n      add\n      0x00\n      keccak256\n      sload\n        /* \"contracts/presale.sol\":2811:2820  msg.value */\n      callvalue\n        /* \"contracts/presale.sol\":2811:2824  msg.value.add */\n      tag_228\n      swap1\n        /* \"contracts/presale.sol\":2811:2851  msg.value.add(contributions[msg.sender]) */\n      swap2\n      swap1\n      0xffffffff\n      and\n      jump\t// in\n    tag_227:\n        /* \"contracts/presale.sol\":2811:2866  msg.value.add(contributions[msg.sender]) <= maxPurchase */\n      gt\n      iszero\n        /* \"contracts/presale.sol\":2803:2899  require(msg.value.add(contributions[msg.sender]) <= maxPurchase, \"Exceeds maximum contribution\") */\n      tag_229\n      jumpi\n      mload(0x40)\n      0x08c379a000000000000000000000000000000000000000000000000000000000\n      dup2\n      mstore\n      0x04\n      add\n      tag_230\n      swap1\n      tag_231\n      jump\t// in\n    tag_230:\n      mload(0x40)\n      dup1\n      swap2\n      sub\n      swap1\n      revert\n    tag_229:\n        /* \"contracts/presale.sol\":2948:2955  hardCap */\n      sload(0x06)\n        /* \"contracts/presale.sol\":2918:2944  totalRaised.add(msg.value) */\n      tag_232\n        /* \"contracts/presale.sol\":2934:2943  msg.value */\n      callvalue\n        /* \"contracts/presale.sol\":2918:2929  totalRaised */\n      sload(0x0b)\n        /* \"contracts/presale.sol\":2918:2933  totalRaised.add */\n      tag_228\n      swap1\n        /* \"contracts/presale.sol\":2918:2944  totalRaised.add(msg.value) */\n      swap2\n      swap1\n      0xffffffff\n      and\n      jump\t// in\n    tag_232:\n        /* \"contracts/presale.sol\":2918:2955  totalRaised.add(msg.value) <= hardCap */\n      gt\n      iszero\n        /* \"contracts/presale.sol\":2910:2976  require(totalRaised.add(msg.value) <= hardCap, \"Hard cap reached\") */\n      tag_233\n      jumpi\n      mload(0x40)\n      0x08c379a000000000000000000000000000000000000000000000000000000000\n      dup2\n      mstore\n      0x04\n      add\n      tag_234\n      swap1\n      tag_235\n      jump\t// in\n    tag_234:\n      mload(0x40)\n      dup1\n      swap2\n      sub\n      swap1\n      revert\n    tag_233:\n        /* \"contracts/presale.sol\":2997:3016  uint256 tokenAmount */\n      0x00\n        /* \"contracts/presale.sol\":3019:3050  calculateTokenAmount(msg.value) */\n      tag_236\n        /* \"contracts/presale.sol\":3040:3049  msg.value */\n      callvalue\n        /* \"contracts/presale.sol\":3019:3039  calculateTokenAmount */\n      tag_91\n        /* \"contracts/presale.sol\":3019:3050  calculateTokenAmount(msg.value) */\n      jump\t// in\n    tag_236:\n        /* \"contracts/presale.sol\":2997:3050  uint256 tokenAmount = calculateTokenAmount(msg.value) */\n      swap1\n      pop\n        /* \"contracts/presale.sol\":3103:3114  tokenAmount */\n      dup1\n        /* \"contracts/presale.sol\":3069:3074  token */\n      0x02\n      0x00\n      swap1\n      sload\n      swap1\n      0x0100\n      exp\n      swap1\n      div\n      0xffffffffffffffffffffffffffffffffffffffff\n      and\n        /* \"contracts/presale.sol\":3069:3084  token.balanceOf */\n      0xffffffffffffffffffffffffffffffffffffffff\n      and\n      0x70a08231\n        /* \"contracts/presale.sol\":3093:3097  this */\n      address\n        /* \"contracts/presale.sol\":3069:3099  token.balanceOf(address(this)) */\n      mload(0x40)\n      dup3\n      0xffffffff\n      and\n      0xe0\n      shl\n      dup2\n      mstore\n      0x04\n      add\n      tag_237\n      swap2\n      swap1\n      tag_74\n      jump\t// in\n    tag_237:\n      0x20\n      mload(0x40)\n      dup1\n      dup4\n      sub\n      dup2\n      dup7\n      gas\n      staticcall\n      iszero\n      dup1\n      iszero\n      tag_239\n      jumpi\n      returndatacopy(0x00, 0x00, returndatasize)\n      revert(0x00, returndatasize)\n    tag_239:\n      pop\n      pop\n      pop\n      pop\n      mload(0x40)\n      returndatasize\n      not(0x1f)\n      0x1f\n      dup3\n      add\n      and\n      dup3\n      add\n      dup1\n      0x40\n      mstore\n      pop\n      dup2\n      add\n      swap1\n      tag_240\n      swap2\n      swap1\n      tag_181\n      jump\t// in\n    tag_240:\n        /* \"contracts/presale.sol\":3069:3114  token.balanceOf(address(this)) >= tokenAmount */\n      lt\n      iszero\n        /* \"contracts/presale.sol\":3061:3150  require(token.balanceOf(address(this)) >= tokenAmount, \"Insufficient tokens in contract\") */\n      tag_241\n      jumpi\n      mload(0x40)\n      0x08c379a000000000000000000000000000000000000000000000000000000000\n      dup2\n      mstore\n      0x04\n      add\n      tag_242\n      swap1\n      tag_243\n      jump\t// in\n    tag_242:\n      mload(0x40)\n      dup1\n      swap2\n      sub\n      swap1\n      revert\n    tag_241:\n        /* \"contracts/presale.sol\":3199:3239  contributions[msg.sender].add(msg.value) */\n      tag_244\n        /* \"contracts/presale.sol\":3229:3238  msg.value */\n      callvalue\n        /* \"contracts/presale.sol\":3199:3212  contributions */\n      0x0d\n        /* \"contracts/presale.sol\":3199:3224  contributions[msg.sender] */\n      0x00\n        /* \"contracts/presale.sol\":3213:3223  msg.sender */\n      caller\n        /* \"contracts/presale.sol\":3199:3224  contributions[msg.sender] */\n      0xffffffffffffffffffffffffffffffffffffffff\n      and\n      0xffffffffffffffffffffffffffffffffffffffff\n      and\n      dup2\n      mstore\n      0x20\n      add\n      swap1\n      dup2\n      mstore\n      0x20\n      add\n      0x00\n      keccak256\n      sload\n        /* \"contracts/presale.sol\":3199:3228  contributions[msg.sender].add */\n      tag_228\n      swap1\n        /* \"contracts/presale.sol\":3199:3239  contributions[msg.sender].add(msg.value) */\n      swap2\n      swap1\n      0xffffffff\n      and\n      jump\t// in\n    tag_244:\n        /* \"contracts/presale.sol\":3171:3184  contributions */\n      0x0d\n        /* \"contracts/presale.sol\":3171:3196  contributions[msg.sender] */\n      0x00\n        /* \"contracts/presale.sol\":3185:3195  msg.sender */\n      caller\n        /* \"contracts/presale.sol\":3171:3196  contributions[msg.sender] */\n      0xffffffffffffffffffffffffffffffffffffffff\n      and\n      0xffffffffffffffffffffffffffffffffffffffff\n      and\n      dup2\n      mstore\n      0x20\n      add\n      swap1\n      dup2\n      mstore\n      0x20\n      add\n      0x00\n      keccak256\n        /* \"contracts/presale.sol\":3171:3239  contributions[msg.sender] = contributions[msg.sender].add(msg.value) */\n      dup2\n      swap1\n      sstore\n      pop\n        /* \"contracts/presale.sol\":3264:3290  totalRaised.add(msg.value) */\n      tag_245\n        /* \"contracts/presale.sol\":3280:3289  msg.value */\n      callvalue\n        /* \"contracts/presale.sol\":3264:3275  totalRaised */\n      sload(0x0b)\n        /* \"contracts/presale.sol\":3264:3279  totalRaised.add */\n      tag_228\n      swap1\n        /* \"contracts/presale.sol\":3264:3290  totalRaised.add(msg.value) */\n      swap2\n      swap1\n      0xffffffff\n      and\n      jump\t// in\n    tag_245:\n        /* \"contracts/presale.sol\":3250:3261  totalRaised */\n      0x0b\n        /* \"contracts/presale.sol\":3250:3290  totalRaised = totalRaised.add(msg.value) */\n      dup2\n      swap1\n      sstore\n      pop\n        /* \"contracts/presale.sol\":3332:3342  msg.sender */\n      caller\n        /* \"contracts/presale.sol\":3316:3367  TokensPurchased(msg.sender, msg.value, tokenAmount) */\n      0xffffffffffffffffffffffffffffffffffffffff\n      and\n      0x8fafebcaf9d154343dad25669bfa277f4fbacd7ac6b0c4fed522580e040a0f33\n        /* \"contracts/presale.sol\":3344:3353  msg.value */\n      callvalue\n        /* \"contracts/presale.sol\":3355:3366  tokenAmount */\n      dup4\n        /* \"contracts/presale.sol\":3316:3367  TokensPurchased(msg.sender, msg.value, tokenAmount) */\n      mload(0x40)\n      tag_246\n      swap3\n      swap2\n      swap1\n      tag_247\n      jump\t// in\n    tag_246:\n      mload(0x40)\n      dup1\n      swap2\n      sub\n      swap1\n      log2\n        /* \"contracts/presale.sol\":2520:3375  {... */\n      pop\n        /* \"@openzeppelin/contracts@4.9.0/security/ReentrancyGuard.sol\":2303:2323  _nonReentrantAfter() */\n      tag_248\n        /* \"@openzeppelin/contracts@4.9.0/security/ReentrancyGuard.sol\":2303:2321  _nonReentrantAfter */\n      tag_148\n        /* \"@openzeppelin/contracts@4.9.0/security/ReentrancyGuard.sol\":2303:2323  _nonReentrantAfter() */\n      jump\t// in\n    tag_248:\n        /* \"contracts/presale.sol\":2467:3375  function participate() external payable nonReentrant {... */\n      jump\t// out\n        /* \"contracts/presale.sol\":835:862  uint256 public presaleStart */\n    tag_109:\n      sload(0x09)\n      dup2\n      jump\t// out\n        /* \"@openzeppelin/contracts@4.9.0/access/Ownable.sol\":2074:2272  function transferOwnership(address newOwner) public virtual onlyOwner {... */\n    tag_114:\n        /* \"@openzeppelin/contracts@4.9.0/access/Ownable.sol\":1094:1107  _checkOwner() */\n      tag_250\n        /* \"@openzeppelin/contracts@4.9.0/access/Ownable.sol\":1094:1105  _checkOwner */\n      tag_151\n        /* \"@openzeppelin/contracts@4.9.0/access/Ownable.sol\":1094:1107  _checkOwner() */\n      jump\t// in\n    tag_250:\n        /* \"@openzeppelin/contracts@4.9.0/access/Ownable.sol\":2182:2183  0 */\n      0x00\n        /* \"@openzeppelin/contracts@4.9.0/access/Ownable.sol\":2162:2184  newOwner != address(0) */\n      0xffffffffffffffffffffffffffffffffffffffff\n      and\n        /* \"@openzeppelin/contracts@4.9.0/access/Ownable.sol\":2162:2170  newOwner */\n      dup2\n        /* \"@openzeppelin/contracts@4.9.0/access/Ownable.sol\":2162:2184  newOwner != address(0) */\n      0xffffffffffffffffffffffffffffffffffffffff\n      and\n      sub\n        /* \"@openzeppelin/contracts@4.9.0/access/Ownable.sol\":2154:2227  require(newOwner != address(0), \"Ownable: new owner is the zero address\") */\n      tag_252\n      jumpi\n      mload(0x40)\n      0x08c379a000000000000000000000000000000000000000000000000000000000\n      dup2\n      mstore\n      0x04\n      add\n      tag_253\n      swap1\n      tag_254\n      jump\t// in\n    tag_253:\n      mload(0x40)\n      dup1\n      swap2\n      sub\n      swap1\n      revert\n    tag_252:\n        /* \"@openzeppelin/contracts@4.9.0/access/Ownable.sol\":2237:2265  _transferOwnership(newOwner) */\n      tag_255\n        /* \"@openzeppelin/contracts@4.9.0/access/Ownable.sol\":2256:2264  newOwner */\n      dup2\n        /* \"@openzeppelin/contracts@4.9.0/access/Ownable.sol\":2237:2255  _transferOwnership */\n      tag_169\n        /* \"@openzeppelin/contracts@4.9.0/access/Ownable.sol\":2237:2265  _transferOwnership(newOwner) */\n      jump\t// in\n    tag_255:\n        /* \"@openzeppelin/contracts@4.9.0/access/Ownable.sol\":2074:2272  function transferOwnership(address newOwner) public virtual onlyOwner {... */\n      pop\n      jump\t// out\n        /* \"contracts/presale.sol\":614:636  uint256 public hardCap */\n    tag_117:\n      sload(0x06)\n      dup2\n      jump\t// out\n        /* \"contracts/presale.sol\":414:433  IERC20 public token */\n    tag_121:\n      0x02\n      0x00\n      swap1\n      sload\n      swap1\n      0x0100\n      exp\n      swap1\n      div\n      0xffffffffffffffffffffffffffffffffffffffff\n      and\n      dup2\n      jump\t// out\n        /* \"@openzeppelin/contracts@4.9.0/security/ReentrancyGuard.sol\":2336:2623  function _nonReentrantBefore() private {... */\n    tag_126:\n        /* \"@openzeppelin/contracts@4.9.0/security/ReentrancyGuard.sol\":1759:1760  2 */\n      0x02\n        /* \"@openzeppelin/contracts@4.9.0/security/ReentrancyGuard.sol\":2468:2475  _status */\n      sload(0x01)\n        /* \"@openzeppelin/contracts@4.9.0/security/ReentrancyGuard.sol\":2468:2487  _status != _ENTERED */\n      sub\n        /* \"@openzeppelin/contracts@4.9.0/security/ReentrancyGuard.sol\":2460:2523  require(_status != _ENTERED, \"ReentrancyGuard: reentrant call\") */\n      tag_257\n      jumpi\n      mload(0x40)\n      0x08c379a000000000000000000000000000000000000000000000000000000000\n      dup2\n      mstore\n      0x04\n      add\n      tag_258\n      swap1\n      tag_259\n      jump\t// in\n    tag_258:\n      mload(0x40)\n      dup1\n      swap2\n      sub\n      swap1\n      revert\n    tag_257:\n        /* \"@openzeppelin/contracts@4.9.0/security/ReentrancyGuard.sol\":1759:1760  2 */\n      0x02\n        /* \"@openzeppelin/contracts@4.9.0/security/ReentrancyGuard.sol\":2598:2605  _status */\n      0x01\n        /* \"@openzeppelin/contracts@4.9.0/security/ReentrancyGuard.sol\":2598:2616  _status = _ENTERED */\n      dup2\n      swap1\n      sstore\n      pop\n        /* \"@openzeppelin/contracts@4.9.0/security/ReentrancyGuard.sol\":2336:2623  function _nonReentrantBefore() private {... */\n      jump\t// out\n        /* \"@openzeppelin/contracts@4.9.0/security/ReentrancyGuard.sol\":2629:2838  function _nonReentrantAfter() private {... */\n    tag_148:\n        /* \"@openzeppelin/contracts@4.9.0/security/ReentrancyGuard.sol\":1716:1717  1 */\n      0x01\n        /* \"@openzeppelin/contracts@4.9.0/security/ReentrancyGuard.sol\":2809:2816  _status */\n      dup1\n        /* \"@openzeppelin/contracts@4.9.0/security/ReentrancyGuard.sol\":2809:2831  _status = _NOT_ENTERED */\n      dup2\n      swap1\n      sstore\n      pop\n        /* \"@openzeppelin/contracts@4.9.0/security/ReentrancyGuard.sol\":2629:2838  function _nonReentrantAfter() private {... */\n      jump\t// out\n        /* \"@openzeppelin/contracts@4.9.0/access/Ownable.sol\":1359:1489  function _checkOwner() internal view virtual {... */\n    tag_151:\n        /* \"@openzeppelin/contracts@4.9.0/access/Ownable.sol\":1433:1445  _msgSender() */\n      tag_262\n        /* \"@openzeppelin/contracts@4.9.0/access/Ownable.sol\":1433:1443  _msgSender */\n      tag_263\n        /* \"@openzeppelin/contracts@4.9.0/access/Ownable.sol\":1433:1445  _msgSender() */\n      jump\t// in\n    tag_262:\n        /* \"@openzeppelin/contracts@4.9.0/access/Ownable.sol\":1422:1445  owner() == _msgSender() */\n      0xffffffffffffffffffffffffffffffffffffffff\n      and\n        /* \"@openzeppelin/contracts@4.9.0/access/Ownable.sol\":1422:1429  owner() */\n      tag_264\n        /* \"@openzeppelin/contracts@4.9.0/access/Ownable.sol\":1422:1427  owner */\n      tag_72\n        /* \"@openzeppelin/contracts@4.9.0/access/Ownable.sol\":1422:1429  owner() */\n      jump\t// in\n    tag_264:\n        /* \"@openzeppelin/contracts@4.9.0/access/Ownable.sol\":1422:1445  owner() == _msgSender() */\n      0xffffffffffffffffffffffffffffffffffffffff\n      and\n      eq\n        /* \"@openzeppelin/contracts@4.9.0/access/Ownable.sol\":1414:1482  require(owner() == _msgSender(), \"Ownable: caller is not the owner\") */\n      tag_265\n      jumpi\n      mload(0x40)\n      0x08c379a000000000000000000000000000000000000000000000000000000000\n      dup2\n      mstore\n      0x04\n      add\n      tag_266\n      swap1\n      tag_267\n      jump\t// in\n    tag_266:\n      mload(0x40)\n      dup1\n      swap2\n      sub\n      swap1\n      revert\n    tag_265:\n        /* \"@openzeppelin/contracts@4.9.0/access/Ownable.sol\":1359:1489  function _checkOwner() internal view virtual {... */\n      jump\t// out\n        /* \"@openzeppelin/contracts@4.9.0/access/Ownable.sol\":2426:2613  function _transferOwnership(address newOwner) internal virtual {... */\n    tag_169:\n        /* \"@openzeppelin/contracts@4.9.0/access/Ownable.sol\":2499:2515  address oldOwner */\n      0x00\n        /* \"@openzeppelin/contracts@4.9.0/access/Ownable.sol\":2518:2524  _owner */\n      0x00\n      0x00\n      swap1\n      sload\n      swap1\n      0x0100\n      exp\n      swap1\n      div\n      0xffffffffffffffffffffffffffffffffffffffff\n      and\n        /* \"@openzeppelin/contracts@4.9.0/access/Ownable.sol\":2499:2524  address oldOwner = _owner */\n      swap1\n      pop\n        /* \"@openzeppelin/contracts@4.9.0/access/Ownable.sol\":2543:2551  newOwner */\n      dup2\n        /* \"@openzeppelin/contracts@4.9.0/access/Ownable.sol\":2534:2540  _owner */\n      0x00\n      0x00\n        /* \"@openzeppelin/contracts@4.9.0/access/Ownable.sol\":2534:2551  _owner = newOwner */\n      0x0100\n      exp\n      dup2\n      sload\n      dup2\n      0xffffffffffffffffffffffffffffffffffffffff\n      mul\n      not\n      and\n      swap1\n      dup4\n      0xffffffffffffffffffffffffffffffffffffffff\n      and\n      mul\n      or\n      swap1\n      sstore\n      pop\n        /* \"@openzeppelin/contracts@4.9.0/access/Ownable.sol\":2597:2605  newOwner */\n      dup2\n        /* \"@openzeppelin/contracts@4.9.0/access/Ownable.sol\":2566:2606  OwnershipTransferred(oldOwner, newOwner) */\n      0xffffffffffffffffffffffffffffffffffffffff\n      and\n        /* \"@openzeppelin/contracts@4.9.0/access/Ownable.sol\":2587:2595  oldOwner */\n      dup2\n        /* \"@openzeppelin/contracts@4.9.0/access/Ownable.sol\":2566:2606  OwnershipTransferred(oldOwner, newOwner) */\n      0xffffffffffffffffffffffffffffffffffffffff\n      and\n      0x8be0079c531659141344cd1fd0a4f28419497f9722a3daafe3b4186f6b6457e0\n      mload(0x40)\n      mload(0x40)\n      dup1\n      swap2\n      sub\n      swap1\n      log3\n        /* \"@openzeppelin/contracts@4.9.0/access/Ownable.sol\":2489:2613  {... */\n      pop\n        /* \"@openzeppelin/contracts@4.9.0/access/Ownable.sol\":2426:2613  function _transferOwnership(address newOwner) internal virtual {... */\n      pop\n      jump\t// out\n        /* \"@openzeppelin/contracts@4.9.0/utils/math/SafeMath.sol\":3465:3561  function mul(uint256 a, uint256 b) internal pure returns (uint256) {... */\n    tag_193:\n        /* \"@openzeppelin/contracts@4.9.0/utils/math/SafeMath.sol\":3523:3530  uint256 */\n      0x00\n        /* \"@openzeppelin/contracts@4.9.0/utils/math/SafeMath.sol\":3553:3554  b */\n      dup2\n        /* \"@openzeppelin/contracts@4.9.0/utils/math/SafeMath.sol\":3549:3550  a */\n      dup4\n        /* \"@openzeppelin/contracts@4.9.0/utils/math/SafeMath.sol\":3549:3554  a * b */\n      tag_270\n      swap2\n      swap1\n      tag_271\n      jump\t// in\n    tag_270:\n        /* \"@openzeppelin/contracts@4.9.0/utils/math/SafeMath.sol\":3542:3554  return a * b */\n      swap1\n      pop\n        /* \"@openzeppelin/contracts@4.9.0/utils/math/SafeMath.sol\":3465:3561  function mul(uint256 a, uint256 b) internal pure returns (uint256) {... */\n      swap3\n      swap2\n      pop\n      pop\n      jump\t// out\n        /* \"@openzeppelin/contracts@4.9.0/utils/math/SafeMath.sol\":2755:2851  function add(uint256 a, uint256 b) internal pure returns (uint256) {... */\n    tag_228:\n        /* \"@openzeppelin/contracts@4.9.0/utils/math/SafeMath.sol\":2813:2820  uint256 */\n      0x00\n        /* \"@openzeppelin/contracts@4.9.0/utils/math/SafeMath.sol\":2843:2844  b */\n      dup2\n        /* \"@openzeppelin/contracts@4.9.0/utils/math/SafeMath.sol\":2839:2840  a */\n      dup4\n        /* \"@openzeppelin/contracts@4.9.0/utils/math/SafeMath.sol\":2839:2844  a + b */\n      tag_273\n      swap2\n      swap1\n      tag_274\n      jump\t// in\n    tag_273:\n        /* \"@openzeppelin/contracts@4.9.0/utils/math/SafeMath.sol\":2832:2844  return a + b */\n      swap1\n      pop\n        /* \"@openzeppelin/contracts@4.9.0/utils/math/SafeMath.sol\":2755:2851  function add(uint256 a, uint256 b) internal pure returns (uint256) {... */\n      swap3\n      swap2\n      pop\n      pop\n      jump\t// out\n        /* \"@openzeppelin/contracts@4.9.0/utils/Context.sol\":640:736  function _msgSender() internal view virtual returns (address) {... */\n    tag_263:\n        /* \"@openzeppelin/contracts@4.9.0/utils/Context.sol\":693:700  address */\n      0x00\n        /* \"@openzeppelin/contracts@4.9.0/utils/Context.sol\":719:729  msg.sender */\n      caller\n        /* \"@openzeppelin/contracts@4.9.0/utils/Context.sol\":712:729  return msg.sender */\n      swap1\n      pop\n        /* \"@openzeppelin/contracts@4.9.0/utils/Context.sol\":640:736  function _msgSender() internal view virtual returns (address) {... */\n      swap1\n      jump\t// out\n        /* \"#utility.yul\":7:84   */\n    tag_276:\n        /* \"#utility.yul\":44:51   */\n      0x00\n        /* \"#utility.yul\":73:78   */\n      dup2\n        /* \"#utility.yul\":62:78   */\n      swap1\n      pop\n        /* \"#utility.yul\":7:84   */\n      swap2\n      swap1\n      pop\n      jump\t// out\n        /* \"#utility.yul\":90:208   */\n    tag_277:\n        /* \"#utility.yul\":177:201   */\n      tag_341\n        /* \"#utility.yul\":195:200   */\n      dup2\n        /* \"#utility.yul\":177:201   */\n      tag_276\n      jump\t// in\n    tag_341:\n        /* \"#utility.yul\":172:175   */\n      dup3\n        /* \"#utility.yul\":165:202   */\n      mstore\n        /* \"#utility.yul\":90:208   */\n      pop\n      pop\n      jump\t// out\n        /* \"#utility.yul\":214:436   */\n    tag_32:\n        /* \"#utility.yul\":307:311   */\n      0x00\n        /* \"#utility.yul\":345:347   */\n      0x20\n        /* \"#utility.yul\":334:343   */\n      dup3\n        /* \"#utility.yul\":330:348   */\n      add\n        /* \"#utility.yul\":322:348   */\n      swap1\n      pop\n        /* \"#utility.yul\":358:429   */\n      tag_343\n        /* \"#utility.yul\":426:427   */\n      0x00\n        /* \"#utility.yul\":415:424   */\n      dup4\n        /* \"#utility.yul\":411:428   */\n      add\n        /* \"#utility.yul\":402:408   */\n      dup5\n        /* \"#utility.yul\":358:429   */\n      tag_277\n      jump\t// in\n    tag_343:\n        /* \"#utility.yul\":214:436   */\n      swap3\n      swap2\n      pop\n      pop\n      jump\t// out\n        /* \"#utility.yul\":523:640   */\n    tag_279:\n        /* \"#utility.yul\":632:633   */\n      0x00\n        /* \"#utility.yul\":629:630   */\n      0x00\n        /* \"#utility.yul\":622:634   */\n      revert\n        /* \"#utility.yul\":769:895   */\n    tag_281:\n        /* \"#utility.yul\":806:813   */\n      0x00\n        /* \"#utility.yul\":846:888   */\n      0xffffffffffffffffffffffffffffffffffffffff\n        /* \"#utility.yul\":839:844   */\n      dup3\n        /* \"#utility.yul\":835:889   */\n      and\n        /* \"#utility.yul\":824:889   */\n      swap1\n      pop\n        /* \"#utility.yul\":769:895   */\n      swap2\n      swap1\n      pop\n      jump\t// out\n        /* \"#utility.yul\":901:997   */\n    tag_282:\n        /* \"#utility.yul\":938:945   */\n      0x00\n        /* \"#utility.yul\":967:991   */\n      tag_349\n        /* \"#utility.yul\":985:990   */\n      dup3\n        /* \"#utility.yul\":967:991   */\n      tag_281\n      jump\t// in\n    tag_349:\n        /* \"#utility.yul\":956:991   */\n      swap1\n      pop\n        /* \"#utility.yul\":901:997   */\n      swap2\n      swap1\n      pop\n      jump\t// out\n        /* \"#utility.yul\":1003:1125   */\n    tag_283:\n        /* \"#utility.yul\":1076:1100   */\n      tag_351\n        /* \"#utility.yul\":1094:1099   */\n      dup2\n        /* \"#utility.yul\":1076:1100   */\n      tag_282\n      jump\t// in\n    tag_351:\n        /* \"#utility.yul\":1069:1074   */\n      dup2\n        /* \"#utility.yul\":1066:1101   */\n      eq\n        /* \"#utility.yul\":1056:1119   */\n      tag_352\n      jumpi\n        /* \"#utility.yul\":1115:1116   */\n      0x00\n        /* \"#utility.yul\":1112:1113   */\n      0x00\n        /* \"#utility.yul\":1105:1117   */\n      revert\n        /* \"#utility.yul\":1056:1119   */\n    tag_352:\n        /* \"#utility.yul\":1003:1125   */\n      pop\n      jump\t// out\n        /* \"#utility.yul\":1131:1270   */\n    tag_284:\n        /* \"#utility.yul\":1177:1182   */\n      0x00\n        /* \"#utility.yul\":1215:1221   */\n      dup2\n        /* \"#utility.yul\":1202:1222   */\n      calldataload\n        /* \"#utility.yul\":1193:1222   */\n      swap1\n      pop\n        /* \"#utility.yul\":1231:1264   */\n      tag_354\n        /* \"#utility.yul\":1258:1263   */\n      dup2\n        /* \"#utility.yul\":1231:1264   */\n      tag_283\n      jump\t// in\n    tag_354:\n        /* \"#utility.yul\":1131:1270   */\n      swap3\n      swap2\n      pop\n      pop\n      jump\t// out\n        /* \"#utility.yul\":1276:1605   */\n    tag_40:\n        /* \"#utility.yul\":1335:1341   */\n      0x00\n        /* \"#utility.yul\":1384:1386   */\n      0x20\n        /* \"#utility.yul\":1372:1381   */\n      dup3\n        /* \"#utility.yul\":1363:1370   */\n      dup5\n        /* \"#utility.yul\":1359:1382   */\n      sub\n        /* \"#utility.yul\":1355:1387   */\n      slt\n        /* \"#utility.yul\":1352:1471   */\n      iszero\n      tag_356\n      jumpi\n        /* \"#utility.yul\":1390:1469   */\n      tag_357\n      tag_279\n      jump\t// in\n    tag_357:\n        /* \"#utility.yul\":1352:1471   */\n    tag_356:\n        /* \"#utility.yul\":1510:1511   */\n      0x00\n        /* \"#utility.yul\":1535:1588   */\n      tag_358\n        /* \"#utility.yul\":1580:1587   */\n      dup5\n        /* \"#utility.yul\":1571:1577   */\n      dup3\n        /* \"#utility.yul\":1560:1569   */\n      dup6\n        /* \"#utility.yul\":1556:1578   */\n      add\n        /* \"#utility.yul\":1535:1588   */\n      tag_284\n      jump\t// in\n    tag_358:\n        /* \"#utility.yul\":1525:1588   */\n      swap2\n      pop\n        /* \"#utility.yul\":1481:1598   */\n      pop\n        /* \"#utility.yul\":1276:1605   */\n      swap3\n      swap2\n      pop\n      pop\n      jump\t// out\n        /* \"#utility.yul\":1611:1701   */\n    tag_285:\n        /* \"#utility.yul\":1645:1652   */\n      0x00\n        /* \"#utility.yul\":1688:1693   */\n      dup2\n        /* \"#utility.yul\":1681:1694   */\n      iszero\n        /* \"#utility.yul\":1674:1695   */\n      iszero\n        /* \"#utility.yul\":1663:1695   */\n      swap1\n      pop\n        /* \"#utility.yul\":1611:1701   */\n      swap2\n      swap1\n      pop\n      jump\t// out\n        /* \"#utility.yul\":1707:1816   */\n    tag_286:\n        /* \"#utility.yul\":1788:1809   */\n      tag_361\n        /* \"#utility.yul\":1803:1808   */\n      dup2\n        /* \"#utility.yul\":1788:1809   */\n      tag_285\n      jump\t// in\n    tag_361:\n        /* \"#utility.yul\":1783:1786   */\n      dup3\n        /* \"#utility.yul\":1776:1810   */\n      mstore\n        /* \"#utility.yul\":1707:1816   */\n      pop\n      pop\n      jump\t// out\n        /* \"#utility.yul\":1822:2032   */\n    tag_57:\n        /* \"#utility.yul\":1909:1913   */\n      0x00\n        /* \"#utility.yul\":1947:1949   */\n      0x20\n        /* \"#utility.yul\":1936:1945   */\n      dup3\n        /* \"#utility.yul\":1932:1950   */\n      add\n        /* \"#utility.yul\":1924:1950   */\n      swap1\n      pop\n        /* \"#utility.yul\":1960:2025   */\n      tag_363\n        /* \"#utility.yul\":2022:2023   */\n      0x00\n        /* \"#utility.yul\":2011:2020   */\n      dup4\n        /* \"#utility.yul\":2007:2024   */\n      add\n        /* \"#utility.yul\":1998:2004   */\n      dup5\n        /* \"#utility.yul\":1960:2025   */\n      tag_286\n      jump\t// in\n    tag_363:\n        /* \"#utility.yul\":1822:2032   */\n      swap3\n      swap2\n      pop\n      pop\n      jump\t// out\n        /* \"#utility.yul\":2038:2142   */\n    tag_287:\n        /* \"#utility.yul\":2083:2090   */\n      0x00\n        /* \"#utility.yul\":2112:2136   */\n      tag_365\n        /* \"#utility.yul\":2130:2135   */\n      dup3\n        /* \"#utility.yul\":2112:2136   */\n      tag_281\n      jump\t// in\n    tag_365:\n        /* \"#utility.yul\":2101:2136   */\n      swap1\n      pop\n        /* \"#utility.yul\":2038:2142   */\n      swap2\n      swap1\n      pop\n      jump\t// out\n        /* \"#utility.yul\":2148:2290   */\n    tag_288:\n        /* \"#utility.yul\":2251:2283   */\n      tag_367\n        /* \"#utility.yul\":2277:2282   */\n      dup2\n        /* \"#utility.yul\":2251:2283   */\n      tag_287\n      jump\t// in\n    tag_367:\n        /* \"#utility.yul\":2246:2249   */\n      dup3\n        /* \"#utility.yul\":2239:2284   */\n      mstore\n        /* \"#utility.yul\":2148:2290   */\n      pop\n      pop\n      jump\t// out\n        /* \"#utility.yul\":2296:2550   */\n    tag_62:\n        /* \"#utility.yul\":2405:2409   */\n      0x00\n        /* \"#utility.yul\":2443:2445   */\n      0x20\n        /* \"#utility.yul\":2432:2441   */\n      dup3\n        /* \"#utility.yul\":2428:2446   */\n      add\n        /* \"#utility.yul\":2420:2446   */\n      swap1\n      pop\n        /* \"#utility.yul\":2456:2543   */\n      tag_369\n        /* \"#utility.yul\":2540:2541   */\n      0x00\n        /* \"#utility.yul\":2529:2538   */\n      dup4\n        /* \"#utility.yul\":2525:2542   */\n      add\n        /* \"#utility.yul\":2516:2522   */\n      dup5\n        /* \"#utility.yul\":2456:2543   */\n      tag_288\n      jump\t// in\n    tag_369:\n        /* \"#utility.yul\":2296:2550   */\n      swap3\n      swap2\n      pop\n      pop\n      jump\t// out\n        /* \"#utility.yul\":2556:2674   */\n    tag_289:\n        /* \"#utility.yul\":2643:2667   */\n      tag_371\n        /* \"#utility.yul\":2661:2666   */\n      dup2\n        /* \"#utility.yul\":2643:2667   */\n      tag_282\n      jump\t// in\n    tag_371:\n        /* \"#utility.yul\":2638:2641   */\n      dup3\n        /* \"#utility.yul\":2631:2668   */\n      mstore\n        /* \"#utility.yul\":2556:2674   */\n      pop\n      pop\n      jump\t// out\n        /* \"#utility.yul\":2680:2902   */\n    tag_74:\n        /* \"#utility.yul\":2773:2777   */\n      0x00\n        /* \"#utility.yul\":2811:2813   */\n      0x20\n        /* \"#utility.yul\":2800:2809   */\n      dup3\n        /* \"#utility.yul\":2796:2814   */\n      add\n        /* \"#utility.yul\":2788:2814   */\n      swap1\n      pop\n        /* \"#utility.yul\":2824:2895   */\n      tag_373\n        /* \"#utility.yul\":2892:2893   */\n      0x00\n        /* \"#utility.yul\":2881:2890   */\n      dup4\n        /* \"#utility.yul\":2877:2894   */\n      add\n        /* \"#utility.yul\":2868:2874   */\n      dup5\n        /* \"#utility.yul\":2824:2895   */\n      tag_289\n      jump\t// in\n    tag_373:\n        /* \"#utility.yul\":2680:2902   */\n      swap3\n      swap2\n      pop\n      pop\n      jump\t// out\n        /* \"#utility.yul\":2908:3030   */\n    tag_290:\n        /* \"#utility.yul\":2981:3005   */\n      tag_375\n        /* \"#utility.yul\":2999:3004   */\n      dup2\n        /* \"#utility.yul\":2981:3005   */\n      tag_276\n      jump\t// in\n    tag_375:\n        /* \"#utility.yul\":2974:2979   */\n      dup2\n        /* \"#utility.yul\":2971:3006   */\n      eq\n        /* \"#utility.yul\":2961:3024   */\n      tag_376\n      jumpi\n        /* \"#utility.yul\":3020:3021   */\n      0x00\n        /* \"#utility.yul\":3017:3018   */\n      0x00\n        /* \"#utility.yul\":3010:3022   */\n      revert\n        /* \"#utility.yul\":2961:3024   */\n    tag_376:\n        /* \"#utility.yul\":2908:3030   */\n      pop\n      jump\t// out\n        /* \"#utility.yul\":3036:3175   */\n    tag_291:\n        /* \"#utility.yul\":3082:3087   */\n      0x00\n        /* \"#utility.yul\":3120:3126   */\n      dup2\n        /* \"#utility.yul\":3107:3127   */\n      calldataload\n        /* \"#utility.yul\":3098:3127   */\n      swap1\n      pop\n        /* \"#utility.yul\":3136:3169   */\n      tag_378\n        /* \"#utility.yul\":3163:3168   */\n      dup2\n        /* \"#utility.yul\":3136:3169   */\n      tag_290\n      jump\t// in\n    tag_378:\n        /* \"#utility.yul\":3036:3175   */\n      swap3\n      swap2\n      pop\n      pop\n      jump\t// out\n        /* \"#utility.yul\":3181:3510   */\n    tag_90:\n        /* \"#utility.yul\":3240:3246   */\n      0x00\n        /* \"#utility.yul\":3289:3291   */\n      0x20\n        /* \"#utility.yul\":3277:3286   */\n      dup3\n        /* \"#utility.yul\":3268:3275   */\n      dup5\n        /* \"#utility.yul\":3264:3287   */\n      sub\n        /* \"#utility.yul\":3260:3292   */\n      slt\n        /* \"#utility.yul\":3257:3376   */\n      iszero\n      tag_380\n      jumpi\n        /* \"#utility.yul\":3295:3374   */\n      tag_381\n      tag_279\n      jump\t// in\n    tag_381:\n        /* \"#utility.yul\":3257:3376   */\n    tag_380:\n        /* \"#utility.yul\":3415:3416   */\n      0x00\n        /* \"#utility.yul\":3440:3493   */\n      tag_382\n        /* \"#utility.yul\":3485:3492   */\n      dup5\n        /* \"#utility.yul\":3476:3482   */\n      dup3\n        /* \"#utility.yul\":3465:3474   */\n      dup6\n        /* \"#utility.yul\":3461:3483   */\n      add\n        /* \"#utility.yul\":3440:3493   */\n      tag_291\n      jump\t// in\n    tag_382:\n        /* \"#utility.yul\":3430:3493   */\n      swap2\n      pop\n        /* \"#utility.yul\":3386:3503   */\n      pop\n        /* \"#utility.yul\":3181:3510   */\n      swap3\n      swap2\n      pop\n      pop\n      jump\t// out\n        /* \"#utility.yul\":3516:3576   */\n    tag_292:\n        /* \"#utility.yul\":3544:3547   */\n      0x00\n        /* \"#utility.yul\":3565:3570   */\n      dup2\n        /* \"#utility.yul\":3558:3570   */\n      swap1\n      pop\n        /* \"#utility.yul\":3516:3576   */\n      swap2\n      swap1\n      pop\n      jump\t// out\n        /* \"#utility.yul\":3582:3724   */\n    tag_293:\n        /* \"#utility.yul\":3632:3641   */\n      0x00\n        /* \"#utility.yul\":3665:3718   */\n      tag_385\n        /* \"#utility.yul\":3683:3717   */\n      tag_386\n        /* \"#utility.yul\":3692:3716   */\n      tag_387\n        /* \"#utility.yul\":3710:3715   */\n      dup5\n        /* \"#utility.yul\":3692:3716   */\n      tag_281\n      jump\t// in\n    tag_387:\n        /* \"#utility.yul\":3683:3717   */\n      tag_292\n      jump\t// in\n    tag_386:\n        /* \"#utility.yul\":3665:3718   */\n      tag_281\n      jump\t// in\n    tag_385:\n        /* \"#utility.yul\":3652:3718   */\n      swap1\n      pop\n        /* \"#utility.yul\":3582:3724   */\n      swap2\n      swap1\n      pop\n      jump\t// out\n        /* \"#utility.yul\":3730:3856   */\n    tag_294:\n        /* \"#utility.yul\":3780:3789   */\n      0x00\n        /* \"#utility.yul\":3813:3850   */\n      tag_389\n        /* \"#utility.yul\":3844:3849   */\n      dup3\n        /* \"#utility.yul\":3813:3850   */\n      tag_293\n      jump\t// in\n    tag_389:\n        /* \"#utility.yul\":3800:3850   */\n      swap1\n      pop\n        /* \"#utility.yul\":3730:3856   */\n      swap2\n      swap1\n      pop\n      jump\t// out\n        /* \"#utility.yul\":3862:4002   */\n    tag_295:\n        /* \"#utility.yul\":3926:3935   */\n      0x00\n        /* \"#utility.yul\":3959:3996   */\n      tag_391\n        /* \"#utility.yul\":3990:3995   */\n      dup3\n        /* \"#utility.yul\":3959:3996   */\n      tag_294\n      jump\t// in\n    tag_391:\n        /* \"#utility.yul\":3946:3996   */\n      swap1\n      pop\n        /* \"#utility.yul\":3862:4002   */\n      swap2\n      swap1\n      pop\n      jump\t// out\n        /* \"#utility.yul\":4008:4167   */\n    tag_296:\n        /* \"#utility.yul\":4109:4160   */\n      tag_393\n        /* \"#utility.yul\":4154:4159   */\n      dup2\n        /* \"#utility.yul\":4109:4160   */\n      tag_295\n      jump\t// in\n    tag_393:\n        /* \"#utility.yul\":4104:4107   */\n      dup3\n        /* \"#utility.yul\":4097:4161   */\n      mstore\n        /* \"#utility.yul\":4008:4167   */\n      pop\n      pop\n      jump\t// out\n        /* \"#utility.yul\":4173:4423   */\n    tag_123:\n        /* \"#utility.yul\":4280:4284   */\n      0x00\n        /* \"#utility.yul\":4318:4320   */\n      0x20\n        /* \"#utility.yul\":4307:4316   */\n      dup3\n        /* \"#utility.yul\":4303:4321   */\n      add\n        /* \"#utility.yul\":4295:4321   */\n      swap1\n      pop\n        /* \"#utility.yul\":4331:4416   */\n      tag_395\n        /* \"#utility.yul\":4413:4414   */\n      0x00\n        /* \"#utility.yul\":4402:4411   */\n      dup4\n        /* \"#utility.yul\":4398:4415   */\n      add\n        /* \"#utility.yul\":4389:4395   */\n      dup5\n        /* \"#utility.yul\":4331:4416   */\n      tag_296\n      jump\t// in\n    tag_395:\n        /* \"#utility.yul\":4173:4423   */\n      swap3\n      swap2\n      pop\n      pop\n      jump\t// out\n        /* \"#utility.yul\":4429:4598   */\n    tag_297:\n        /* \"#utility.yul\":4513:4524   */\n      0x00\n        /* \"#utility.yul\":4547:4553   */\n      dup3\n        /* \"#utility.yul\":4542:4545   */\n      dup3\n        /* \"#utility.yul\":4535:4554   */\n      mstore\n        /* \"#utility.yul\":4587:4591   */\n      0x20\n        /* \"#utility.yul\":4582:4585   */\n      dup3\n        /* \"#utility.yul\":4578:4592   */\n      add\n        /* \"#utility.yul\":4563:4592   */\n      swap1\n      pop\n        /* \"#utility.yul\":4429:4598   */\n      swap3\n      swap2\n      pop\n      pop\n      jump\t// out\n        /* \"#utility.yul\":4604:4775   */\n    tag_298:\n        /* \"#utility.yul\":4744:4767   */\n      0x50726573616c65206e6f742066696e616c697a65640000000000000000000000\n        /* \"#utility.yul\":4740:4741   */\n      0x00\n        /* \"#utility.yul\":4732:4738   */\n      dup3\n        /* \"#utility.yul\":4728:4742   */\n      add\n        /* \"#utility.yul\":4721:4768   */\n      mstore\n        /* \"#utility.yul\":4604:4775   */\n      pop\n      jump\t// out\n        /* \"#utility.yul\":4781:5147   */\n    tag_299:\n        /* \"#utility.yul\":4923:4926   */\n      0x00\n        /* \"#utility.yul\":4944:5011   */\n      tag_399\n        /* \"#utility.yul\":5008:5010   */\n      0x15\n        /* \"#utility.yul\":5003:5006   */\n      dup4\n        /* \"#utility.yul\":4944:5011   */\n      tag_297\n      jump\t// in\n    tag_399:\n        /* \"#utility.yul\":4937:5011   */\n      swap2\n      pop\n        /* \"#utility.yul\":5020:5113   */\n      tag_400\n        /* \"#utility.yul\":5109:5112   */\n      dup3\n        /* \"#utility.yul\":5020:5113   */\n      tag_298\n      jump\t// in\n    tag_400:\n        /* \"#utility.yul\":5138:5140   */\n      0x20\n        /* \"#utility.yul\":5133:5136   */\n      dup3\n        /* \"#utility.yul\":5129:5141   */\n      add\n        /* \"#utility.yul\":5122:5141   */\n      swap1\n      pop\n        /* \"#utility.yul\":4781:5147   */\n      swap2\n      swap1\n      pop\n      jump\t// out\n        /* \"#utility.yul\":5153:5572   */\n    tag_130:\n        /* \"#utility.yul\":5319:5323   */\n      0x00\n        /* \"#utility.yul\":5357:5359   */\n      0x20\n        /* \"#utility.yul\":5346:5355   */\n      dup3\n        /* \"#utility.yul\":5342:5360   */\n      add\n        /* \"#utility.yul\":5334:5360   */\n      swap1\n      pop\n        /* \"#utility.yul\":5406:5415   */\n      dup2\n        /* \"#utility.yul\":5400:5404   */\n      dup2\n        /* \"#utility.yul\":5396:5416   */\n      sub\n        /* \"#utility.yul\":5392:5393   */\n      0x00\n        /* \"#utility.yul\":5381:5390   */\n      dup4\n        /* \"#utility.yul\":5377:5394   */\n      add\n        /* \"#utility.yul\":5370:5417   */\n      mstore\n        /* \"#utility.yul\":5434:5565   */\n      tag_402\n        /* \"#utility.yul\":5560:5564   */\n      dup2\n        /* \"#utility.yul\":5434:5565   */\n      tag_299\n      jump\t// in\n    tag_402:\n        /* \"#utility.yul\":5426:5565   */\n      swap1\n      pop\n        /* \"#utility.yul\":5153:5572   */\n      swap2\n      swap1\n      pop\n      jump\t// out\n        /* \"#utility.yul\":5578:5742   */\n    tag_300:\n        /* \"#utility.yul\":5718:5734   */\n      0x50726573616c65206661696c6564000000000000000000000000000000000000\n        /* \"#utility.yul\":5714:5715   */\n      0x00\n        /* \"#utility.yul\":5706:5712   */\n      dup3\n        /* \"#utility.yul\":5702:5716   */\n      add\n        /* \"#utility.yul\":5695:5735   */\n      mstore\n        /* \"#utility.yul\":5578:5742   */\n      pop\n      jump\t// out\n        /* \"#utility.yul\":5748:6114   */\n    tag_301:\n        /* \"#utility.yul\":5890:5893   */\n      0x00\n        /* \"#utility.yul\":5911:5978   */\n      tag_405\n        /* \"#utility.yul\":5975:5977   */\n      0x0e\n        /* \"#utility.yul\":5970:5973   */\n      dup4\n        /* \"#utility.yul\":5911:5978   */\n      tag_297\n      jump\t// in\n    tag_405:\n        /* \"#utility.yul\":5904:5978   */\n      swap2\n      pop\n        /* \"#utility.yul\":5987:6080   */\n      tag_406\n        /* \"#utility.yul\":6076:6079   */\n      dup3\n        /* \"#utility.yul\":5987:6080   */\n      tag_300\n      jump\t// in\n    tag_406:\n        /* \"#utility.yul\":6105:6107   */\n      0x20\n        /* \"#utility.yul\":6100:6103   */\n      dup3\n        /* \"#utility.yul\":6096:6108   */\n      add\n        /* \"#utility.yul\":6089:6108   */\n      swap1\n      pop\n        /* \"#utility.yul\":5748:6114   */\n      swap2\n      swap1\n      pop\n      jump\t// out\n        /* \"#utility.yul\":6120:6539   */\n    tag_133:\n        /* \"#utility.yul\":6286:6290   */\n      0x00\n        /* \"#utility.yul\":6324:6326   */\n      0x20\n        /* \"#utility.yul\":6313:6322   */\n      dup3\n        /* \"#utility.yul\":6309:6327   */\n      add\n        /* \"#utility.yul\":6301:6327   */\n      swap1\n      pop\n        /* \"#utility.yul\":6373:6382   */\n      dup2\n        /* \"#utility.yul\":6367:6371   */\n      dup2\n        /* \"#utility.yul\":6363:6383   */\n      sub\n        /* \"#utility.yul\":6359:6360   */\n      0x00\n        /* \"#utility.yul\":6348:6357   */\n      dup4\n        /* \"#utility.yul\":6344:6361   */\n      add\n        /* \"#utility.yul\":6337:6384   */\n      mstore\n        /* \"#utility.yul\":6401:6532   */\n      tag_408\n        /* \"#utility.yul\":6527:6531   */\n      dup2\n        /* \"#utility.yul\":6401:6532   */\n      tag_301\n      jump\t// in\n    tag_408:\n        /* \"#utility.yul\":6393:6532   */\n      swap1\n      pop\n        /* \"#utility.yul\":6120:6539   */\n      swap2\n      swap1\n      pop\n      jump\t// out\n        /* \"#utility.yul\":6545:6716   */\n    tag_302:\n        /* \"#utility.yul\":6685:6708   */\n      0x4e6f20636f6e747269627574696f6e20666f756e640000000000000000000000\n        /* \"#utility.yul\":6681:6682   */\n      0x00\n        /* \"#utility.yul\":6673:6679   */\n      dup3\n        /* \"#utility.yul\":6669:6683   */\n      add\n        /* \"#utility.yul\":6662:6709   */\n      mstore\n        /* \"#utility.yul\":6545:6716   */\n      pop\n      jump\t// out\n        /* \"#utility.yul\":6722:7088   */\n    tag_303:\n        /* \"#utility.yul\":6864:6867   */\n      0x00\n        /* \"#utility.yul\":6885:6952   */\n      tag_411\n        /* \"#utility.yul\":6949:6951   */\n      0x15\n        /* \"#utility.yul\":6944:6947   */\n      dup4\n        /* \"#utility.yul\":6885:6952   */\n      tag_297\n      jump\t// in\n    tag_411:\n        /* \"#utility.yul\":6878:6952   */\n      swap2\n      pop\n        /* \"#utility.yul\":6961:7054   */\n      tag_412\n        /* \"#utility.yul\":7050:7053   */\n      dup3\n        /* \"#utility.yul\":6961:7054   */\n      tag_302\n      jump\t// in\n    tag_412:\n        /* \"#utility.yul\":7079:7081   */\n      0x20\n        /* \"#utility.yul\":7074:7077   */\n      dup3\n        /* \"#utility.yul\":7070:7082   */\n      add\n        /* \"#utility.yul\":7063:7082   */\n      swap1\n      pop\n        /* \"#utility.yul\":6722:7088   */\n      swap2\n      swap1\n      pop\n      jump\t// out\n        /* \"#utility.yul\":7094:7513   */\n    tag_136:\n        /* \"#utility.yul\":7260:7264   */\n      0x00\n        /* \"#utility.yul\":7298:7300   */\n      0x20\n        /* \"#utility.yul\":7287:7296   */\n      dup3\n        /* \"#utility.yul\":7283:7301   */\n      add\n        /* \"#utility.yul\":7275:7301   */\n      swap1\n      pop\n        /* \"#utility.yul\":7347:7356   */\n      dup2\n        /* \"#utility.yul\":7341:7345   */\n      dup2\n        /* \"#utility.yul\":7337:7357   */\n      sub\n        /* \"#utility.yul\":7333:7334   */\n      0x00\n        /* \"#utility.yul\":7322:7331   */\n      dup4\n        /* \"#utility.yul\":7318:7335   */\n      add\n        /* \"#utility.yul\":7311:7358   */\n      mstore\n        /* \"#utility.yul\":7375:7506   */\n      tag_414\n        /* \"#utility.yul\":7501:7505   */\n      dup2\n        /* \"#utility.yul\":7375:7506   */\n      tag_303\n      jump\t// in\n    tag_414:\n        /* \"#utility.yul\":7367:7506   */\n      swap1\n      pop\n        /* \"#utility.yul\":7094:7513   */\n      swap2\n      swap1\n      pop\n      jump\t// out\n        /* \"#utility.yul\":7519:7851   */\n    tag_139:\n        /* \"#utility.yul\":7640:7644   */\n      0x00\n        /* \"#utility.yul\":7678:7680   */\n      0x40\n        /* \"#utility.yul\":7667:7676   */\n      dup3\n        /* \"#utility.yul\":7663:7681   */\n      add\n        /* \"#utility.yul\":7655:7681   */\n      swap1\n      pop\n        /* \"#utility.yul\":7691:7762   */\n      tag_416\n        /* \"#utility.yul\":7759:7760   */\n      0x00\n        /* \"#utility.yul\":7748:7757   */\n      dup4\n        /* \"#utility.yul\":7744:7761   */\n      add\n        /* \"#utility.yul\":7735:7741   */\n      dup6\n        /* \"#utility.yul\":7691:7762   */\n      tag_289\n      jump\t// in\n    tag_416:\n        /* \"#utility.yul\":7772:7844   */\n      tag_417\n        /* \"#utility.yul\":7840:7842   */\n      0x20\n        /* \"#utility.yul\":7829:7838   */\n      dup4\n        /* \"#utility.yul\":7825:7843   */\n      add\n        /* \"#utility.yul\":7816:7822   */\n      dup5\n        /* \"#utility.yul\":7772:7844   */\n      tag_277\n      jump\t// in\n    tag_417:\n        /* \"#utility.yul\":7519:7851   */\n      swap4\n      swap3\n      pop\n      pop\n      pop\n      jump\t// out\n        /* \"#utility.yul\":7857:7973   */\n    tag_304:\n        /* \"#utility.yul\":7927:7948   */\n      tag_419\n        /* \"#utility.yul\":7942:7947   */\n      dup2\n        /* \"#utility.yul\":7927:7948   */\n      tag_285\n      jump\t// in\n    tag_419:\n        /* \"#utility.yul\":7920:7925   */\n      dup2\n        /* \"#utility.yul\":7917:7949   */\n      eq\n        /* \"#utility.yul\":7907:7967   */\n      tag_420\n      jumpi\n        /* \"#utility.yul\":7963:7964   */\n      0x00\n        /* \"#utility.yul\":7960:7961   */\n      0x00\n        /* \"#utility.yul\":7953:7965   */\n      revert\n        /* \"#utility.yul\":7907:7967   */\n    tag_420:\n        /* \"#utility.yul\":7857:7973   */\n      pop\n      jump\t// out\n        /* \"#utility.yul\":7979:8116   */\n    tag_305:\n        /* \"#utility.yul\":8033:8038   */\n      0x00\n        /* \"#utility.yul\":8064:8070   */\n      dup2\n        /* \"#utility.yul\":8058:8071   */\n      mload\n        /* \"#utility.yul\":8049:8071   */\n      swap1\n      pop\n        /* \"#utility.yul\":8080:8110   */\n      tag_422\n        /* \"#utility.yul\":8104:8109   */\n      dup2\n        /* \"#utility.yul\":8080:8110   */\n      tag_304\n      jump\t// in\n    tag_422:\n        /* \"#utility.yul\":7979:8116   */\n      swap3\n      swap2\n      pop\n      pop\n      jump\t// out\n        /* \"#utility.yul\":8122:8467   */\n    tag_143:\n        /* \"#utility.yul\":8189:8195   */\n      0x00\n        /* \"#utility.yul\":8238:8240   */\n      0x20\n        /* \"#utility.yul\":8226:8235   */\n      dup3\n        /* \"#utility.yul\":8217:8224   */\n      dup5\n        /* \"#utility.yul\":8213:8236   */\n      sub\n        /* \"#utility.yul\":8209:8241   */\n      slt\n        /* \"#utility.yul\":8206:8325   */\n      iszero\n      tag_424\n      jumpi\n        /* \"#utility.yul\":8244:8323   */\n      tag_425\n      tag_279\n      jump\t// in\n    tag_425:\n        /* \"#utility.yul\":8206:8325   */\n    tag_424:\n        /* \"#utility.yul\":8364:8365   */\n      0x00\n        /* \"#utility.yul\":8389:8450   */\n      tag_426\n        /* \"#utility.yul\":8442:8449   */\n      dup5\n        /* \"#utility.yul\":8433:8439   */\n      dup3\n        /* \"#utility.yul\":8422:8431   */\n      dup6\n        /* \"#utility.yul\":8418:8440   */\n      add\n        /* \"#utility.yul\":8389:8450   */\n      tag_305\n      jump\t// in\n    tag_426:\n        /* \"#utility.yul\":8379:8450   */\n      swap2\n      pop\n        /* \"#utility.yul\":8335:8460   */\n      pop\n        /* \"#utility.yul\":8122:8467   */\n      swap3\n      swap2\n      pop\n      pop\n      jump\t// out\n        /* \"#utility.yul\":8473:8644   */\n    tag_306:\n        /* \"#utility.yul\":8613:8636   */\n      0x546f6b656e207472616e73666572206661696c65640000000000000000000000\n        /* \"#utility.yul\":8609:8610   */\n      0x00\n        /* \"#utility.yul\":8601:8607   */\n      dup3\n        /* \"#utility.yul\":8597:8611   */\n      add\n        /* \"#utility.yul\":8590:8637   */\n      mstore\n        /* \"#utility.yul\":8473:8644   */\n      pop\n      jump\t// out\n        /* \"#utility.yul\":8650:9016   */\n    tag_307:\n        /* \"#utility.yul\":8792:8795   */\n      0x00\n        /* \"#utility.yul\":8813:8880   */\n      tag_429\n        /* \"#utility.yul\":8877:8879   */\n      0x15\n        /* \"#utility.yul\":8872:8875   */\n      dup4\n        /* \"#utility.yul\":8813:8880   */\n      tag_297\n      jump\t// in\n    tag_429:\n        /* \"#utility.yul\":8806:8880   */\n      swap2\n      pop\n        /* \"#utility.yul\":8889:8982   */\n      tag_430\n        /* \"#utility.yul\":8978:8981   */\n      dup3\n        /* \"#utility.yul\":8889:8982   */\n      tag_306\n      jump\t// in\n    tag_430:\n        /* \"#utility.yul\":9007:9009   */\n      0x20\n        /* \"#utility.yul\":9002:9005   */\n      dup3\n        /* \"#utility.yul\":8998:9010   */\n      add\n        /* \"#utility.yul\":8991:9010   */\n      swap1\n      pop\n        /* \"#utility.yul\":8650:9016   */\n      swap2\n      swap1\n      pop\n      jump\t// out\n        /* \"#utility.yul\":9022:9441   */\n    tag_146:\n        /* \"#utility.yul\":9188:9192   */\n      0x00\n        /* \"#utility.yul\":9226:9228   */\n      0x20\n        /* \"#utility.yul\":9215:9224   */\n      dup3\n        /* \"#utility.yul\":9211:9229   */\n      add\n        /* \"#utility.yul\":9203:9229   */\n      swap1\n      pop\n        /* \"#utility.yul\":9275:9284   */\n      dup2\n        /* \"#utility.yul\":9269:9273   */\n      dup2\n        /* \"#utility.yul\":9265:9285   */\n      sub\n        /* \"#utility.yul\":9261:9262   */\n      0x00\n        /* \"#utility.yul\":9250:9259   */\n      dup4\n        /* \"#utility.yul\":9246:9263   */\n      add\n        /* \"#utility.yul\":9239:9286   */\n      mstore\n        /* \"#utility.yul\":9303:9434   */\n      tag_432\n        /* \"#utility.yul\":9429:9433   */\n      dup2\n        /* \"#utility.yul\":9303:9434   */\n      tag_307\n      jump\t// in\n    tag_432:\n        /* \"#utility.yul\":9295:9434   */\n      swap1\n      pop\n        /* \"#utility.yul\":9022:9441   */\n      swap2\n      swap1\n      pop\n      jump\t// out\n        /* \"#utility.yul\":9447:9616   */\n    tag_308:\n        /* \"#utility.yul\":9587:9608   */\n      0x43616e6e6f742066696e616c697a652079657400000000000000000000000000\n        /* \"#utility.yul\":9583:9584   */\n      0x00\n        /* \"#utility.yul\":9575:9581   */\n      dup3\n        /* \"#utility.yul\":9571:9585   */\n      add\n        /* \"#utility.yul\":9564:9609   */\n      mstore\n        /* \"#utility.yul\":9447:9616   */\n      pop\n      jump\t// out\n        /* \"#utility.yul\":9622:9988   */\n    tag_309:\n        /* \"#utility.yul\":9764:9767   */\n      0x00\n        /* \"#utility.yul\":9785:9852   */\n      tag_435\n        /* \"#utility.yul\":9849:9851   */\n      0x13\n        /* \"#utility.yul\":9844:9847   */\n      dup4\n        /* \"#utility.yul\":9785:9852   */\n      tag_297\n      jump\t// in\n    tag_435:\n        /* \"#utility.yul\":9778:9852   */\n      swap2\n      pop\n        /* \"#utility.yul\":9861:9954   */\n      tag_436\n        /* \"#utility.yul\":9950:9953   */\n      dup3\n        /* \"#utility.yul\":9861:9954   */\n      tag_308\n      jump\t// in\n    tag_436:\n        /* \"#utility.yul\":9979:9981   */\n      0x20\n        /* \"#utility.yul\":9974:9977   */\n      dup3\n        /* \"#utility.yul\":9970:9982   */\n      add\n        /* \"#utility.yul\":9963:9982   */\n      swap1\n      pop\n        /* \"#utility.yul\":9622:9988   */\n      swap2\n      swap1\n      pop\n      jump\t// out\n        /* \"#utility.yul\":9994:10413   */\n    tag_156:\n        /* \"#utility.yul\":10160:10164   */\n      0x00\n        /* \"#utility.yul\":10198:10200   */\n      0x20\n        /* \"#utility.yul\":10187:10196   */\n      dup3\n        /* \"#utility.yul\":10183:10201   */\n      add\n        /* \"#utility.yul\":10175:10201   */\n      swap1\n      pop\n        /* \"#utility.yul\":10247:10256   */\n      dup2\n        /* \"#utility.yul\":10241:10245   */\n      dup2\n        /* \"#utility.yul\":10237:10257   */\n      sub\n        /* \"#utility.yul\":10233:10234   */\n      0x00\n        /* \"#utility.yul\":10222:10231   */\n      dup4\n        /* \"#utility.yul\":10218:10235   */\n      add\n        /* \"#utility.yul\":10211:10258   */\n      mstore\n        /* \"#utility.yul\":10275:10406   */\n      tag_438\n        /* \"#utility.yul\":10401:10405   */\n      dup2\n        /* \"#utility.yul\":10275:10406   */\n      tag_309\n      jump\t// in\n    tag_438:\n        /* \"#utility.yul\":10267:10406   */\n      swap1\n      pop\n        /* \"#utility.yul\":9994:10413   */\n      swap2\n      swap1\n      pop\n      jump\t// out\n        /* \"#utility.yul\":10419:10586   */\n    tag_310:\n        /* \"#utility.yul\":10559:10578   */\n      0x416c72656164792066696e616c697a6564000000000000000000000000000000\n        /* \"#utility.yul\":10555:10556   */\n      0x00\n        /* \"#utility.yul\":10547:10553   */\n      dup3\n        /* \"#utility.yul\":10543:10557   */\n      add\n        /* \"#utility.yul\":10536:10579   */\n      mstore\n        /* \"#utility.yul\":10419:10586   */\n      pop\n      jump\t// out\n        /* \"#utility.yul\":10592:10958   */\n    tag_311:\n        /* \"#utility.yul\":10734:10737   */\n      0x00\n        /* \"#utility.yul\":10755:10822   */\n      tag_441\n        /* \"#utility.yul\":10819:10821   */\n      0x11\n        /* \"#utility.yul\":10814:10817   */\n      dup4\n        /* \"#utility.yul\":10755:10822   */\n      tag_297\n      jump\t// in\n    tag_441:\n        /* \"#utility.yul\":10748:10822   */\n      swap2\n      pop\n        /* \"#utility.yul\":10831:10924   */\n      tag_442\n        /* \"#utility.yul\":10920:10923   */\n      dup3\n        /* \"#utility.yul\":10831:10924   */\n      tag_310\n      jump\t// in\n    tag_442:\n        /* \"#utility.yul\":10949:10951   */\n      0x20\n        /* \"#utility.yul\":10944:10947   */\n      dup3\n        /* \"#utility.yul\":10940:10952   */\n      add\n        /* \"#utility.yul\":10933:10952   */\n      swap1\n      pop\n        /* \"#utility.yul\":10592:10958   */\n      swap2\n      swap1\n      pop\n      jump\t// out\n        /* \"#utility.yul\":10964:11383   */\n    tag_159:\n        /* \"#utility.yul\":11130:11134   */\n      0x00\n        /* \"#utility.yul\":11168:11170   */\n      0x20\n        /* \"#utility.yul\":11157:11166   */\n      dup3\n        /* \"#utility.yul\":11153:11171   */\n      add\n        /* \"#utility.yul\":11145:11171   */\n      swap1\n      pop\n        /* \"#utility.yul\":11217:11226   */\n      dup2\n        /* \"#utility.yul\":11211:11215   */\n      dup2\n        /* \"#utility.yul\":11207:11227   */\n      sub\n        /* \"#utility.yul\":11203:11204   */\n      0x00\n        /* \"#utility.yul\":11192:11201   */\n      dup4\n        /* \"#utility.yul\":11188:11205   */\n      add\n        /* \"#utility.yul\":11181:11228   */\n      mstore\n        /* \"#utility.yul\":11245:11376   */\n      tag_444\n        /* \"#utility.yul\":11371:11375   */\n      dup2\n        /* \"#utility.yul\":11245:11376   */\n      tag_311\n      jump\t// in\n    tag_444:\n        /* \"#utility.yul\":11237:11376   */\n      swap1\n      pop\n        /* \"#utility.yul\":10964:11383   */\n      swap2\n      swap1\n      pop\n      jump\t// out\n        /* \"#utility.yul\":11389:11567   */\n    tag_312:\n        /* \"#utility.yul\":11529:11559   */\n      0x43616e6e6f74207265636f7665722070726573616c6520746f6b656e00000000\n        /* \"#utility.yul\":11525:11526   */\n      0x00\n        /* \"#utility.yul\":11517:11523   */\n      dup3\n        /* \"#utility.yul\":11513:11527   */\n      add\n        /* \"#utility.yul\":11506:11560   */\n      mstore\n        /* \"#utility.yul\":11389:11567   */\n      pop\n      jump\t// out\n        /* \"#utility.yul\":11573:11939   */\n    tag_313:\n        /* \"#utility.yul\":11715:11718   */\n      0x00\n        /* \"#utility.yul\":11736:11803   */\n      tag_447\n        /* \"#utility.yul\":11800:11802   */\n      0x1c\n        /* \"#utility.yul\":11795:11798   */\n      dup4\n        /* \"#utility.yul\":11736:11803   */\n      tag_297\n      jump\t// in\n    tag_447:\n        /* \"#utility.yul\":11729:11803   */\n      swap2\n      pop\n        /* \"#utility.yul\":11812:11905   */\n      tag_448\n        /* \"#utility.yul\":11901:11904   */\n      dup3\n        /* \"#utility.yul\":11812:11905   */\n      tag_312\n      jump\t// in\n    tag_448:\n        /* \"#utility.yul\":11930:11932   */\n      0x20\n        /* \"#utility.yul\":11925:11928   */\n      dup3\n        /* \"#utility.yul\":11921:11933   */\n      add\n        /* \"#utility.yul\":11914:11933   */\n      swap1\n      pop\n        /* \"#utility.yul\":11573:11939   */\n      swap2\n      swap1\n      pop\n      jump\t// out\n        /* \"#utility.yul\":11945:12364   */\n    tag_176:\n        /* \"#utility.yul\":12111:12115   */\n      0x00\n        /* \"#utility.yul\":12149:12151   */\n      0x20\n        /* \"#utility.yul\":12138:12147   */\n      dup3\n        /* \"#utility.yul\":12134:12152   */\n      add\n        /* \"#utility.yul\":12126:12152   */\n      swap1\n      pop\n        /* \"#utility.yul\":12198:12207   */\n      dup2\n        /* \"#utility.yul\":12192:12196   */\n      dup2\n        /* \"#utility.yul\":12188:12208   */\n      sub\n        /* \"#utility.yul\":12184:12185   */\n      0x00\n        /* \"#utility.yul\":12173:12182   */\n      dup4\n        /* \"#utility.yul\":12169:12186   */\n      add\n        /* \"#utility.yul\":12162:12209   */\n      mstore\n        /* \"#utility.yul\":12226:12357   */\n      tag_450\n        /* \"#utility.yul\":12352:12356   */\n      dup2\n        /* \"#utility.yul\":12226:12357   */\n      tag_313\n      jump\t// in\n    tag_450:\n        /* \"#utility.yul\":12218:12357   */\n      swap1\n      pop\n        /* \"#utility.yul\":11945:12364   */\n      swap2\n      swap1\n      pop\n      jump\t// out\n        /* \"#utility.yul\":12370:12513   */\n    tag_314:\n        /* \"#utility.yul\":12427:12432   */\n      0x00\n        /* \"#utility.yul\":12458:12464   */\n      dup2\n        /* \"#utility.yul\":12452:12465   */\n      mload\n        /* \"#utility.yul\":12443:12465   */\n      swap1\n      pop\n        /* \"#utility.yul\":12474:12507   */\n      tag_452\n        /* \"#utility.yul\":12501:12506   */\n      dup2\n        /* \"#utility.yul\":12474:12507   */\n      tag_290\n      jump\t// in\n    tag_452:\n        /* \"#utility.yul\":12370:12513   */\n      swap3\n      swap2\n      pop\n      pop\n      jump\t// out\n        /* \"#utility.yul\":12519:12870   */\n    tag_181:\n        /* \"#utility.yul\":12589:12595   */\n      0x00\n        /* \"#utility.yul\":12638:12640   */\n      0x20\n        /* \"#utility.yul\":12626:12635   */\n      dup3\n        /* \"#utility.yul\":12617:12624   */\n      dup5\n        /* \"#utility.yul\":12613:12636   */\n      sub\n        /* \"#utility.yul\":12609:12641   */\n      slt\n        /* \"#utility.yul\":12606:12725   */\n      iszero\n      tag_454\n      jumpi\n        /* \"#utility.yul\":12644:12723   */\n      tag_455\n      tag_279\n      jump\t// in\n    tag_455:\n        /* \"#utility.yul\":12606:12725   */\n    tag_454:\n        /* \"#utility.yul\":12764:12765   */\n      0x00\n        /* \"#utility.yul\":12789:12853   */\n      tag_456\n        /* \"#utility.yul\":12845:12852   */\n      dup5\n        /* \"#utility.yul\":12836:12842   */\n      dup3\n        /* \"#utility.yul\":12825:12834   */\n      dup6\n        /* \"#utility.yul\":12821:12843   */\n      add\n        /* \"#utility.yul\":12789:12853   */\n      tag_314\n      jump\t// in\n    tag_456:\n        /* \"#utility.yul\":12779:12853   */\n      swap2\n      pop\n        /* \"#utility.yul\":12735:12863   */\n      pop\n        /* \"#utility.yul\":12519:12870   */\n      swap3\n      swap2\n      pop\n      pop\n      jump\t// out\n        /* \"#utility.yul\":12876:13047   */\n    tag_315:\n        /* \"#utility.yul\":13016:13039   */\n      0x546f6b656e207265636f76657279206661696c65640000000000000000000000\n        /* \"#utility.yul\":13012:13013   */\n      0x00\n        /* \"#utility.yul\":13004:13010   */\n      dup3\n        /* \"#utility.yul\":13000:13014   */\n      add\n        /* \"#utility.yul\":12993:13040   */\n      mstore\n        /* \"#utility.yul\":12876:13047   */\n      pop\n      jump\t// out\n        /* \"#utility.yul\":13053:13419   */\n    tag_316:\n        /* \"#utility.yul\":13195:13198   */\n      0x00\n        /* \"#utility.yul\":13216:13283   */\n      tag_459\n        /* \"#utility.yul\":13280:13282   */\n      0x15\n        /* \"#utility.yul\":13275:13278   */\n      dup4\n        /* \"#utility.yul\":13216:13283   */\n      tag_297\n      jump\t// in\n    tag_459:\n        /* \"#utility.yul\":13209:13283   */\n      swap2\n      pop\n        /* \"#utility.yul\":13292:13385   */\n      tag_460\n        /* \"#utility.yul\":13381:13384   */\n      dup3\n        /* \"#utility.yul\":13292:13385   */\n      tag_315\n      jump\t// in\n    tag_460:\n        /* \"#utility.yul\":13410:13412   */\n      0x20\n        /* \"#utility.yul\":13405:13408   */\n      dup3\n        /* \"#utility.yul\":13401:13413   */\n      add\n        /* \"#utility.yul\":13394:13413   */\n      swap1\n      pop\n        /* \"#utility.yul\":13053:13419   */\n      swap2\n      swap1\n      pop\n      jump\t// out\n        /* \"#utility.yul\":13425:13844   */\n    tag_189:\n        /* \"#utility.yul\":13591:13595   */\n      0x00\n        /* \"#utility.yul\":13629:13631   */\n      0x20\n        /* \"#utility.yul\":13618:13627   */\n      dup3\n        /* \"#utility.yul\":13614:13632   */\n      add\n        /* \"#utility.yul\":13606:13632   */\n      swap1\n      pop\n        /* \"#utility.yul\":13678:13687   */\n      dup2\n        /* \"#utility.yul\":13672:13676   */\n      dup2\n        /* \"#utility.yul\":13668:13688   */\n      sub\n        /* \"#utility.yul\":13664:13665   */\n      0x00\n        /* \"#utility.yul\":13653:13662   */\n      dup4\n        /* \"#utility.yul\":13649:13666   */\n      add\n        /* \"#utility.yul\":13642:13689   */\n      mstore\n        /* \"#utility.yul\":13706:13837   */\n      tag_462\n        /* \"#utility.yul\":13832:13836   */\n      dup2\n        /* \"#utility.yul\":13706:13837   */\n      tag_316\n      jump\t// in\n    tag_462:\n        /* \"#utility.yul\":13698:13837   */\n      swap1\n      pop\n        /* \"#utility.yul\":13425:13844   */\n      swap2\n      swap1\n      pop\n      jump\t// out\n        /* \"#utility.yul\":13850:14019   */\n    tag_317:\n        /* \"#utility.yul\":13990:14011   */\n      0x50726573616c65206e6f74207374617274656400000000000000000000000000\n        /* \"#utility.yul\":13986:13987   */\n      0x00\n        /* \"#utility.yul\":13978:13984   */\n      dup3\n        /* \"#utility.yul\":13974:13988   */\n      add\n        /* \"#utility.yul\":13967:14012   */\n      mstore\n        /* \"#utility.yul\":13850:14019   */\n      pop\n      jump\t// out\n        /* \"#utility.yul\":14025:14391   */\n    tag_318:\n        /* \"#utility.yul\":14167:14170   */\n      0x00\n        /* \"#utility.yul\":14188:14255   */\n      tag_465\n        /* \"#utility.yul\":14252:14254   */\n      0x13\n        /* \"#utility.yul\":14247:14250   */\n      dup4\n        /* \"#utility.yul\":14188:14255   */\n      tag_297\n      jump\t// in\n    tag_465:\n        /* \"#utility.yul\":14181:14255   */\n      swap2\n      pop\n        /* \"#utility.yul\":14264:14357   */\n      tag_466\n        /* \"#utility.yul\":14353:14356   */\n      dup3\n        /* \"#utility.yul\":14264:14357   */\n      tag_317\n      jump\t// in\n    tag_466:\n        /* \"#utility.yul\":14382:14384   */\n      0x20\n        /* \"#utility.yul\":14377:14380   */\n      dup3\n        /* \"#utility.yul\":14373:14385   */\n      add\n        /* \"#utility.yul\":14366:14385   */\n      swap1\n      pop\n        /* \"#utility.yul\":14025:14391   */\n      swap2\n      swap1\n      pop\n      jump\t// out\n        /* \"#utility.yul\":14397:14816   */\n    tag_217:\n        /* \"#utility.yul\":14563:14567   */\n      0x00\n        /* \"#utility.yul\":14601:14603   */\n      0x20\n        /* \"#utility.yul\":14590:14599   */\n      dup3\n        /* \"#utility.yul\":14586:14604   */\n      add\n        /* \"#utility.yul\":14578:14604   */\n      swap1\n      pop\n        /* \"#utility.yul\":14650:14659   */\n      dup2\n        /* \"#utility.yul\":14644:14648   */\n      dup2\n        /* \"#utility.yul\":14640:14660   */\n      sub\n        /* \"#utility.yul\":14636:14637   */\n      0x00\n        /* \"#utility.yul\":14625:14634   */\n      dup4\n        /* \"#utility.yul\":14621:14638   */\n      add\n        /* \"#utility.yul\":14614:14661   */\n      mstore\n        /* \"#utility.yul\":14678:14809   */\n      tag_468\n        /* \"#utility.yul\":14804:14808   */\n      dup2\n        /* \"#utility.yul\":14678:14809   */\n      tag_318\n      jump\t// in\n    tag_468:\n        /* \"#utility.yul\":14670:14809   */\n      swap1\n      pop\n        /* \"#utility.yul\":14397:14816   */\n      swap2\n      swap1\n      pop\n      jump\t// out\n        /* \"#utility.yul\":14822:14985   */\n    tag_319:\n        /* \"#utility.yul\":14962:14977   */\n      0x50726573616c6520656e64656400000000000000000000000000000000000000\n        /* \"#utility.yul\":14958:14959   */\n      0x00\n        /* \"#utility.yul\":14950:14956   */\n      dup3\n        /* \"#utility.yul\":14946:14960   */\n      add\n        /* \"#utility.yul\":14939:14978   */\n      mstore\n        /* \"#utility.yul\":14822:14985   */\n      pop\n      jump\t// out\n        /* \"#utility.yul\":14991:15357   */\n    tag_320:\n        /* \"#utility.yul\":15133:15136   */\n      0x00\n        /* \"#utility.yul\":15154:15221   */\n      tag_471\n        /* \"#utility.yul\":15218:15220   */\n      0x0d\n        /* \"#utility.yul\":15213:15216   */\n      dup4\n        /* \"#utility.yul\":15154:15221   */\n      tag_297\n      jump\t// in\n    tag_471:\n        /* \"#utility.yul\":15147:15221   */\n      swap2\n      pop\n        /* \"#utility.yul\":15230:15323   */\n      tag_472\n        /* \"#utility.yul\":15319:15322   */\n      dup3\n        /* \"#utility.yul\":15230:15323   */\n      tag_319\n      jump\t// in\n    tag_472:\n        /* \"#utility.yul\":15348:15350   */\n      0x20\n        /* \"#utility.yul\":15343:15346   */\n      dup3\n        /* \"#utility.yul\":15339:15351   */\n      add\n        /* \"#utility.yul\":15332:15351   */\n      swap1\n      pop\n        /* \"#utility.yul\":14991:15357   */\n      swap2\n      swap1\n      pop\n      jump\t// out\n        /* \"#utility.yul\":15363:15782   */\n    tag_220:\n        /* \"#utility.yul\":15529:15533   */\n      0x00\n        /* \"#utility.yul\":15567:15569   */\n      0x20\n        /* \"#utility.yul\":15556:15565   */\n      dup3\n        /* \"#utility.yul\":15552:15570   */\n      add\n        /* \"#utility.yul\":15544:15570   */\n      swap1\n      pop\n        /* \"#utility.yul\":15616:15625   */\n      dup2\n        /* \"#utility.yul\":15610:15614   */\n      dup2\n        /* \"#utility.yul\":15606:15626   */\n      sub\n        /* \"#utility.yul\":15602:15603   */\n      0x00\n        /* \"#utility.yul\":15591:15600   */\n      dup4\n        /* \"#utility.yul\":15587:15604   */\n      add\n        /* \"#utility.yul\":15580:15627   */\n      mstore\n        /* \"#utility.yul\":15644:15775   */\n      tag_474\n        /* \"#utility.yul\":15770:15774   */\n      dup2\n        /* \"#utility.yul\":15644:15775   */\n      tag_320\n      jump\t// in\n    tag_474:\n        /* \"#utility.yul\":15636:15775   */\n      swap1\n      pop\n        /* \"#utility.yul\":15363:15782   */\n      swap2\n      swap1\n      pop\n      jump\t// out\n        /* \"#utility.yul\":15788:15955   */\n    tag_321:\n        /* \"#utility.yul\":15928:15947   */\n      0x50726573616c652066696e616c697a6564000000000000000000000000000000\n        /* \"#utility.yul\":15924:15925   */\n      0x00\n        /* \"#utility.yul\":15916:15922   */\n      dup3\n        /* \"#utility.yul\":15912:15926   */\n      add\n        /* \"#utility.yul\":15905:15948   */\n      mstore\n        /* \"#utility.yul\":15788:15955   */\n      pop\n      jump\t// out\n        /* \"#utility.yul\":15961:16327   */\n    tag_322:\n        /* \"#utility.yul\":16103:16106   */\n      0x00\n        /* \"#utility.yul\":16124:16191   */\n      tag_477\n        /* \"#utility.yul\":16188:16190   */\n      0x11\n        /* \"#utility.yul\":16183:16186   */\n      dup4\n        /* \"#utility.yul\":16124:16191   */\n      tag_297\n      jump\t// in\n    tag_477:\n        /* \"#utility.yul\":16117:16191   */\n      swap2\n      pop\n        /* \"#utility.yul\":16200:16293   */\n      tag_478\n        /* \"#utility.yul\":16289:16292   */\n      dup3\n        /* \"#utility.yul\":16200:16293   */\n      tag_321\n      jump\t// in\n    tag_478:\n        /* \"#utility.yul\":16318:16320   */\n      0x20\n        /* \"#utility.yul\":16313:16316   */\n      dup3\n        /* \"#utility.yul\":16309:16321   */\n      add\n        /* \"#utility.yul\":16302:16321   */\n      swap1\n      pop\n        /* \"#utility.yul\":15961:16327   */\n      swap2\n      swap1\n      pop\n      jump\t// out\n        /* \"#utility.yul\":16333:16752   */\n    tag_223:\n        /* \"#utility.yul\":16499:16503   */\n      0x00\n        /* \"#utility.yul\":16537:16539   */\n      0x20\n        /* \"#utility.yul\":16526:16535   */\n      dup3\n        /* \"#utility.yul\":16522:16540   */\n      add\n        /* \"#utility.yul\":16514:16540   */\n      swap1\n      pop\n        /* \"#utility.yul\":16586:16595   */\n      dup2\n        /* \"#utility.yul\":16580:16584   */\n      dup2\n        /* \"#utility.yul\":16576:16596   */\n      sub\n        /* \"#utility.yul\":16572:16573   */\n      0x00\n        /* \"#utility.yul\":16561:16570   */\n      dup4\n        /* \"#utility.yul\":16557:16574   */\n      add\n        /* \"#utility.yul\":16550:16597   */\n      mstore\n        /* \"#utility.yul\":16614:16745   */\n      tag_480\n        /* \"#utility.yul\":16740:16744   */\n      dup2\n        /* \"#utility.yul\":16614:16745   */\n      tag_322\n      jump\t// in\n    tag_480:\n        /* \"#utility.yul\":16606:16745   */\n      swap1\n      pop\n        /* \"#utility.yul\":16333:16752   */\n      swap2\n      swap1\n      pop\n      jump\t// out\n        /* \"#utility.yul\":16758:16934   */\n    tag_323:\n        /* \"#utility.yul\":16898:16926   */\n      0x42656c6f77206d696e696d756d20636f6e747269627574696f6e000000000000\n        /* \"#utility.yul\":16894:16895   */\n      0x00\n        /* \"#utility.yul\":16886:16892   */\n      dup3\n        /* \"#utility.yul\":16882:16896   */\n      add\n        /* \"#utility.yul\":16875:16927   */\n      mstore\n        /* \"#utility.yul\":16758:16934   */\n      pop\n      jump\t// out\n        /* \"#utility.yul\":16940:17306   */\n    tag_324:\n        /* \"#utility.yul\":17082:17085   */\n      0x00\n        /* \"#utility.yul\":17103:17170   */\n      tag_483\n        /* \"#utility.yul\":17167:17169   */\n      0x1a\n        /* \"#utility.yul\":17162:17165   */\n      dup4\n        /* \"#utility.yul\":17103:17170   */\n      tag_297\n      jump\t// in\n    tag_483:\n        /* \"#utility.yul\":17096:17170   */\n      swap2\n      pop\n        /* \"#utility.yul\":17179:17272   */\n      tag_484\n        /* \"#utility.yul\":17268:17271   */\n      dup3\n        /* \"#utility.yul\":17179:17272   */\n      tag_323\n      jump\t// in\n    tag_484:\n        /* \"#utility.yul\":17297:17299   */\n      0x20\n        /* \"#utility.yul\":17292:17295   */\n      dup3\n        /* \"#utility.yul\":17288:17300   */\n      add\n        /* \"#utility.yul\":17281:17300   */\n      swap1\n      pop\n        /* \"#utility.yul\":16940:17306   */\n      swap2\n      swap1\n      pop\n      jump\t// out\n        /* \"#utility.yul\":17312:17731   */\n    tag_226:\n        /* \"#utility.yul\":17478:17482   */\n      0x00\n        /* \"#utility.yul\":17516:17518   */\n      0x20\n        /* \"#utility.yul\":17505:17514   */\n      dup3\n        /* \"#utility.yul\":17501:17519   */\n      add\n        /* \"#utility.yul\":17493:17519   */\n      swap1\n      pop\n        /* \"#utility.yul\":17565:17574   */\n      dup2\n        /* \"#utility.yul\":17559:17563   */\n      dup2\n        /* \"#utility.yul\":17555:17575   */\n      sub\n        /* \"#utility.yul\":17551:17552   */\n      0x00\n        /* \"#utility.yul\":17540:17549   */\n      dup4\n        /* \"#utility.yul\":17536:17553   */\n      add\n        /* \"#utility.yul\":17529:17576   */\n      mstore\n        /* \"#utility.yul\":17593:17724   */\n      tag_486\n        /* \"#utility.yul\":17719:17723   */\n      dup2\n        /* \"#utility.yul\":17593:17724   */\n      tag_324\n      jump\t// in\n    tag_486:\n        /* \"#utility.yul\":17585:17724   */\n      swap1\n      pop\n        /* \"#utility.yul\":17312:17731   */\n      swap2\n      swap1\n      pop\n      jump\t// out\n        /* \"#utility.yul\":17737:17915   */\n    tag_325:\n        /* \"#utility.yul\":17877:17907   */\n      0x45786365656473206d6178696d756d20636f6e747269627574696f6e00000000\n        /* \"#utility.yul\":17873:17874   */\n      0x00\n        /* \"#utility.yul\":17865:17871   */\n      dup3\n        /* \"#utility.yul\":17861:17875   */\n      add\n        /* \"#utility.yul\":17854:17908   */\n      mstore\n        /* \"#utility.yul\":17737:17915   */\n      pop\n      jump\t// out\n        /* \"#utility.yul\":17921:18287   */\n    tag_326:\n        /* \"#utility.yul\":18063:18066   */\n      0x00\n        /* \"#utility.yul\":18084:18151   */\n      tag_489\n        /* \"#utility.yul\":18148:18150   */\n      0x1c\n        /* \"#utility.yul\":18143:18146   */\n      dup4\n        /* \"#utility.yul\":18084:18151   */\n      tag_297\n      jump\t// in\n    tag_489:\n        /* \"#utility.yul\":18077:18151   */\n      swap2\n      pop\n        /* \"#utility.yul\":18160:18253   */\n      tag_490\n        /* \"#utility.yul\":18249:18252   */\n      dup3\n        /* \"#utility.yul\":18160:18253   */\n      tag_325\n      jump\t// in\n    tag_490:\n        /* \"#utility.yul\":18278:18280   */\n      0x20\n        /* \"#utility.yul\":18273:18276   */\n      dup3\n        /* \"#utility.yul\":18269:18281   */\n      add\n        /* \"#utility.yul\":18262:18281   */\n      swap1\n      pop\n        /* \"#utility.yul\":17921:18287   */\n      swap2\n      swap1\n      pop\n      jump\t// out\n        /* \"#utility.yul\":18293:18712   */\n    tag_231:\n        /* \"#utility.yul\":18459:18463   */\n      0x00\n        /* \"#utility.yul\":18497:18499   */\n      0x20\n        /* \"#utility.yul\":18486:18495   */\n      dup3\n        /* \"#utility.yul\":18482:18500   */\n      add\n        /* \"#utility.yul\":18474:18500   */\n      swap1\n      pop\n        /* \"#utility.yul\":18546:18555   */\n      dup2\n        /* \"#utility.yul\":18540:18544   */\n      dup2\n        /* \"#utility.yul\":18536:18556   */\n      sub\n        /* \"#utility.yul\":18532:18533   */\n      0x00\n        /* \"#utility.yul\":18521:18530   */\n      dup4\n        /* \"#utility.yul\":18517:18534   */\n      add\n        /* \"#utility.yul\":18510:18557   */\n      mstore\n        /* \"#utility.yul\":18574:18705   */\n      tag_492\n        /* \"#utility.yul\":18700:18704   */\n      dup2\n        /* \"#utility.yul\":18574:18705   */\n      tag_326\n      jump\t// in\n    tag_492:\n        /* \"#utility.yul\":18566:18705   */\n      swap1\n      pop\n        /* \"#utility.yul\":18293:18712   */\n      swap2\n      swap1\n      pop\n      jump\t// out\n        /* \"#utility.yul\":18718:18884   */\n    tag_327:\n        /* \"#utility.yul\":18858:18876   */\n      0x4861726420636170207265616368656400000000000000000000000000000000\n        /* \"#utility.yul\":18854:18855   */\n      0x00\n        /* \"#utility.yul\":18846:18852   */\n      dup3\n        /* \"#utility.yul\":18842:18856   */\n      add\n        /* \"#utility.yul\":18835:18877   */\n      mstore\n        /* \"#utility.yul\":18718:18884   */\n      pop\n      jump\t// out\n        /* \"#utility.yul\":18890:19256   */\n    tag_328:\n        /* \"#utility.yul\":19032:19035   */\n      0x00\n        /* \"#utility.yul\":19053:19120   */\n      tag_495\n        /* \"#utility.yul\":19117:19119   */\n      0x10\n        /* \"#utility.yul\":19112:19115   */\n      dup4\n        /* \"#utility.yul\":19053:19120   */\n      tag_297\n      jump\t// in\n    tag_495:\n        /* \"#utility.yul\":19046:19120   */\n      swap2\n      pop\n        /* \"#utility.yul\":19129:19222   */\n      tag_496\n        /* \"#utility.yul\":19218:19221   */\n      dup3\n        /* \"#utility.yul\":19129:19222   */\n      tag_327\n      jump\t// in\n    tag_496:\n        /* \"#utility.yul\":19247:19249   */\n      0x20\n        /* \"#utility.yul\":19242:19245   */\n      dup3\n        /* \"#utility.yul\":19238:19250   */\n      add\n        /* \"#utility.yul\":19231:19250   */\n      swap1\n      pop\n        /* \"#utility.yul\":18890:19256   */\n      swap2\n      swap1\n      pop\n      jump\t// out\n        /* \"#utility.yul\":19262:19681   */\n    tag_235:\n        /* \"#utility.yul\":19428:19432   */\n      0x00\n        /* \"#utility.yul\":19466:19468   */\n      0x20\n        /* \"#utility.yul\":19455:19464   */\n      dup3\n        /* \"#utility.yul\":19451:19469   */\n      add\n        /* \"#utility.yul\":19443:19469   */\n      swap1\n      pop\n        /* \"#utility.yul\":19515:19524   */\n      dup2\n        /* \"#utility.yul\":19509:19513   */\n      dup2\n        /* \"#utility.yul\":19505:19525   */\n      sub\n        /* \"#utility.yul\":19501:19502   */\n      0x00\n        /* \"#utility.yul\":19490:19499   */\n      dup4\n        /* \"#utility.yul\":19486:19503   */\n      add\n        /* \"#utility.yul\":19479:19526   */\n      mstore\n        /* \"#utility.yul\":19543:19674   */\n      tag_498\n        /* \"#utility.yul\":19669:19673   */\n      dup2\n        /* \"#utility.yul\":19543:19674   */\n      tag_328\n      jump\t// in\n    tag_498:\n        /* \"#utility.yul\":19535:19674   */\n      swap1\n      pop\n        /* \"#utility.yul\":19262:19681   */\n      swap2\n      swap1\n      pop\n      jump\t// out\n        /* \"#utility.yul\":19687:19868   */\n    tag_329:\n        /* \"#utility.yul\":19827:19860   */\n      0x496e73756666696369656e7420746f6b656e7320696e20636f6e747261637400\n        /* \"#utility.yul\":19823:19824   */\n      0x00\n        /* \"#utility.yul\":19815:19821   */\n      dup3\n        /* \"#utility.yul\":19811:19825   */\n      add\n        /* \"#utility.yul\":19804:19861   */\n      mstore\n        /* \"#utility.yul\":19687:19868   */\n      pop\n      jump\t// out\n        /* \"#utility.yul\":19874:20240   */\n    tag_330:\n        /* \"#utility.yul\":20016:20019   */\n      0x00\n        /* \"#utility.yul\":20037:20104   */\n      tag_501\n        /* \"#utility.yul\":20101:20103   */\n      0x1f\n        /* \"#utility.yul\":20096:20099   */\n      dup4\n        /* \"#utility.yul\":20037:20104   */\n      tag_297\n      jump\t// in\n    tag_501:\n        /* \"#utility.yul\":20030:20104   */\n      swap2\n      pop\n        /* \"#utility.yul\":20113:20206   */\n      tag_502\n        /* \"#utility.yul\":20202:20205   */\n      dup3\n        /* \"#utility.yul\":20113:20206   */\n      tag_329\n      jump\t// in\n    tag_502:\n        /* \"#utility.yul\":20231:20233   */\n      0x20\n        /* \"#utility.yul\":20226:20229   */\n      dup3\n        /* \"#utility.yul\":20222:20234   */\n      add\n        /* \"#utility.yul\":20215:20234   */\n      swap1\n      pop\n        /* \"#utility.yul\":19874:20240   */\n      swap2\n      swap1\n      pop\n      jump\t// out\n        /* \"#utility.yul\":20246:20665   */\n    tag_243:\n        /* \"#utility.yul\":20412:20416   */\n      0x00\n        /* \"#utility.yul\":20450:20452   */\n      0x20\n        /* \"#utility.yul\":20439:20448   */\n      dup3\n        /* \"#utility.yul\":20435:20453   */\n      add\n        /* \"#utility.yul\":20427:20453   */\n      swap1\n      pop\n        /* \"#utility.yul\":20499:20508   */\n      dup2\n        /* \"#utility.yul\":20493:20497   */\n      dup2\n        /* \"#utility.yul\":20489:20509   */\n      sub\n        /* \"#utility.yul\":20485:20486   */\n      0x00\n        /* \"#utility.yul\":20474:20483   */\n      dup4\n        /* \"#utility.yul\":20470:20487   */\n      add\n        /* \"#utility.yul\":20463:20510   */\n      mstore\n        /* \"#utility.yul\":20527:20658   */\n      tag_504\n        /* \"#utility.yul\":20653:20657   */\n      dup2\n        /* \"#utility.yul\":20527:20658   */\n      tag_330\n      jump\t// in\n    tag_504:\n        /* \"#utility.yul\":20519:20658   */\n      swap1\n      pop\n        /* \"#utility.yul\":20246:20665   */\n      swap2\n      swap1\n      pop\n      jump\t// out\n        /* \"#utility.yul\":20671:21003   */\n    tag_247:\n        /* \"#utility.yul\":20792:20796   */\n      0x00\n        /* \"#utility.yul\":20830:20832   */\n      0x40\n        /* \"#utility.yul\":20819:20828   */\n      dup3\n        /* \"#utility.yul\":20815:20833   */\n      add\n        /* \"#utility.yul\":20807:20833   */\n      swap1\n      pop\n        /* \"#utility.yul\":20843:20914   */\n      tag_506\n        /* \"#utility.yul\":20911:20912   */\n      0x00\n        /* \"#utility.yul\":20900:20909   */\n      dup4\n        /* \"#utility.yul\":20896:20913   */\n      add\n        /* \"#utility.yul\":20887:20893   */\n      dup6\n        /* \"#utility.yul\":20843:20914   */\n      tag_277\n      jump\t// in\n    tag_506:\n        /* \"#utility.yul\":20924:20996   */\n      tag_507\n        /* \"#utility.yul\":20992:20994   */\n      0x20\n        /* \"#utility.yul\":20981:20990   */\n      dup4\n        /* \"#utility.yul\":20977:20995   */\n      add\n        /* \"#utility.yul\":20968:20974   */\n      dup5\n        /* \"#utility.yul\":20924:20996   */\n      tag_277\n      jump\t// in\n    tag_507:\n        /* \"#utility.yul\":20671:21003   */\n      swap4\n      swap3\n      pop\n      pop\n      pop\n      jump\t// out\n        /* \"#utility.yul\":21009:21234   */\n    tag_331:\n        /* \"#utility.yul\":21149:21183   */\n      0x4f776e61626c653a206e6577206f776e657220697320746865207a65726f2061\n        /* \"#utility.yul\":21145:21146   */\n      0x00\n        /* \"#utility.yul\":21137:21143   */\n      dup3\n        /* \"#utility.yul\":21133:21147   */\n      add\n        /* \"#utility.yul\":21126:21184   */\n      mstore\n        /* \"#utility.yul\":21218:21226   */\n      0x6464726573730000000000000000000000000000000000000000000000000000\n        /* \"#utility.yul\":21213:21215   */\n      0x20\n        /* \"#utility.yul\":21205:21211   */\n      dup3\n        /* \"#utility.yul\":21201:21216   */\n      add\n        /* \"#utility.yul\":21194:21227   */\n      mstore\n        /* \"#utility.yul\":21009:21234   */\n      pop\n      jump\t// out\n        /* \"#utility.yul\":21240:21606   */\n    tag_332:\n        /* \"#utility.yul\":21382:21385   */\n      0x00\n        /* \"#utility.yul\":21403:21470   */\n      tag_510\n        /* \"#utility.yul\":21467:21469   */\n      0x26\n        /* \"#utility.yul\":21462:21465   */\n      dup4\n        /* \"#utility.yul\":21403:21470   */\n      tag_297\n      jump\t// in\n    tag_510:\n        /* \"#utility.yul\":21396:21470   */\n      swap2\n      pop\n        /* \"#utility.yul\":21479:21572   */\n      tag_511\n        /* \"#utility.yul\":21568:21571   */\n      dup3\n        /* \"#utility.yul\":21479:21572   */\n      tag_331\n      jump\t// in\n    tag_511:\n        /* \"#utility.yul\":21597:21599   */\n      0x40\n        /* \"#utility.yul\":21592:21595   */\n      dup3\n        /* \"#utility.yul\":21588:21600   */\n      add\n        /* \"#utility.yul\":21581:21600   */\n      swap1\n      pop\n        /* \"#utility.yul\":21240:21606   */\n      swap2\n      swap1\n      pop\n      jump\t// out\n        /* \"#utility.yul\":21612:22031   */\n    tag_254:\n        /* \"#utility.yul\":21778:21782   */\n      0x00\n        /* \"#utility.yul\":21816:21818   */\n      0x20\n        /* \"#utility.yul\":21805:21814   */\n      dup3\n        /* \"#utility.yul\":21801:21819   */\n      add\n        /* \"#utility.yul\":21793:21819   */\n      swap1\n      pop\n        /* \"#utility.yul\":21865:21874   */\n      dup2\n        /* \"#utility.yul\":21859:21863   */\n      dup2\n        /* \"#utility.yul\":21855:21875   */\n      sub\n        /* \"#utility.yul\":21851:21852   */\n      0x00\n        /* \"#utility.yul\":21840:21849   */\n      dup4\n        /* \"#utility.yul\":21836:21853   */\n      add\n        /* \"#utility.yul\":21829:21876   */\n      mstore\n        /* \"#utility.yul\":21893:22024   */\n      tag_513\n        /* \"#utility.yul\":22019:22023   */\n      dup2\n        /* \"#utility.yul\":21893:22024   */\n      tag_332\n      jump\t// in\n    tag_513:\n        /* \"#utility.yul\":21885:22024   */\n      swap1\n      pop\n        /* \"#utility.yul\":21612:22031   */\n      swap2\n      swap1\n      pop\n      jump\t// out\n        /* \"#utility.yul\":22037:22218   */\n    tag_333:\n        /* \"#utility.yul\":22177:22210   */\n      0x5265656e7472616e637947756172643a207265656e7472616e742063616c6c00\n        /* \"#utility.yul\":22173:22174   */\n      0x00\n        /* \"#utility.yul\":22165:22171   */\n      dup3\n        /* \"#utility.yul\":22161:22175   */\n      add\n        /* \"#utility.yul\":22154:22211   */\n      mstore\n        /* \"#utility.yul\":22037:22218   */\n      pop\n      jump\t// out\n        /* \"#utility.yul\":22224:22590   */\n    tag_334:\n        /* \"#utility.yul\":22366:22369   */\n      0x00\n        /* \"#utility.yul\":22387:22454   */\n      tag_516\n        /* \"#utility.yul\":22451:22453   */\n      0x1f\n        /* \"#utility.yul\":22446:22449   */\n      dup4\n        /* \"#utility.yul\":22387:22454   */\n      tag_297\n      jump\t// in\n    tag_516:\n        /* \"#utility.yul\":22380:22454   */\n      swap2\n      pop\n        /* \"#utility.yul\":22463:22556   */\n      tag_517\n        /* \"#utility.yul\":22552:22555   */\n      dup3\n        /* \"#utility.yul\":22463:22556   */\n      tag_333\n      jump\t// in\n    tag_517:\n        /* \"#utility.yul\":22581:22583   */\n      0x20\n        /* \"#utility.yul\":22576:22579   */\n      dup3\n        /* \"#utility.yul\":22572:22584   */\n      add\n        /* \"#utility.yul\":22565:22584   */\n      swap1\n      pop\n        /* \"#utility.yul\":22224:22590   */\n      swap2\n      swap1\n      pop\n      jump\t// out\n        /* \"#utility.yul\":22596:23015   */\n    tag_259:\n        /* \"#utility.yul\":22762:22766   */\n      0x00\n        /* \"#utility.yul\":22800:22802   */\n      0x20\n        /* \"#utility.yul\":22789:22798   */\n      dup3\n        /* \"#utility.yul\":22785:22803   */\n      add\n        /* \"#utility.yul\":22777:22803   */\n      swap1\n      pop\n        /* \"#utility.yul\":22849:22858   */\n      dup2\n        /* \"#utility.yul\":22843:22847   */\n      dup2\n        /* \"#utility.yul\":22839:22859   */\n      sub\n        /* \"#utility.yul\":22835:22836   */\n      0x00\n        /* \"#utility.yul\":22824:22833   */\n      dup4\n        /* \"#utility.yul\":22820:22837   */\n      add\n        /* \"#utility.yul\":22813:22860   */\n      mstore\n        /* \"#utility.yul\":22877:23008   */\n      tag_519\n        /* \"#utility.yul\":23003:23007   */\n      dup2\n        /* \"#utility.yul\":22877:23008   */\n      tag_334\n      jump\t// in\n    tag_519:\n        /* \"#utility.yul\":22869:23008   */\n      swap1\n      pop\n        /* \"#utility.yul\":22596:23015   */\n      swap2\n      swap1\n      pop\n      jump\t// out\n        /* \"#utility.yul\":23021:23203   */\n    tag_335:\n        /* \"#utility.yul\":23161:23195   */\n      0x4f776e61626c653a2063616c6c6572206973206e6f7420746865206f776e6572\n        /* \"#utility.yul\":23157:23158   */\n      0x00\n        /* \"#utility.yul\":23149:23155   */\n      dup3\n        /* \"#utility.yul\":23145:23159   */\n      add\n        /* \"#utility.yul\":23138:23196   */\n      mstore\n        /* \"#utility.yul\":23021:23203   */\n      pop\n      jump\t// out\n        /* \"#utility.yul\":23209:23575   */\n    tag_336:\n        /* \"#utility.yul\":23351:23354   */\n      0x00\n        /* \"#utility.yul\":23372:23439   */\n      tag_522\n        /* \"#utility.yul\":23436:23438   */\n      0x20\n        /* \"#utility.yul\":23431:23434   */\n      dup4\n        /* \"#utility.yul\":23372:23439   */\n      tag_297\n      jump\t// in\n    tag_522:\n        /* \"#utility.yul\":23365:23439   */\n      swap2\n      pop\n        /* \"#utility.yul\":23448:23541   */\n      tag_523\n        /* \"#utility.yul\":23537:23540   */\n      dup3\n        /* \"#utility.yul\":23448:23541   */\n      tag_335\n      jump\t// in\n    tag_523:\n        /* \"#utility.yul\":23566:23568   */\n      0x20\n        /* \"#utility.yul\":23561:23564   */\n      dup3\n        /* \"#utility.yul\":23557:23569   */\n      add\n        /* \"#utility.yul\":23550:23569   */\n      swap1\n      pop\n        /* \"#utility.yul\":23209:23575   */\n      swap2\n      swap1\n      pop\n      jump\t// out\n        /* \"#utility.yul\":23581:24000   */\n    tag_267:\n        /* \"#utility.yul\":23747:23751   */\n      0x00\n        /* \"#utility.yul\":23785:23787   */\n      0x20\n        /* \"#utility.yul\":23774:23783   */\n      dup3\n        /* \"#utility.yul\":23770:23788   */\n      add\n        /* \"#utility.yul\":23762:23788   */\n      swap1\n      pop\n        /* \"#utility.yul\":23834:23843   */\n      dup2\n        /* \"#utility.yul\":23828:23832   */\n      dup2\n        /* \"#utility.yul\":23824:23844   */\n      sub\n        /* \"#utility.yul\":23820:23821   */\n      0x00\n        /* \"#utility.yul\":23809:23818   */\n      dup4\n        /* \"#utility.yul\":23805:23822   */\n      add\n        /* \"#utility.yul\":23798:23845   */\n      mstore\n        /* \"#utility.yul\":23862:23993   */\n      tag_525\n        /* \"#utility.yul\":23988:23992   */\n      dup2\n        /* \"#utility.yul\":23862:23993   */\n      tag_336\n      jump\t// in\n    tag_525:\n        /* \"#utility.yul\":23854:23993   */\n      swap1\n      pop\n        /* \"#utility.yul\":23581:24000   */\n      swap2\n      swap1\n      pop\n      jump\t// out\n        /* \"#utility.yul\":24006:24186   */\n    tag_337:\n        /* \"#utility.yul\":24054:24131   */\n      0x4e487b7100000000000000000000000000000000000000000000000000000000\n        /* \"#utility.yul\":24051:24052   */\n      0x00\n        /* \"#utility.yul\":24044:24132   */\n      mstore\n        /* \"#utility.yul\":24151:24155   */\n      0x11\n        /* \"#utility.yul\":24148:24149   */\n      0x04\n        /* \"#utility.yul\":24141:24156   */\n      mstore\n        /* \"#utility.yul\":24175:24179   */\n      0x24\n        /* \"#utility.yul\":24172:24173   */\n      0x00\n        /* \"#utility.yul\":24165:24180   */\n      revert\n        /* \"#utility.yul\":24192:24602   */\n    tag_271:\n        /* \"#utility.yul\":24232:24239   */\n      0x00\n        /* \"#utility.yul\":24255:24275   */\n      tag_528\n        /* \"#utility.yul\":24273:24274   */\n      dup3\n        /* \"#utility.yul\":24255:24275   */\n      tag_276\n      jump\t// in\n    tag_528:\n        /* \"#utility.yul\":24250:24275   */\n      swap2\n      pop\n        /* \"#utility.yul\":24289:24309   */\n      tag_529\n        /* \"#utility.yul\":24307:24308   */\n      dup4\n        /* \"#utility.yul\":24289:24309   */\n      tag_276\n      jump\t// in\n    tag_529:\n        /* \"#utility.yul\":24284:24309   */\n      swap3\n      pop\n        /* \"#utility.yul\":24344:24345   */\n      dup3\n        /* \"#utility.yul\":24341:24342   */\n      dup3\n        /* \"#utility.yul\":24337:24346   */\n      mul\n        /* \"#utility.yul\":24366:24396   */\n      tag_530\n        /* \"#utility.yul\":24384:24395   */\n      dup2\n        /* \"#utility.yul\":24366:24396   */\n      tag_276\n      jump\t// in\n    tag_530:\n        /* \"#utility.yul\":24355:24396   */\n      swap2\n      pop\n        /* \"#utility.yul\":24545:24546   */\n      dup3\n        /* \"#utility.yul\":24536:24543   */\n      dup3\n        /* \"#utility.yul\":24532:24547   */\n      div\n        /* \"#utility.yul\":24529:24530   */\n      dup5\n        /* \"#utility.yul\":24526:24548   */\n      eq\n        /* \"#utility.yul\":24506:24507   */\n      dup4\n        /* \"#utility.yul\":24499:24508   */\n      iszero\n        /* \"#utility.yul\":24479:24562   */\n      or\n        /* \"#utility.yul\":24456:24595   */\n      tag_531\n      jumpi\n        /* \"#utility.yul\":24575:24593   */\n      tag_532\n      tag_337\n      jump\t// in\n    tag_532:\n        /* \"#utility.yul\":24456:24595   */\n    tag_531:\n        /* \"#utility.yul\":24240:24602   */\n      pop\n        /* \"#utility.yul\":24192:24602   */\n      swap3\n      swap2\n      pop\n      pop\n      jump\t// out\n        /* \"#utility.yul\":24608:24799   */\n    tag_274:\n        /* \"#utility.yul\":24648:24651   */\n      0x00\n        /* \"#utility.yul\":24667:24687   */\n      tag_534\n        /* \"#utility.yul\":24685:24686   */\n      dup3\n        /* \"#utility.yul\":24667:24687   */\n      tag_276\n      jump\t// in\n    tag_534:\n        /* \"#utility.yul\":24662:24687   */\n      swap2\n      pop\n        /* \"#utility.yul\":24701:24721   */\n      tag_535\n        /* \"#utility.yul\":24719:24720   */\n      dup4\n        /* \"#utility.yul\":24701:24721   */\n      tag_276\n      jump\t// in\n    tag_535:\n        /* \"#utility.yul\":24696:24721   */\n      swap3\n      pop\n        /* \"#utility.yul\":24744:24745   */\n      dup3\n        /* \"#utility.yul\":24741:24742   */\n      dup3\n        /* \"#utility.yul\":24737:24746   */\n      add\n        /* \"#utility.yul\":24730:24746   */\n      swap1\n      pop\n        /* \"#utility.yul\":24765:24768   */\n      dup1\n        /* \"#utility.yul\":24762:24763   */\n      dup3\n        /* \"#utility.yul\":24759:24769   */\n      gt\n        /* \"#utility.yul\":24756:24792   */\n      iszero\n      tag_536\n      jumpi\n        /* \"#utility.yul\":24772:24790   */\n      tag_537\n      tag_337\n      jump\t// in\n    tag_537:\n        /* \"#utility.yul\":24756:24792   */\n    tag_536:\n        /* \"#utility.yul\":24608:24799   */\n      swap3\n      swap2\n      pop\n      pop\n      jump\t// out\n\n    auxdata: 0xa2646970667358221220ae2847661ae08196a05deeb5665a445f704bb705c6745831720f97bb57a9f39964736f6c634300081c0033\n}\n",
				"bytecode": {
					"linkReferences": {},
					"object": "608060405234801561000f575f5ffd5b5060405161266f38038061266f833981810160405281019061003191906103ca565b61004d61004261027160201b60201c565b61027860201b60201c565b600180819055505f73ffffffffffffffffffffffffffffffffffffffff168873ffffffffffffffffffffffffffffffffffffffff16036100c2576040517f08c379a00000000000000000000000000000000000000000000000000000000081526004016100b9906104d5565b60405180910390fd5b5f8711610104576040517f08c379a00000000000000000000000000000000000000000000000000000000081526004016100fb9061053d565b60405180910390fd5b5f8611801561011257508585115b610151576040517f08c379a0000000000000000000000000000000000000000000000000000000008152600401610148906105a5565b60405180910390fd5b83831015610194576040517f08c379a000000000000000000000000000000000000000000000000000000000815260040161018b9061060d565b60405180910390fd5b73f6e734e8206756add13daa30f2cde3ddc8e8345f60025f6101000a81548173ffffffffffffffffffffffffffffffffffffffff021916908373ffffffffffffffffffffffffffffffffffffffff1602179055508760035f6101000a81548173ffffffffffffffffffffffffffffffffffffffff021916908373ffffffffffffffffffffffffffffffffffffffff160217905550866004819055508560058190555084600681905550836007819055508260088190555081600981905550808261025e9190610658565b600a81905550505050505050505061068b565b5f33905090565b5f5f5f9054906101000a900473ffffffffffffffffffffffffffffffffffffffff169050815f5f6101000a81548173ffffffffffffffffffffffffffffffffffffffff021916908373ffffffffffffffffffffffffffffffffffffffff1602179055508173ffffffffffffffffffffffffffffffffffffffff168173ffffffffffffffffffffffffffffffffffffffff167f8be0079c531659141344cd1fd0a4f28419497f9722a3daafe3b4186f6b6457e060405160405180910390a35050565b5f5ffd5b5f73ffffffffffffffffffffffffffffffffffffffff82169050919050565b5f6103668261033d565b9050919050565b6103768161035c565b8114610380575f5ffd5b50565b5f815190506103918161036d565b92915050565b5f819050919050565b6103a981610397565b81146103b3575f5ffd5b50565b5f815190506103c4816103a0565b92915050565b5f5f5f5f5f5f5f5f610100898b0312156103e7576103e6610339565b5b5f6103f48b828c01610383565b98505060206104058b828c016103b6565b97505060406104168b828c016103b6565b96505060606104278b828c016103b6565b95505060806104388b828c016103b6565b94505060a06104498b828c016103b6565b93505060c061045a8b828c016103b6565b92505060e061046b8b828c016103b6565b9150509295985092959890939650565b5f82825260208201905092915050565b7f496e76616c69642066756e642077616c6c6574000000000000000000000000005f82015250565b5f6104bf60138361047b565b91506104ca8261048b565b602082019050919050565b5f6020820190508181035f8301526104ec816104b3565b9050919050565b7f52617465206d7573742062652067726561746572207468616e203000000000005f82015250565b5f610527601b8361047b565b9150610532826104f3565b602082019050919050565b5f6020820190508181035f8301526105548161051b565b9050919050565b7f496e76616c6964206361707300000000000000000000000000000000000000005f82015250565b5f61058f600c8361047b565b915061059a8261055b565b602082019050919050565b5f6020820190508181035f8301526105bc81610583565b9050919050565b7f496e76616c6964207075726368617365206c696d6974730000000000000000005f82015250565b5f6105f760178361047b565b9150610602826105c3565b602082019050919050565b5f6020820190508181035f830152610624816105eb565b9050919050565b7f4e487b71000000000000000000000000000000000000000000000000000000005f52601160045260245ffd5b5f61066282610397565b915061066d83610397565b92508282019050808211156106855761068461062b565b5b92915050565b611fd7806106985f395ff3fe60806040526004361061013f575f3560e01c8063906a26e0116100b5578063c8bdbfb61161006e578063c8bdbfb614610405578063d11711a21461041b578063de8801e514610425578063f2fde38b1461044f578063fb86a40414610477578063fc0c546a146104a15761013f565b8063906a26e0146102e7578063977b055b146103115780639e8c708e1461033b578063a24bcf4614610363578063b557478a1461039f578063c5c4744c146103db5761013f565b80634bb278f3116101075780634bb278f314610213578063532f117914610229578063664a1ad6146102535780636d4980931461027d578063715018a6146102a75780638da5cb5b146102bd5761013f565b8063229f3e291461014357806333b5b62e1461016d57806342e94c901461019757806342f39381146101d357806348c54b9d146101fd575b5f5ffd5b34801561014e575f5ffd5b506101576104cb565b6040516101649190611499565b60405180910390f35b348015610178575f5ffd5b506101816104d1565b60405161018e9190611499565b60405180910390f35b3480156101a2575f5ffd5b506101bd60048036038101906101b89190611510565b6104d7565b6040516101ca9190611499565b60405180910390f35b3480156101de575f5ffd5b506101e76104ec565b6040516101f49190611499565b60405180910390f35b348015610208575f5ffd5b506102116104f2565b005b34801561021e575f5ffd5b50610227610788565b005b348015610234575f5ffd5b5061023d610918565b60405161024a9190611555565b60405180910390f35b34801561025e575f5ffd5b5061026761092b565b604051610274919061158e565b60405180910390f35b348015610288575f5ffd5b50610291610950565b60405161029e9190611555565b60405180910390f35b3480156102b2575f5ffd5b506102bb610962565b005b3480156102c8575f5ffd5b506102d1610975565b6040516102de91906115b6565b60405180910390f35b3480156102f2575f5ffd5b506102fb61099c565b6040516103089190611499565b60405180910390f35b34801561031c575f5ffd5b506103256109a2565b6040516103329190611499565b60405180910390f35b348015610346575f5ffd5b50610361600480360381019061035c9190611510565b6109a8565b005b34801561036e575f5ffd5b50610389600480360381019061038491906115f9565b610b84565b6040516103969190611499565b60405180910390f35b3480156103aa575f5ffd5b506103c560048036038101906103c09190611510565b610bbb565b6040516103d29190611555565b60405180910390f35b3480156103e6575f5ffd5b506103ef610bd8565b6040516103fc9190611499565b60405180910390f35b348015610410575f5ffd5b50610419610bde565b005b610423610e05565b005b348015610430575f5ffd5b50610439611206565b6040516104469190611499565b60405180910390f35b34801561045a575f5ffd5b5061047560048036038101906104709190611510565b61120c565b005b348015610482575f5ffd5b5061048b61128e565b6040516104989190611499565b60405180910390f35b3480156104ac575f5ffd5b506104b5611294565b6040516104c2919061167f565b60405180910390f35b600a5481565b60075481565b600d602052805f5260405f205f915090505481565b60045481565b6104fa6112b9565b600c5f9054906101000a900460ff16610548576040517f08c379a000000000000000000000000000000000000000000000000000000000815260040161053f906116f2565b60405180910390fd5b600c60019054906101000a900460ff1615610598576040517f08c379a000000000000000000000000000000000000000000000000000000000815260040161058f9061175a565b60405180910390fd5b5f600d5f3373ffffffffffffffffffffffffffffffffffffffff1673ffffffffffffffffffffffffffffffffffffffff1681526020019081526020015f205411610617576040517f08c379a000000000000000000000000000000000000000000000000000000000815260040161060e906117c2565b60405180910390fd5b5f61065e600d5f3373ffffffffffffffffffffffffffffffffffffffff1673ffffffffffffffffffffffffffffffffffffffff1681526020019081526020015f2054610b84565b90505f600d5f3373ffffffffffffffffffffffffffffffffffffffff1673ffffffffffffffffffffffffffffffffffffffff1681526020019081526020015f208190555060025f9054906101000a900473ffffffffffffffffffffffffffffffffffffffff1673ffffffffffffffffffffffffffffffffffffffff1663a9059cbb33836040518363ffffffff1660e01b81526004016106fe9291906117e0565b6020604051808303815f875af115801561071a573d5f5f3e3d5ffd5b505050506040513d601f19601f8201168201806040525081019061073e9190611831565b61077d576040517f08c379a0000000000000000000000000000000000000000000000000000000008152600401610774906118a6565b60405180910390fd5b50610786611308565b565b610790611311565b600a544211806107a45750600654600b5410155b6107e3576040517f08c379a00000000000000000000000000000000000000000000000000000000081526004016107da9061190e565b60405180910390fd5b600c5f9054906101000a900460ff1615610832576040517f08c379a000000000000000000000000000000000000000000000000000000000815260040161082990611976565b60405180910390fd5b6001600c5f6101000a81548160ff021916908315150217905550600554600b54106108c15760035f9054906101000a900473ffffffffffffffffffffffffffffffffffffffff1673ffffffffffffffffffffffffffffffffffffffff166108fc4790811502906040515f60405180830381858888f193505050501580156108bb573d5f5f3e3d5ffd5b506108dd565b6001600c60016101000a81548160ff0219169083151502179055505b7fba77ddc9e26933f19061480be65d8ea3dcf88fb70efd476df9515333cabee8c4600b5460405161090e9190611499565b60405180910390a1565b600c60019054906101000a900460ff1681565b60035f9054906101000a900473ffffffffffffffffffffffffffffffffffffffff1681565b600c5f9054906101000a900460ff1681565b61096a611311565b6109735f61138f565b565b5f5f5f9054906101000a900473ffffffffffffffffffffffffffffffffffffffff16905090565b60055481565b60085481565b6109b0611311565b60025f9054906101000a900473ffffffffffffffffffffffffffffffffffffffff1673ffffffffffffffffffffffffffffffffffffffff168173ffffffffffffffffffffffffffffffffffffffff1603610a3f576040517f08c379a0000000000000000000000000000000000000000000000000000000008152600401610a36906119de565b60405180910390fd5b5f8190505f8173ffffffffffffffffffffffffffffffffffffffff166370a08231306040518263ffffffff1660e01b8152600401610a7d91906115b6565b602060405180830381865afa158015610a98573d5f5f3e3d5ffd5b505050506040513d601f19601f82011682018060405250810190610abc9190611a10565b90508173ffffffffffffffffffffffffffffffffffffffff1663a9059cbb610ae2610975565b836040518363ffffffff1660e01b8152600401610b009291906117e0565b6020604051808303815f875af1158015610b1c573d5f5f3e3d5ffd5b505050506040513d601f19601f82011682018060405250810190610b409190611831565b610b7f576040517f08c379a0000000000000000000000000000000000000000000000000000000008152600401610b7690611a85565b60405180910390fd5b505050565b5f610bb4670de0b6b3a7640000610ba66004548561145090919063ffffffff16565b61145090919063ffffffff16565b9050919050565b600e602052805f5260405f205f915054906101000a900460ff1681565b600b5481565b610be6611311565b600c5f9054906101000a900460ff16610c34576040517f08c379a0000000000000000000000000000000000000000000000000000000008152600401610c2b906116f2565b60405180910390fd5b600c60019054906101000a900460ff1615610c84576040517f08c379a0000000000000000000000000000000000000000000000000000000008152600401610c7b9061175a565b60405180910390fd5b5f60025f9054906101000a900473ffffffffffffffffffffffffffffffffffffffff1673ffffffffffffffffffffffffffffffffffffffff166370a08231306040518263ffffffff1660e01b8152600401610cdf91906115b6565b602060405180830381865afa158015610cfa573d5f5f3e3d5ffd5b505050506040513d601f19601f82011682018060405250810190610d1e9190611a10565b905060025f9054906101000a900473ffffffffffffffffffffffffffffffffffffffff1673ffffffffffffffffffffffffffffffffffffffff1663a9059cbb610d65610975565b836040518363ffffffff1660e01b8152600401610d839291906117e0565b6020604051808303815f875af1158015610d9f573d5f5f3e3d5ffd5b505050506040513d601f19601f82011682018060405250810190610dc39190611831565b610e02576040517f08c379a0000000000000000000000000000000000000000000000000000000008152600401610df9906118a6565b60405180910390fd5b50565b610e0d6112b9565b600954421015610e52576040517f08c379a0000000000000000000000000000000000000000000000000000000008152600401610e4990611aed565b60405180910390fd5b600a54421115610e97576040517f08c379a0000000000000000000000000000000000000000000000000000000008152600401610e8e90611b55565b60405180910390fd5b600c5f9054906101000a900460ff1615610ee6576040517f08c379a0000000000000000000000000000000000000000000000000000000008152600401610edd90611bbd565b60405180910390fd5b600754341015610f2b576040517f08c379a0000000000000000000000000000000000000000000000000000000008152600401610f2290611c25565b60405180910390fd5b600854610f7e600d5f3373ffffffffffffffffffffffffffffffffffffffff1673ffffffffffffffffffffffffffffffffffffffff1681526020019081526020015f20543461146590919063ffffffff16565b1115610fbf576040517f08c379a0000000000000000000000000000000000000000000000000000000008152600401610fb690611c8d565b60405180910390fd5b600654610fd734600b5461146590919063ffffffff16565b1115611018576040517f08c379a000000000000000000000000000000000000000000000000000000000815260040161100f90611cf5565b60405180910390fd5b5f61102234610b84565b90508060025f9054906101000a900473ffffffffffffffffffffffffffffffffffffffff1673ffffffffffffffffffffffffffffffffffffffff166370a08231306040518263ffffffff1660e01b815260040161107f91906115b6565b602060405180830381865afa15801561109a573d5f5f3e3d5ffd5b505050506040513d601f19601f820116820180604052508101906110be9190611a10565b10156110ff576040517f08c379a00000000000000000000000000000000000000000000000000000000081526004016110f690611d5d565b60405180910390fd5b61114f34600d5f3373ffffffffffffffffffffffffffffffffffffffff1673ffffffffffffffffffffffffffffffffffffffff1681526020019081526020015f205461146590919063ffffffff16565b600d5f3373ffffffffffffffffffffffffffffffffffffffff1673ffffffffffffffffffffffffffffffffffffffff1681526020019081526020015f20819055506111a534600b5461146590919063ffffffff16565b600b819055503373ffffffffffffffffffffffffffffffffffffffff167f8fafebcaf9d154343dad25669bfa277f4fbacd7ac6b0c4fed522580e040a0f3334836040516111f3929190611d7b565b60405180910390a250611204611308565b565b60095481565b611214611311565b5f73ffffffffffffffffffffffffffffffffffffffff168173ffffffffffffffffffffffffffffffffffffffff1603611282576040517f08c379a000000000000000000000000000000000000000000000000000000000815260040161127990611e12565b60405180910390fd5b61128b8161138f565b50565b60065481565b60025f9054906101000a900473ffffffffffffffffffffffffffffffffffffffff1681565b6002600154036112fe576040517f08c379a00000000000000000000000000000000000000000000000000000000081526004016112f590611e7a565b60405180910390fd5b6002600181905550565b60018081905550565b61131961147a565b73ffffffffffffffffffffffffffffffffffffffff16611337610975565b73ffffffffffffffffffffffffffffffffffffffff161461138d576040517f08c379a000000000000000000000000000000000000000000000000000000000815260040161138490611ee2565b60405180910390fd5b565b5f5f5f9054906101000a900473ffffffffffffffffffffffffffffffffffffffff169050815f5f6101000a81548173ffffffffffffffffffffffffffffffffffffffff021916908373ffffffffffffffffffffffffffffffffffffffff1602179055508173ffffffffffffffffffffffffffffffffffffffff168173ffffffffffffffffffffffffffffffffffffffff167f8be0079c531659141344cd1fd0a4f28419497f9722a3daafe3b4186f6b6457e060405160405180910390a35050565b5f818361145d9190611f2d565b905092915050565b5f81836114729190611f6e565b905092915050565b5f33905090565b5f819050919050565b61149381611481565b82525050565b5f6020820190506114ac5f83018461148a565b92915050565b5f5ffd5b5f73ffffffffffffffffffffffffffffffffffffffff82169050919050565b5f6114df826114b6565b9050919050565b6114ef816114d5565b81146114f9575f5ffd5b50565b5f8135905061150a816114e6565b92915050565b5f60208284031215611525576115246114b2565b5b5f611532848285016114fc565b91505092915050565b5f8115159050919050565b61154f8161153b565b82525050565b5f6020820190506115685f830184611546565b92915050565b5f611578826114b6565b9050919050565b6115888161156e565b82525050565b5f6020820190506115a15f83018461157f565b92915050565b6115b0816114d5565b82525050565b5f6020820190506115c95f8301846115a7565b92915050565b6115d881611481565b81146115e2575f5ffd5b50565b5f813590506115f3816115cf565b92915050565b5f6020828403121561160e5761160d6114b2565b5b5f61161b848285016115e5565b91505092915050565b5f819050919050565b5f61164761164261163d846114b6565b611624565b6114b6565b9050919050565b5f6116588261162d565b9050919050565b5f6116698261164e565b9050919050565b6116798161165f565b82525050565b5f6020820190506116925f830184611670565b92915050565b5f82825260208201905092915050565b7f50726573616c65206e6f742066696e616c697a656400000000000000000000005f82015250565b5f6116dc601583611698565b91506116e7826116a8565b602082019050919050565b5f6020820190508181035f830152611709816116d0565b9050919050565b7f50726573616c65206661696c65640000000000000000000000000000000000005f82015250565b5f611744600e83611698565b915061174f82611710565b602082019050919050565b5f6020820190508181035f83015261177181611738565b9050919050565b7f4e6f20636f6e747269627574696f6e20666f756e6400000000000000000000005f82015250565b5f6117ac601583611698565b91506117b782611778565b602082019050919050565b5f6020820190508181035f8301526117d9816117a0565b9050919050565b5f6040820190506117f35f8301856115a7565b611800602083018461148a565b9392505050565b6118108161153b565b811461181a575f5ffd5b50565b5f8151905061182b81611807565b92915050565b5f60208284031215611846576118456114b2565b5b5f6118538482850161181d565b91505092915050565b7f546f6b656e207472616e73666572206661696c656400000000000000000000005f82015250565b5f611890601583611698565b915061189b8261185c565b602082019050919050565b5f6020820190508181035f8301526118bd81611884565b9050919050565b7f43616e6e6f742066696e616c697a6520796574000000000000000000000000005f82015250565b5f6118f8601383611698565b9150611903826118c4565b602082019050919050565b5f6020820190508181035f830152611925816118ec565b9050919050565b7f416c72656164792066696e616c697a65640000000000000000000000000000005f82015250565b5f611960601183611698565b915061196b8261192c565b602082019050919050565b5f6020820190508181035f83015261198d81611954565b9050919050565b7f43616e6e6f74207265636f7665722070726573616c6520746f6b656e000000005f82015250565b5f6119c8601c83611698565b91506119d382611994565b602082019050919050565b5f6020820190508181035f8301526119f5816119bc565b9050919050565b5f81519050611a0a816115cf565b92915050565b5f60208284031215611a2557611a246114b2565b5b5f611a32848285016119fc565b91505092915050565b7f546f6b656e207265636f76657279206661696c656400000000000000000000005f82015250565b5f611a6f601583611698565b9150611a7a82611a3b565b602082019050919050565b5f6020820190508181035f830152611a9c81611a63565b9050919050565b7f50726573616c65206e6f742073746172746564000000000000000000000000005f82015250565b5f611ad7601383611698565b9150611ae282611aa3565b602082019050919050565b5f6020820190508181035f830152611b0481611acb565b9050919050565b7f50726573616c6520656e646564000000000000000000000000000000000000005f82015250565b5f611b3f600d83611698565b9150611b4a82611b0b565b602082019050919050565b5f6020820190508181035f830152611b6c81611b33565b9050919050565b7f50726573616c652066696e616c697a65640000000000000000000000000000005f82015250565b5f611ba7601183611698565b9150611bb282611b73565b602082019050919050565b5f6020820190508181035f830152611bd481611b9b565b9050919050565b7f42656c6f77206d696e696d756d20636f6e747269627574696f6e0000000000005f82015250565b5f611c0f601a83611698565b9150611c1a82611bdb565b602082019050919050565b5f6020820190508181035f830152611c3c81611c03565b9050919050565b7f45786365656473206d6178696d756d20636f6e747269627574696f6e000000005f82015250565b5f611c77601c83611698565b9150611c8282611c43565b602082019050919050565b5f6020820190508181035f830152611ca481611c6b565b9050919050565b7f48617264206361702072656163686564000000000000000000000000000000005f82015250565b5f611cdf601083611698565b9150611cea82611cab565b602082019050919050565b5f6020820190508181035f830152611d0c81611cd3565b9050919050565b7f496e73756666696369656e7420746f6b656e7320696e20636f6e7472616374005f82015250565b5f611d47601f83611698565b9150611d5282611d13565b602082019050919050565b5f6020820190508181035f830152611d7481611d3b565b9050919050565b5f604082019050611d8e5f83018561148a565b611d9b602083018461148a565b9392505050565b7f4f776e61626c653a206e6577206f776e657220697320746865207a65726f20615f8201527f6464726573730000000000000000000000000000000000000000000000000000602082015250565b5f611dfc602683611698565b9150611e0782611da2565b604082019050919050565b5f6020820190508181035f830152611e2981611df0565b9050919050565b7f5265656e7472616e637947756172643a207265656e7472616e742063616c6c005f82015250565b5f611e64601f83611698565b9150611e6f82611e30565b602082019050919050565b5f6020820190508181035f830152611e9181611e58565b9050919050565b7f4f776e61626c653a2063616c6c6572206973206e6f7420746865206f776e65725f82015250565b5f611ecc602083611698565b9150611ed782611e98565b602082019050919050565b5f6020820190508181035f830152611ef981611ec0565b9050919050565b7f4e487b71000000000000000000000000000000000000000000000000000000005f52601160045260245ffd5b5f611f3782611481565b9150611f4283611481565b9250828202611f5081611481565b91508282048414831517611f6757611f66611f00565b5b5092915050565b5f611f7882611481565b9150611f8383611481565b9250828201905080821115611f9b57611f9a611f00565b5b9291505056fea2646970667358221220ae2847661ae08196a05deeb5665a445f704bb705c6745831720f97bb57a9f39964736f6c634300081c0033",
					"opcodes": "PUSH1 0x80 PUSH1 0x40 MSTORE CALLVALUE DUP1 ISZERO PUSH2 0xF JUMPI PUSH0 PUSH0 REVERT JUMPDEST POP PUSH1 0x40 MLOAD PUSH2 0x266F CODESIZE SUB DUP1 PUSH2 0x266F DUP4 CODECOPY DUP2 DUP2 ADD PUSH1 0x40 MSTORE DUP2 ADD SWAP1 PUSH2 0x31 SWAP2 SWAP1 PUSH2 0x3CA JUMP JUMPDEST PUSH2 0x4D PUSH2 0x42 PUSH2 0x271 PUSH1 0x20 SHL PUSH1 0x20 SHR JUMP JUMPDEST PUSH2 0x278 PUSH1 0x20 SHL PUSH1 0x20 SHR JUMP JUMPDEST PUSH1 0x1 DUP1 DUP2 SWAP1 SSTORE POP PUSH0 PUSH20 0xFFFFFFFFFFFFFFFFFFFFFFFFFFFFFFFFFFFFFFFF AND DUP9 PUSH20 0xFFFFFFFFFFFFFFFFFFFFFFFFFFFFFFFFFFFFFFFF AND SUB PUSH2 0xC2 JUMPI PUSH1 0x40 MLOAD PUSH32 0x8C379A000000000000000000000000000000000000000000000000000000000 DUP2 MSTORE PUSH1 0x4 ADD PUSH2 0xB9 SWAP1 PUSH2 0x4D5 JUMP JUMPDEST PUSH1 0x40 MLOAD DUP1 SWAP2 SUB SWAP1 REVERT JUMPDEST PUSH0 DUP8 GT PUSH2 0x104 JUMPI PUSH1 0x40 MLOAD PUSH32 0x8C379A000000000000000000000000000000000000000000000000000000000 DUP2 MSTORE PUSH1 0x4 ADD PUSH2 0xFB SWAP1 PUSH2 0x53D JUMP JUMPDEST PUSH1 0x40 MLOAD DUP1 SWAP2 SUB SWAP1 REVERT JUMPDEST PUSH0 DUP7 GT DUP1 ISZERO PUSH2 0x112 JUMPI POP DUP6 DUP6 GT JUMPDEST PUSH2 0x151 JUMPI PUSH1 0x40 MLOAD PUSH32 0x8C379A000000000000000000000000000000000000000000000000000000000 DUP2 MSTORE PUSH1 0x4 ADD PUSH2 0x148 SWAP1 PUSH2 0x5A5 JUMP JUMPDEST PUSH1 0x40 MLOAD DUP1 SWAP2 SUB SWAP1 REVERT JUMPDEST DUP4 DUP4 LT ISZERO PUSH2 0x194 JUMPI PUSH1 0x40 MLOAD PUSH32 0x8C379A000000000000000000000000000000000000000000000000000000000 DUP2 MSTORE PUSH1 0x4 ADD PUSH2 0x18B SWAP1 PUSH2 0x60D JUMP JUMPDEST PUSH1 0x40 MLOAD DUP1 SWAP2 SUB SWAP1 REVERT JUMPDEST PUSH20 0xF6E734E8206756ADD13DAA30F2CDE3DDC8E8345F PUSH1 0x2 PUSH0 PUSH2 0x100 EXP DUP2 SLOAD DUP2 PUSH20 0xFFFFFFFFFFFFFFFFFFFFFFFFFFFFFFFFFFFFFFFF MUL NOT AND SWAP1 DUP4 PUSH20 0xFFFFFFFFFFFFFFFFFFFFFFFFFFFFFFFFFFFFFFFF AND MUL OR SWAP1 SSTORE POP DUP8 PUSH1 0x3 PUSH0 PUSH2 0x100 EXP DUP2 SLOAD DUP2 PUSH20 0xFFFFFFFFFFFFFFFFFFFFFFFFFFFFFFFFFFFFFFFF MUL NOT AND SWAP1 DUP4 PUSH20 0xFFFFFFFFFFFFFFFFFFFFFFFFFFFFFFFFFFFFFFFF AND MUL OR SWAP1 SSTORE POP DUP7 PUSH1 0x4 DUP2 SWAP1 SSTORE POP DUP6 PUSH1 0x5 DUP2 SWAP1 SSTORE POP DUP5 PUSH1 0x6 DUP2 SWAP1 SSTORE POP DUP4 PUSH1 0x7 DUP2 SWAP1 SSTORE POP DUP3 PUSH1 0x8 DUP2 SWAP1 SSTORE POP DUP2 PUSH1 0x9 DUP2 SWAP1 SSTORE POP DUP1 DUP3 PUSH2 0x25E SWAP2 SWAP1 PUSH2 0x658 JUMP JUMPDEST PUSH1 0xA DUP2 SWAP1 SSTORE POP POP POP POP POP POP POP POP POP PUSH2 0x68B JUMP JUMPDEST PUSH0 CALLER SWAP1 POP SWAP1 JUMP JUMPDEST PUSH0 PUSH0 PUSH0 SWAP1 SLOAD SWAP1 PUSH2 0x100 EXP SWAP1 DIV PUSH20 0xFFFFFFFFFFFFFFFFFFFFFFFFFFFFFFFFFFFFFFFF AND SWAP1 POP DUP2 PUSH0 PUSH0 PUSH2 0x100 EXP DUP2 SLOAD DUP2 PUSH20 0xFFFFFFFFFFFFFFFFFFFFFFFFFFFFFFFFFFFFFFFF MUL NOT AND SWAP1 DUP4 PUSH20 0xFFFFFFFFFFFFFFFFFFFFFFFFFFFFFFFFFFFFFFFF AND MUL OR SWAP1 SSTORE POP DUP2 PUSH20 0xFFFFFFFFFFFFFFFFFFFFFFFFFFFFFFFFFFFFFFFF AND DUP2 PUSH20 0xFFFFFFFFFFFFFFFFFFFFFFFFFFFFFFFFFFFFFFFF AND PUSH32 0x8BE0079C531659141344CD1FD0A4F28419497F9722A3DAAFE3B4186F6B6457E0 PUSH1 0x40 MLOAD PUSH1 0x40 MLOAD DUP1 SWAP2 SUB SWAP1 LOG3 POP POP JUMP JUMPDEST PUSH0 PUSH0 REVERT JUMPDEST PUSH0 PUSH20 0xFFFFFFFFFFFFFFFFFFFFFFFFFFFFFFFFFFFFFFFF DUP3 AND SWAP1 POP SWAP2 SWAP1 POP JUMP JUMPDEST PUSH0 PUSH2 0x366 DUP3 PUSH2 0x33D JUMP JUMPDEST SWAP1 POP SWAP2 SWAP1 POP JUMP JUMPDEST PUSH2 0x376 DUP2 PUSH2 0x35C JUMP JUMPDEST DUP2 EQ PUSH2 0x380 JUMPI PUSH0 PUSH0 REVERT JUMPDEST POP JUMP JUMPDEST PUSH0 DUP2 MLOAD SWAP1 POP PUSH2 0x391 DUP2 PUSH2 0x36D JUMP JUMPDEST SWAP3 SWAP2 POP POP JUMP JUMPDEST PUSH0 DUP2 SWAP1 POP SWAP2 SWAP1 POP JUMP JUMPDEST PUSH2 0x3A9 DUP2 PUSH2 0x397 JUMP JUMPDEST DUP2 EQ PUSH2 0x3B3 JUMPI PUSH0 PUSH0 REVERT JUMPDEST POP JUMP JUMPDEST PUSH0 DUP2 MLOAD SWAP1 POP PUSH2 0x3C4 DUP2 PUSH2 0x3A0 JUMP JUMPDEST SWAP3 SWAP2 POP POP JUMP JUMPDEST PUSH0 PUSH0 PUSH0 PUSH0 PUSH0 PUSH0 PUSH0 PUSH0 PUSH2 0x100 DUP10 DUP12 SUB SLT ISZERO PUSH2 0x3E7 JUMPI PUSH2 0x3E6 PUSH2 0x339 JUMP JUMPDEST JUMPDEST PUSH0 PUSH2 0x3F4 DUP12 DUP3 DUP13 ADD PUSH2 0x383 JUMP JUMPDEST SWAP9 POP POP PUSH1 0x20 PUSH2 0x405 DUP12 DUP3 DUP13 ADD PUSH2 0x3B6 JUMP JUMPDEST SWAP8 POP POP PUSH1 0x40 PUSH2 0x416 DUP12 DUP3 DUP13 ADD PUSH2 0x3B6 JUMP JUMPDEST SWAP7 POP POP PUSH1 0x60 PUSH2 0x427 DUP12 DUP3 DUP13 ADD PUSH2 0x3B6 JUMP JUMPDEST SWAP6 POP POP PUSH1 0x80 PUSH2 0x438 DUP12 DUP3 DUP13 ADD PUSH2 0x3B6 JUMP JUMPDEST SWAP5 POP POP PUSH1 0xA0 PUSH2 0x449 DUP12 DUP3 DUP13 ADD PUSH2 0x3B6 JUMP JUMPDEST SWAP4 POP POP PUSH1 0xC0 PUSH2 0x45A DUP12 DUP3 DUP13 ADD PUSH2 0x3B6 JUMP JUMPDEST SWAP3 POP POP PUSH1 0xE0 PUSH2 0x46B DUP12 DUP3 DUP13 ADD PUSH2 0x3B6 JUMP JUMPDEST SWAP2 POP POP SWAP3 SWAP6 SWAP9 POP SWAP3 SWAP6 SWAP9 SWAP1 SWAP4 SWAP7 POP JUMP JUMPDEST PUSH0 DUP3 DUP3 MSTORE PUSH1 0x20 DUP3 ADD SWAP1 POP SWAP3 SWAP2 POP POP JUMP JUMPDEST PUSH32 0x496E76616C69642066756E642077616C6C657400000000000000000000000000 PUSH0 DUP3 ADD MSTORE POP JUMP JUMPDEST PUSH0 PUSH2 0x4BF PUSH1 0x13 DUP4 PUSH2 0x47B JUMP JUMPDEST SWAP2 POP PUSH2 0x4CA DUP3 PUSH2 0x48B JUMP JUMPDEST PUSH1 0x20 DUP3 ADD SWAP1 POP SWAP2 SWAP1 POP JUMP JUMPDEST PUSH0 PUSH1 0x20 DUP3 ADD SWAP1 POP DUP2 DUP2 SUB PUSH0 DUP4 ADD MSTORE PUSH2 0x4EC DUP2 PUSH2 0x4B3 JUMP JUMPDEST SWAP1 POP SWAP2 SWAP1 POP JUMP JUMPDEST PUSH32 0x52617465206D7573742062652067726561746572207468616E20300000000000 PUSH0 DUP3 ADD MSTORE POP JUMP JUMPDEST PUSH0 PUSH2 0x527 PUSH1 0x1B DUP4 PUSH2 0x47B JUMP JUMPDEST SWAP2 POP PUSH2 0x532 DUP3 PUSH2 0x4F3 JUMP JUMPDEST PUSH1 0x20 DUP3 ADD SWAP1 POP SWAP2 SWAP1 POP JUMP JUMPDEST PUSH0 PUSH1 0x20 DUP3 ADD SWAP1 POP DUP2 DUP2 SUB PUSH0 DUP4 ADD MSTORE PUSH2 0x554 DUP2 PUSH2 0x51B JUMP JUMPDEST SWAP1 POP SWAP2 SWAP1 POP JUMP JUMPDEST PUSH32 0x496E76616C696420636170730000000000000000000000000000000000000000 PUSH0 DUP3 ADD MSTORE POP JUMP JUMPDEST PUSH0 PUSH2 0x58F PUSH1 0xC DUP4 PUSH2 0x47B JUMP JUMPDEST SWAP2 POP PUSH2 0x59A DUP3 PUSH2 0x55B JUMP JUMPDEST PUSH1 0x20 DUP3 ADD SWAP1 POP SWAP2 SWAP1 POP JUMP JUMPDEST PUSH0 PUSH1 0x20 DUP3 ADD SWAP1 POP DUP2 DUP2 SUB PUSH0 DUP4 ADD MSTORE PUSH2 0x5BC DUP2 PUSH2 0x583 JUMP JUMPDEST SWAP1 POP SWAP2 SWAP1 POP JUMP JUMPDEST PUSH32 0x496E76616C6964207075726368617365206C696D697473000000000000000000 PUSH0 DUP3 ADD MSTORE POP JUMP JUMPDEST PUSH0 PUSH2 0x5F7 PUSH1 0x17 DUP4 PUSH2 0x47B JUMP JUMPDEST SWAP2 POP PUSH2 0x602 DUP3 PUSH2 0x5C3 JUMP JUMPDEST PUSH1 0x20 DUP3 ADD SWAP1 POP SWAP2 SWAP1 POP JUMP JUMPDEST PUSH0 PUSH1 0x20 DUP3 ADD SWAP1 POP DUP2 DUP2 SUB PUSH0 DUP4 ADD MSTORE PUSH2 0x624 DUP2 PUSH2 0x5EB JUMP JUMPDEST SWAP1 POP SWAP2 SWAP1 POP JUMP JUMPDEST PUSH32 0x4E487B7100000000000000000000000000000000000000000000000000000000 PUSH0 MSTORE PUSH1 0x11 PUSH1 0x4 MSTORE PUSH1 0x24 PUSH0 REVERT JUMPDEST PUSH0 PUSH2 0x662 DUP3 PUSH2 0x397 JUMP JUMPDEST SWAP2 POP PUSH2 0x66D DUP4 PUSH2 0x397 JUMP JUMPDEST SWAP3 POP DUP3 DUP3 ADD SWAP1 POP DUP1 DUP3 GT ISZERO PUSH2 0x685 JUMPI PUSH2 0x684 PUSH2 0x62B JUMP JUMPDEST JUMPDEST SWAP3 SWAP2 POP POP JUMP JUMPDEST PUSH2 0x1FD7 DUP1 PUSH2 0x698 PUSH0 CODECOPY PUSH0 RETURN INVALID PUSH1 0x80 PUSH1 0x40 MSTORE PUSH1 0x4 CALLDATASIZE LT PUSH2 0x13F JUMPI PUSH0 CALLDATALOAD PUSH1 0xE0 SHR DUP1 PUSH4 0x906A26E0 GT PUSH2 0xB5 JUMPI DUP1 PUSH4 0xC8BDBFB6 GT PUSH2 0x6E JUMPI DUP1 PUSH4 0xC8BDBFB6 EQ PUSH2 0x405 JUMPI DUP1 PUSH4 0xD11711A2 EQ PUSH2 0x41B JUMPI DUP1 PUSH4 0xDE8801E5 EQ PUSH2 0x425 JUMPI DUP1 PUSH4 0xF2FDE38B EQ PUSH2 0x44F JUMPI DUP1 PUSH4 0xFB86A404 EQ PUSH2 0x477 JUMPI DUP1 PUSH4 0xFC0C546A EQ PUSH2 0x4A1 JUMPI PUSH2 0x13F JUMP JUMPDEST DUP1 PUSH4 0x906A26E0 EQ PUSH2 0x2E7 JUMPI DUP1 PUSH4 0x977B055B EQ PUSH2 0x311 JUMPI DUP1 PUSH4 0x9E8C708E EQ PUSH2 0x33B JUMPI DUP1 PUSH4 0xA24BCF46 EQ PUSH2 0x363 JUMPI DUP1 PUSH4 0xB557478A EQ PUSH2 0x39F JUMPI DUP1 PUSH4 0xC5C4744C EQ PUSH2 0x3DB JUMPI PUSH2 0x13F JUMP JUMPDEST DUP1 PUSH4 0x4BB278F3 GT PUSH2 0x107 JUMPI DUP1 PUSH4 0x4BB278F3 EQ PUSH2 0x213 JUMPI DUP1 PUSH4 0x532F1179 EQ PUSH2 0x229 JUMPI DUP1 PUSH4 0x664A1AD6 EQ PUSH2 0x253 JUMPI DUP1 PUSH4 0x6D498093 EQ PUSH2 0x27D JUMPI DUP1 PUSH4 0x715018A6 EQ PUSH2 0x2A7 JUMPI DUP1 PUSH4 0x8DA5CB5B EQ PUSH2 0x2BD JUMPI PUSH2 0x13F JUMP JUMPDEST DUP1 PUSH4 0x229F3E29 EQ PUSH2 0x143 JUMPI DUP1 PUSH4 0x33B5B62E EQ PUSH2 0x16D JUMPI DUP1 PUSH4 0x42E94C90 EQ PUSH2 0x197 JUMPI DUP1 PUSH4 0x42F39381 EQ PUSH2 0x1D3 JUMPI DUP1 PUSH4 0x48C54B9D EQ PUSH2 0x1FD JUMPI JUMPDEST PUSH0 PUSH0 REVERT JUMPDEST CALLVALUE DUP1 ISZERO PUSH2 0x14E JUMPI PUSH0 PUSH0 REVERT JUMPDEST POP PUSH2 0x157 PUSH2 0x4CB JUMP JUMPDEST PUSH1 0x40 MLOAD PUSH2 0x164 SWAP2 SWAP1 PUSH2 0x1499 JUMP JUMPDEST PUSH1 0x40 MLOAD DUP1 SWAP2 SUB SWAP1 RETURN JUMPDEST CALLVALUE DUP1 ISZERO PUSH2 0x178 JUMPI PUSH0 PUSH0 REVERT JUMPDEST POP PUSH2 0x181 PUSH2 0x4D1 JUMP JUMPDEST PUSH1 0x40 MLOAD PUSH2 0x18E SWAP2 SWAP1 PUSH2 0x1499 JUMP JUMPDEST PUSH1 0x40 MLOAD DUP1 SWAP2 SUB SWAP1 RETURN JUMPDEST CALLVALUE DUP1 ISZERO PUSH2 0x1A2 JUMPI PUSH0 PUSH0 REVERT JUMPDEST POP PUSH2 0x1BD PUSH1 0x4 DUP1 CALLDATASIZE SUB DUP2 ADD SWAP1 PUSH2 0x1B8 SWAP2 SWAP1 PUSH2 0x1510 JUMP JUMPDEST PUSH2 0x4D7 JUMP JUMPDEST PUSH1 0x40 MLOAD PUSH2 0x1CA SWAP2 SWAP1 PUSH2 0x1499 JUMP JUMPDEST PUSH1 0x40 MLOAD DUP1 SWAP2 SUB SWAP1 RETURN JUMPDEST CALLVALUE DUP1 ISZERO PUSH2 0x1DE JUMPI PUSH0 PUSH0 REVERT JUMPDEST POP PUSH2 0x1E7 PUSH2 0x4EC JUMP JUMPDEST PUSH1 0x40 MLOAD PUSH2 0x1F4 SWAP2 SWAP1 PUSH2 0x1499 JUMP JUMPDEST PUSH1 0x40 MLOAD DUP1 SWAP2 SUB SWAP1 RETURN JUMPDEST CALLVALUE DUP1 ISZERO PUSH2 0x208 JUMPI PUSH0 PUSH0 REVERT JUMPDEST POP PUSH2 0x211 PUSH2 0x4F2 JUMP JUMPDEST STOP JUMPDEST CALLVALUE DUP1 ISZERO PUSH2 0x21E JUMPI PUSH0 PUSH0 REVERT JUMPDEST POP PUSH2 0x227 PUSH2 0x788 JUMP JUMPDEST STOP JUMPDEST CALLVALUE DUP1 ISZERO PUSH2 0x234 JUMPI PUSH0 PUSH0 REVERT JUMPDEST POP PUSH2 0x23D PUSH2 0x918 JUMP JUMPDEST PUSH1 0x40 MLOAD PUSH2 0x24A SWAP2 SWAP1 PUSH2 0x1555 JUMP JUMPDEST PUSH1 0x40 MLOAD DUP1 SWAP2 SUB SWAP1 RETURN JUMPDEST CALLVALUE DUP1 ISZERO PUSH2 0x25E JUMPI PUSH0 PUSH0 REVERT JUMPDEST POP PUSH2 0x267 PUSH2 0x92B JUMP JUMPDEST PUSH1 0x40 MLOAD PUSH2 0x274 SWAP2 SWAP1 PUSH2 0x158E JUMP JUMPDEST PUSH1 0x40 MLOAD DUP1 SWAP2 SUB SWAP1 RETURN JUMPDEST CALLVALUE DUP1 ISZERO PUSH2 0x288 JUMPI PUSH0 PUSH0 REVERT JUMPDEST POP PUSH2 0x291 PUSH2 0x950 JUMP JUMPDEST PUSH1 0x40 MLOAD PUSH2 0x29E SWAP2 SWAP1 PUSH2 0x1555 JUMP JUMPDEST PUSH1 0x40 MLOAD DUP1 SWAP2 SUB SWAP1 RETURN JUMPDEST CALLVALUE DUP1 ISZERO PUSH2 0x2B2 JUMPI PUSH0 PUSH0 REVERT JUMPDEST POP PUSH2 0x2BB PUSH2 0x962 JUMP JUMPDEST STOP JUMPDEST CALLVALUE DUP1 ISZERO PUSH2 0x2C8 JUMPI PUSH0 PUSH0 REVERT JUMPDEST POP PUSH2 0x2D1 PUSH2 0x975 JUMP JUMPDEST PUSH1 0x40 MLOAD PUSH2 0x2DE SWAP2 SWAP1 PUSH2 0x15B6 JUMP JUMPDEST PUSH1 0x40 MLOAD DUP1 SWAP2 SUB SWAP1 RETURN JUMPDEST CALLVALUE DUP1 ISZERO PUSH2 0x2F2 JUMPI PUSH0 PUSH0 REVERT JUMPDEST POP PUSH2 0x2FB PUSH2 0x99C JUMP JUMPDEST PUSH1 0x40 MLOAD PUSH2 0x308 SWAP2 SWAP1 PUSH2 0x1499 JUMP JUMPDEST PUSH1 0x40 MLOAD DUP1 SWAP2 SUB SWAP1 RETURN JUMPDEST CALLVALUE DUP1 ISZERO PUSH2 0x31C JUMPI PUSH0 PUSH0 REVERT JUMPDEST POP PUSH2 0x325 PUSH2 0x9A2 JUMP JUMPDEST PUSH1 0x40 MLOAD PUSH2 0x332 SWAP2 SWAP1 PUSH2 0x1499 JUMP JUMPDEST PUSH1 0x40 MLOAD DUP1 SWAP2 SUB SWAP1 RETURN JUMPDEST CALLVALUE DUP1 ISZERO PUSH2 0x346 JUMPI PUSH0 PUSH0 REVERT JUMPDEST POP PUSH2 0x361 PUSH1 0x4 DUP1 CALLDATASIZE SUB DUP2 ADD SWAP1 PUSH2 0x35C SWAP2 SWAP1 PUSH2 0x1510 JUMP JUMPDEST PUSH2 0x9A8 JUMP JUMPDEST STOP JUMPDEST CALLVALUE DUP1 ISZERO PUSH2 0x36E JUMPI PUSH0 PUSH0 REVERT JUMPDEST POP PUSH2 0x389 PUSH1 0x4 DUP1 CALLDATASIZE SUB DUP2 ADD SWAP1 PUSH2 0x384 SWAP2 SWAP1 PUSH2 0x15F9 JUMP JUMPDEST PUSH2 0xB84 JUMP JUMPDEST PUSH1 0x40 MLOAD PUSH2 0x396 SWAP2 SWAP1 PUSH2 0x1499 JUMP JUMPDEST PUSH1 0x40 MLOAD DUP1 SWAP2 SUB SWAP1 RETURN JUMPDEST CALLVALUE DUP1 ISZERO PUSH2 0x3AA JUMPI PUSH0 PUSH0 REVERT JUMPDEST POP PUSH2 0x3C5 PUSH1 0x4 DUP1 CALLDATASIZE SUB DUP2 ADD SWAP1 PUSH2 0x3C0 SWAP2 SWAP1 PUSH2 0x1510 JUMP JUMPDEST PUSH2 0xBBB JUMP JUMPDEST PUSH1 0x40 MLOAD PUSH2 0x3D2 SWAP2 SWAP1 PUSH2 0x1555 JUMP JUMPDEST PUSH1 0x40 MLOAD DUP1 SWAP2 SUB SWAP1 RETURN JUMPDEST CALLVALUE DUP1 ISZERO PUSH2 0x3E6 JUMPI PUSH0 PUSH0 REVERT JUMPDEST POP PUSH2 0x3EF PUSH2 0xBD8 JUMP JUMPDEST PUSH1 0x40 MLOAD PUSH2 0x3FC SWAP2 SWAP1 PUSH2 0x1499 JUMP JUMPDEST PUSH1 0x40 MLOAD DUP1 SWAP2 SUB SWAP1 RETURN JUMPDEST CALLVALUE DUP1 ISZERO PUSH2 0x410 JUMPI PUSH0 PUSH0 REVERT JUMPDEST POP PUSH2 0x419 PUSH2 0xBDE JUMP JUMPDEST STOP JUMPDEST PUSH2 0x423 PUSH2 0xE05 JUMP JUMPDEST STOP JUMPDEST CALLVALUE DUP1 ISZERO PUSH2 0x430 JUMPI PUSH0 PUSH0 REVERT JUMPDEST POP PUSH2 0x439 PUSH2 0x1206 JUMP JUMPDEST PUSH1 0x40 MLOAD PUSH2 0x446 SWAP2 SWAP1 PUSH2 0x1499 JUMP JUMPDEST PUSH1 0x40 MLOAD DUP1 SWAP2 SUB SWAP1 RETURN JUMPDEST CALLVALUE DUP1 ISZERO PUSH2 0x45A JUMPI PUSH0 PUSH0 REVERT JUMPDEST POP PUSH2 0x475 PUSH1 0x4 DUP1 CALLDATASIZE SUB DUP2 ADD SWAP1 PUSH2 0x470 SWAP2 SWAP1 PUSH2 0x1510 JUMP JUMPDEST PUSH2 0x120C JUMP JUMPDEST STOP JUMPDEST CALLVALUE DUP1 ISZERO PUSH2 0x482 JUMPI PUSH0 PUSH0 REVERT JUMPDEST POP PUSH2 0x48B PUSH2 0x128E JUMP JUMPDEST PUSH1 0x40 MLOAD PUSH2 0x498 SWAP2 SWAP1 PUSH2 0x1499 JUMP JUMPDEST PUSH1 0x40 MLOAD DUP1 SWAP2 SUB SWAP1 RETURN JUMPDEST CALLVALUE DUP1 ISZERO PUSH2 0x4AC JUMPI PUSH0 PUSH0 REVERT JUMPDEST POP PUSH2 0x4B5 PUSH2 0x1294 JUMP JUMPDEST PUSH1 0x40 MLOAD PUSH2 0x4C2 SWAP2 SWAP1 PUSH2 0x167F JUMP JUMPDEST PUSH1 0x40 MLOAD DUP1 SWAP2 SUB SWAP1 RETURN JUMPDEST PUSH1 0xA SLOAD DUP2 JUMP JUMPDEST PUSH1 0x7 SLOAD DUP2 JUMP JUMPDEST PUSH1 0xD PUSH1 0x20 MSTORE DUP1 PUSH0 MSTORE PUSH1 0x40 PUSH0 KECCAK256 PUSH0 SWAP2 POP SWAP1 POP SLOAD DUP2 JUMP JUMPDEST PUSH1 0x4 SLOAD DUP2 JUMP JUMPDEST PUSH2 0x4FA PUSH2 0x12B9 JUMP JUMPDEST PUSH1 0xC PUSH0 SWAP1 SLOAD SWAP1 PUSH2 0x100 EXP SWAP1 DIV PUSH1 0xFF AND PUSH2 0x548 JUMPI PUSH1 0x40 MLOAD PUSH32 0x8C379A000000000000000000000000000000000000000000000000000000000 DUP2 MSTORE PUSH1 0x4 ADD PUSH2 0x53F SWAP1 PUSH2 0x16F2 JUMP JUMPDEST PUSH1 0x40 MLOAD DUP1 SWAP2 SUB SWAP1 REVERT JUMPDEST PUSH1 0xC PUSH1 0x1 SWAP1 SLOAD SWAP1 PUSH2 0x100 EXP SWAP1 DIV PUSH1 0xFF AND ISZERO PUSH2 0x598 JUMPI PUSH1 0x40 MLOAD PUSH32 0x8C379A000000000000000000000000000000000000000000000000000000000 DUP2 MSTORE PUSH1 0x4 ADD PUSH2 0x58F SWAP1 PUSH2 0x175A JUMP JUMPDEST PUSH1 0x40 MLOAD DUP1 SWAP2 SUB SWAP1 REVERT JUMPDEST PUSH0 PUSH1 0xD PUSH0 CALLER PUSH20 0xFFFFFFFFFFFFFFFFFFFFFFFFFFFFFFFFFFFFFFFF AND PUSH20 0xFFFFFFFFFFFFFFFFFFFFFFFFFFFFFFFFFFFFFFFF AND DUP2 MSTORE PUSH1 0x20 ADD SWAP1 DUP2 MSTORE PUSH1 0x20 ADD PUSH0 KECCAK256 SLOAD GT PUSH2 0x617 JUMPI PUSH1 0x40 MLOAD PUSH32 0x8C379A000000000000000000000000000000000000000000000000000000000 DUP2 MSTORE PUSH1 0x4 ADD PUSH2 0x60E SWAP1 PUSH2 0x17C2 JUMP JUMPDEST PUSH1 0x40 MLOAD DUP1 SWAP2 SUB SWAP1 REVERT JUMPDEST PUSH0 PUSH2 0x65E PUSH1 0xD PUSH0 CALLER PUSH20 0xFFFFFFFFFFFFFFFFFFFFFFFFFFFFFFFFFFFFFFFF AND PUSH20 0xFFFFFFFFFFFFFFFFFFFFFFFFFFFFFFFFFFFFFFFF AND DUP2 MSTORE PUSH1 0x20 ADD SWAP1 DUP2 MSTORE PUSH1 0x20 ADD PUSH0 KECCAK256 SLOAD PUSH2 0xB84 JUMP JUMPDEST SWAP1 POP PUSH0 PUSH1 0xD PUSH0 CALLER PUSH20 0xFFFFFFFFFFFFFFFFFFFFFFFFFFFFFFFFFFFFFFFF AND PUSH20 0xFFFFFFFFFFFFFFFFFFFFFFFFFFFFFFFFFFFFFFFF AND DUP2 MSTORE PUSH1 0x20 ADD SWAP1 DUP2 MSTORE PUSH1 0x20 ADD PUSH0 KECCAK256 DUP2 SWAP1 SSTORE POP PUSH1 0x2 PUSH0 SWAP1 SLOAD SWAP1 PUSH2 0x100 EXP SWAP1 DIV PUSH20 0xFFFFFFFFFFFFFFFFFFFFFFFFFFFFFFFFFFFFFFFF AND PUSH20 0xFFFFFFFFFFFFFFFFFFFFFFFFFFFFFFFFFFFFFFFF AND PUSH4 0xA9059CBB CALLER DUP4 PUSH1 0x40 MLOAD DUP4 PUSH4 0xFFFFFFFF AND PUSH1 0xE0 SHL DUP2 MSTORE PUSH1 0x4 ADD PUSH2 0x6FE SWAP3 SWAP2 SWAP1 PUSH2 0x17E0 JUMP JUMPDEST PUSH1 0x20 PUSH1 0x40 MLOAD DUP1 DUP4 SUB DUP2 PUSH0 DUP8 GAS CALL ISZERO DUP1 ISZERO PUSH2 0x71A JUMPI RETURNDATASIZE PUSH0 PUSH0 RETURNDATACOPY RETURNDATASIZE PUSH0 REVERT JUMPDEST POP POP POP POP PUSH1 0x40 MLOAD RETURNDATASIZE PUSH1 0x1F NOT PUSH1 0x1F DUP3 ADD AND DUP3 ADD DUP1 PUSH1 0x40 MSTORE POP DUP2 ADD SWAP1 PUSH2 0x73E SWAP2 SWAP1 PUSH2 0x1831 JUMP JUMPDEST PUSH2 0x77D JUMPI PUSH1 0x40 MLOAD PUSH32 0x8C379A000000000000000000000000000000000000000000000000000000000 DUP2 MSTORE PUSH1 0x4 ADD PUSH2 0x774 SWAP1 PUSH2 0x18A6 JUMP JUMPDEST PUSH1 0x40 MLOAD DUP1 SWAP2 SUB SWAP1 REVERT JUMPDEST POP PUSH2 0x786 PUSH2 0x1308 JUMP JUMPDEST JUMP JUMPDEST PUSH2 0x790 PUSH2 0x1311 JUMP JUMPDEST PUSH1 0xA SLOAD TIMESTAMP GT DUP1 PUSH2 0x7A4 JUMPI POP PUSH1 0x6 SLOAD PUSH1 0xB SLOAD LT ISZERO JUMPDEST PUSH2 0x7E3 JUMPI PUSH1 0x40 MLOAD PUSH32 0x8C379A000000000000000000000000000000000000000000000000000000000 DUP2 MSTORE PUSH1 0x4 ADD PUSH2 0x7DA SWAP1 PUSH2 0x190E JUMP JUMPDEST PUSH1 0x40 MLOAD DUP1 SWAP2 SUB SWAP1 REVERT JUMPDEST PUSH1 0xC PUSH0 SWAP1 SLOAD SWAP1 PUSH2 0x100 EXP SWAP1 DIV PUSH1 0xFF AND ISZERO PUSH2 0x832 JUMPI PUSH1 0x40 MLOAD PUSH32 0x8C379A000000000000000000000000000000000000000000000000000000000 DUP2 MSTORE PUSH1 0x4 ADD PUSH2 0x829 SWAP1 PUSH2 0x1976 JUMP JUMPDEST PUSH1 0x40 MLOAD DUP1 SWAP2 SUB SWAP1 REVERT JUMPDEST PUSH1 0x1 PUSH1 0xC PUSH0 PUSH2 0x100 EXP DUP2 SLOAD DUP2 PUSH1 0xFF MUL NOT AND SWAP1 DUP4 ISZERO ISZERO MUL OR SWAP1 SSTORE POP PUSH1 0x5 SLOAD PUSH1 0xB SLOAD LT PUSH2 0x8C1 JUMPI PUSH1 0x3 PUSH0 SWAP1 SLOAD SWAP1 PUSH2 0x100 EXP SWAP1 DIV PUSH20 0xFFFFFFFFFFFFFFFFFFFFFFFFFFFFFFFFFFFFFFFF AND PUSH20 0xFFFFFFFFFFFFFFFFFFFFFFFFFFFFFFFFFFFFFFFF AND PUSH2 0x8FC SELFBALANCE SWAP1 DUP2 ISZERO MUL SWAP1 PUSH1 0x40 MLOAD PUSH0 PUSH1 0x40 MLOAD DUP1 DUP4 SUB DUP2 DUP6 DUP9 DUP9 CALL SWAP4 POP POP POP POP ISZERO DUP1 ISZERO PUSH2 0x8BB JUMPI RETURNDATASIZE PUSH0 PUSH0 RETURNDATACOPY RETURNDATASIZE PUSH0 REVERT JUMPDEST POP PUSH2 0x8DD JUMP JUMPDEST PUSH1 0x1 PUSH1 0xC PUSH1 0x1 PUSH2 0x100 EXP DUP2 SLOAD DUP2 PUSH1 0xFF MUL NOT AND SWAP1 DUP4 ISZERO ISZERO MUL OR SWAP1 SSTORE POP JUMPDEST PUSH32 0xBA77DDC9E26933F19061480BE65D8EA3DCF88FB70EFD476DF9515333CABEE8C4 PUSH1 0xB SLOAD PUSH1 0x40 MLOAD PUSH2 0x90E SWAP2 SWAP1 PUSH2 0x1499 JUMP JUMPDEST PUSH1 0x40 MLOAD DUP1 SWAP2 SUB SWAP1 LOG1 JUMP JUMPDEST PUSH1 0xC PUSH1 0x1 SWAP1 SLOAD SWAP1 PUSH2 0x100 EXP SWAP1 DIV PUSH1 0xFF AND DUP2 JUMP JUMPDEST PUSH1 0x3 PUSH0 SWAP1 SLOAD SWAP1 PUSH2 0x100 EXP SWAP1 DIV PUSH20 0xFFFFFFFFFFFFFFFFFFFFFFFFFFFFFFFFFFFFFFFF AND DUP2 JUMP JUMPDEST PUSH1 0xC PUSH0 SWAP1 SLOAD SWAP1 PUSH2 0x100 EXP SWAP1 DIV PUSH1 0xFF AND DUP2 JUMP JUMPDEST PUSH2 0x96A PUSH2 0x1311 JUMP JUMPDEST PUSH2 0x973 PUSH0 PUSH2 0x138F JUMP JUMPDEST JUMP JUMPDEST PUSH0 PUSH0 PUSH0 SWAP1 SLOAD SWAP1 PUSH2 0x100 EXP SWAP1 DIV PUSH20 0xFFFFFFFFFFFFFFFFFFFFFFFFFFFFFFFFFFFFFFFF AND SWAP1 POP SWAP1 JUMP JUMPDEST PUSH1 0x5 SLOAD DUP2 JUMP JUMPDEST PUSH1 0x8 SLOAD DUP2 JUMP JUMPDEST PUSH2 0x9B0 PUSH2 0x1311 JUMP JUMPDEST PUSH1 0x2 PUSH0 SWAP1 SLOAD SWAP1 PUSH2 0x100 EXP SWAP1 DIV PUSH20 0xFFFFFFFFFFFFFFFFFFFFFFFFFFFFFFFFFFFFFFFF AND PUSH20 0xFFFFFFFFFFFFFFFFFFFFFFFFFFFFFFFFFFFFFFFF AND DUP2 PUSH20 0xFFFFFFFFFFFFFFFFFFFFFFFFFFFFFFFFFFFFFFFF AND SUB PUSH2 0xA3F JUMPI PUSH1 0x40 MLOAD PUSH32 0x8C379A000000000000000000000000000000000000000000000000000000000 DUP2 MSTORE PUSH1 0x4 ADD PUSH2 0xA36 SWAP1 PUSH2 0x19DE JUMP JUMPDEST PUSH1 0x40 MLOAD DUP1 SWAP2 SUB SWAP1 REVERT JUMPDEST PUSH0 DUP2 SWAP1 POP PUSH0 DUP2 PUSH20 0xFFFFFFFFFFFFFFFFFFFFFFFFFFFFFFFFFFFFFFFF AND PUSH4 0x70A08231 ADDRESS PUSH1 0x40 MLOAD DUP3 PUSH4 0xFFFFFFFF AND PUSH1 0xE0 SHL DUP2 MSTORE PUSH1 0x4 ADD PUSH2 0xA7D SWAP2 SWAP1 PUSH2 0x15B6 JUMP JUMPDEST PUSH1 0x20 PUSH1 0x40 MLOAD DUP1 DUP4 SUB DUP2 DUP7 GAS STATICCALL ISZERO DUP1 ISZERO PUSH2 0xA98 JUMPI RETURNDATASIZE PUSH0 PUSH0 RETURNDATACOPY RETURNDATASIZE PUSH0 REVERT JUMPDEST POP POP POP POP PUSH1 0x40 MLOAD RETURNDATASIZE PUSH1 0x1F NOT PUSH1 0x1F DUP3 ADD AND DUP3 ADD DUP1 PUSH1 0x40 MSTORE POP DUP2 ADD SWAP1 PUSH2 0xABC SWAP2 SWAP1 PUSH2 0x1A10 JUMP JUMPDEST SWAP1 POP DUP2 PUSH20 0xFFFFFFFFFFFFFFFFFFFFFFFFFFFFFFFFFFFFFFFF AND PUSH4 0xA9059CBB PUSH2 0xAE2 PUSH2 0x975 JUMP JUMPDEST DUP4 PUSH1 0x40 MLOAD DUP4 PUSH4 0xFFFFFFFF AND PUSH1 0xE0 SHL DUP2 MSTORE PUSH1 0x4 ADD PUSH2 0xB00 SWAP3 SWAP2 SWAP1 PUSH2 0x17E0 JUMP JUMPDEST PUSH1 0x20 PUSH1 0x40 MLOAD DUP1 DUP4 SUB DUP2 PUSH0 DUP8 GAS CALL ISZERO DUP1 ISZERO PUSH2 0xB1C JUMPI RETURNDATASIZE PUSH0 PUSH0 RETURNDATACOPY RETURNDATASIZE PUSH0 REVERT JUMPDEST POP POP POP POP PUSH1 0x40 MLOAD RETURNDATASIZE PUSH1 0x1F NOT PUSH1 0x1F DUP3 ADD AND DUP3 ADD DUP1 PUSH1 0x40 MSTORE POP DUP2 ADD SWAP1 PUSH2 0xB40 SWAP2 SWAP1 PUSH2 0x1831 JUMP JUMPDEST PUSH2 0xB7F JUMPI PUSH1 0x40 MLOAD PUSH32 0x8C379A000000000000000000000000000000000000000000000000000000000 DUP2 MSTORE PUSH1 0x4 ADD PUSH2 0xB76 SWAP1 PUSH2 0x1A85 JUMP JUMPDEST PUSH1 0x40 MLOAD DUP1 SWAP2 SUB SWAP1 REVERT JUMPDEST POP POP POP JUMP JUMPDEST PUSH0 PUSH2 0xBB4 PUSH8 0xDE0B6B3A7640000 PUSH2 0xBA6 PUSH1 0x4 SLOAD DUP6 PUSH2 0x1450 SWAP1 SWAP2 SWAP1 PUSH4 0xFFFFFFFF AND JUMP JUMPDEST PUSH2 0x1450 SWAP1 SWAP2 SWAP1 PUSH4 0xFFFFFFFF AND JUMP JUMPDEST SWAP1 POP SWAP2 SWAP1 POP JUMP JUMPDEST PUSH1 0xE PUSH1 0x20 MSTORE DUP1 PUSH0 MSTORE PUSH1 0x40 PUSH0 KECCAK256 PUSH0 SWAP2 POP SLOAD SWAP1 PUSH2 0x100 EXP SWAP1 DIV PUSH1 0xFF AND DUP2 JUMP JUMPDEST PUSH1 0xB SLOAD DUP2 JUMP JUMPDEST PUSH2 0xBE6 PUSH2 0x1311 JUMP JUMPDEST PUSH1 0xC PUSH0 SWAP1 SLOAD SWAP1 PUSH2 0x100 EXP SWAP1 DIV PUSH1 0xFF AND PUSH2 0xC34 JUMPI PUSH1 0x40 MLOAD PUSH32 0x8C379A000000000000000000000000000000000000000000000000000000000 DUP2 MSTORE PUSH1 0x4 ADD PUSH2 0xC2B SWAP1 PUSH2 0x16F2 JUMP JUMPDEST PUSH1 0x40 MLOAD DUP1 SWAP2 SUB SWAP1 REVERT JUMPDEST PUSH1 0xC PUSH1 0x1 SWAP1 SLOAD SWAP1 PUSH2 0x100 EXP SWAP1 DIV PUSH1 0xFF AND ISZERO PUSH2 0xC84 JUMPI PUSH1 0x40 MLOAD PUSH32 0x8C379A000000000000000000000000000000000000000000000000000000000 DUP2 MSTORE PUSH1 0x4 ADD PUSH2 0xC7B SWAP1 PUSH2 0x175A JUMP JUMPDEST PUSH1 0x40 MLOAD DUP1 SWAP2 SUB SWAP1 REVERT JUMPDEST PUSH0 PUSH1 0x2 PUSH0 SWAP1 SLOAD SWAP1 PUSH2 0x100 EXP SWAP1 DIV PUSH20 0xFFFFFFFFFFFFFFFFFFFFFFFFFFFFFFFFFFFFFFFF AND PUSH20 0xFFFFFFFFFFFFFFFFFFFFFFFFFFFFFFFFFFFFFFFF AND PUSH4 0x70A08231 ADDRESS PUSH1 0x40 MLOAD DUP3 PUSH4 0xFFFFFFFF AND PUSH1 0xE0 SHL DUP2 MSTORE PUSH1 0x4 ADD PUSH2 0xCDF SWAP2 SWAP1 PUSH2 0x15B6 JUMP JUMPDEST PUSH1 0x20 PUSH1 0x40 MLOAD DUP1 DUP4 SUB DUP2 DUP7 GAS STATICCALL ISZERO DUP1 ISZERO PUSH2 0xCFA JUMPI RETURNDATASIZE PUSH0 PUSH0 RETURNDATACOPY RETURNDATASIZE PUSH0 REVERT JUMPDEST POP POP POP POP PUSH1 0x40 MLOAD RETURNDATASIZE PUSH1 0x1F NOT PUSH1 0x1F DUP3 ADD AND DUP3 ADD DUP1 PUSH1 0x40 MSTORE POP DUP2 ADD SWAP1 PUSH2 0xD1E SWAP2 SWAP1 PUSH2 0x1A10 JUMP JUMPDEST SWAP1 POP PUSH1 0x2 PUSH0 SWAP1 SLOAD SWAP1 PUSH2 0x100 EXP SWAP1 DIV PUSH20 0xFFFFFFFFFFFFFFFFFFFFFFFFFFFFFFFFFFFFFFFF AND PUSH20 0xFFFFFFFFFFFFFFFFFFFFFFFFFFFFFFFFFFFFFFFF AND PUSH4 0xA9059CBB PUSH2 0xD65 PUSH2 0x975 JUMP JUMPDEST DUP4 PUSH1 0x40 MLOAD DUP4 PUSH4 0xFFFFFFFF AND PUSH1 0xE0 SHL DUP2 MSTORE PUSH1 0x4 ADD PUSH2 0xD83 SWAP3 SWAP2 SWAP1 PUSH2 0x17E0 JUMP JUMPDEST PUSH1 0x20 PUSH1 0x40 MLOAD DUP1 DUP4 SUB DUP2 PUSH0 DUP8 GAS CALL ISZERO DUP1 ISZERO PUSH2 0xD9F JUMPI RETURNDATASIZE PUSH0 PUSH0 RETURNDATACOPY RETURNDATASIZE PUSH0 REVERT JUMPDEST POP POP POP POP PUSH1 0x40 MLOAD RETURNDATASIZE PUSH1 0x1F NOT PUSH1 0x1F DUP3 ADD AND DUP3 ADD DUP1 PUSH1 0x40 MSTORE POP DUP2 ADD SWAP1 PUSH2 0xDC3 SWAP2 SWAP1 PUSH2 0x1831 JUMP JUMPDEST PUSH2 0xE02 JUMPI PUSH1 0x40 MLOAD PUSH32 0x8C379A000000000000000000000000000000000000000000000000000000000 DUP2 MSTORE PUSH1 0x4 ADD PUSH2 0xDF9 SWAP1 PUSH2 0x18A6 JUMP JUMPDEST PUSH1 0x40 MLOAD DUP1 SWAP2 SUB SWAP1 REVERT JUMPDEST POP JUMP JUMPDEST PUSH2 0xE0D PUSH2 0x12B9 JUMP JUMPDEST PUSH1 0x9 SLOAD TIMESTAMP LT ISZERO PUSH2 0xE52 JUMPI PUSH1 0x40 MLOAD PUSH32 0x8C379A000000000000000000000000000000000000000000000000000000000 DUP2 MSTORE PUSH1 0x4 ADD PUSH2 0xE49 SWAP1 PUSH2 0x1AED JUMP JUMPDEST PUSH1 0x40 MLOAD DUP1 SWAP2 SUB SWAP1 REVERT JUMPDEST PUSH1 0xA SLOAD TIMESTAMP GT ISZERO PUSH2 0xE97 JUMPI PUSH1 0x40 MLOAD PUSH32 0x8C379A000000000000000000000000000000000000000000000000000000000 DUP2 MSTORE PUSH1 0x4 ADD PUSH2 0xE8E SWAP1 PUSH2 0x1B55 JUMP JUMPDEST PUSH1 0x40 MLOAD DUP1 SWAP2 SUB SWAP1 REVERT JUMPDEST PUSH1 0xC PUSH0 SWAP1 SLOAD SWAP1 PUSH2 0x100 EXP SWAP1 DIV PUSH1 0xFF AND ISZERO PUSH2 0xEE6 JUMPI PUSH1 0x40 MLOAD PUSH32 0x8C379A000000000000000000000000000000000000000000000000000000000 DUP2 MSTORE PUSH1 0x4 ADD PUSH2 0xEDD SWAP1 PUSH2 0x1BBD JUMP JUMPDEST PUSH1 0x40 MLOAD DUP1 SWAP2 SUB SWAP1 REVERT JUMPDEST PUSH1 0x7 SLOAD CALLVALUE LT ISZERO PUSH2 0xF2B JUMPI PUSH1 0x40 MLOAD PUSH32 0x8C379A000000000000000000000000000000000000000000000000000000000 DUP2 MSTORE PUSH1 0x4 ADD PUSH2 0xF22 SWAP1 PUSH2 0x1C25 JUMP JUMPDEST PUSH1 0x40 MLOAD DUP1 SWAP2 SUB SWAP1 REVERT JUMPDEST PUSH1 0x8 SLOAD PUSH2 0xF7E PUSH1 0xD PUSH0 CALLER PUSH20 0xFFFFFFFFFFFFFFFFFFFFFFFFFFFFFFFFFFFFFFFF AND PUSH20 0xFFFFFFFFFFFFFFFFFFFFFFFFFFFFFFFFFFFFFFFF AND DUP2 MSTORE PUSH1 0x20 ADD SWAP1 DUP2 MSTORE PUSH1 0x20 ADD PUSH0 KECCAK256 SLOAD CALLVALUE PUSH2 0x1465 SWAP1 SWAP2 SWAP1 PUSH4 0xFFFFFFFF AND JUMP JUMPDEST GT ISZERO PUSH2 0xFBF JUMPI PUSH1 0x40 MLOAD PUSH32 0x8C379A000000000000000000000000000000000000000000000000000000000 DUP2 MSTORE PUSH1 0x4 ADD PUSH2 0xFB6 SWAP1 PUSH2 0x1C8D JUMP JUMPDEST PUSH1 0x40 MLOAD DUP1 SWAP2 SUB SWAP1 REVERT JUMPDEST PUSH1 0x6 SLOAD PUSH2 0xFD7 CALLVALUE PUSH1 0xB SLOAD PUSH2 0x1465 SWAP1 SWAP2 SWAP1 PUSH4 0xFFFFFFFF AND JUMP JUMPDEST GT ISZERO PUSH2 0x1018 JUMPI PUSH1 0x40 MLOAD PUSH32 0x8C379A000000000000000000000000000000000000000000000000000000000 DUP2 MSTORE PUSH1 0x4 ADD PUSH2 0x100F SWAP1 PUSH2 0x1CF5 JUMP JUMPDEST PUSH1 0x40 MLOAD DUP1 SWAP2 SUB SWAP1 REVERT JUMPDEST PUSH0 PUSH2 0x1022 CALLVALUE PUSH2 0xB84 JUMP JUMPDEST SWAP1 POP DUP1 PUSH1 0x2 PUSH0 SWAP1 SLOAD SWAP1 PUSH2 0x100 EXP SWAP1 DIV PUSH20 0xFFFFFFFFFFFFFFFFFFFFFFFFFFFFFFFFFFFFFFFF AND PUSH20 0xFFFFFFFFFFFFFFFFFFFFFFFFFFFFFFFFFFFFFFFF AND PUSH4 0x70A08231 ADDRESS PUSH1 0x40 MLOAD DUP3 PUSH4 0xFFFFFFFF AND PUSH1 0xE0 SHL DUP2 MSTORE PUSH1 0x4 ADD PUSH2 0x107F SWAP2 SWAP1 PUSH2 0x15B6 JUMP JUMPDEST PUSH1 0x20 PUSH1 0x40 MLOAD DUP1 DUP4 SUB DUP2 DUP7 GAS STATICCALL ISZERO DUP1 ISZERO PUSH2 0x109A JUMPI RETURNDATASIZE PUSH0 PUSH0 RETURNDATACOPY RETURNDATASIZE PUSH0 REVERT JUMPDEST POP POP POP POP PUSH1 0x40 MLOAD RETURNDATASIZE PUSH1 0x1F NOT PUSH1 0x1F DUP3 ADD AND DUP3 ADD DUP1 PUSH1 0x40 MSTORE POP DUP2 ADD SWAP1 PUSH2 0x10BE SWAP2 SWAP1 PUSH2 0x1A10 JUMP JUMPDEST LT ISZERO PUSH2 0x10FF JUMPI PUSH1 0x40 MLOAD PUSH32 0x8C379A000000000000000000000000000000000000000000000000000000000 DUP2 MSTORE PUSH1 0x4 ADD PUSH2 0x10F6 SWAP1 PUSH2 0x1D5D JUMP JUMPDEST PUSH1 0x40 MLOAD DUP1 SWAP2 SUB SWAP1 REVERT JUMPDEST PUSH2 0x114F CALLVALUE PUSH1 0xD PUSH0 CALLER PUSH20 0xFFFFFFFFFFFFFFFFFFFFFFFFFFFFFFFFFFFFFFFF AND PUSH20 0xFFFFFFFFFFFFFFFFFFFFFFFFFFFFFFFFFFFFFFFF AND DUP2 MSTORE PUSH1 0x20 ADD SWAP1 DUP2 MSTORE PUSH1 0x20 ADD PUSH0 KECCAK256 SLOAD PUSH2 0x1465 SWAP1 SWAP2 SWAP1 PUSH4 0xFFFFFFFF AND JUMP JUMPDEST PUSH1 0xD PUSH0 CALLER PUSH20 0xFFFFFFFFFFFFFFFFFFFFFFFFFFFFFFFFFFFFFFFF AND PUSH20 0xFFFFFFFFFFFFFFFFFFFFFFFFFFFFFFFFFFFFFFFF AND DUP2 MSTORE PUSH1 0x20 ADD SWAP1 DUP2 MSTORE PUSH1 0x20 ADD PUSH0 KECCAK256 DUP2 SWAP1 SSTORE POP PUSH2 0x11A5 CALLVALUE PUSH1 0xB SLOAD PUSH2 0x1465 SWAP1 SWAP2 SWAP1 PUSH4 0xFFFFFFFF AND JUMP JUMPDEST PUSH1 0xB DUP2 SWAP1 SSTORE POP CALLER PUSH20 0xFFFFFFFFFFFFFFFFFFFFFFFFFFFFFFFFFFFFFFFF AND PUSH32 0x8FAFEBCAF9D154343DAD25669BFA277F4FBACD7AC6B0C4FED522580E040A0F33 CALLVALUE DUP4 PUSH1 0x40 MLOAD PUSH2 0x11F3 SWAP3 SWAP2 SWAP1 PUSH2 0x1D7B JUMP JUMPDEST PUSH1 0x40 MLOAD DUP1 SWAP2 SUB SWAP1 LOG2 POP PUSH2 0x1204 PUSH2 0x1308 JUMP JUMPDEST JUMP JUMPDEST PUSH1 0x9 SLOAD DUP2 JUMP JUMPDEST PUSH2 0x1214 PUSH2 0x1311 JUMP JUMPDEST PUSH0 PUSH20 0xFFFFFFFFFFFFFFFFFFFFFFFFFFFFFFFFFFFFFFFF AND DUP2 PUSH20 0xFFFFFFFFFFFFFFFFFFFFFFFFFFFFFFFFFFFFFFFF AND SUB PUSH2 0x1282 JUMPI PUSH1 0x40 MLOAD PUSH32 0x8C379A000000000000000000000000000000000000000000000000000000000 DUP2 MSTORE PUSH1 0x4 ADD PUSH2 0x1279 SWAP1 PUSH2 0x1E12 JUMP JUMPDEST PUSH1 0x40 MLOAD DUP1 SWAP2 SUB SWAP1 REVERT JUMPDEST PUSH2 0x128B DUP2 PUSH2 0x138F JUMP JUMPDEST POP JUMP JUMPDEST PUSH1 0x6 SLOAD DUP2 JUMP JUMPDEST PUSH1 0x2 PUSH0 SWAP1 SLOAD SWAP1 PUSH2 0x100 EXP SWAP1 DIV PUSH20 0xFFFFFFFFFFFFFFFFFFFFFFFFFFFFFFFFFFFFFFFF AND DUP2 JUMP JUMPDEST PUSH1 0x2 PUSH1 0x1 SLOAD SUB PUSH2 0x12FE JUMPI PUSH1 0x40 MLOAD PUSH32 0x8C379A000000000000000000000000000000000000000000000000000000000 DUP2 MSTORE PUSH1 0x4 ADD PUSH2 0x12F5 SWAP1 PUSH2 0x1E7A JUMP JUMPDEST PUSH1 0x40 MLOAD DUP1 SWAP2 SUB SWAP1 REVERT JUMPDEST PUSH1 0x2 PUSH1 0x1 DUP2 SWAP1 SSTORE POP JUMP JUMPDEST PUSH1 0x1 DUP1 DUP2 SWAP1 SSTORE POP JUMP JUMPDEST PUSH2 0x1319 PUSH2 0x147A JUMP JUMPDEST PUSH20 0xFFFFFFFFFFFFFFFFFFFFFFFFFFFFFFFFFFFFFFFF AND PUSH2 0x1337 PUSH2 0x975 JUMP JUMPDEST PUSH20 0xFFFFFFFFFFFFFFFFFFFFFFFFFFFFFFFFFFFFFFFF AND EQ PUSH2 0x138D JUMPI PUSH1 0x40 MLOAD PUSH32 0x8C379A000000000000000000000000000000000000000000000000000000000 DUP2 MSTORE PUSH1 0x4 ADD PUSH2 0x1384 SWAP1 PUSH2 0x1EE2 JUMP JUMPDEST PUSH1 0x40 MLOAD DUP1 SWAP2 SUB SWAP1 REVERT JUMPDEST JUMP JUMPDEST PUSH0 PUSH0 PUSH0 SWAP1 SLOAD SWAP1 PUSH2 0x100 EXP SWAP1 DIV PUSH20 0xFFFFFFFFFFFFFFFFFFFFFFFFFFFFFFFFFFFFFFFF AND SWAP1 POP DUP2 PUSH0 PUSH0 PUSH2 0x100 EXP DUP2 SLOAD DUP2 PUSH20 0xFFFFFFFFFFFFFFFFFFFFFFFFFFFFFFFFFFFFFFFF MUL NOT AND SWAP1 DUP4 PUSH20 0xFFFFFFFFFFFFFFFFFFFFFFFFFFFFFFFFFFFFFFFF AND MUL OR SWAP1 SSTORE POP DUP2 PUSH20 0xFFFFFFFFFFFFFFFFFFFFFFFFFFFFFFFFFFFFFFFF AND DUP2 PUSH20 0xFFFFFFFFFFFFFFFFFFFFFFFFFFFFFFFFFFFFFFFF AND PUSH32 0x8BE0079C531659141344CD1FD0A4F28419497F9722A3DAAFE3B4186F6B6457E0 PUSH1 0x40 MLOAD PUSH1 0x40 MLOAD DUP1 SWAP2 SUB SWAP1 LOG3 POP POP JUMP JUMPDEST PUSH0 DUP2 DUP4 PUSH2 0x145D SWAP2 SWAP1 PUSH2 0x1F2D JUMP JUMPDEST SWAP1 POP SWAP3 SWAP2 POP POP JUMP JUMPDEST PUSH0 DUP2 DUP4 PUSH2 0x1472 SWAP2 SWAP1 PUSH2 0x1F6E JUMP JUMPDEST SWAP1 POP SWAP3 SWAP2 POP POP JUMP JUMPDEST PUSH0 CALLER SWAP1 POP SWAP1 JUMP JUMPDEST PUSH0 DUP2 SWAP1 POP SWAP2 SWAP1 POP JUMP JUMPDEST PUSH2 0x1493 DUP2 PUSH2 0x1481 JUMP JUMPDEST DUP3 MSTORE POP POP JUMP JUMPDEST PUSH0 PUSH1 0x20 DUP3 ADD SWAP1 POP PUSH2 0x14AC PUSH0 DUP4 ADD DUP5 PUSH2 0x148A JUMP JUMPDEST SWAP3 SWAP2 POP POP JUMP JUMPDEST PUSH0 PUSH0 REVERT JUMPDEST PUSH0 PUSH20 0xFFFFFFFFFFFFFFFFFFFFFFFFFFFFFFFFFFFFFFFF DUP3 AND SWAP1 POP SWAP2 SWAP1 POP JUMP JUMPDEST PUSH0 PUSH2 0x14DF DUP3 PUSH2 0x14B6 JUMP JUMPDEST SWAP1 POP SWAP2 SWAP1 POP JUMP JUMPDEST PUSH2 0x14EF DUP2 PUSH2 0x14D5 JUMP JUMPDEST DUP2 EQ PUSH2 0x14F9 JUMPI PUSH0 PUSH0 REVERT JUMPDEST POP JUMP JUMPDEST PUSH0 DUP2 CALLDATALOAD SWAP1 POP PUSH2 0x150A DUP2 PUSH2 0x14E6 JUMP JUMPDEST SWAP3 SWAP2 POP POP JUMP JUMPDEST PUSH0 PUSH1 0x20 DUP3 DUP5 SUB SLT ISZERO PUSH2 0x1525 JUMPI PUSH2 0x1524 PUSH2 0x14B2 JUMP JUMPDEST JUMPDEST PUSH0 PUSH2 0x1532 DUP5 DUP3 DUP6 ADD PUSH2 0x14FC JUMP JUMPDEST SWAP2 POP POP SWAP3 SWAP2 POP POP JUMP JUMPDEST PUSH0 DUP2 ISZERO ISZERO SWAP1 POP SWAP2 SWAP1 POP JUMP JUMPDEST PUSH2 0x154F DUP2 PUSH2 0x153B JUMP JUMPDEST DUP3 MSTORE POP POP JUMP JUMPDEST PUSH0 PUSH1 0x20 DUP3 ADD SWAP1 POP PUSH2 0x1568 PUSH0 DUP4 ADD DUP5 PUSH2 0x1546 JUMP JUMPDEST SWAP3 SWAP2 POP POP JUMP JUMPDEST PUSH0 PUSH2 0x1578 DUP3 PUSH2 0x14B6 JUMP JUMPDEST SWAP1 POP SWAP2 SWAP1 POP JUMP JUMPDEST PUSH2 0x1588 DUP2 PUSH2 0x156E JUMP JUMPDEST DUP3 MSTORE POP POP JUMP JUMPDEST PUSH0 PUSH1 0x20 DUP3 ADD SWAP1 POP PUSH2 0x15A1 PUSH0 DUP4 ADD DUP5 PUSH2 0x157F JUMP JUMPDEST SWAP3 SWAP2 POP POP JUMP JUMPDEST PUSH2 0x15B0 DUP2 PUSH2 0x14D5 JUMP JUMPDEST DUP3 MSTORE POP POP JUMP JUMPDEST PUSH0 PUSH1 0x20 DUP3 ADD SWAP1 POP PUSH2 0x15C9 PUSH0 DUP4 ADD DUP5 PUSH2 0x15A7 JUMP JUMPDEST SWAP3 SWAP2 POP POP JUMP JUMPDEST PUSH2 0x15D8 DUP2 PUSH2 0x1481 JUMP JUMPDEST DUP2 EQ PUSH2 0x15E2 JUMPI PUSH0 PUSH0 REVERT JUMPDEST POP JUMP JUMPDEST PUSH0 DUP2 CALLDATALOAD SWAP1 POP PUSH2 0x15F3 DUP2 PUSH2 0x15CF JUMP JUMPDEST SWAP3 SWAP2 POP POP JUMP JUMPDEST PUSH0 PUSH1 0x20 DUP3 DUP5 SUB SLT ISZERO PUSH2 0x160E JUMPI PUSH2 0x160D PUSH2 0x14B2 JUMP JUMPDEST JUMPDEST PUSH0 PUSH2 0x161B DUP5 DUP3 DUP6 ADD PUSH2 0x15E5 JUMP JUMPDEST SWAP2 POP POP SWAP3 SWAP2 POP POP JUMP JUMPDEST PUSH0 DUP2 SWAP1 POP SWAP2 SWAP1 POP JUMP JUMPDEST PUSH0 PUSH2 0x1647 PUSH2 0x1642 PUSH2 0x163D DUP5 PUSH2 0x14B6 JUMP JUMPDEST PUSH2 0x1624 JUMP JUMPDEST PUSH2 0x14B6 JUMP JUMPDEST SWAP1 POP SWAP2 SWAP1 POP JUMP JUMPDEST PUSH0 PUSH2 0x1658 DUP3 PUSH2 0x162D JUMP JUMPDEST SWAP1 POP SWAP2 SWAP1 POP JUMP JUMPDEST PUSH0 PUSH2 0x1669 DUP3 PUSH2 0x164E JUMP JUMPDEST SWAP1 POP SWAP2 SWAP1 POP JUMP JUMPDEST PUSH2 0x1679 DUP2 PUSH2 0x165F JUMP JUMPDEST DUP3 MSTORE POP POP JUMP JUMPDEST PUSH0 PUSH1 0x20 DUP3 ADD SWAP1 POP PUSH2 0x1692 PUSH0 DUP4 ADD DUP5 PUSH2 0x1670 JUMP JUMPDEST SWAP3 SWAP2 POP POP JUMP JUMPDEST PUSH0 DUP3 DUP3 MSTORE PUSH1 0x20 DUP3 ADD SWAP1 POP SWAP3 SWAP2 POP POP JUMP JUMPDEST PUSH32 0x50726573616C65206E6F742066696E616C697A65640000000000000000000000 PUSH0 DUP3 ADD MSTORE POP JUMP JUMPDEST PUSH0 PUSH2 0x16DC PUSH1 0x15 DUP4 PUSH2 0x1698 JUMP JUMPDEST SWAP2 POP PUSH2 0x16E7 DUP3 PUSH2 0x16A8 JUMP JUMPDEST PUSH1 0x20 DUP3 ADD SWAP1 POP SWAP2 SWAP1 POP JUMP JUMPDEST PUSH0 PUSH1 0x20 DUP3 ADD SWAP1 POP DUP2 DUP2 SUB PUSH0 DUP4 ADD MSTORE PUSH2 0x1709 DUP2 PUSH2 0x16D0 JUMP JUMPDEST SWAP1 POP SWAP2 SWAP1 POP JUMP JUMPDEST PUSH32 0x50726573616C65206661696C6564000000000000000000000000000000000000 PUSH0 DUP3 ADD MSTORE POP JUMP JUMPDEST PUSH0 PUSH2 0x1744 PUSH1 0xE DUP4 PUSH2 0x1698 JUMP JUMPDEST SWAP2 POP PUSH2 0x174F DUP3 PUSH2 0x1710 JUMP JUMPDEST PUSH1 0x20 DUP3 ADD SWAP1 POP SWAP2 SWAP1 POP JUMP JUMPDEST PUSH0 PUSH1 0x20 DUP3 ADD SWAP1 POP DUP2 DUP2 SUB PUSH0 DUP4 ADD MSTORE PUSH2 0x1771 DUP2 PUSH2 0x1738 JUMP JUMPDEST SWAP1 POP SWAP2 SWAP1 POP JUMP JUMPDEST PUSH32 0x4E6F20636F6E747269627574696F6E20666F756E640000000000000000000000 PUSH0 DUP3 ADD MSTORE POP JUMP JUMPDEST PUSH0 PUSH2 0x17AC PUSH1 0x15 DUP4 PUSH2 0x1698 JUMP JUMPDEST SWAP2 POP PUSH2 0x17B7 DUP3 PUSH2 0x1778 JUMP JUMPDEST PUSH1 0x20 DUP3 ADD SWAP1 POP SWAP2 SWAP1 POP JUMP JUMPDEST PUSH0 PUSH1 0x20 DUP3 ADD SWAP1 POP DUP2 DUP2 SUB PUSH0 DUP4 ADD MSTORE PUSH2 0x17D9 DUP2 PUSH2 0x17A0 JUMP JUMPDEST SWAP1 POP SWAP2 SWAP1 POP JUMP JUMPDEST PUSH0 PUSH1 0x40 DUP3 ADD SWAP1 POP PUSH2 0x17F3 PUSH0 DUP4 ADD DUP6 PUSH2 0x15A7 JUMP JUMPDEST PUSH2 0x1800 PUSH1 0x20 DUP4 ADD DUP5 PUSH2 0x148A JUMP JUMPDEST SWAP4 SWAP3 POP POP POP JUMP JUMPDEST PUSH2 0x1810 DUP2 PUSH2 0x153B JUMP JUMPDEST DUP2 EQ PUSH2 0x181A JUMPI PUSH0 PUSH0 REVERT JUMPDEST POP JUMP JUMPDEST PUSH0 DUP2 MLOAD SWAP1 POP PUSH2 0x182B DUP2 PUSH2 0x1807 JUMP JUMPDEST SWAP3 SWAP2 POP POP JUMP JUMPDEST PUSH0 PUSH1 0x20 DUP3 DUP5 SUB SLT ISZERO PUSH2 0x1846 JUMPI PUSH2 0x1845 PUSH2 0x14B2 JUMP JUMPDEST JUMPDEST PUSH0 PUSH2 0x1853 DUP5 DUP3 DUP6 ADD PUSH2 0x181D JUMP JUMPDEST SWAP2 POP POP SWAP3 SWAP2 POP POP JUMP JUMPDEST PUSH32 0x546F6B656E207472616E73666572206661696C65640000000000000000000000 PUSH0 DUP3 ADD MSTORE POP JUMP JUMPDEST PUSH0 PUSH2 0x1890 PUSH1 0x15 DUP4 PUSH2 0x1698 JUMP JUMPDEST SWAP2 POP PUSH2 0x189B DUP3 PUSH2 0x185C JUMP JUMPDEST PUSH1 0x20 DUP3 ADD SWAP1 POP SWAP2 SWAP1 POP JUMP JUMPDEST PUSH0 PUSH1 0x20 DUP3 ADD SWAP1 POP DUP2 DUP2 SUB PUSH0 DUP4 ADD MSTORE PUSH2 0x18BD DUP2 PUSH2 0x1884 JUMP JUMPDEST SWAP1 POP SWAP2 SWAP1 POP JUMP JUMPDEST PUSH32 0x43616E6E6F742066696E616C697A652079657400000000000000000000000000 PUSH0 DUP3 ADD MSTORE POP JUMP JUMPDEST PUSH0 PUSH2 0x18F8 PUSH1 0x13 DUP4 PUSH2 0x1698 JUMP JUMPDEST SWAP2 POP PUSH2 0x1903 DUP3 PUSH2 0x18C4 JUMP JUMPDEST PUSH1 0x20 DUP3 ADD SWAP1 POP SWAP2 SWAP1 POP JUMP JUMPDEST PUSH0 PUSH1 0x20 DUP3 ADD SWAP1 POP DUP2 DUP2 SUB PUSH0 DUP4 ADD MSTORE PUSH2 0x1925 DUP2 PUSH2 0x18EC JUMP JUMPDEST SWAP1 POP SWAP2 SWAP1 POP JUMP JUMPDEST PUSH32 0x416C72656164792066696E616C697A6564000000000000000000000000000000 PUSH0 DUP3 ADD MSTORE POP JUMP JUMPDEST PUSH0 PUSH2 0x1960 PUSH1 0x11 DUP4 PUSH2 0x1698 JUMP JUMPDEST SWAP2 POP PUSH2 0x196B DUP3 PUSH2 0x192C JUMP JUMPDEST PUSH1 0x20 DUP3 ADD SWAP1 POP SWAP2 SWAP1 POP JUMP JUMPDEST PUSH0 PUSH1 0x20 DUP3 ADD SWAP1 POP DUP2 DUP2 SUB PUSH0 DUP4 ADD MSTORE PUSH2 0x198D DUP2 PUSH2 0x1954 JUMP JUMPDEST SWAP1 POP SWAP2 SWAP1 POP JUMP JUMPDEST PUSH32 0x43616E6E6F74207265636F7665722070726573616C6520746F6B656E00000000 PUSH0 DUP3 ADD MSTORE POP JUMP JUMPDEST PUSH0 PUSH2 0x19C8 PUSH1 0x1C DUP4 PUSH2 0x1698 JUMP JUMPDEST SWAP2 POP PUSH2 0x19D3 DUP3 PUSH2 0x1994 JUMP JUMPDEST PUSH1 0x20 DUP3 ADD SWAP1 POP SWAP2 SWAP1 POP JUMP JUMPDEST PUSH0 PUSH1 0x20 DUP3 ADD SWAP1 POP DUP2 DUP2 SUB PUSH0 DUP4 ADD MSTORE PUSH2 0x19F5 DUP2 PUSH2 0x19BC JUMP JUMPDEST SWAP1 POP SWAP2 SWAP1 POP JUMP JUMPDEST PUSH0 DUP2 MLOAD SWAP1 POP PUSH2 0x1A0A DUP2 PUSH2 0x15CF JUMP JUMPDEST SWAP3 SWAP2 POP POP JUMP JUMPDEST PUSH0 PUSH1 0x20 DUP3 DUP5 SUB SLT ISZERO PUSH2 0x1A25 JUMPI PUSH2 0x1A24 PUSH2 0x14B2 JUMP JUMPDEST JUMPDEST PUSH0 PUSH2 0x1A32 DUP5 DUP3 DUP6 ADD PUSH2 0x19FC JUMP JUMPDEST SWAP2 POP POP SWAP3 SWAP2 POP POP JUMP JUMPDEST PUSH32 0x546F6B656E207265636F76657279206661696C65640000000000000000000000 PUSH0 DUP3 ADD MSTORE POP JUMP JUMPDEST PUSH0 PUSH2 0x1A6F PUSH1 0x15 DUP4 PUSH2 0x1698 JUMP JUMPDEST SWAP2 POP PUSH2 0x1A7A DUP3 PUSH2 0x1A3B JUMP JUMPDEST PUSH1 0x20 DUP3 ADD SWAP1 POP SWAP2 SWAP1 POP JUMP JUMPDEST PUSH0 PUSH1 0x20 DUP3 ADD SWAP1 POP DUP2 DUP2 SUB PUSH0 DUP4 ADD MSTORE PUSH2 0x1A9C DUP2 PUSH2 0x1A63 JUMP JUMPDEST SWAP1 POP SWAP2 SWAP1 POP JUMP JUMPDEST PUSH32 0x50726573616C65206E6F74207374617274656400000000000000000000000000 PUSH0 DUP3 ADD MSTORE POP JUMP JUMPDEST PUSH0 PUSH2 0x1AD7 PUSH1 0x13 DUP4 PUSH2 0x1698 JUMP JUMPDEST SWAP2 POP PUSH2 0x1AE2 DUP3 PUSH2 0x1AA3 JUMP JUMPDEST PUSH1 0x20 DUP3 ADD SWAP1 POP SWAP2 SWAP1 POP JUMP JUMPDEST PUSH0 PUSH1 0x20 DUP3 ADD SWAP1 POP DUP2 DUP2 SUB PUSH0 DUP4 ADD MSTORE PUSH2 0x1B04 DUP2 PUSH2 0x1ACB JUMP JUMPDEST SWAP1 POP SWAP2 SWAP1 POP JUMP JUMPDEST PUSH32 0x50726573616C6520656E64656400000000000000000000000000000000000000 PUSH0 DUP3 ADD MSTORE POP JUMP JUMPDEST PUSH0 PUSH2 0x1B3F PUSH1 0xD DUP4 PUSH2 0x1698 JUMP JUMPDEST SWAP2 POP PUSH2 0x1B4A DUP3 PUSH2 0x1B0B JUMP JUMPDEST PUSH1 0x20 DUP3 ADD SWAP1 POP SWAP2 SWAP1 POP JUMP JUMPDEST PUSH0 PUSH1 0x20 DUP3 ADD SWAP1 POP DUP2 DUP2 SUB PUSH0 DUP4 ADD MSTORE PUSH2 0x1B6C DUP2 PUSH2 0x1B33 JUMP JUMPDEST SWAP1 POP SWAP2 SWAP1 POP JUMP JUMPDEST PUSH32 0x50726573616C652066696E616C697A6564000000000000000000000000000000 PUSH0 DUP3 ADD MSTORE POP JUMP JUMPDEST PUSH0 PUSH2 0x1BA7 PUSH1 0x11 DUP4 PUSH2 0x1698 JUMP JUMPDEST SWAP2 POP PUSH2 0x1BB2 DUP3 PUSH2 0x1B73 JUMP JUMPDEST PUSH1 0x20 DUP3 ADD SWAP1 POP SWAP2 SWAP1 POP JUMP JUMPDEST PUSH0 PUSH1 0x20 DUP3 ADD SWAP1 POP DUP2 DUP2 SUB PUSH0 DUP4 ADD MSTORE PUSH2 0x1BD4 DUP2 PUSH2 0x1B9B JUMP JUMPDEST SWAP1 POP SWAP2 SWAP1 POP JUMP JUMPDEST PUSH32 0x42656C6F77206D696E696D756D20636F6E747269627574696F6E000000000000 PUSH0 DUP3 ADD MSTORE POP JUMP JUMPDEST PUSH0 PUSH2 0x1C0F PUSH1 0x1A DUP4 PUSH2 0x1698 JUMP JUMPDEST SWAP2 POP PUSH2 0x1C1A DUP3 PUSH2 0x1BDB JUMP JUMPDEST PUSH1 0x20 DUP3 ADD SWAP1 POP SWAP2 SWAP1 POP JUMP JUMPDEST PUSH0 PUSH1 0x20 DUP3 ADD SWAP1 POP DUP2 DUP2 SUB PUSH0 DUP4 ADD MSTORE PUSH2 0x1C3C DUP2 PUSH2 0x1C03 JUMP JUMPDEST SWAP1 POP SWAP2 SWAP1 POP JUMP JUMPDEST PUSH32 0x45786365656473206D6178696D756D20636F6E747269627574696F6E00000000 PUSH0 DUP3 ADD MSTORE POP JUMP JUMPDEST PUSH0 PUSH2 0x1C77 PUSH1 0x1C DUP4 PUSH2 0x1698 JUMP JUMPDEST SWAP2 POP PUSH2 0x1C82 DUP3 PUSH2 0x1C43 JUMP JUMPDEST PUSH1 0x20 DUP3 ADD SWAP1 POP SWAP2 SWAP1 POP JUMP JUMPDEST PUSH0 PUSH1 0x20 DUP3 ADD SWAP1 POP DUP2 DUP2 SUB PUSH0 DUP4 ADD MSTORE PUSH2 0x1CA4 DUP2 PUSH2 0x1C6B JUMP JUMPDEST SWAP1 POP SWAP2 SWAP1 POP JUMP JUMPDEST PUSH32 0x4861726420636170207265616368656400000000000000000000000000000000 PUSH0 DUP3 ADD MSTORE POP JUMP JUMPDEST PUSH0 PUSH2 0x1CDF PUSH1 0x10 DUP4 PUSH2 0x1698 JUMP JUMPDEST SWAP2 POP PUSH2 0x1CEA DUP3 PUSH2 0x1CAB JUMP JUMPDEST PUSH1 0x20 DUP3 ADD SWAP1 POP SWAP2 SWAP1 POP JUMP JUMPDEST PUSH0 PUSH1 0x20 DUP3 ADD SWAP1 POP DUP2 DUP2 SUB PUSH0 DUP4 ADD MSTORE PUSH2 0x1D0C DUP2 PUSH2 0x1CD3 JUMP JUMPDEST SWAP1 POP SWAP2 SWAP1 POP JUMP JUMPDEST PUSH32 0x496E73756666696369656E7420746F6B656E7320696E20636F6E747261637400 PUSH0 DUP3 ADD MSTORE POP JUMP JUMPDEST PUSH0 PUSH2 0x1D47 PUSH1 0x1F DUP4 PUSH2 0x1698 JUMP JUMPDEST SWAP2 POP PUSH2 0x1D52 DUP3 PUSH2 0x1D13 JUMP JUMPDEST PUSH1 0x20 DUP3 ADD SWAP1 POP SWAP2 SWAP1 POP JUMP JUMPDEST PUSH0 PUSH1 0x20 DUP3 ADD SWAP1 POP DUP2 DUP2 SUB PUSH0 DUP4 ADD MSTORE PUSH2 0x1D74 DUP2 PUSH2 0x1D3B JUMP JUMPDEST SWAP1 POP SWAP2 SWAP1 POP JUMP JUMPDEST PUSH0 PUSH1 0x40 DUP3 ADD SWAP1 POP PUSH2 0x1D8E PUSH0 DUP4 ADD DUP6 PUSH2 0x148A JUMP JUMPDEST PUSH2 0x1D9B PUSH1 0x20 DUP4 ADD DUP5 PUSH2 0x148A JUMP JUMPDEST SWAP4 SWAP3 POP POP POP JUMP JUMPDEST PUSH32 0x4F776E61626C653A206E6577206F776E657220697320746865207A65726F2061 PUSH0 DUP3 ADD MSTORE PUSH32 0x6464726573730000000000000000000000000000000000000000000000000000 PUSH1 0x20 DUP3 ADD MSTORE POP JUMP JUMPDEST PUSH0 PUSH2 0x1DFC PUSH1 0x26 DUP4 PUSH2 0x1698 JUMP JUMPDEST SWAP2 POP PUSH2 0x1E07 DUP3 PUSH2 0x1DA2 JUMP JUMPDEST PUSH1 0x40 DUP3 ADD SWAP1 POP SWAP2 SWAP1 POP JUMP JUMPDEST PUSH0 PUSH1 0x20 DUP3 ADD SWAP1 POP DUP2 DUP2 SUB PUSH0 DUP4 ADD MSTORE PUSH2 0x1E29 DUP2 PUSH2 0x1DF0 JUMP JUMPDEST SWAP1 POP SWAP2 SWAP1 POP JUMP JUMPDEST PUSH32 0x5265656E7472616E637947756172643A207265656E7472616E742063616C6C00 PUSH0 DUP3 ADD MSTORE POP JUMP JUMPDEST PUSH0 PUSH2 0x1E64 PUSH1 0x1F DUP4 PUSH2 0x1698 JUMP JUMPDEST SWAP2 POP PUSH2 0x1E6F DUP3 PUSH2 0x1E30 JUMP JUMPDEST PUSH1 0x20 DUP3 ADD SWAP1 POP SWAP2 SWAP1 POP JUMP JUMPDEST PUSH0 PUSH1 0x20 DUP3 ADD SWAP1 POP DUP2 DUP2 SUB PUSH0 DUP4 ADD MSTORE PUSH2 0x1E91 DUP2 PUSH2 0x1E58 JUMP JUMPDEST SWAP1 POP SWAP2 SWAP1 POP JUMP JUMPDEST PUSH32 0x4F776E61626C653A2063616C6C6572206973206E6F7420746865206F776E6572 PUSH0 DUP3 ADD MSTORE POP JUMP JUMPDEST PUSH0 PUSH2 0x1ECC PUSH1 0x20 DUP4 PUSH2 0x1698 JUMP JUMPDEST SWAP2 POP PUSH2 0x1ED7 DUP3 PUSH2 0x1E98 JUMP JUMPDEST PUSH1 0x20 DUP3 ADD SWAP1 POP SWAP2 SWAP1 POP JUMP JUMPDEST PUSH0 PUSH1 0x20 DUP3 ADD SWAP1 POP DUP2 DUP2 SUB PUSH0 DUP4 ADD MSTORE PUSH2 0x1EF9 DUP2 PUSH2 0x1EC0 JUMP JUMPDEST SWAP1 POP SWAP2 SWAP1 POP JUMP JUMPDEST PUSH32 0x4E487B7100000000000000000000000000000000000000000000000000000000 PUSH0 MSTORE PUSH1 0x11 PUSH1 0x4 MSTORE PUSH1 0x24 PUSH0 REVERT JUMPDEST PUSH0 PUSH2 0x1F37 DUP3 PUSH2 0x1481 JUMP JUMPDEST SWAP2 POP PUSH2 0x1F42 DUP4 PUSH2 0x1481 JUMP JUMPDEST SWAP3 POP DUP3 DUP3 MUL PUSH2 0x1F50 DUP2 PUSH2 0x1481 JUMP JUMPDEST SWAP2 POP DUP3 DUP3 DIV DUP5 EQ DUP4 ISZERO OR PUSH2 0x1F67 JUMPI PUSH2 0x1F66 PUSH2 0x1F00 JUMP JUMPDEST JUMPDEST POP SWAP3 SWAP2 POP POP JUMP JUMPDEST PUSH0 PUSH2 0x1F78 DUP3 PUSH2 0x1481 JUMP JUMPDEST SWAP2 POP PUSH2 0x1F83 DUP4 PUSH2 0x1481 JUMP JUMPDEST SWAP3 POP DUP3 DUP3 ADD SWAP1 POP DUP1 DUP3 GT ISZERO PUSH2 0x1F9B JUMPI PUSH2 0x1F9A PUSH2 0x1F00 JUMP JUMPDEST JUMPDEST SWAP3 SWAP2 POP POP JUMP INVALID LOG2 PUSH5 0x6970667358 0x22 SLT KECCAK256 0xAE 0x28 SELFBALANCE PUSH7 0x1AE08196A05DEE 0xB5 PUSH7 0x5A445F704BB705 0xC6 PUSH21 0x5831720F97BB57A9F39964736F6C634300081C0033 "
				},
				"gasEstimates": {
					"creation": {
						"codeDepositCost": "1630200",
						"executionCost": "infinite",
						"totalCost": "infinite"
					},
					"external": {
						"calculateTokenAmount(uint256)": "infinite",
						"claimTokens()": "infinite",
						"contributions(address)": "2870",
						"finalize()": "infinite",
						"fundWallet()": "2575",
						"hardCap()": "2535",
						"maxPurchase()": "2470",
						"minPurchase()": "2471",
						"owner()": "2647",
						"participate()": "infinite",
						"presaleEnd()": "2449",
						"presaleFinalized()": "2555",
						"presaleRate()": "2515",
						"presaleStart()": "2491",
						"recoverERC20(address)": "infinite",
						"refundClaimed(address)": "2944",
						"refundsEnabled()": "2562",
						"renounceOwnership()": "30498",
						"softCap()": "2448",
						"token()": "infinite",
						"totalRaised()": "2558",
						"transferOwnership(address)": "30816",
						"withdrawUnsoldTokens()": "infinite"
					}
				},
				"methodIdentifiers": {
					"calculateTokenAmount(uint256)": "a24bcf46",
					"claimTokens()": "48c54b9d",
					"contributions(address)": "42e94c90",
					"finalize()": "4bb278f3",
					"fundWallet()": "664a1ad6",
					"hardCap()": "fb86a404",
					"maxPurchase()": "977b055b",
					"minPurchase()": "33b5b62e",
					"owner()": "8da5cb5b",
					"participate()": "d11711a2",
					"presaleEnd()": "229f3e29",
					"presaleFinalized()": "6d498093",
					"presaleRate()": "42f39381",
					"presaleStart()": "de8801e5",
					"recoverERC20(address)": "9e8c708e",
					"refundClaimed(address)": "b557478a",
					"refundsEnabled()": "532f1179",
					"renounceOwnership()": "715018a6",
					"softCap()": "906a26e0",
					"token()": "fc0c546a",
					"totalRaised()": "c5c4744c",
					"transferOwnership(address)": "f2fde38b",
					"withdrawUnsoldTokens()": "c8bdbfb6"
				}
			},
			"storageLayout": {
				"storage": [
					{
						"astId": 7,
						"contract": "contracts/presale.sol:TokenPresale",
						"label": "_owner",
						"offset": 0,
						"slot": "0",
						"type": "t_address"
					},
					{
						"astId": 123,
						"contract": "contracts/presale.sol:TokenPresale",
						"label": "_status",
						"offset": 0,
						"slot": "1",
						"type": "t_uint256"
					},
					{
						"astId": 605,
						"contract": "contracts/presale.sol:TokenPresale",
						"label": "token",
						"offset": 0,
						"slot": "2",
						"type": "t_contract(IERC20)255"
					},
					{
						"astId": 607,
						"contract": "contracts/presale.sol:TokenPresale",
						"label": "fundWallet",
						"offset": 0,
						"slot": "3",
						"type": "t_address_payable"
					},
					{
						"astId": 609,
						"contract": "contracts/presale.sol:TokenPresale",
						"label": "presaleRate",
						"offset": 0,
						"slot": "4",
						"type": "t_uint256"
					},
					{
						"astId": 611,
						"contract": "contracts/presale.sol:TokenPresale",
						"label": "softCap",
						"offset": 0,
						"slot": "5",
						"type": "t_uint256"
					},
					{
						"astId": 613,
						"contract": "contracts/presale.sol:TokenPresale",
						"label": "hardCap",
						"offset": 0,
						"slot": "6",
						"type": "t_uint256"
					},
					{
						"astId": 615,
						"contract": "contracts/presale.sol:TokenPresale",
						"label": "minPurchase",
						"offset": 0,
						"slot": "7",
						"type": "t_uint256"
					},
					{
						"astId": 617,
						"contract": "contracts/presale.sol:TokenPresale",
						"label": "maxPurchase",
						"offset": 0,
						"slot": "8",
						"type": "t_uint256"
					},
					{
						"astId": 619,
						"contract": "contracts/presale.sol:TokenPresale",
						"label": "presaleStart",
						"offset": 0,
						"slot": "9",
						"type": "t_uint256"
					},
					{
						"astId": 621,
						"contract": "contracts/presale.sol:TokenPresale",
						"label": "presaleEnd",
						"offset": 0,
						"slot": "10",
						"type": "t_uint256"
					},
					{
						"astId": 623,
						"contract": "contracts/presale.sol:TokenPresale",
						"label": "totalRaised",
						"offset": 0,
						"slot": "11",
						"type": "t_uint256"
					},
					{
						"astId": 625,
						"contract": "contracts/presale.sol:TokenPresale",
						"label": "presaleFinalized",
						"offset": 0,
						"slot": "12",
						"type": "t_bool"
					},
					{
						"astId": 627,
						"contract": "contracts/presale.sol:TokenPresale",
						"label": "refundsEnabled",
						"offset": 1,
						"slot": "12",
						"type": "t_bool"
					},
					{
						"astId": 631,
						"contract": "contracts/presale.sol:TokenPresale",
						"label": "contributions",
						"offset": 0,
						"slot": "13",
						"type": "t_mapping(t_address,t_uint256)"
					},
					{
						"astId": 635,
						"contract": "contracts/presale.sol:TokenPresale",
						"label": "refundClaimed",
						"offset": 0,
						"slot": "14",
						"type": "t_mapping(t_address,t_bool)"
					}
				],
				"types": {
					"t_address": {
						"encoding": "inplace",
						"label": "address",
						"numberOfBytes": "20"
					},
					"t_address_payable": {
						"encoding": "inplace",
						"label": "address payable",
						"numberOfBytes": "20"
					},
					"t_bool": {
						"encoding": "inplace",
						"label": "bool",
						"numberOfBytes": "1"
					},
					"t_contract(IERC20)255": {
						"encoding": "inplace",
						"label": "contract IERC20",
						"numberOfBytes": "20"
					},
					"t_mapping(t_address,t_bool)": {
						"encoding": "mapping",
						"key": "t_address",
						"label": "mapping(address => bool)",
						"numberOfBytes": "32",
						"value": "t_bool"
					},
					"t_mapping(t_address,t_uint256)": {
						"encoding": "mapping",
						"key": "t_address",
						"label": "mapping(address => uint256)",
						"numberOfBytes": "32",
						"value": "t_uint256"
					},
					"t_uint256": {
						"encoding": "inplace",
						"label": "uint256",
						"numberOfBytes": "32"
					}
				}
			},
			"userdoc": {
				"kind": "user",
				"methods": {},
				"version": 1
			}
		}
	}
}