{
	"contracts/Jimp.sol": {
		"Prophecy_Jimpsons": {
			"abi": [
				{
					"inputs": [],
					"stateMutability": "nonpayable",
					"type": "constructor"
				},
				{
					"inputs": [
						{
							"internalType": "address",
							"name": "spender",
							"type": "address"
						},
						{
							"internalType": "uint256",
							"name": "allowance",
							"type": "uint256"
						},
						{
							"internalType": "uint256",
							"name": "needed",
							"type": "uint256"
						}
					],
					"name": "ERC20InsufficientAllowance",
					"type": "error"
				},
				{
					"inputs": [
						{
							"internalType": "address",
							"name": "sender",
							"type": "address"
						},
						{
							"internalType": "uint256",
							"name": "balance",
							"type": "uint256"
						},
						{
							"internalType": "uint256",
							"name": "needed",
							"type": "uint256"
						}
					],
					"name": "ERC20InsufficientBalance",
					"type": "error"
				},
				{
					"inputs": [
						{
							"internalType": "address",
							"name": "approver",
							"type": "address"
						}
					],
					"name": "ERC20InvalidApprover",
					"type": "error"
				},
				{
					"inputs": [
						{
							"internalType": "address",
							"name": "receiver",
							"type": "address"
						}
					],
					"name": "ERC20InvalidReceiver",
					"type": "error"
				},
				{
					"inputs": [
						{
							"internalType": "address",
							"name": "sender",
							"type": "address"
						}
					],
					"name": "ERC20InvalidSender",
					"type": "error"
				},
				{
					"inputs": [
						{
							"internalType": "address",
							"name": "spender",
							"type": "address"
						}
					],
					"name": "ERC20InvalidSpender",
					"type": "error"
				},
				{
					"inputs": [
						{
							"internalType": "address",
							"name": "owner",
							"type": "address"
						}
					],
					"name": "OwnableInvalidOwner",
					"type": "error"
				},
				{
					"inputs": [
						{
							"internalType": "address",
							"name": "account",
							"type": "address"
						}
					],
					"name": "OwnableUnauthorizedAccount",
					"type": "error"
				},
				{
					"anonymous": false,
					"inputs": [
						{
							"indexed": true,
							"internalType": "address",
							"name": "owner",
							"type": "address"
						},
						{
							"indexed": true,
							"internalType": "address",
							"name": "spender",
							"type": "address"
						},
						{
							"indexed": false,
							"internalType": "uint256",
							"name": "value",
							"type": "uint256"
						}
					],
					"name": "Approval",
					"type": "event"
				},
				{
					"anonymous": false,
					"inputs": [
						{
							"indexed": true,
							"internalType": "address",
							"name": "account",
							"type": "address"
						},
						{
							"indexed": false,
							"internalType": "bool",
							"name": "status",
							"type": "bool"
						}
					],
					"name": "BlacklistUpdated",
					"type": "event"
				},
				{
					"anonymous": false,
					"inputs": [
						{
							"indexed": true,
							"internalType": "address",
							"name": "previousOwner",
							"type": "address"
						},
						{
							"indexed": true,
							"internalType": "address",
							"name": "newOwner",
							"type": "address"
						}
					],
					"name": "OwnershipTransferred",
					"type": "event"
				},
				{
					"anonymous": false,
					"inputs": [
						{
							"indexed": false,
							"internalType": "uint256",
							"name": "newMaxTransfer",
							"type": "uint256"
						},
						{
							"indexed": false,
							"internalType": "uint256",
							"name": "newMaxWallet",
							"type": "uint256"
						},
						{
							"indexed": false,
							"internalType": "uint256",
							"name": "newHoldTime",
							"type": "uint256"
						},
						{
							"indexed": false,
							"internalType": "uint256",
							"name": "newCooldown",
							"type": "uint256"
						}
					],
					"name": "SecurityParamsUpdated",
					"type": "event"
				},
				{
					"anonymous": false,
					"inputs": [
						{
							"indexed": true,
							"internalType": "address",
							"name": "initialHolder",
							"type": "address"
						},
						{
							"indexed": false,
							"internalType": "uint256",
							"name": "amount",
							"type": "uint256"
						}
					],
					"name": "TokensInitialized",
					"type": "event"
				},
				{
					"anonymous": false,
					"inputs": [
						{
							"indexed": false,
							"internalType": "bool",
							"name": "enabled",
							"type": "bool"
						}
					],
					"name": "TradingEnabled",
					"type": "event"
				},
				{
					"anonymous": false,
					"inputs": [
						{
							"indexed": true,
							"internalType": "address",
							"name": "from",
							"type": "address"
						},
						{
							"indexed": true,
							"internalType": "address",
							"name": "to",
							"type": "address"
						},
						{
							"indexed": false,
							"internalType": "uint256",
							"name": "value",
							"type": "uint256"
						}
					],
					"name": "Transfer",
					"type": "event"
				},
				{
					"anonymous": false,
					"inputs": [
						{
							"indexed": true,
							"internalType": "address",
							"name": "account",
							"type": "address"
						},
						{
							"indexed": false,
							"internalType": "bool",
							"name": "status",
							"type": "bool"
						}
					],
					"name": "WhitelistUpdated",
					"type": "event"
				},
				{
					"inputs": [],
					"name": "MAX_SUPPLY",
					"outputs": [
						{
							"internalType": "uint256",
							"name": "",
							"type": "uint256"
						}
					],
					"stateMutability": "view",
					"type": "function"
				},
				{
					"inputs": [
						{
							"internalType": "address",
							"name": "owner",
							"type": "address"
						},
						{
							"internalType": "address",
							"name": "spender",
							"type": "address"
						}
					],
					"name": "allowance",
					"outputs": [
						{
							"internalType": "uint256",
							"name": "",
							"type": "uint256"
						}
					],
					"stateMutability": "view",
					"type": "function"
				},
				{
					"inputs": [
						{
							"internalType": "address",
							"name": "spender",
							"type": "address"
						},
						{
							"internalType": "uint256",
							"name": "value",
							"type": "uint256"
						}
					],
					"name": "approve",
					"outputs": [
						{
							"internalType": "bool",
							"name": "",
							"type": "bool"
						}
					],
					"stateMutability": "nonpayable",
					"type": "function"
				},
				{
					"inputs": [
						{
							"internalType": "address",
							"name": "account",
							"type": "address"
						}
					],
					"name": "balanceOf",
					"outputs": [
						{
							"internalType": "uint256",
							"name": "",
							"type": "uint256"
						}
					],
					"stateMutability": "view",
					"type": "function"
				},
				{
					"inputs": [
						{
							"internalType": "address[]",
							"name": "accounts",
							"type": "address[]"
						},
						{
							"internalType": "bool",
							"name": "status",
							"type": "bool"
						}
					],
					"name": "batchUpdateBlacklist",
					"outputs": [],
					"stateMutability": "nonpayable",
					"type": "function"
				},
				{
					"inputs": [
						{
							"internalType": "address[]",
							"name": "accounts",
							"type": "address[]"
						},
						{
							"internalType": "bool",
							"name": "status",
							"type": "bool"
						}
					],
					"name": "batchUpdateWhitelist",
					"outputs": [],
					"stateMutability": "nonpayable",
					"type": "function"
				},
				{
					"inputs": [],
					"name": "decimals",
					"outputs": [
						{
							"internalType": "uint8",
							"name": "",
							"type": "uint8"
						}
					],
					"stateMutability": "view",
					"type": "function"
				},
				{
					"inputs": [
						{
							"internalType": "address",
							"name": "token",
							"type": "address"
						}
					],
					"name": "emergencyWithdraw",
					"outputs": [],
					"stateMutability": "nonpayable",
					"type": "function"
				},
				{
					"inputs": [],
					"name": "initialized",
					"outputs": [
						{
							"internalType": "bool",
							"name": "",
							"type": "bool"
						}
					],
					"stateMutability": "view",
					"type": "function"
				},
				{
					"inputs": [
						{
							"internalType": "address",
							"name": "",
							"type": "address"
						}
					],
					"name": "isBlacklisted",
					"outputs": [
						{
							"internalType": "bool",
							"name": "",
							"type": "bool"
						}
					],
					"stateMutability": "view",
					"type": "function"
				},
				{
					"inputs": [
						{
							"internalType": "address",
							"name": "",
							"type": "address"
						}
					],
					"name": "isWhitelisted",
					"outputs": [
						{
							"internalType": "bool",
							"name": "",
							"type": "bool"
						}
					],
					"stateMutability": "view",
					"type": "function"
				},
				{
					"inputs": [
						{
							"internalType": "address",
							"name": "",
							"type": "address"
						}
					],
					"name": "lastTransferTime",
					"outputs": [
						{
							"internalType": "uint256",
							"name": "",
							"type": "uint256"
						}
					],
					"stateMutability": "view",
					"type": "function"
				},
				{
					"inputs": [],
					"name": "maxTransferAmount",
					"outputs": [
						{
							"internalType": "uint256",
							"name": "",
							"type": "uint256"
						}
					],
					"stateMutability": "view",
					"type": "function"
				},
				{
					"inputs": [],
					"name": "maxWalletAmount",
					"outputs": [
						{
							"internalType": "uint256",
							"name": "",
							"type": "uint256"
						}
					],
					"stateMutability": "view",
					"type": "function"
				},
				{
					"inputs": [],
					"name": "minHoldTime",
					"outputs": [
						{
							"internalType": "uint256",
							"name": "",
							"type": "uint256"
						}
					],
					"stateMutability": "view",
					"type": "function"
				},
				{
					"inputs": [],
					"name": "name",
					"outputs": [
						{
							"internalType": "string",
							"name": "",
							"type": "string"
						}
					],
					"stateMutability": "view",
					"type": "function"
				},
				{
					"inputs": [],
					"name": "owner",
					"outputs": [
						{
							"internalType": "address",
							"name": "",
							"type": "address"
						}
					],
					"stateMutability": "view",
					"type": "function"
				},
				{
					"inputs": [],
					"name": "renounceOwnership",
					"outputs": [],
					"stateMutability": "nonpayable",
					"type": "function"
				},
				{
					"inputs": [
						{
							"internalType": "bool",
							"name": "_enabled",
							"type": "bool"
						}
					],
					"name": "setTrading",
					"outputs": [],
					"stateMutability": "nonpayable",
					"type": "function"
				},
				{
					"inputs": [],
					"name": "symbol",
					"outputs": [
						{
							"internalType": "string",
							"name": "",
							"type": "string"
						}
					],
					"stateMutability": "view",
					"type": "function"
				},
				{
					"inputs": [
						{
							"internalType": "address",
							"name": "",
							"type": "address"
						}
					],
					"name": "tokenReceiveTime",
					"outputs": [
						{
							"internalType": "uint256",
							"name": "",
							"type": "uint256"
						}
					],
					"stateMutability": "view",
					"type": "function"
				},
				{
					"inputs": [],
					"name": "totalSupply",
					"outputs": [
						{
							"internalType": "uint256",
							"name": "",
							"type": "uint256"
						}
					],
					"stateMutability": "view",
					"type": "function"
				},
				{
					"inputs": [],
					"name": "tradingEnabled",
					"outputs": [
						{
							"internalType": "bool",
							"name": "",
							"type": "bool"
						}
					],
					"stateMutability": "view",
					"type": "function"
				},
				{
					"inputs": [
						{
							"internalType": "address",
							"name": "to",
							"type": "address"
						},
						{
							"internalType": "uint256",
							"name": "amount",
							"type": "uint256"
						}
					],
					"name": "transfer",
					"outputs": [
						{
							"internalType": "bool",
							"name": "",
							"type": "bool"
						}
					],
					"stateMutability": "nonpayable",
					"type": "function"
				},
				{
					"inputs": [],
					"name": "transferCooldown",
					"outputs": [
						{
							"internalType": "uint256",
							"name": "",
							"type": "uint256"
						}
					],
					"stateMutability": "view",
					"type": "function"
				},
				{
					"inputs": [
						{
							"internalType": "address",
							"name": "from",
							"type": "address"
						},
						{
							"internalType": "address",
							"name": "to",
							"type": "address"
						},
						{
							"internalType": "uint256",
							"name": "amount",
							"type": "uint256"
						}
					],
					"name": "transferFrom",
					"outputs": [
						{
							"internalType": "bool",
							"name": "",
							"type": "bool"
						}
					],
					"stateMutability": "nonpayable",
					"type": "function"
				},
				{
					"inputs": [
						{
							"internalType": "address",
							"name": "newOwner",
							"type": "address"
						}
					],
					"name": "transferOwnership",
					"outputs": [],
					"stateMutability": "nonpayable",
					"type": "function"
				},
				{
					"inputs": [
						{
							"internalType": "address",
							"name": "account",
							"type": "address"
						},
						{
							"internalType": "bool",
							"name": "status",
							"type": "bool"
						}
					],
					"name": "updateBlacklist",
					"outputs": [],
					"stateMutability": "nonpayable",
					"type": "function"
				},
				{
					"inputs": [
						{
							"internalType": "uint256",
							"name": "_maxTransfer",
							"type": "uint256"
						},
						{
							"internalType": "uint256",
							"name": "_maxWallet",
							"type": "uint256"
						},
						{
							"internalType": "uint256",
							"name": "_holdTime",
							"type": "uint256"
						},
						{
							"internalType": "uint256",
							"name": "_cooldown",
							"type": "uint256"
						}
					],
					"name": "updateSecurityParams",
					"outputs": [],
					"stateMutability": "nonpayable",
					"type": "function"
				},
				{
					"inputs": [
						{
							"internalType": "address",
							"name": "account",
							"type": "address"
						},
						{
							"internalType": "bool",
							"name": "status",
							"type": "bool"
						}
					],
					"name": "updateWhitelist",
					"outputs": [],
					"stateMutability": "nonpayable",
					"type": "function"
				}
			],
			"devdoc": {
				"errors": {
					"ERC20InsufficientAllowance(address,uint256,uint256)": [
						{
							"details": "Indicates a failure with the `spender`’s `allowance`. Used in transfers.",
							"params": {
								"allowance": "Amount of tokens a `spender` is allowed to operate with.",
								"needed": "Minimum amount required to perform a transfer.",
								"spender": "Address that may be allowed to operate on tokens without being their owner."
							}
						}
					],
					"ERC20InsufficientBalance(address,uint256,uint256)": [
						{
							"details": "Indicates an error related to the current `balance` of a `sender`. Used in transfers.",
							"params": {
								"balance": "Current balance for the interacting account.",
								"needed": "Minimum amount required to perform a transfer.",
								"sender": "Address whose tokens are being transferred."
							}
						}
					],
					"ERC20InvalidApprover(address)": [
						{
							"details": "Indicates a failure with the `approver` of a token to be approved. Used in approvals.",
							"params": {
								"approver": "Address initiating an approval operation."
							}
						}
					],
					"ERC20InvalidReceiver(address)": [
						{
							"details": "Indicates a failure with the token `receiver`. Used in transfers.",
							"params": {
								"receiver": "Address to which tokens are being transferred."
							}
						}
					],
					"ERC20InvalidSender(address)": [
						{
							"details": "Indicates a failure with the token `sender`. Used in transfers.",
							"params": {
								"sender": "Address whose tokens are being transferred."
							}
						}
					],
					"ERC20InvalidSpender(address)": [
						{
							"details": "Indicates a failure with the `spender` to be approved. Used in approvals.",
							"params": {
								"spender": "Address that may be allowed to operate on tokens without being their owner."
							}
						}
					],
					"OwnableInvalidOwner(address)": [
						{
							"details": "The owner is not a valid owner account. (eg. `address(0)`)"
						}
					],
					"OwnableUnauthorizedAccount(address)": [
						{
							"details": "The caller account is not authorized to perform an operation."
						}
					]
				},
				"events": {
					"Approval(address,address,uint256)": {
						"details": "Emitted when the allowance of a `spender` for an `owner` is set by a call to {approve}. `value` is the new allowance."
					},
					"Transfer(address,address,uint256)": {
						"details": "Emitted when `value` tokens are moved from one account (`from`) to another (`to`). Note that `value` may be zero."
					}
				},
				"kind": "dev",
				"methods": {
					"allowance(address,address)": {
						"details": "See {IERC20-allowance}."
					},
					"approve(address,uint256)": {
						"details": "See {IERC20-approve}. NOTE: If `value` is the maximum `uint256`, the allowance is not updated on `transferFrom`. This is semantically equivalent to an infinite approval. Requirements: - `spender` cannot be the zero address."
					},
					"balanceOf(address)": {
						"details": "See {IERC20-balanceOf}."
					},
					"decimals()": {
						"details": "Returns the number of decimals used to get its user representation. For example, if `decimals` equals `2`, a balance of `505` tokens should be displayed to a user as `5.05` (`505 / 10 ** 2`). Tokens usually opt for a value of 18, imitating the relationship between Ether and Wei. This is the default value returned by this function, unless it's overridden. NOTE: This information is only used for _display_ purposes: it in no way affects any of the arithmetic of the contract, including {IERC20-balanceOf} and {IERC20-transfer}."
					},
					"name()": {
						"details": "Returns the name of the token."
					},
					"owner()": {
						"details": "Returns the address of the current owner."
					},
					"renounceOwnership()": {
						"details": "Leaves the contract without owner. It will not be possible to call `onlyOwner` functions. Can only be called by the current owner. NOTE: Renouncing ownership will leave the contract without an owner, thereby disabling any functionality that is only available to the owner."
					},
					"symbol()": {
						"details": "Returns the symbol of the token, usually a shorter version of the name."
					},
					"totalSupply()": {
						"details": "See {IERC20-totalSupply}."
					},
					"transferOwnership(address)": {
						"details": "Transfers ownership of the contract to a new account (`newOwner`). Can only be called by the current owner."
					}
				},
				"version": 1
			},
			"evm": {
				"assembly": "    /* \"contracts/Jimp.sol\":297:6267  contract Prophecy_Jimpsons is ERC20, Ownable(msg.sender), ReentrancyGuard {... */\n  mstore(0x40, 0x80)\n    /* \"contracts/Jimp.sol\":1606:2413  constructor() ERC20(\"Prophecy Jimpsons\", \"Jimp\") {... */\n  callvalue\n  dup1\n  iszero\n  tag_1\n  jumpi\n  revert(0x00, 0x00)\ntag_1:\n  pop\n    /* \"contracts/Jimp.sol\":342:352  msg.sender */\n  caller\n    /* \"@openzeppelin/contracts/token/ERC20/ERC20.sol\":1601:1714  constructor(string memory name_, string memory symbol_) {... */\n  mload(0x40)\n  dup1\n  0x40\n  add\n  0x40\n  mstore\n  dup1\n  0x11\n  dup2\n  mstore\n  0x20\n  add\n  0x50726f7068656379204a696d70736f6e73000000000000000000000000000000\n  dup2\n  mstore\n  pop\n  mload(0x40)\n  dup1\n  0x40\n  add\n  0x40\n  mstore\n  dup1\n  0x04\n  dup2\n  mstore\n  0x20\n  add\n  0x4a696d7000000000000000000000000000000000000000000000000000000000\n  dup2\n  mstore\n  pop\n    /* \"@openzeppelin/contracts/token/ERC20/ERC20.sol\":1675:1680  name_ */\n  dup2\n    /* \"@openzeppelin/contracts/token/ERC20/ERC20.sol\":1667:1672  _name */\n  0x03\n    /* \"@openzeppelin/contracts/token/ERC20/ERC20.sol\":1667:1680  _name = name_ */\n  swap1\n  dup2\n  tag_7\n  swap2\n  swap1\n  tag_8\n  jump\t// in\ntag_7:\n  pop\n    /* \"@openzeppelin/contracts/token/ERC20/ERC20.sol\":1700:1707  symbol_ */\n  dup1\n    /* \"@openzeppelin/contracts/token/ERC20/ERC20.sol\":1690:1697  _symbol */\n  0x04\n    /* \"@openzeppelin/contracts/token/ERC20/ERC20.sol\":1690:1707  _symbol = symbol_ */\n  swap1\n  dup2\n  tag_9\n  swap2\n  swap1\n  tag_8\n  jump\t// in\ntag_9:\n  pop\n    /* \"@openzeppelin/contracts/token/ERC20/ERC20.sol\":1601:1714  constructor(string memory name_, string memory symbol_) {... */\n  pop\n  pop\n    /* \"@openzeppelin/contracts/access/Ownable.sol\":1297:1298  0 */\n  0x00\n    /* \"@openzeppelin/contracts/access/Ownable.sol\":1273:1299  initialOwner == address(0) */\n  0xffffffffffffffffffffffffffffffffffffffff\n  and\n    /* \"@openzeppelin/contracts/access/Ownable.sol\":1273:1285  initialOwner */\n  dup2\n    /* \"@openzeppelin/contracts/access/Ownable.sol\":1273:1299  initialOwner == address(0) */\n  0xffffffffffffffffffffffffffffffffffffffff\n  and\n  sub\n    /* \"@openzeppelin/contracts/access/Ownable.sol\":1269:1364  if (initialOwner == address(0)) {... */\n  tag_11\n  jumpi\n    /* \"@openzeppelin/contracts/access/Ownable.sol\":1350:1351  0 */\n  0x00\n    /* \"@openzeppelin/contracts/access/Ownable.sol\":1322:1353  OwnableInvalidOwner(address(0)) */\n  mload(0x40)\n  0x1e4fbdf700000000000000000000000000000000000000000000000000000000\n  dup2\n  mstore\n  0x04\n  add\n  tag_12\n  swap2\n  swap1\n  tag_13\n  jump\t// in\ntag_12:\n  mload(0x40)\n  dup1\n  swap2\n  sub\n  swap1\n  revert\n    /* \"@openzeppelin/contracts/access/Ownable.sol\":1269:1364  if (initialOwner == address(0)) {... */\ntag_11:\n    /* \"@openzeppelin/contracts/access/Ownable.sol\":1373:1405  _transferOwnership(initialOwner) */\n  tag_14\n    /* \"@openzeppelin/contracts/access/Ownable.sol\":1392:1404  initialOwner */\n  dup2\n    /* \"@openzeppelin/contracts/access/Ownable.sol\":1373:1391  _transferOwnership */\n  shl(0x20, tag_15)\n    /* \"@openzeppelin/contracts/access/Ownable.sol\":1373:1405  _transferOwnership(initialOwner) */\n  0x20\n  shr\n  jump\t// in\ntag_14:\n    /* \"@openzeppelin/contracts/access/Ownable.sol\":1225:1412  constructor(address initialOwner) {... */\n  pop\n    /* \"@openzeppelin/contracts/security/ReentrancyGuard.sol\":1716:1717  1 */\n  0x01\n    /* \"@openzeppelin/contracts/security/ReentrancyGuard.sol\":1821:1828  _status */\n  0x06\n    /* \"@openzeppelin/contracts/security/ReentrancyGuard.sol\":1821:1843  _status = _NOT_ENTERED */\n  dup2\n  swap1\n  sstore\n  pop\n    /* \"contracts/Jimp.sol\":1675:1686  initialized */\n  0x07\n  0x00\n  swap1\n  sload\n  swap1\n  0x0100\n  exp\n  swap1\n  div\n  0xff\n  and\n    /* \"contracts/Jimp.sol\":1674:1686  !initialized */\n  iszero\n    /* \"contracts/Jimp.sol\":1666:1710  require(!initialized, \"Already initialized\") */\n  tag_18\n  jumpi\n  mload(0x40)\n  0x08c379a000000000000000000000000000000000000000000000000000000000\n  dup2\n  mstore\n  0x04\n  add\n  tag_19\n  swap1\n  tag_20\n  jump\t// in\ntag_19:\n  mload(0x40)\n  dup1\n  swap2\n  sub\n  swap1\n  revert\ntag_18:\n    /* \"contracts/Jimp.sol\":1803:1832  _mint(msg.sender, MAX_SUPPLY) */\n  tag_21\n    /* \"contracts/Jimp.sol\":1809:1819  msg.sender */\n  caller\n    /* \"contracts/Jimp.sol\":450:473  10_000_000_000 * 10**18 */\n  0x204fce5e3e25026110000000\n    /* \"contracts/Jimp.sol\":1803:1808  _mint */\n  shl(0x20, tag_22)\n    /* \"contracts/Jimp.sol\":1803:1832  _mint(msg.sender, MAX_SUPPLY) */\n  0x20\n  shr\n  jump\t// in\ntag_21:\n    /* \"contracts/Jimp.sol\":1909:1913  true */\n  0x01\n    /* \"contracts/Jimp.sol\":1895:1906  initialized */\n  0x07\n  0x00\n    /* \"contracts/Jimp.sol\":1895:1913  initialized = true */\n  0x0100\n  exp\n  dup2\n  sload\n  dup2\n  0xff\n  mul\n  not\n  and\n  swap1\n  dup4\n  iszero\n  iszero\n  mul\n  or\n  swap1\n  sstore\n  pop\n    /* \"contracts/Jimp.sol\":1944:1958  1_000 * 10**18 */\n  0x3635c9adc5dea00000\n    /* \"contracts/Jimp.sol\":1924:1941  maxTransferAmount */\n  0x08\n    /* \"contracts/Jimp.sol\":1924:1958  maxTransferAmount = 1_000 * 10**18 */\n  dup2\n  swap1\n  sstore\n  pop\n    /* \"contracts/Jimp.sol\":1987:2003  100_000 * 10**18 */\n  0x152d02c7e14af6800000\n    /* \"contracts/Jimp.sol\":1969:1984  maxWalletAmount */\n  0x0a\n    /* \"contracts/Jimp.sol\":1969:2003  maxWalletAmount = 100_000 * 10**18 */\n  dup2\n  swap1\n  sstore\n  pop\n    /* \"contracts/Jimp.sol\":2051:2057  1 days */\n  0x015180\n    /* \"contracts/Jimp.sol\":2037:2048  minHoldTime */\n  0x09\n    /* \"contracts/Jimp.sol\":2037:2057  minHoldTime = 1 days */\n  dup2\n  swap1\n  sstore\n  pop\n    /* \"contracts/Jimp.sol\":2129:2131  60 */\n  0x3c\n    /* \"contracts/Jimp.sol\":2110:2126  transferCooldown */\n  0x10\n    /* \"contracts/Jimp.sol\":2110:2131  transferCooldown = 60 */\n  dup2\n  swap1\n  sstore\n  pop\n    /* \"contracts/Jimp.sol\":2201:2206  false */\n  0x00\n    /* \"contracts/Jimp.sol\":2184:2198  tradingEnabled */\n  0x0b\n  0x00\n    /* \"contracts/Jimp.sol\":2184:2206  tradingEnabled = false */\n  0x0100\n  exp\n  dup2\n  sload\n  dup2\n  0xff\n  mul\n  not\n  and\n  swap1\n  dup4\n  iszero\n  iszero\n  mul\n  or\n  swap1\n  sstore\n  pop\n    /* \"contracts/Jimp.sol\":2296:2300  true */\n  0x01\n    /* \"contracts/Jimp.sol\":2268:2281  isWhitelisted */\n  0x0f\n    /* \"contracts/Jimp.sol\":2268:2293  isWhitelisted[msg.sender] */\n  0x00\n    /* \"contracts/Jimp.sol\":2282:2292  msg.sender */\n  caller\n    /* \"contracts/Jimp.sol\":2268:2293  isWhitelisted[msg.sender] */\n  0xffffffffffffffffffffffffffffffffffffffff\n  and\n  0xffffffffffffffffffffffffffffffffffffffff\n  and\n  dup2\n  mstore\n  0x20\n  add\n  swap1\n  dup2\n  mstore\n  0x20\n  add\n  0x00\n  keccak256\n  0x00\n    /* \"contracts/Jimp.sol\":2268:2300  isWhitelisted[msg.sender] = true */\n  0x0100\n  exp\n  dup2\n  sload\n  dup2\n  0xff\n  mul\n  not\n  and\n  swap1\n  dup4\n  iszero\n  iszero\n  mul\n  or\n  swap1\n  sstore\n  pop\n    /* \"contracts/Jimp.sol\":2382:2392  msg.sender */\n  caller\n    /* \"contracts/Jimp.sol\":2364:2405  TokensInitialized(msg.sender, MAX_SUPPLY) */\n  0xffffffffffffffffffffffffffffffffffffffff\n  and\n  0x9d5570c03a71af73640da09c132d73bb3efe7ca4f55516a1afc2597cbdfd620c\n    /* \"contracts/Jimp.sol\":450:473  10_000_000_000 * 10**18 */\n  0x204fce5e3e25026110000000\n    /* \"contracts/Jimp.sol\":2364:2405  TokensInitialized(msg.sender, MAX_SUPPLY) */\n  mload(0x40)\n  tag_23\n  swap2\n  swap1\n  tag_24\n  jump\t// in\ntag_23:\n  mload(0x40)\n  dup1\n  swap2\n  sub\n  swap1\n  log2\n    /* \"contracts/Jimp.sol\":297:6267  contract Prophecy_Jimpsons is ERC20, Ownable(msg.sender), ReentrancyGuard {... */\n  jump(tag_25)\n    /* \"@openzeppelin/contracts/access/Ownable.sol\":2912:3099  function _transferOwnership(address newOwner) internal virtual {... */\ntag_15:\n    /* \"@openzeppelin/contracts/access/Ownable.sol\":2985:3001  address oldOwner */\n  0x00\n    /* \"@openzeppelin/contracts/access/Ownable.sol\":3004:3010  _owner */\n  0x05\n  0x00\n  swap1\n  sload\n  swap1\n  0x0100\n  exp\n  swap1\n  div\n  0xffffffffffffffffffffffffffffffffffffffff\n  and\n    /* \"@openzeppelin/contracts/access/Ownable.sol\":2985:3010  address oldOwner = _owner */\n  swap1\n  pop\n    /* \"@openzeppelin/contracts/access/Ownable.sol\":3029:3037  newOwner */\n  dup2\n    /* \"@openzeppelin/contracts/access/Ownable.sol\":3020:3026  _owner */\n  0x05\n  0x00\n    /* \"@openzeppelin/contracts/access/Ownable.sol\":3020:3037  _owner = newOwner */\n  0x0100\n  exp\n  dup2\n  sload\n  dup2\n  0xffffffffffffffffffffffffffffffffffffffff\n  mul\n  not\n  and\n  swap1\n  dup4\n  0xffffffffffffffffffffffffffffffffffffffff\n  and\n  mul\n  or\n  swap1\n  sstore\n  pop\n    /* \"@openzeppelin/contracts/access/Ownable.sol\":3083:3091  newOwner */\n  dup2\n    /* \"@openzeppelin/contracts/access/Ownable.sol\":3052:3092  OwnershipTransferred(oldOwner, newOwner) */\n  0xffffffffffffffffffffffffffffffffffffffff\n  and\n    /* \"@openzeppelin/contracts/access/Ownable.sol\":3073:3081  oldOwner */\n  dup2\n    /* \"@openzeppelin/contracts/access/Ownable.sol\":3052:3092  OwnershipTransferred(oldOwner, newOwner) */\n  0xffffffffffffffffffffffffffffffffffffffff\n  and\n  0x8be0079c531659141344cd1fd0a4f28419497f9722a3daafe3b4186f6b6457e0\n  mload(0x40)\n  mload(0x40)\n  dup1\n  swap2\n  sub\n  swap1\n  log3\n    /* \"@openzeppelin/contracts/access/Ownable.sol\":2975:3099  {... */\n  pop\n    /* \"@openzeppelin/contracts/access/Ownable.sol\":2912:3099  function _transferOwnership(address newOwner) internal virtual {... */\n  pop\n  jump\t// out\n    /* \"@openzeppelin/contracts/token/ERC20/ERC20.sol\":7458:7666  function _mint(address account, uint256 value) internal {... */\ntag_22:\n    /* \"@openzeppelin/contracts/token/ERC20/ERC20.sol\":7547:7548  0 */\n  0x00\n    /* \"@openzeppelin/contracts/token/ERC20/ERC20.sol\":7528:7549  account == address(0) */\n  0xffffffffffffffffffffffffffffffffffffffff\n  and\n    /* \"@openzeppelin/contracts/token/ERC20/ERC20.sol\":7528:7535  account */\n  dup3\n    /* \"@openzeppelin/contracts/token/ERC20/ERC20.sol\":7528:7549  account == address(0) */\n  0xffffffffffffffffffffffffffffffffffffffff\n  and\n  sub\n    /* \"@openzeppelin/contracts/token/ERC20/ERC20.sol\":7524:7615  if (account == address(0)) {... */\n  tag_28\n  jumpi\n    /* \"@openzeppelin/contracts/token/ERC20/ERC20.sol\":7601:7602  0 */\n  0x00\n    /* \"@openzeppelin/contracts/token/ERC20/ERC20.sol\":7572:7604  ERC20InvalidReceiver(address(0)) */\n  mload(0x40)\n  0xec442f0500000000000000000000000000000000000000000000000000000000\n  dup2\n  mstore\n  0x04\n  add\n  tag_29\n  swap2\n  swap1\n  tag_13\n  jump\t// in\ntag_29:\n  mload(0x40)\n  dup1\n  swap2\n  sub\n  swap1\n  revert\n    /* \"@openzeppelin/contracts/token/ERC20/ERC20.sol\":7524:7615  if (account == address(0)) {... */\ntag_28:\n    /* \"@openzeppelin/contracts/token/ERC20/ERC20.sol\":7624:7659  _update(address(0), account, value) */\n  tag_30\n    /* \"@openzeppelin/contracts/token/ERC20/ERC20.sol\":7640:7641  0 */\n  0x00\n    /* \"@openzeppelin/contracts/token/ERC20/ERC20.sol\":7644:7651  account */\n  dup4\n    /* \"@openzeppelin/contracts/token/ERC20/ERC20.sol\":7653:7658  value */\n  dup4\n    /* \"@openzeppelin/contracts/token/ERC20/ERC20.sol\":7624:7631  _update */\n  shl(0x20, tag_31)\n    /* \"@openzeppelin/contracts/token/ERC20/ERC20.sol\":7624:7659  _update(address(0), account, value) */\n  0x20\n  shr\n  jump\t// in\ntag_30:\n    /* \"@openzeppelin/contracts/token/ERC20/ERC20.sol\":7458:7666  function _mint(address account, uint256 value) internal {... */\n  pop\n  pop\n  jump\t// out\n    /* \"@openzeppelin/contracts/token/ERC20/ERC20.sol\":6008:7115  function _update(address from, address to, uint256 value) internal virtual {... */\ntag_31:\n    /* \"@openzeppelin/contracts/token/ERC20/ERC20.sol\":6113:6114  0 */\n  0x00\n    /* \"@openzeppelin/contracts/token/ERC20/ERC20.sol\":6097:6115  from == address(0) */\n  0xffffffffffffffffffffffffffffffffffffffff\n  and\n    /* \"@openzeppelin/contracts/token/ERC20/ERC20.sol\":6097:6101  from */\n  dup4\n    /* \"@openzeppelin/contracts/token/ERC20/ERC20.sol\":6097:6115  from == address(0) */\n  0xffffffffffffffffffffffffffffffffffffffff\n  and\n  sub\n    /* \"@openzeppelin/contracts/token/ERC20/ERC20.sol\":6093:6633  if (from == address(0)) {... */\n  tag_33\n  jumpi\n    /* \"@openzeppelin/contracts/token/ERC20/ERC20.sol\":6249:6254  value */\n  dup1\n    /* \"@openzeppelin/contracts/token/ERC20/ERC20.sol\":6233:6245  _totalSupply */\n  0x02\n  0x00\n    /* \"@openzeppelin/contracts/token/ERC20/ERC20.sol\":6233:6254  _totalSupply += value */\n  dup3\n  dup3\n  sload\n  tag_34\n  swap2\n  swap1\n  tag_35\n  jump\t// in\ntag_34:\n  swap3\n  pop\n  pop\n  dup2\n  swap1\n  sstore\n  pop\n    /* \"@openzeppelin/contracts/token/ERC20/ERC20.sol\":6093:6633  if (from == address(0)) {... */\n  jump(tag_36)\ntag_33:\n    /* \"@openzeppelin/contracts/token/ERC20/ERC20.sol\":6285:6304  uint256 fromBalance */\n  0x00\n    /* \"@openzeppelin/contracts/token/ERC20/ERC20.sol\":6307:6316  _balances */\n  0x00\n    /* \"@openzeppelin/contracts/token/ERC20/ERC20.sol\":6307:6322  _balances[from] */\n  0x00\n    /* \"@openzeppelin/contracts/token/ERC20/ERC20.sol\":6317:6321  from */\n  dup6\n    /* \"@openzeppelin/contracts/token/ERC20/ERC20.sol\":6307:6322  _balances[from] */\n  0xffffffffffffffffffffffffffffffffffffffff\n  and\n  0xffffffffffffffffffffffffffffffffffffffff\n  and\n  dup2\n  mstore\n  0x20\n  add\n  swap1\n  dup2\n  mstore\n  0x20\n  add\n  0x00\n  keccak256\n  sload\n    /* \"@openzeppelin/contracts/token/ERC20/ERC20.sol\":6285:6322  uint256 fromBalance = _balances[from] */\n  swap1\n  pop\n    /* \"@openzeppelin/contracts/token/ERC20/ERC20.sol\":6354:6359  value */\n  dup2\n    /* \"@openzeppelin/contracts/token/ERC20/ERC20.sol\":6340:6351  fromBalance */\n  dup2\n    /* \"@openzeppelin/contracts/token/ERC20/ERC20.sol\":6340:6359  fromBalance < value */\n  lt\n    /* \"@openzeppelin/contracts/token/ERC20/ERC20.sol\":6336:6451  if (fromBalance < value) {... */\n  iszero\n  tag_37\n  jumpi\n    /* \"@openzeppelin/contracts/token/ERC20/ERC20.sol\":6411:6415  from */\n  dup4\n    /* \"@openzeppelin/contracts/token/ERC20/ERC20.sol\":6417:6428  fromBalance */\n  dup2\n    /* \"@openzeppelin/contracts/token/ERC20/ERC20.sol\":6430:6435  value */\n  dup4\n    /* \"@openzeppelin/contracts/token/ERC20/ERC20.sol\":6386:6436  ERC20InsufficientBalance(from, fromBalance, value) */\n  mload(0x40)\n  0xe450d38c00000000000000000000000000000000000000000000000000000000\n  dup2\n  mstore\n  0x04\n  add\n  tag_38\n  swap4\n  swap3\n  swap2\n  swap1\n  tag_39\n  jump\t// in\ntag_38:\n  mload(0x40)\n  dup1\n  swap2\n  sub\n  swap1\n  revert\n    /* \"@openzeppelin/contracts/token/ERC20/ERC20.sol\":6336:6451  if (fromBalance < value) {... */\ntag_37:\n    /* \"@openzeppelin/contracts/token/ERC20/ERC20.sol\":6603:6608  value */\n  dup2\n    /* \"@openzeppelin/contracts/token/ERC20/ERC20.sol\":6589:6600  fromBalance */\n  dup2\n    /* \"@openzeppelin/contracts/token/ERC20/ERC20.sol\":6589:6608  fromBalance - value */\n  sub\n    /* \"@openzeppelin/contracts/token/ERC20/ERC20.sol\":6571:6580  _balances */\n  0x00\n    /* \"@openzeppelin/contracts/token/ERC20/ERC20.sol\":6571:6586  _balances[from] */\n  0x00\n    /* \"@openzeppelin/contracts/token/ERC20/ERC20.sol\":6581:6585  from */\n  dup7\n    /* \"@openzeppelin/contracts/token/ERC20/ERC20.sol\":6571:6586  _balances[from] */\n  0xffffffffffffffffffffffffffffffffffffffff\n  and\n  0xffffffffffffffffffffffffffffffffffffffff\n  and\n  dup2\n  mstore\n  0x20\n  add\n  swap1\n  dup2\n  mstore\n  0x20\n  add\n  0x00\n  keccak256\n    /* \"@openzeppelin/contracts/token/ERC20/ERC20.sol\":6571:6608  _balances[from] = fromBalance - value */\n  dup2\n  swap1\n  sstore\n  pop\n    /* \"@openzeppelin/contracts/token/ERC20/ERC20.sol\":6271:6633  {... */\n  pop\n    /* \"@openzeppelin/contracts/token/ERC20/ERC20.sol\":6093:6633  if (from == address(0)) {... */\ntag_36:\n    /* \"@openzeppelin/contracts/token/ERC20/ERC20.sol\":6661:6662  0 */\n  0x00\n    /* \"@openzeppelin/contracts/token/ERC20/ERC20.sol\":6647:6663  to == address(0) */\n  0xffffffffffffffffffffffffffffffffffffffff\n  and\n    /* \"@openzeppelin/contracts/token/ERC20/ERC20.sol\":6647:6649  to */\n  dup3\n    /* \"@openzeppelin/contracts/token/ERC20/ERC20.sol\":6647:6663  to == address(0) */\n  0xffffffffffffffffffffffffffffffffffffffff\n  and\n  sub\n    /* \"@openzeppelin/contracts/token/ERC20/ERC20.sol\":6643:7068  if (to == address(0)) {... */\n  tag_40\n  jumpi\n    /* \"@openzeppelin/contracts/token/ERC20/ERC20.sol\":6826:6831  value */\n  dup1\n    /* \"@openzeppelin/contracts/token/ERC20/ERC20.sol\":6810:6822  _totalSupply */\n  0x02\n  0x00\n    /* \"@openzeppelin/contracts/token/ERC20/ERC20.sol\":6810:6831  _totalSupply -= value */\n  dup3\n  dup3\n  sload\n  sub\n  swap3\n  pop\n  pop\n  dup2\n  swap1\n  sstore\n  pop\n    /* \"@openzeppelin/contracts/token/ERC20/ERC20.sol\":6643:7068  if (to == address(0)) {... */\n  jump(tag_41)\ntag_40:\n    /* \"@openzeppelin/contracts/token/ERC20/ERC20.sol\":7038:7043  value */\n  dup1\n    /* \"@openzeppelin/contracts/token/ERC20/ERC20.sol\":7021:7030  _balances */\n  0x00\n    /* \"@openzeppelin/contracts/token/ERC20/ERC20.sol\":7021:7034  _balances[to] */\n  0x00\n    /* \"@openzeppelin/contracts/token/ERC20/ERC20.sol\":7031:7033  to */\n  dup5\n    /* \"@openzeppelin/contracts/token/ERC20/ERC20.sol\":7021:7034  _balances[to] */\n  0xffffffffffffffffffffffffffffffffffffffff\n  and\n  0xffffffffffffffffffffffffffffffffffffffff\n  and\n  dup2\n  mstore\n  0x20\n  add\n  swap1\n  dup2\n  mstore\n  0x20\n  add\n  0x00\n  keccak256\n  0x00\n    /* \"@openzeppelin/contracts/token/ERC20/ERC20.sol\":7021:7043  _balances[to] += value */\n  dup3\n  dup3\n  sload\n  add\n  swap3\n  pop\n  pop\n  dup2\n  swap1\n  sstore\n  pop\n    /* \"@openzeppelin/contracts/token/ERC20/ERC20.sol\":6643:7068  if (to == address(0)) {... */\ntag_41:\n    /* \"@openzeppelin/contracts/token/ERC20/ERC20.sol\":7098:7100  to */\n  dup2\n    /* \"@openzeppelin/contracts/token/ERC20/ERC20.sol\":7083:7108  Transfer(from, to, value) */\n  0xffffffffffffffffffffffffffffffffffffffff\n  and\n    /* \"@openzeppelin/contracts/token/ERC20/ERC20.sol\":7092:7096  from */\n  dup4\n    /* \"@openzeppelin/contracts/token/ERC20/ERC20.sol\":7083:7108  Transfer(from, to, value) */\n  0xffffffffffffffffffffffffffffffffffffffff\n  and\n  0xddf252ad1be2c89b69c2b068fc378daa952ba7f163c4a11628f55a4df523b3ef\n    /* \"@openzeppelin/contracts/token/ERC20/ERC20.sol\":7102:7107  value */\n  dup4\n    /* \"@openzeppelin/contracts/token/ERC20/ERC20.sol\":7083:7108  Transfer(from, to, value) */\n  mload(0x40)\n  tag_42\n  swap2\n  swap1\n  tag_24\n  jump\t// in\ntag_42:\n  mload(0x40)\n  dup1\n  swap2\n  sub\n  swap1\n  log3\n    /* \"@openzeppelin/contracts/token/ERC20/ERC20.sol\":6008:7115  function _update(address from, address to, uint256 value) internal virtual {... */\n  pop\n  pop\n  pop\n  jump\t// out\n    /* \"#utility.yul\":7:106   */\ntag_43:\n    /* \"#utility.yul\":59:65   */\n  0x00\n    /* \"#utility.yul\":93:98   */\n  dup2\n    /* \"#utility.yul\":87:99   */\n  mload\n    /* \"#utility.yul\":77:99   */\n  swap1\n  pop\n    /* \"#utility.yul\":7:106   */\n  swap2\n  swap1\n  pop\n  jump\t// out\n    /* \"#utility.yul\":112:292   */\ntag_44:\n    /* \"#utility.yul\":160:237   */\n  0x4e487b7100000000000000000000000000000000000000000000000000000000\n    /* \"#utility.yul\":157:158   */\n  0x00\n    /* \"#utility.yul\":150:238   */\n  mstore\n    /* \"#utility.yul\":257:261   */\n  0x41\n    /* \"#utility.yul\":254:255   */\n  0x04\n    /* \"#utility.yul\":247:262   */\n  mstore\n    /* \"#utility.yul\":281:285   */\n  0x24\n    /* \"#utility.yul\":278:279   */\n  0x00\n    /* \"#utility.yul\":271:286   */\n  revert\n    /* \"#utility.yul\":298:478   */\ntag_45:\n    /* \"#utility.yul\":346:423   */\n  0x4e487b7100000000000000000000000000000000000000000000000000000000\n    /* \"#utility.yul\":343:344   */\n  0x00\n    /* \"#utility.yul\":336:424   */\n  mstore\n    /* \"#utility.yul\":443:447   */\n  0x22\n    /* \"#utility.yul\":440:441   */\n  0x04\n    /* \"#utility.yul\":433:448   */\n  mstore\n    /* \"#utility.yul\":467:471   */\n  0x24\n    /* \"#utility.yul\":464:465   */\n  0x00\n    /* \"#utility.yul\":457:472   */\n  revert\n    /* \"#utility.yul\":484:804   */\ntag_46:\n    /* \"#utility.yul\":528:534   */\n  0x00\n    /* \"#utility.yul\":565:566   */\n  0x02\n    /* \"#utility.yul\":559:563   */\n  dup3\n    /* \"#utility.yul\":555:567   */\n  div\n    /* \"#utility.yul\":545:567   */\n  swap1\n  pop\n    /* \"#utility.yul\":612:613   */\n  0x01\n    /* \"#utility.yul\":606:610   */\n  dup3\n    /* \"#utility.yul\":602:614   */\n  and\n    /* \"#utility.yul\":633:651   */\n  dup1\n    /* \"#utility.yul\":623:704   */\n  tag_76\n  jumpi\n    /* \"#utility.yul\":689:693   */\n  0x7f\n    /* \"#utility.yul\":681:687   */\n  dup3\n    /* \"#utility.yul\":677:694   */\n  and\n    /* \"#utility.yul\":667:694   */\n  swap2\n  pop\n    /* \"#utility.yul\":623:704   */\ntag_76:\n    /* \"#utility.yul\":751:753   */\n  0x20\n    /* \"#utility.yul\":743:749   */\n  dup3\n    /* \"#utility.yul\":740:754   */\n  lt\n    /* \"#utility.yul\":720:738   */\n  dup2\n    /* \"#utility.yul\":717:755   */\n  sub\n    /* \"#utility.yul\":714:798   */\n  tag_77\n  jumpi\n    /* \"#utility.yul\":770:788   */\n  tag_78\n  tag_45\n  jump\t// in\ntag_78:\n    /* \"#utility.yul\":714:798   */\ntag_77:\n    /* \"#utility.yul\":535:804   */\n  pop\n    /* \"#utility.yul\":484:804   */\n  swap2\n  swap1\n  pop\n  jump\t// out\n    /* \"#utility.yul\":810:951   */\ntag_47:\n    /* \"#utility.yul\":859:863   */\n  0x00\n    /* \"#utility.yul\":882:885   */\n  dup2\n    /* \"#utility.yul\":874:885   */\n  swap1\n  pop\n    /* \"#utility.yul\":905:908   */\n  dup2\n    /* \"#utility.yul\":902:903   */\n  0x00\n    /* \"#utility.yul\":895:909   */\n  mstore\n    /* \"#utility.yul\":939:943   */\n  0x20\n    /* \"#utility.yul\":936:937   */\n  0x00\n    /* \"#utility.yul\":926:944   */\n  keccak256\n    /* \"#utility.yul\":918:944   */\n  swap1\n  pop\n    /* \"#utility.yul\":810:951   */\n  swap2\n  swap1\n  pop\n  jump\t// out\n    /* \"#utility.yul\":957:1050   */\ntag_48:\n    /* \"#utility.yul\":994:1000   */\n  0x00\n    /* \"#utility.yul\":1041:1043   */\n  0x20\n    /* \"#utility.yul\":1036:1038   */\n  0x1f\n    /* \"#utility.yul\":1029:1034   */\n  dup4\n    /* \"#utility.yul\":1025:1039   */\n  add\n    /* \"#utility.yul\":1021:1044   */\n  div\n    /* \"#utility.yul\":1011:1044   */\n  swap1\n  pop\n    /* \"#utility.yul\":957:1050   */\n  swap2\n  swap1\n  pop\n  jump\t// out\n    /* \"#utility.yul\":1056:1163   */\ntag_49:\n    /* \"#utility.yul\":1100:1108   */\n  0x00\n    /* \"#utility.yul\":1150:1155   */\n  dup3\n    /* \"#utility.yul\":1144:1148   */\n  dup3\n    /* \"#utility.yul\":1140:1156   */\n  shl\n    /* \"#utility.yul\":1119:1156   */\n  swap1\n  pop\n    /* \"#utility.yul\":1056:1163   */\n  swap3\n  swap2\n  pop\n  pop\n  jump\t// out\n    /* \"#utility.yul\":1169:1562   */\ntag_50:\n    /* \"#utility.yul\":1238:1244   */\n  0x00\n    /* \"#utility.yul\":1288:1289   */\n  0x08\n    /* \"#utility.yul\":1276:1286   */\n  dup4\n    /* \"#utility.yul\":1272:1290   */\n  mul\n    /* \"#utility.yul\":1311:1408   */\n  tag_83\n    /* \"#utility.yul\":1341:1407   */\n  0xffffffffffffffffffffffffffffffffffffffffffffffffffffffffffffffff\n    /* \"#utility.yul\":1330:1339   */\n  dup3\n    /* \"#utility.yul\":1311:1408   */\n  tag_49\n  jump\t// in\ntag_83:\n    /* \"#utility.yul\":1429:1468   */\n  tag_84\n    /* \"#utility.yul\":1459:1467   */\n  dup7\n    /* \"#utility.yul\":1448:1457   */\n  dup4\n    /* \"#utility.yul\":1429:1468   */\n  tag_49\n  jump\t// in\ntag_84:\n    /* \"#utility.yul\":1417:1468   */\n  swap6\n  pop\n    /* \"#utility.yul\":1501:1505   */\n  dup1\n    /* \"#utility.yul\":1497:1506   */\n  not\n    /* \"#utility.yul\":1490:1495   */\n  dup5\n    /* \"#utility.yul\":1486:1507   */\n  and\n    /* \"#utility.yul\":1477:1507   */\n  swap4\n  pop\n    /* \"#utility.yul\":1550:1554   */\n  dup1\n    /* \"#utility.yul\":1540:1548   */\n  dup7\n    /* \"#utility.yul\":1536:1555   */\n  and\n    /* \"#utility.yul\":1529:1534   */\n  dup5\n    /* \"#utility.yul\":1526:1556   */\n  or\n    /* \"#utility.yul\":1516:1556   */\n  swap3\n  pop\n    /* \"#utility.yul\":1245:1562   */\n  pop\n  pop\n    /* \"#utility.yul\":1169:1562   */\n  swap4\n  swap3\n  pop\n  pop\n  pop\n  jump\t// out\n    /* \"#utility.yul\":1568:1645   */\ntag_51:\n    /* \"#utility.yul\":1605:1612   */\n  0x00\n    /* \"#utility.yul\":1634:1639   */\n  dup2\n    /* \"#utility.yul\":1623:1639   */\n  swap1\n  pop\n    /* \"#utility.yul\":1568:1645   */\n  swap2\n  swap1\n  pop\n  jump\t// out\n    /* \"#utility.yul\":1651:1711   */\ntag_52:\n    /* \"#utility.yul\":1679:1682   */\n  0x00\n    /* \"#utility.yul\":1700:1705   */\n  dup2\n    /* \"#utility.yul\":1693:1705   */\n  swap1\n  pop\n    /* \"#utility.yul\":1651:1711   */\n  swap2\n  swap1\n  pop\n  jump\t// out\n    /* \"#utility.yul\":1717:1859   */\ntag_53:\n    /* \"#utility.yul\":1767:1776   */\n  0x00\n    /* \"#utility.yul\":1800:1853   */\n  tag_88\n    /* \"#utility.yul\":1818:1852   */\n  tag_89\n    /* \"#utility.yul\":1827:1851   */\n  tag_90\n    /* \"#utility.yul\":1845:1850   */\n  dup5\n    /* \"#utility.yul\":1827:1851   */\n  tag_51\n  jump\t// in\ntag_90:\n    /* \"#utility.yul\":1818:1852   */\n  tag_52\n  jump\t// in\ntag_89:\n    /* \"#utility.yul\":1800:1853   */\n  tag_51\n  jump\t// in\ntag_88:\n    /* \"#utility.yul\":1787:1853   */\n  swap1\n  pop\n    /* \"#utility.yul\":1717:1859   */\n  swap2\n  swap1\n  pop\n  jump\t// out\n    /* \"#utility.yul\":1865:1940   */\ntag_54:\n    /* \"#utility.yul\":1908:1911   */\n  0x00\n    /* \"#utility.yul\":1929:1934   */\n  dup2\n    /* \"#utility.yul\":1922:1934   */\n  swap1\n  pop\n    /* \"#utility.yul\":1865:1940   */\n  swap2\n  swap1\n  pop\n  jump\t// out\n    /* \"#utility.yul\":1946:2215   */\ntag_55:\n    /* \"#utility.yul\":2056:2095   */\n  tag_93\n    /* \"#utility.yul\":2087:2094   */\n  dup4\n    /* \"#utility.yul\":2056:2095   */\n  tag_53\n  jump\t// in\ntag_93:\n    /* \"#utility.yul\":2117:2208   */\n  tag_94\n    /* \"#utility.yul\":2166:2207   */\n  tag_95\n    /* \"#utility.yul\":2190:2206   */\n  dup3\n    /* \"#utility.yul\":2166:2207   */\n  tag_54\n  jump\t// in\ntag_95:\n    /* \"#utility.yul\":2158:2164   */\n  dup5\n    /* \"#utility.yul\":2151:2155   */\n  dup5\n    /* \"#utility.yul\":2145:2156   */\n  sload\n    /* \"#utility.yul\":2117:2208   */\n  tag_50\n  jump\t// in\ntag_94:\n    /* \"#utility.yul\":2111:2115   */\n  dup3\n    /* \"#utility.yul\":2104:2209   */\n  sstore\n    /* \"#utility.yul\":2022:2215   */\n  pop\n    /* \"#utility.yul\":1946:2215   */\n  pop\n  pop\n  pop\n  jump\t// out\n    /* \"#utility.yul\":2221:2294   */\ntag_56:\n    /* \"#utility.yul\":2266:2269   */\n  0x00\n    /* \"#utility.yul\":2287:2288   */\n  0x00\n    /* \"#utility.yul\":2280:2288   */\n  swap1\n  pop\n    /* \"#utility.yul\":2221:2294   */\n  swap1\n  jump\t// out\n    /* \"#utility.yul\":2300:2489   */\ntag_57:\n    /* \"#utility.yul\":2377:2409   */\n  tag_98\n  tag_56\n  jump\t// in\ntag_98:\n    /* \"#utility.yul\":2418:2483   */\n  tag_99\n    /* \"#utility.yul\":2476:2482   */\n  dup2\n    /* \"#utility.yul\":2468:2474   */\n  dup5\n    /* \"#utility.yul\":2462:2466   */\n  dup5\n    /* \"#utility.yul\":2418:2483   */\n  tag_55\n  jump\t// in\ntag_99:\n    /* \"#utility.yul\":2353:2489   */\n  pop\n    /* \"#utility.yul\":2300:2489   */\n  pop\n  pop\n  jump\t// out\n    /* \"#utility.yul\":2495:2681   */\ntag_58:\n    /* \"#utility.yul\":2555:2675   */\ntag_101:\n    /* \"#utility.yul\":2572:2575   */\n  dup2\n    /* \"#utility.yul\":2565:2570   */\n  dup2\n    /* \"#utility.yul\":2562:2576   */\n  lt\n    /* \"#utility.yul\":2555:2675   */\n  iszero\n  tag_103\n  jumpi\n    /* \"#utility.yul\":2626:2665   */\n  tag_104\n    /* \"#utility.yul\":2663:2664   */\n  0x00\n    /* \"#utility.yul\":2656:2661   */\n  dup3\n    /* \"#utility.yul\":2626:2665   */\n  tag_57\n  jump\t// in\ntag_104:\n    /* \"#utility.yul\":2599:2600   */\n  0x01\n    /* \"#utility.yul\":2592:2597   */\n  dup2\n    /* \"#utility.yul\":2588:2601   */\n  add\n    /* \"#utility.yul\":2579:2601   */\n  swap1\n  pop\n    /* \"#utility.yul\":2555:2675   */\n  jump(tag_101)\ntag_103:\n    /* \"#utility.yul\":2495:2681   */\n  pop\n  pop\n  jump\t// out\n    /* \"#utility.yul\":2687:3230   */\ntag_59:\n    /* \"#utility.yul\":2788:2790   */\n  0x1f\n    /* \"#utility.yul\":2783:2786   */\n  dup3\n    /* \"#utility.yul\":2780:2791   */\n  gt\n    /* \"#utility.yul\":2777:3223   */\n  iszero\n  tag_106\n  jumpi\n    /* \"#utility.yul\":2822:2860   */\n  tag_107\n    /* \"#utility.yul\":2854:2859   */\n  dup2\n    /* \"#utility.yul\":2822:2860   */\n  tag_47\n  jump\t// in\ntag_107:\n    /* \"#utility.yul\":2906:2935   */\n  tag_108\n    /* \"#utility.yul\":2924:2934   */\n  dup5\n    /* \"#utility.yul\":2906:2935   */\n  tag_48\n  jump\t// in\ntag_108:\n    /* \"#utility.yul\":2896:2904   */\n  dup2\n    /* \"#utility.yul\":2892:2936   */\n  add\n    /* \"#utility.yul\":3089:3091   */\n  0x20\n    /* \"#utility.yul\":3077:3087   */\n  dup6\n    /* \"#utility.yul\":3074:3092   */\n  lt\n    /* \"#utility.yul\":3071:3120   */\n  iszero\n  tag_109\n  jumpi\n    /* \"#utility.yul\":3110:3118   */\n  dup2\n    /* \"#utility.yul\":3095:3118   */\n  swap1\n  pop\n    /* \"#utility.yul\":3071:3120   */\ntag_109:\n    /* \"#utility.yul\":3133:3213   */\n  tag_110\n    /* \"#utility.yul\":3189:3211   */\n  tag_111\n    /* \"#utility.yul\":3207:3210   */\n  dup6\n    /* \"#utility.yul\":3189:3211   */\n  tag_48\n  jump\t// in\ntag_111:\n    /* \"#utility.yul\":3179:3187   */\n  dup4\n    /* \"#utility.yul\":3175:3212   */\n  add\n    /* \"#utility.yul\":3162:3173   */\n  dup3\n    /* \"#utility.yul\":3133:3213   */\n  tag_58\n  jump\t// in\ntag_110:\n    /* \"#utility.yul\":2792:3223   */\n  pop\n  pop\n    /* \"#utility.yul\":2777:3223   */\ntag_106:\n    /* \"#utility.yul\":2687:3230   */\n  pop\n  pop\n  pop\n  jump\t// out\n    /* \"#utility.yul\":3236:3353   */\ntag_60:\n    /* \"#utility.yul\":3290:3298   */\n  0x00\n    /* \"#utility.yul\":3340:3345   */\n  dup3\n    /* \"#utility.yul\":3334:3338   */\n  dup3\n    /* \"#utility.yul\":3330:3346   */\n  shr\n    /* \"#utility.yul\":3309:3346   */\n  swap1\n  pop\n    /* \"#utility.yul\":3236:3353   */\n  swap3\n  swap2\n  pop\n  pop\n  jump\t// out\n    /* \"#utility.yul\":3359:3528   */\ntag_61:\n    /* \"#utility.yul\":3403:3409   */\n  0x00\n    /* \"#utility.yul\":3436:3487   */\n  tag_114\n    /* \"#utility.yul\":3484:3485   */\n  0x00\n    /* \"#utility.yul\":3480:3486   */\n  not\n    /* \"#utility.yul\":3472:3477   */\n  dup5\n    /* \"#utility.yul\":3469:3470   */\n  0x08\n    /* \"#utility.yul\":3465:3478   */\n  mul\n    /* \"#utility.yul\":3436:3487   */\n  tag_60\n  jump\t// in\ntag_114:\n    /* \"#utility.yul\":3432:3488   */\n  not\n    /* \"#utility.yul\":3517:3521   */\n  dup1\n    /* \"#utility.yul\":3511:3515   */\n  dup4\n    /* \"#utility.yul\":3507:3522   */\n  and\n    /* \"#utility.yul\":3497:3522   */\n  swap2\n  pop\n    /* \"#utility.yul\":3410:3528   */\n  pop\n    /* \"#utility.yul\":3359:3528   */\n  swap3\n  swap2\n  pop\n  pop\n  jump\t// out\n    /* \"#utility.yul\":3533:3828   */\ntag_62:\n    /* \"#utility.yul\":3609:3613   */\n  0x00\n    /* \"#utility.yul\":3755:3784   */\n  tag_116\n    /* \"#utility.yul\":3780:3783   */\n  dup4\n    /* \"#utility.yul\":3774:3778   */\n  dup4\n    /* \"#utility.yul\":3755:3784   */\n  tag_61\n  jump\t// in\ntag_116:\n    /* \"#utility.yul\":3747:3784   */\n  swap2\n  pop\n    /* \"#utility.yul\":3817:3820   */\n  dup3\n    /* \"#utility.yul\":3814:3815   */\n  0x02\n    /* \"#utility.yul\":3810:3821   */\n  mul\n    /* \"#utility.yul\":3804:3808   */\n  dup3\n    /* \"#utility.yul\":3801:3822   */\n  or\n    /* \"#utility.yul\":3793:3822   */\n  swap1\n  pop\n    /* \"#utility.yul\":3533:3828   */\n  swap3\n  swap2\n  pop\n  pop\n  jump\t// out\n    /* \"#utility.yul\":3833:5228   */\ntag_8:\n    /* \"#utility.yul\":3950:3987   */\n  tag_118\n    /* \"#utility.yul\":3983:3986   */\n  dup3\n    /* \"#utility.yul\":3950:3987   */\n  tag_43\n  jump\t// in\ntag_118:\n    /* \"#utility.yul\":4052:4070   */\n  0xffffffffffffffff\n    /* \"#utility.yul\":4044:4050   */\n  dup2\n    /* \"#utility.yul\":4041:4071   */\n  gt\n    /* \"#utility.yul\":4038:4094   */\n  iszero\n  tag_119\n  jumpi\n    /* \"#utility.yul\":4074:4092   */\n  tag_120\n  tag_44\n  jump\t// in\ntag_120:\n    /* \"#utility.yul\":4038:4094   */\ntag_119:\n    /* \"#utility.yul\":4118:4156   */\n  tag_121\n    /* \"#utility.yul\":4150:4154   */\n  dup3\n    /* \"#utility.yul\":4144:4155   */\n  sload\n    /* \"#utility.yul\":4118:4156   */\n  tag_46\n  jump\t// in\ntag_121:\n    /* \"#utility.yul\":4203:4270   */\n  tag_122\n    /* \"#utility.yul\":4263:4269   */\n  dup3\n    /* \"#utility.yul\":4255:4261   */\n  dup3\n    /* \"#utility.yul\":4249:4253   */\n  dup6\n    /* \"#utility.yul\":4203:4270   */\n  tag_59\n  jump\t// in\ntag_122:\n    /* \"#utility.yul\":4297:4298   */\n  0x00\n    /* \"#utility.yul\":4321:4325   */\n  0x20\n    /* \"#utility.yul\":4308:4325   */\n  swap1\n  pop\n    /* \"#utility.yul\":4353:4355   */\n  0x1f\n    /* \"#utility.yul\":4345:4351   */\n  dup4\n    /* \"#utility.yul\":4342:4356   */\n  gt\n    /* \"#utility.yul\":4370:4371   */\n  0x01\n    /* \"#utility.yul\":4365:4983   */\n  dup2\n  eq\n  tag_124\n  jumpi\n    /* \"#utility.yul\":5027:5028   */\n  0x00\n    /* \"#utility.yul\":5044:5050   */\n  dup5\n    /* \"#utility.yul\":5041:5118   */\n  iszero\n  tag_125\n  jumpi\n    /* \"#utility.yul\":5093:5102   */\n  dup3\n    /* \"#utility.yul\":5088:5091   */\n  dup8\n    /* \"#utility.yul\":5084:5103   */\n  add\n    /* \"#utility.yul\":5078:5104   */\n  mload\n    /* \"#utility.yul\":5069:5104   */\n  swap1\n  pop\n    /* \"#utility.yul\":5041:5118   */\ntag_125:\n    /* \"#utility.yul\":5144:5211   */\n  tag_126\n    /* \"#utility.yul\":5204:5210   */\n  dup6\n    /* \"#utility.yul\":5197:5202   */\n  dup3\n    /* \"#utility.yul\":5144:5211   */\n  tag_62\n  jump\t// in\ntag_126:\n    /* \"#utility.yul\":5138:5142   */\n  dup7\n    /* \"#utility.yul\":5131:5212   */\n  sstore\n    /* \"#utility.yul\":5000:5222   */\n  pop\n    /* \"#utility.yul\":4335:5222   */\n  jump(tag_123)\n    /* \"#utility.yul\":4365:4983   */\ntag_124:\n    /* \"#utility.yul\":4417:4421   */\n  0x1f\n    /* \"#utility.yul\":4413:4422   */\n  not\n    /* \"#utility.yul\":4405:4411   */\n  dup5\n    /* \"#utility.yul\":4401:4423   */\n  and\n    /* \"#utility.yul\":4451:4488   */\n  tag_127\n    /* \"#utility.yul\":4483:4487   */\n  dup7\n    /* \"#utility.yul\":4451:4488   */\n  tag_47\n  jump\t// in\ntag_127:\n    /* \"#utility.yul\":4510:4511   */\n  0x00\n    /* \"#utility.yul\":4524:4732   */\ntag_128:\n    /* \"#utility.yul\":4538:4545   */\n  dup3\n    /* \"#utility.yul\":4535:4536   */\n  dup2\n    /* \"#utility.yul\":4532:4546   */\n  lt\n    /* \"#utility.yul\":4524:4732   */\n  iszero\n  tag_130\n  jumpi\n    /* \"#utility.yul\":4617:4626   */\n  dup5\n    /* \"#utility.yul\":4612:4615   */\n  dup10\n    /* \"#utility.yul\":4608:4627   */\n  add\n    /* \"#utility.yul\":4602:4628   */\n  mload\n    /* \"#utility.yul\":4594:4600   */\n  dup3\n    /* \"#utility.yul\":4587:4629   */\n  sstore\n    /* \"#utility.yul\":4668:4669   */\n  0x01\n    /* \"#utility.yul\":4660:4666   */\n  dup3\n    /* \"#utility.yul\":4656:4670   */\n  add\n    /* \"#utility.yul\":4646:4670   */\n  swap2\n  pop\n    /* \"#utility.yul\":4715:4717   */\n  0x20\n    /* \"#utility.yul\":4704:4713   */\n  dup6\n    /* \"#utility.yul\":4700:4718   */\n  add\n    /* \"#utility.yul\":4687:4718   */\n  swap5\n  pop\n    /* \"#utility.yul\":4561:4565   */\n  0x20\n    /* \"#utility.yul\":4558:4559   */\n  dup2\n    /* \"#utility.yul\":4554:4566   */\n  add\n    /* \"#utility.yul\":4549:4566   */\n  swap1\n  pop\n    /* \"#utility.yul\":4524:4732   */\n  jump(tag_128)\ntag_130:\n    /* \"#utility.yul\":4760:4766   */\n  dup7\n    /* \"#utility.yul\":4751:4758   */\n  dup4\n    /* \"#utility.yul\":4748:4767   */\n  lt\n    /* \"#utility.yul\":4745:4924   */\n  iszero\n  tag_131\n  jumpi\n    /* \"#utility.yul\":4818:4827   */\n  dup5\n    /* \"#utility.yul\":4813:4816   */\n  dup10\n    /* \"#utility.yul\":4809:4828   */\n  add\n    /* \"#utility.yul\":4803:4829   */\n  mload\n    /* \"#utility.yul\":4861:4909   */\n  tag_132\n    /* \"#utility.yul\":4903:4907   */\n  0x1f\n    /* \"#utility.yul\":4895:4901   */\n  dup10\n    /* \"#utility.yul\":4891:4908   */\n  and\n    /* \"#utility.yul\":4880:4889   */\n  dup3\n    /* \"#utility.yul\":4861:4909   */\n  tag_61\n  jump\t// in\ntag_132:\n    /* \"#utility.yul\":4853:4859   */\n  dup4\n    /* \"#utility.yul\":4846:4910   */\n  sstore\n    /* \"#utility.yul\":4768:4924   */\n  pop\n    /* \"#utility.yul\":4745:4924   */\ntag_131:\n    /* \"#utility.yul\":4970:4971   */\n  0x01\n    /* \"#utility.yul\":4966:4967   */\n  0x02\n    /* \"#utility.yul\":4958:4964   */\n  dup9\n    /* \"#utility.yul\":4954:4968   */\n  mul\n    /* \"#utility.yul\":4950:4972   */\n  add\n    /* \"#utility.yul\":4944:4948   */\n  dup9\n    /* \"#utility.yul\":4937:4973   */\n  sstore\n    /* \"#utility.yul\":4372:4983   */\n  pop\n  pop\n  pop\n    /* \"#utility.yul\":4335:5222   */\ntag_123:\n  pop\n    /* \"#utility.yul\":3925:5228   */\n  pop\n  pop\n  pop\n    /* \"#utility.yul\":3833:5228   */\n  pop\n  pop\n  jump\t// out\n    /* \"#utility.yul\":5234:5360   */\ntag_63:\n    /* \"#utility.yul\":5271:5278   */\n  0x00\n    /* \"#utility.yul\":5311:5353   */\n  0xffffffffffffffffffffffffffffffffffffffff\n    /* \"#utility.yul\":5304:5309   */\n  dup3\n    /* \"#utility.yul\":5300:5354   */\n  and\n    /* \"#utility.yul\":5289:5354   */\n  swap1\n  pop\n    /* \"#utility.yul\":5234:5360   */\n  swap2\n  swap1\n  pop\n  jump\t// out\n    /* \"#utility.yul\":5366:5462   */\ntag_64:\n    /* \"#utility.yul\":5403:5410   */\n  0x00\n    /* \"#utility.yul\":5432:5456   */\n  tag_135\n    /* \"#utility.yul\":5450:5455   */\n  dup3\n    /* \"#utility.yul\":5432:5456   */\n  tag_63\n  jump\t// in\ntag_135:\n    /* \"#utility.yul\":5421:5456   */\n  swap1\n  pop\n    /* \"#utility.yul\":5366:5462   */\n  swap2\n  swap1\n  pop\n  jump\t// out\n    /* \"#utility.yul\":5468:5586   */\ntag_65:\n    /* \"#utility.yul\":5555:5579   */\n  tag_137\n    /* \"#utility.yul\":5573:5578   */\n  dup2\n    /* \"#utility.yul\":5555:5579   */\n  tag_64\n  jump\t// in\ntag_137:\n    /* \"#utility.yul\":5550:5553   */\n  dup3\n    /* \"#utility.yul\":5543:5580   */\n  mstore\n    /* \"#utility.yul\":5468:5586   */\n  pop\n  pop\n  jump\t// out\n    /* \"#utility.yul\":5592:5814   */\ntag_13:\n    /* \"#utility.yul\":5685:5689   */\n  0x00\n    /* \"#utility.yul\":5723:5725   */\n  0x20\n    /* \"#utility.yul\":5712:5721   */\n  dup3\n    /* \"#utility.yul\":5708:5726   */\n  add\n    /* \"#utility.yul\":5700:5726   */\n  swap1\n  pop\n    /* \"#utility.yul\":5736:5807   */\n  tag_139\n    /* \"#utility.yul\":5804:5805   */\n  0x00\n    /* \"#utility.yul\":5793:5802   */\n  dup4\n    /* \"#utility.yul\":5789:5806   */\n  add\n    /* \"#utility.yul\":5780:5786   */\n  dup5\n    /* \"#utility.yul\":5736:5807   */\n  tag_65\n  jump\t// in\ntag_139:\n    /* \"#utility.yul\":5592:5814   */\n  swap3\n  swap2\n  pop\n  pop\n  jump\t// out\n    /* \"#utility.yul\":5820:5989   */\ntag_66:\n    /* \"#utility.yul\":5904:5915   */\n  0x00\n    /* \"#utility.yul\":5938:5944   */\n  dup3\n    /* \"#utility.yul\":5933:5936   */\n  dup3\n    /* \"#utility.yul\":5926:5945   */\n  mstore\n    /* \"#utility.yul\":5978:5982   */\n  0x20\n    /* \"#utility.yul\":5973:5976   */\n  dup3\n    /* \"#utility.yul\":5969:5983   */\n  add\n    /* \"#utility.yul\":5954:5983   */\n  swap1\n  pop\n    /* \"#utility.yul\":5820:5989   */\n  swap3\n  swap2\n  pop\n  pop\n  jump\t// out\n    /* \"#utility.yul\":5995:6164   */\ntag_67:\n    /* \"#utility.yul\":6135:6156   */\n  0x416c726561647920696e697469616c697a656400000000000000000000000000\n    /* \"#utility.yul\":6131:6132   */\n  0x00\n    /* \"#utility.yul\":6123:6129   */\n  dup3\n    /* \"#utility.yul\":6119:6133   */\n  add\n    /* \"#utility.yul\":6112:6157   */\n  mstore\n    /* \"#utility.yul\":5995:6164   */\n  pop\n  jump\t// out\n    /* \"#utility.yul\":6170:6536   */\ntag_68:\n    /* \"#utility.yul\":6312:6315   */\n  0x00\n    /* \"#utility.yul\":6333:6400   */\n  tag_143\n    /* \"#utility.yul\":6397:6399   */\n  0x13\n    /* \"#utility.yul\":6392:6395   */\n  dup4\n    /* \"#utility.yul\":6333:6400   */\n  tag_66\n  jump\t// in\ntag_143:\n    /* \"#utility.yul\":6326:6400   */\n  swap2\n  pop\n    /* \"#utility.yul\":6409:6502   */\n  tag_144\n    /* \"#utility.yul\":6498:6501   */\n  dup3\n    /* \"#utility.yul\":6409:6502   */\n  tag_67\n  jump\t// in\ntag_144:\n    /* \"#utility.yul\":6527:6529   */\n  0x20\n    /* \"#utility.yul\":6522:6525   */\n  dup3\n    /* \"#utility.yul\":6518:6530   */\n  add\n    /* \"#utility.yul\":6511:6530   */\n  swap1\n  pop\n    /* \"#utility.yul\":6170:6536   */\n  swap2\n  swap1\n  pop\n  jump\t// out\n    /* \"#utility.yul\":6542:6961   */\ntag_20:\n    /* \"#utility.yul\":6708:6712   */\n  0x00\n    /* \"#utility.yul\":6746:6748   */\n  0x20\n    /* \"#utility.yul\":6735:6744   */\n  dup3\n    /* \"#utility.yul\":6731:6749   */\n  add\n    /* \"#utility.yul\":6723:6749   */\n  swap1\n  pop\n    /* \"#utility.yul\":6795:6804   */\n  dup2\n    /* \"#utility.yul\":6789:6793   */\n  dup2\n    /* \"#utility.yul\":6785:6805   */\n  sub\n    /* \"#utility.yul\":6781:6782   */\n  0x00\n    /* \"#utility.yul\":6770:6779   */\n  dup4\n    /* \"#utility.yul\":6766:6783   */\n  add\n    /* \"#utility.yul\":6759:6806   */\n  mstore\n    /* \"#utility.yul\":6823:6954   */\n  tag_146\n    /* \"#utility.yul\":6949:6953   */\n  dup2\n    /* \"#utility.yul\":6823:6954   */\n  tag_68\n  jump\t// in\ntag_146:\n    /* \"#utility.yul\":6815:6954   */\n  swap1\n  pop\n    /* \"#utility.yul\":6542:6961   */\n  swap2\n  swap1\n  pop\n  jump\t// out\n    /* \"#utility.yul\":6967:7085   */\ntag_69:\n    /* \"#utility.yul\":7054:7078   */\n  tag_148\n    /* \"#utility.yul\":7072:7077   */\n  dup2\n    /* \"#utility.yul\":7054:7078   */\n  tag_51\n  jump\t// in\ntag_148:\n    /* \"#utility.yul\":7049:7052   */\n  dup3\n    /* \"#utility.yul\":7042:7079   */\n  mstore\n    /* \"#utility.yul\":6967:7085   */\n  pop\n  pop\n  jump\t// out\n    /* \"#utility.yul\":7091:7313   */\ntag_24:\n    /* \"#utility.yul\":7184:7188   */\n  0x00\n    /* \"#utility.yul\":7222:7224   */\n  0x20\n    /* \"#utility.yul\":7211:7220   */\n  dup3\n    /* \"#utility.yul\":7207:7225   */\n  add\n    /* \"#utility.yul\":7199:7225   */\n  swap1\n  pop\n    /* \"#utility.yul\":7235:7306   */\n  tag_150\n    /* \"#utility.yul\":7303:7304   */\n  0x00\n    /* \"#utility.yul\":7292:7301   */\n  dup4\n    /* \"#utility.yul\":7288:7305   */\n  add\n    /* \"#utility.yul\":7279:7285   */\n  dup5\n    /* \"#utility.yul\":7235:7306   */\n  tag_69\n  jump\t// in\ntag_150:\n    /* \"#utility.yul\":7091:7313   */\n  swap3\n  swap2\n  pop\n  pop\n  jump\t// out\n    /* \"#utility.yul\":7319:7499   */\ntag_70:\n    /* \"#utility.yul\":7367:7444   */\n  0x4e487b7100000000000000000000000000000000000000000000000000000000\n    /* \"#utility.yul\":7364:7365   */\n  0x00\n    /* \"#utility.yul\":7357:7445   */\n  mstore\n    /* \"#utility.yul\":7464:7468   */\n  0x11\n    /* \"#utility.yul\":7461:7462   */\n  0x04\n    /* \"#utility.yul\":7454:7469   */\n  mstore\n    /* \"#utility.yul\":7488:7492   */\n  0x24\n    /* \"#utility.yul\":7485:7486   */\n  0x00\n    /* \"#utility.yul\":7478:7493   */\n  revert\n    /* \"#utility.yul\":7505:7696   */\ntag_35:\n    /* \"#utility.yul\":7545:7548   */\n  0x00\n    /* \"#utility.yul\":7564:7584   */\n  tag_153\n    /* \"#utility.yul\":7582:7583   */\n  dup3\n    /* \"#utility.yul\":7564:7584   */\n  tag_51\n  jump\t// in\ntag_153:\n    /* \"#utility.yul\":7559:7584   */\n  swap2\n  pop\n    /* \"#utility.yul\":7598:7618   */\n  tag_154\n    /* \"#utility.yul\":7616:7617   */\n  dup4\n    /* \"#utility.yul\":7598:7618   */\n  tag_51\n  jump\t// in\ntag_154:\n    /* \"#utility.yul\":7593:7618   */\n  swap3\n  pop\n    /* \"#utility.yul\":7641:7642   */\n  dup3\n    /* \"#utility.yul\":7638:7639   */\n  dup3\n    /* \"#utility.yul\":7634:7643   */\n  add\n    /* \"#utility.yul\":7627:7643   */\n  swap1\n  pop\n    /* \"#utility.yul\":7662:7665   */\n  dup1\n    /* \"#utility.yul\":7659:7660   */\n  dup3\n    /* \"#utility.yul\":7656:7666   */\n  gt\n    /* \"#utility.yul\":7653:7689   */\n  iszero\n  tag_155\n  jumpi\n    /* \"#utility.yul\":7669:7687   */\n  tag_156\n  tag_70\n  jump\t// in\ntag_156:\n    /* \"#utility.yul\":7653:7689   */\ntag_155:\n    /* \"#utility.yul\":7505:7696   */\n  swap3\n  swap2\n  pop\n  pop\n  jump\t// out\n    /* \"#utility.yul\":7702:8144   */\ntag_39:\n    /* \"#utility.yul\":7851:7855   */\n  0x00\n    /* \"#utility.yul\":7889:7891   */\n  0x60\n    /* \"#utility.yul\":7878:7887   */\n  dup3\n    /* \"#utility.yul\":7874:7892   */\n  add\n    /* \"#utility.yul\":7866:7892   */\n  swap1\n  pop\n    /* \"#utility.yul\":7902:7973   */\n  tag_158\n    /* \"#utility.yul\":7970:7971   */\n  0x00\n    /* \"#utility.yul\":7959:7968   */\n  dup4\n    /* \"#utility.yul\":7955:7972   */\n  add\n    /* \"#utility.yul\":7946:7952   */\n  dup7\n    /* \"#utility.yul\":7902:7973   */\n  tag_65\n  jump\t// in\ntag_158:\n    /* \"#utility.yul\":7983:8055   */\n  tag_159\n    /* \"#utility.yul\":8051:8053   */\n  0x20\n    /* \"#utility.yul\":8040:8049   */\n  dup4\n    /* \"#utility.yul\":8036:8054   */\n  add\n    /* \"#utility.yul\":8027:8033   */\n  dup6\n    /* \"#utility.yul\":7983:8055   */\n  tag_69\n  jump\t// in\ntag_159:\n    /* \"#utility.yul\":8065:8137   */\n  tag_160\n    /* \"#utility.yul\":8133:8135   */\n  0x40\n    /* \"#utility.yul\":8122:8131   */\n  dup4\n    /* \"#utility.yul\":8118:8136   */\n  add\n    /* \"#utility.yul\":8109:8115   */\n  dup5\n    /* \"#utility.yul\":8065:8137   */\n  tag_69\n  jump\t// in\ntag_160:\n    /* \"#utility.yul\":7702:8144   */\n  swap5\n  swap4\n  pop\n  pop\n  pop\n  pop\n  jump\t// out\n    /* \"contracts/Jimp.sol\":297:6267  contract Prophecy_Jimpsons is ERC20, Ownable(msg.sender), ReentrancyGuard {... */\ntag_25:\n  dataSize(sub_0)\n  dup1\n  dataOffset(sub_0)\n  0x00\n  codecopy\n  0x00\n  return\nstop\n\nsub_0: assembly {\n        /* \"contracts/Jimp.sol\":297:6267  contract Prophecy_Jimpsons is ERC20, Ownable(msg.sender), ReentrancyGuard {... */\n      mstore(0x40, 0x80)\n      callvalue\n      dup1\n      iszero\n      tag_1\n      jumpi\n      revert(0x00, 0x00)\n    tag_1:\n      pop\n      jumpi(tag_2, lt(calldatasize, 0x04))\n      shr(0xe0, calldataload(0x00))\n      dup1\n      0x611274c5\n      gt\n      tag_33\n      jumpi\n      dup1\n      0x9155e083\n      gt\n      tag_34\n      jumpi\n      dup1\n      0xaa4bde28\n      gt\n      tag_35\n      jumpi\n      dup1\n      0xaa4bde28\n      eq\n      tag_29\n      jumpi\n      dup1\n      0xdd62ed3e\n      eq\n      tag_30\n      jumpi\n      dup1\n      0xf2fde38b\n      eq\n      tag_31\n      jumpi\n      dup1\n      0xfe575a87\n      eq\n      tag_32\n      jumpi\n      jump(tag_2)\n    tag_35:\n      dup1\n      0x9155e083\n      eq\n      tag_25\n      jumpi\n      dup1\n      0x95d89b41\n      eq\n      tag_26\n      jumpi\n      dup1\n      0xa9059cbb\n      eq\n      tag_27\n      jumpi\n      dup1\n      0xa9e75723\n      eq\n      tag_28\n      jumpi\n      jump(tag_2)\n    tag_34:\n      dup1\n      0x70a08231\n      gt\n      tag_36\n      jumpi\n      dup1\n      0x70a08231\n      eq\n      tag_21\n      jumpi\n      dup1\n      0x715018a6\n      eq\n      tag_22\n      jumpi\n      dup1\n      0x8da5cb5b\n      eq\n      tag_23\n      jumpi\n      dup1\n      0x8f70ccf7\n      eq\n      tag_24\n      jumpi\n      jump(tag_2)\n    tag_36:\n      dup1\n      0x611274c5\n      eq\n      tag_18\n      jumpi\n      dup1\n      0x68f16293\n      eq\n      tag_19\n      jumpi\n      dup1\n      0x6ff1c9bc\n      eq\n      tag_20\n      jumpi\n      jump(tag_2)\n    tag_33:\n      dup1\n      0x23b872dd\n      gt\n      tag_37\n      jumpi\n      dup1\n      0x330671ad\n      gt\n      tag_38\n      jumpi\n      dup1\n      0x330671ad\n      eq\n      tag_14\n      jumpi\n      dup1\n      0x3af32abf\n      eq\n      tag_15\n      jumpi\n      dup1\n      0x4ada218b\n      eq\n      tag_16\n      jumpi\n      dup1\n      0x6072e6a8\n      eq\n      tag_17\n      jumpi\n      jump(tag_2)\n    tag_38:\n      dup1\n      0x23b872dd\n      eq\n      tag_10\n      jumpi\n      dup1\n      0x283af019\n      eq\n      tag_11\n      jumpi\n      dup1\n      0x313ce567\n      eq\n      tag_12\n      jumpi\n      dup1\n      0x32cb6b0c\n      eq\n      tag_13\n      jumpi\n      jump(tag_2)\n    tag_37:\n      dup1\n      0x0d2d8a31\n      gt\n      tag_39\n      jumpi\n      dup1\n      0x0d2d8a31\n      eq\n      tag_6\n      jumpi\n      dup1\n      0x0d392cd9\n      eq\n      tag_7\n      jumpi\n      dup1\n      0x158ef93e\n      eq\n      tag_8\n      jumpi\n      dup1\n      0x18160ddd\n      eq\n      tag_9\n      jumpi\n      jump(tag_2)\n    tag_39:\n      dup1\n      0x02cd093d\n      eq\n      tag_3\n      jumpi\n      dup1\n      0x06fdde03\n      eq\n      tag_4\n      jumpi\n      dup1\n      0x095ea7b3\n      eq\n      tag_5\n      jumpi\n    tag_2:\n      revert(0x00, 0x00)\n        /* \"contracts/Jimp.sol\":4870:5363  function updateSecurityParams(... */\n    tag_3:\n      tag_40\n      0x04\n      dup1\n      calldatasize\n      sub\n      dup2\n      add\n      swap1\n      tag_41\n      swap2\n      swap1\n      tag_42\n      jump\t// in\n    tag_41:\n      tag_43\n      jump\t// in\n    tag_40:\n      stop\n        /* \"@openzeppelin/contracts/token/ERC20/ERC20.sol\":1779:1868  function name() public view virtual returns (string memory) {... */\n    tag_4:\n      tag_44\n      tag_45\n      jump\t// in\n    tag_44:\n      mload(0x40)\n      tag_46\n      swap2\n      swap1\n      tag_47\n      jump\t// in\n    tag_46:\n      mload(0x40)\n      dup1\n      swap2\n      sub\n      swap1\n      return\n        /* \"@openzeppelin/contracts/token/ERC20/ERC20.sol\":3998:4184  function approve(address spender, uint256 value) public virtual returns (bool) {... */\n    tag_5:\n      tag_48\n      0x04\n      dup1\n      calldatasize\n      sub\n      dup2\n      add\n      swap1\n      tag_49\n      swap2\n      swap1\n      tag_50\n      jump\t// in\n    tag_49:\n      tag_51\n      jump\t// in\n    tag_48:\n      mload(0x40)\n      tag_52\n      swap2\n      swap1\n      tag_53\n      jump\t// in\n    tag_52:\n      mload(0x40)\n      dup1\n      swap2\n      sub\n      swap1\n      return\n        /* \"contracts/Jimp.sol\":820:871  mapping(address => uint256) public lastTransferTime */\n    tag_6:\n      tag_54\n      0x04\n      dup1\n      calldatasize\n      sub\n      dup2\n      add\n      swap1\n      tag_55\n      swap2\n      swap1\n      tag_56\n      jump\t// in\n    tag_55:\n      tag_57\n      jump\t// in\n    tag_54:\n      mload(0x40)\n      tag_58\n      swap2\n      swap1\n      tag_59\n      jump\t// in\n    tag_58:\n      mload(0x40)\n      dup1\n      swap2\n      sub\n      swap1\n      return\n        /* \"contracts/Jimp.sol\":4689:4862  function updateWhitelist(address account, bool status) external onlyOwner {... */\n    tag_7:\n      tag_60\n      0x04\n      dup1\n      calldatasize\n      sub\n      dup2\n      add\n      swap1\n      tag_61\n      swap2\n      swap1\n      tag_62\n      jump\t// in\n    tag_61:\n      tag_63\n      jump\t// in\n    tag_60:\n      stop\n        /* \"contracts/Jimp.sol\":480:503  bool public initialized */\n    tag_8:\n      tag_64\n      tag_65\n      jump\t// in\n    tag_64:\n      mload(0x40)\n      tag_66\n      swap2\n      swap1\n      tag_53\n      jump\t// in\n    tag_66:\n      mload(0x40)\n      dup1\n      swap2\n      sub\n      swap1\n      return\n        /* \"@openzeppelin/contracts/token/ERC20/ERC20.sol\":2849:2946  function totalSupply() public view virtual returns (uint256) {... */\n    tag_9:\n      tag_67\n      tag_68\n      jump\t// in\n    tag_67:\n      mload(0x40)\n      tag_69\n      swap2\n      swap1\n      tag_59\n      jump\t// in\n    tag_69:\n      mload(0x40)\n      dup1\n      swap2\n      sub\n      swap1\n      return\n        /* \"contracts/Jimp.sol\":3902:4316  function transferFrom(address from, address to, uint256 amount)... */\n    tag_10:\n      tag_70\n      0x04\n      dup1\n      calldatasize\n      sub\n      dup2\n      add\n      swap1\n      tag_71\n      swap2\n      swap1\n      tag_72\n      jump\t// in\n    tag_71:\n      tag_73\n      jump\t// in\n    tag_70:\n      mload(0x40)\n      tag_74\n      swap2\n      swap1\n      tag_53\n      jump\t// in\n    tag_74:\n      mload(0x40)\n      dup1\n      swap2\n      sub\n      swap1\n      return\n        /* \"contracts/Jimp.sol\":878:929  mapping(address => uint256) public tokenReceiveTime */\n    tag_11:\n      tag_75\n      0x04\n      dup1\n      calldatasize\n      sub\n      dup2\n      add\n      swap1\n      tag_76\n      swap2\n      swap1\n      tag_56\n      jump\t// in\n    tag_76:\n      tag_77\n      jump\t// in\n    tag_75:\n      mload(0x40)\n      tag_78\n      swap2\n      swap1\n      tag_59\n      jump\t// in\n    tag_78:\n      mload(0x40)\n      dup1\n      swap2\n      sub\n      swap1\n      return\n        /* \"@openzeppelin/contracts/token/ERC20/ERC20.sol\":2707:2789  function decimals() public view virtual returns (uint8) {... */\n    tag_12:\n      tag_79\n      tag_80\n      jump\t// in\n    tag_79:\n      mload(0x40)\n      tag_81\n      swap2\n      swap1\n      tag_82\n      jump\t// in\n    tag_81:\n      mload(0x40)\n      dup1\n      swap2\n      sub\n      swap1\n      return\n        /* \"contracts/Jimp.sol\":413:473  uint256 public constant MAX_SUPPLY = 10_000_000_000 * 10**18 */\n    tag_13:\n      tag_83\n      tag_84\n      jump\t// in\n    tag_83:\n      mload(0x40)\n      tag_85\n      swap2\n      swap1\n      tag_59\n      jump\t// in\n    tag_85:\n      mload(0x40)\n      dup1\n      swap2\n      sub\n      swap1\n      return\n        /* \"contracts/Jimp.sol\":599:625  uint256 public minHoldTime */\n    tag_14:\n      tag_86\n      tag_87\n      jump\t// in\n    tag_86:\n      mload(0x40)\n      tag_88\n      swap2\n      swap1\n      tag_59\n      jump\t// in\n    tag_88:\n      mload(0x40)\n      dup1\n      swap2\n      sub\n      swap1\n      return\n        /* \"contracts/Jimp.sol\":1052:1097  mapping(address => bool) public isWhitelisted */\n    tag_15:\n      tag_89\n      0x04\n      dup1\n      calldatasize\n      sub\n      dup2\n      add\n      swap1\n      tag_90\n      swap2\n      swap1\n      tag_56\n      jump\t// in\n    tag_90:\n      tag_91\n      jump\t// in\n    tag_89:\n      mload(0x40)\n      tag_92\n      swap2\n      swap1\n      tag_53\n      jump\t// in\n    tag_92:\n      mload(0x40)\n      dup1\n      swap2\n      sub\n      swap1\n      return\n        /* \"contracts/Jimp.sol\":756:782  bool public tradingEnabled */\n    tag_16:\n      tag_93\n      tag_94\n      jump\t// in\n    tag_93:\n      mload(0x40)\n      tag_95\n      swap2\n      swap1\n      tag_53\n      jump\t// in\n    tag_95:\n      mload(0x40)\n      dup1\n      swap2\n      sub\n      swap1\n      return\n        /* \"contracts/Jimp.sol\":5710:5983  function batchUpdateBlacklist(address[] calldata accounts, bool status) external onlyOwner {... */\n    tag_17:\n      tag_96\n      0x04\n      dup1\n      calldatasize\n      sub\n      dup2\n      add\n      swap1\n      tag_97\n      swap2\n      swap1\n      tag_98\n      jump\t// in\n    tag_97:\n      tag_99\n      jump\t// in\n    tag_96:\n      stop\n        /* \"contracts/Jimp.sol\":5991:6264  function batchUpdateWhitelist(address[] calldata accounts, bool status) external onlyOwner {... */\n    tag_18:\n      tag_100\n      0x04\n      dup1\n      calldatasize\n      sub\n      dup2\n      add\n      swap1\n      tag_101\n      swap2\n      swap1\n      tag_98\n      jump\t// in\n    tag_101:\n      tag_102\n      jump\t// in\n    tag_100:\n      stop\n        /* \"contracts/Jimp.sol\":1132:1163  uint256 public transferCooldown */\n    tag_19:\n      tag_103\n      tag_104\n      jump\t// in\n    tag_103:\n      mload(0x40)\n      tag_105\n      swap2\n      swap1\n      tag_59\n      jump\t// in\n    tag_105:\n      mload(0x40)\n      dup1\n      swap2\n      sub\n      swap1\n      return\n        /* \"contracts/Jimp.sol\":5399:5658  function emergencyWithdraw(address token) external onlyOwner {... */\n    tag_20:\n      tag_106\n      0x04\n      dup1\n      calldatasize\n      sub\n      dup2\n      add\n      swap1\n      tag_107\n      swap2\n      swap1\n      tag_56\n      jump\t// in\n    tag_107:\n      tag_108\n      jump\t// in\n    tag_106:\n      stop\n        /* \"@openzeppelin/contracts/token/ERC20/ERC20.sol\":3004:3120  function balanceOf(address account) public view virtual returns (uint256) {... */\n    tag_21:\n      tag_109\n      0x04\n      dup1\n      calldatasize\n      sub\n      dup2\n      add\n      swap1\n      tag_110\n      swap2\n      swap1\n      tag_56\n      jump\t// in\n    tag_110:\n      tag_111\n      jump\t// in\n    tag_109:\n      mload(0x40)\n      tag_112\n      swap2\n      swap1\n      tag_59\n      jump\t// in\n    tag_112:\n      mload(0x40)\n      dup1\n      swap2\n      sub\n      swap1\n      return\n        /* \"@openzeppelin/contracts/access/Ownable.sol\":2293:2394  function renounceOwnership() public virtual onlyOwner {... */\n    tag_22:\n      tag_113\n      tag_114\n      jump\t// in\n    tag_113:\n      stop\n        /* \"@openzeppelin/contracts/access/Ownable.sol\":1638:1723  function owner() public view virtual returns (address) {... */\n    tag_23:\n      tag_115\n      tag_116\n      jump\t// in\n    tag_115:\n      mload(0x40)\n      tag_117\n      swap2\n      swap1\n      tag_118\n      jump\t// in\n    tag_117:\n      mload(0x40)\n      dup1\n      swap2\n      sub\n      swap1\n      return\n        /* \"contracts/Jimp.sol\":4362:4500  function setTrading(bool _enabled) external onlyOwner {... */\n    tag_24:\n      tag_119\n      0x04\n      dup1\n      calldatasize\n      sub\n      dup2\n      add\n      swap1\n      tag_120\n      swap2\n      swap1\n      tag_121\n      jump\t// in\n    tag_120:\n      tag_122\n      jump\t// in\n    tag_119:\n      stop\n        /* \"contracts/Jimp.sol\":4508:4681  function updateBlacklist(address account, bool status) external onlyOwner {... */\n    tag_25:\n      tag_123\n      0x04\n      dup1\n      calldatasize\n      sub\n      dup2\n      add\n      swap1\n      tag_124\n      swap2\n      swap1\n      tag_62\n      jump\t// in\n    tag_124:\n      tag_125\n      jump\t// in\n    tag_123:\n      stop\n        /* \"@openzeppelin/contracts/token/ERC20/ERC20.sol\":1981:2074  function symbol() public view virtual returns (string memory) {... */\n    tag_26:\n      tag_126\n      tag_127\n      jump\t// in\n    tag_126:\n      mload(0x40)\n      tag_128\n      swap2\n      swap1\n      tag_47\n      jump\t// in\n    tag_128:\n      mload(0x40)\n      dup1\n      swap2\n      sub\n      swap1\n      return\n        /* \"contracts/Jimp.sol\":3490:3894  function transfer(address to, uint256 amount) ... */\n    tag_27:\n      tag_129\n      0x04\n      dup1\n      calldatasize\n      sub\n      dup2\n      add\n      swap1\n      tag_130\n      swap2\n      swap1\n      tag_50\n      jump\t// in\n    tag_130:\n      tag_131\n      jump\t// in\n    tag_129:\n      mload(0x40)\n      tag_132\n      swap2\n      swap1\n      tag_53\n      jump\t// in\n    tag_132:\n      mload(0x40)\n      dup1\n      swap2\n      sub\n      swap1\n      return\n        /* \"contracts/Jimp.sol\":510:542  uint256 public maxTransferAmount */\n    tag_28:\n      tag_133\n      tag_134\n      jump\t// in\n    tag_133:\n      mload(0x40)\n      tag_135\n      swap2\n      swap1\n      tag_59\n      jump\t// in\n    tag_135:\n      mload(0x40)\n      dup1\n      swap2\n      sub\n      swap1\n      return\n        /* \"contracts/Jimp.sol\":681:711  uint256 public maxWalletAmount */\n    tag_29:\n      tag_136\n      tag_137\n      jump\t// in\n    tag_136:\n      mload(0x40)\n      tag_138\n      swap2\n      swap1\n      tag_59\n      jump\t// in\n    tag_138:\n      mload(0x40)\n      dup1\n      swap2\n      sub\n      swap1\n      return\n        /* \"@openzeppelin/contracts/token/ERC20/ERC20.sol\":3551:3691  function allowance(address owner, address spender) public view virtual returns (uint256) {... */\n    tag_30:\n      tag_139\n      0x04\n      dup1\n      calldatasize\n      sub\n      dup2\n      add\n      swap1\n      tag_140\n      swap2\n      swap1\n      tag_141\n      jump\t// in\n    tag_140:\n      tag_142\n      jump\t// in\n    tag_139:\n      mload(0x40)\n      tag_143\n      swap2\n      swap1\n      tag_59\n      jump\t// in\n    tag_143:\n      mload(0x40)\n      dup1\n      swap2\n      sub\n      swap1\n      return\n        /* \"@openzeppelin/contracts/access/Ownable.sol\":2543:2758  function transferOwnership(address newOwner) public virtual onlyOwner {... */\n    tag_31:\n      tag_144\n      0x04\n      dup1\n      calldatasize\n      sub\n      dup2\n      add\n      swap1\n      tag_145\n      swap2\n      swap1\n      tag_56\n      jump\t// in\n    tag_145:\n      tag_146\n      jump\t// in\n    tag_144:\n      stop\n        /* \"contracts/Jimp.sol\":972:1017  mapping(address => bool) public isBlacklisted */\n    tag_32:\n      tag_147\n      0x04\n      dup1\n      calldatasize\n      sub\n      dup2\n      add\n      swap1\n      tag_148\n      swap2\n      swap1\n      tag_56\n      jump\t// in\n    tag_148:\n      tag_149\n      jump\t// in\n    tag_147:\n      mload(0x40)\n      tag_150\n      swap2\n      swap1\n      tag_53\n      jump\t// in\n    tag_150:\n      mload(0x40)\n      dup1\n      swap2\n      sub\n      swap1\n      return\n        /* \"contracts/Jimp.sol\":4870:5363  function updateSecurityParams(... */\n    tag_43:\n        /* \"@openzeppelin/contracts/access/Ownable.sol\":1531:1544  _checkOwner() */\n      tag_152\n        /* \"@openzeppelin/contracts/access/Ownable.sol\":1531:1542  _checkOwner */\n      tag_153\n        /* \"@openzeppelin/contracts/access/Ownable.sol\":1531:1544  _checkOwner() */\n      jump\t// in\n    tag_152:\n        /* \"contracts/Jimp.sol\":5073:5085  _maxTransfer */\n      dup4\n        /* \"contracts/Jimp.sol\":5053:5070  maxTransferAmount */\n      0x08\n        /* \"contracts/Jimp.sol\":5053:5085  maxTransferAmount = _maxTransfer */\n      dup2\n      swap1\n      sstore\n      pop\n        /* \"contracts/Jimp.sol\":5114:5124  _maxWallet */\n      dup3\n        /* \"contracts/Jimp.sol\":5096:5111  maxWalletAmount */\n      0x0a\n        /* \"contracts/Jimp.sol\":5096:5124  maxWalletAmount = _maxWallet */\n      dup2\n      swap1\n      sstore\n      pop\n        /* \"contracts/Jimp.sol\":5149:5158  _holdTime */\n      dup2\n        /* \"contracts/Jimp.sol\":5135:5146  minHoldTime */\n      0x09\n        /* \"contracts/Jimp.sol\":5135:5158  minHoldTime = _holdTime */\n      dup2\n      swap1\n      sstore\n      pop\n        /* \"contracts/Jimp.sol\":5188:5197  _cooldown */\n      dup1\n        /* \"contracts/Jimp.sol\":5169:5185  transferCooldown */\n      0x10\n        /* \"contracts/Jimp.sol\":5169:5197  transferCooldown = _cooldown */\n      dup2\n      swap1\n      sstore\n      pop\n        /* \"contracts/Jimp.sol\":5223:5355  SecurityParamsUpdated(... */\n      0xbb5d5c94dff5adb0bc0e043a6c2cf9bb8153231069831102f0e8e53b89924f1f\n        /* \"contracts/Jimp.sol\":5259:5271  _maxTransfer */\n      dup5\n        /* \"contracts/Jimp.sol\":5286:5296  _maxWallet */\n      dup5\n        /* \"contracts/Jimp.sol\":5311:5320  _holdTime */\n      dup5\n        /* \"contracts/Jimp.sol\":5335:5344  _cooldown */\n      dup5\n        /* \"contracts/Jimp.sol\":5223:5355  SecurityParamsUpdated(... */\n      mload(0x40)\n      tag_155\n      swap5\n      swap4\n      swap3\n      swap2\n      swap1\n      tag_156\n      jump\t// in\n    tag_155:\n      mload(0x40)\n      dup1\n      swap2\n      sub\n      swap1\n      log1\n        /* \"contracts/Jimp.sol\":4870:5363  function updateSecurityParams(... */\n      pop\n      pop\n      pop\n      pop\n      jump\t// out\n        /* \"@openzeppelin/contracts/token/ERC20/ERC20.sol\":1779:1868  function name() public view virtual returns (string memory) {... */\n    tag_45:\n        /* \"@openzeppelin/contracts/token/ERC20/ERC20.sol\":1824:1837  string memory */\n      0x60\n        /* \"@openzeppelin/contracts/token/ERC20/ERC20.sol\":1856:1861  _name */\n      0x03\n        /* \"@openzeppelin/contracts/token/ERC20/ERC20.sol\":1849:1861  return _name */\n      dup1\n      sload\n      tag_158\n      swap1\n      tag_159\n      jump\t// in\n    tag_158:\n      dup1\n      0x1f\n      add\n      0x20\n      dup1\n      swap2\n      div\n      mul\n      0x20\n      add\n      mload(0x40)\n      swap1\n      dup2\n      add\n      0x40\n      mstore\n      dup1\n      swap3\n      swap2\n      swap1\n      dup2\n      dup2\n      mstore\n      0x20\n      add\n      dup3\n      dup1\n      sload\n      tag_160\n      swap1\n      tag_159\n      jump\t// in\n    tag_160:\n      dup1\n      iszero\n      tag_161\n      jumpi\n      dup1\n      0x1f\n      lt\n      tag_162\n      jumpi\n      0x0100\n      dup1\n      dup4\n      sload\n      div\n      mul\n      dup4\n      mstore\n      swap2\n      0x20\n      add\n      swap2\n      jump(tag_161)\n    tag_162:\n      dup3\n      add\n      swap2\n      swap1\n      0x00\n      mstore\n      keccak256(0x00, 0x20)\n      swap1\n    tag_163:\n      dup2\n      sload\n      dup2\n      mstore\n      swap1\n      0x01\n      add\n      swap1\n      0x20\n      add\n      dup1\n      dup4\n      gt\n      tag_163\n      jumpi\n      dup3\n      swap1\n      sub\n      0x1f\n      and\n      dup3\n      add\n      swap2\n    tag_161:\n      pop\n      pop\n      pop\n      pop\n      pop\n      swap1\n      pop\n        /* \"@openzeppelin/contracts/token/ERC20/ERC20.sol\":1779:1868  function name() public view virtual returns (string memory) {... */\n      swap1\n      jump\t// out\n        /* \"@openzeppelin/contracts/token/ERC20/ERC20.sol\":3998:4184  function approve(address spender, uint256 value) public virtual returns (bool) {... */\n    tag_51:\n        /* \"@openzeppelin/contracts/token/ERC20/ERC20.sol\":4071:4075  bool */\n      0x00\n        /* \"@openzeppelin/contracts/token/ERC20/ERC20.sol\":4087:4100  address owner */\n      0x00\n        /* \"@openzeppelin/contracts/token/ERC20/ERC20.sol\":4103:4115  _msgSender() */\n      tag_165\n        /* \"@openzeppelin/contracts/token/ERC20/ERC20.sol\":4103:4113  _msgSender */\n      tag_166\n        /* \"@openzeppelin/contracts/token/ERC20/ERC20.sol\":4103:4115  _msgSender() */\n      jump\t// in\n    tag_165:\n        /* \"@openzeppelin/contracts/token/ERC20/ERC20.sol\":4087:4115  address owner = _msgSender() */\n      swap1\n      pop\n        /* \"@openzeppelin/contracts/token/ERC20/ERC20.sol\":4125:4156  _approve(owner, spender, value) */\n      tag_167\n        /* \"@openzeppelin/contracts/token/ERC20/ERC20.sol\":4134:4139  owner */\n      dup2\n        /* \"@openzeppelin/contracts/token/ERC20/ERC20.sol\":4141:4148  spender */\n      dup6\n        /* \"@openzeppelin/contracts/token/ERC20/ERC20.sol\":4150:4155  value */\n      dup6\n        /* \"@openzeppelin/contracts/token/ERC20/ERC20.sol\":4125:4133  _approve */\n      tag_168\n        /* \"@openzeppelin/contracts/token/ERC20/ERC20.sol\":4125:4156  _approve(owner, spender, value) */\n      jump\t// in\n    tag_167:\n        /* \"@openzeppelin/contracts/token/ERC20/ERC20.sol\":4173:4177  true */\n      0x01\n        /* \"@openzeppelin/contracts/token/ERC20/ERC20.sol\":4166:4177  return true */\n      swap2\n      pop\n      pop\n        /* \"@openzeppelin/contracts/token/ERC20/ERC20.sol\":3998:4184  function approve(address spender, uint256 value) public virtual returns (bool) {... */\n      swap3\n      swap2\n      pop\n      pop\n      jump\t// out\n        /* \"contracts/Jimp.sol\":820:871  mapping(address => uint256) public lastTransferTime */\n    tag_57:\n      mstore(0x20, 0x0c)\n      dup1\n      0x00\n      mstore\n      keccak256(0x00, 0x40)\n      0x00\n      swap2\n      pop\n      swap1\n      pop\n      sload\n      dup2\n      jump\t// out\n        /* \"contracts/Jimp.sol\":4689:4862  function updateWhitelist(address account, bool status) external onlyOwner {... */\n    tag_63:\n        /* \"@openzeppelin/contracts/access/Ownable.sol\":1531:1544  _checkOwner() */\n      tag_170\n        /* \"@openzeppelin/contracts/access/Ownable.sol\":1531:1542  _checkOwner */\n      tag_153\n        /* \"@openzeppelin/contracts/access/Ownable.sol\":1531:1544  _checkOwner() */\n      jump\t// in\n    tag_170:\n        /* \"contracts/Jimp.sol\":4799:4805  status */\n      dup1\n        /* \"contracts/Jimp.sol\":4774:4787  isWhitelisted */\n      0x0f\n        /* \"contracts/Jimp.sol\":4774:4796  isWhitelisted[account] */\n      0x00\n        /* \"contracts/Jimp.sol\":4788:4795  account */\n      dup5\n        /* \"contracts/Jimp.sol\":4774:4796  isWhitelisted[account] */\n      0xffffffffffffffffffffffffffffffffffffffff\n      and\n      0xffffffffffffffffffffffffffffffffffffffff\n      and\n      dup2\n      mstore\n      0x20\n      add\n      swap1\n      dup2\n      mstore\n      0x20\n      add\n      0x00\n      keccak256\n      0x00\n        /* \"contracts/Jimp.sol\":4774:4805  isWhitelisted[account] = status */\n      0x0100\n      exp\n      dup2\n      sload\n      dup2\n      0xff\n      mul\n      not\n      and\n      swap1\n      dup4\n      iszero\n      iszero\n      mul\n      or\n      swap1\n      sstore\n      pop\n        /* \"contracts/Jimp.sol\":4838:4845  account */\n      dup2\n        /* \"contracts/Jimp.sol\":4821:4854  WhitelistUpdated(account, status) */\n      0xffffffffffffffffffffffffffffffffffffffff\n      and\n      0xf93f9a76c1bf3444d22400a00cb9fe990e6abe9dbb333fda48859cfee864543d\n        /* \"contracts/Jimp.sol\":4847:4853  status */\n      dup3\n        /* \"contracts/Jimp.sol\":4821:4854  WhitelistUpdated(account, status) */\n      mload(0x40)\n      tag_172\n      swap2\n      swap1\n      tag_53\n      jump\t// in\n    tag_172:\n      mload(0x40)\n      dup1\n      swap2\n      sub\n      swap1\n      log2\n        /* \"contracts/Jimp.sol\":4689:4862  function updateWhitelist(address account, bool status) external onlyOwner {... */\n      pop\n      pop\n      jump\t// out\n        /* \"contracts/Jimp.sol\":480:503  bool public initialized */\n    tag_65:\n      0x07\n      0x00\n      swap1\n      sload\n      swap1\n      0x0100\n      exp\n      swap1\n      div\n      0xff\n      and\n      dup2\n      jump\t// out\n        /* \"@openzeppelin/contracts/token/ERC20/ERC20.sol\":2849:2946  function totalSupply() public view virtual returns (uint256) {... */\n    tag_68:\n        /* \"@openzeppelin/contracts/token/ERC20/ERC20.sol\":2901:2908  uint256 */\n      0x00\n        /* \"@openzeppelin/contracts/token/ERC20/ERC20.sol\":2927:2939  _totalSupply */\n      sload(0x02)\n        /* \"@openzeppelin/contracts/token/ERC20/ERC20.sol\":2920:2939  return _totalSupply */\n      swap1\n      pop\n        /* \"@openzeppelin/contracts/token/ERC20/ERC20.sol\":2849:2946  function totalSupply() public view virtual returns (uint256) {... */\n      swap1\n      jump\t// out\n        /* \"contracts/Jimp.sol\":3902:4316  function transferFrom(address from, address to, uint256 amount)... */\n    tag_73:\n        /* \"contracts/Jimp.sol\":4086:4090  bool */\n      0x00\n        /* \"contracts/Jimp.sol\":4028:4032  from */\n      dup4\n        /* \"contracts/Jimp.sol\":4034:4036  to */\n      dup4\n        /* \"contracts/Jimp.sol\":4038:4044  amount */\n      dup4\n        /* \"contracts/Jimp.sol\":2550:2563  isBlacklisted */\n      0x0e\n        /* \"contracts/Jimp.sol\":2550:2569  isBlacklisted[from] */\n      0x00\n        /* \"contracts/Jimp.sol\":2564:2568  from */\n      dup5\n        /* \"contracts/Jimp.sol\":2550:2569  isBlacklisted[from] */\n      0xffffffffffffffffffffffffffffffffffffffff\n      and\n      0xffffffffffffffffffffffffffffffffffffffff\n      and\n      dup2\n      mstore\n      0x20\n      add\n      swap1\n      dup2\n      mstore\n      0x20\n      add\n      0x00\n      keccak256\n      0x00\n      swap1\n      sload\n      swap1\n      0x0100\n      exp\n      swap1\n      div\n      0xff\n      and\n        /* \"contracts/Jimp.sol\":2549:2569  !isBlacklisted[from] */\n      iszero\n        /* \"contracts/Jimp.sol\":2549:2591  !isBlacklisted[from] && !isBlacklisted[to] */\n      dup1\n      iszero\n      tag_175\n      jumpi\n      pop\n        /* \"contracts/Jimp.sol\":2574:2587  isBlacklisted */\n      0x0e\n        /* \"contracts/Jimp.sol\":2574:2591  isBlacklisted[to] */\n      0x00\n        /* \"contracts/Jimp.sol\":2588:2590  to */\n      dup4\n        /* \"contracts/Jimp.sol\":2574:2591  isBlacklisted[to] */\n      0xffffffffffffffffffffffffffffffffffffffff\n      and\n      0xffffffffffffffffffffffffffffffffffffffff\n      and\n      dup2\n      mstore\n      0x20\n      add\n      swap1\n      dup2\n      mstore\n      0x20\n      add\n      0x00\n      keccak256\n      0x00\n      swap1\n      sload\n      swap1\n      0x0100\n      exp\n      swap1\n      div\n      0xff\n      and\n        /* \"contracts/Jimp.sol\":2573:2591  !isBlacklisted[to] */\n      iszero\n        /* \"contracts/Jimp.sol\":2549:2591  !isBlacklisted[from] && !isBlacklisted[to] */\n    tag_175:\n        /* \"contracts/Jimp.sol\":2541:2618  require(!isBlacklisted[from] && !isBlacklisted[to], \"Address is blacklisted\") */\n      tag_176\n      jumpi\n      mload(0x40)\n      0x08c379a000000000000000000000000000000000000000000000000000000000\n      dup2\n      mstore\n      0x04\n      add\n      tag_177\n      swap1\n      tag_178\n      jump\t// in\n    tag_177:\n      mload(0x40)\n      dup1\n      swap2\n      sub\n      swap1\n      revert\n    tag_176:\n        /* \"contracts/Jimp.sol\":2637:2651  tradingEnabled */\n      0x0b\n      0x00\n      swap1\n      sload\n      swap1\n      0x0100\n      exp\n      swap1\n      div\n      0xff\n      and\n        /* \"contracts/Jimp.sol\":2637:2674  tradingEnabled || isWhitelisted[from] */\n      dup1\n      tag_179\n      jumpi\n      pop\n        /* \"contracts/Jimp.sol\":2655:2668  isWhitelisted */\n      0x0f\n        /* \"contracts/Jimp.sol\":2655:2674  isWhitelisted[from] */\n      0x00\n        /* \"contracts/Jimp.sol\":2669:2673  from */\n      dup5\n        /* \"contracts/Jimp.sol\":2655:2674  isWhitelisted[from] */\n      0xffffffffffffffffffffffffffffffffffffffff\n      and\n      0xffffffffffffffffffffffffffffffffffffffff\n      and\n      dup2\n      mstore\n      0x20\n      add\n      swap1\n      dup2\n      mstore\n      0x20\n      add\n      0x00\n      keccak256\n      0x00\n      swap1\n      sload\n      swap1\n      0x0100\n      exp\n      swap1\n      div\n      0xff\n      and\n        /* \"contracts/Jimp.sol\":2637:2674  tradingEnabled || isWhitelisted[from] */\n    tag_179:\n        /* \"contracts/Jimp.sol\":2637:2695  tradingEnabled || isWhitelisted[from] || isWhitelisted[to] */\n      dup1\n      tag_180\n      jumpi\n      pop\n        /* \"contracts/Jimp.sol\":2678:2691  isWhitelisted */\n      0x0f\n        /* \"contracts/Jimp.sol\":2678:2695  isWhitelisted[to] */\n      0x00\n        /* \"contracts/Jimp.sol\":2692:2694  to */\n      dup4\n        /* \"contracts/Jimp.sol\":2678:2695  isWhitelisted[to] */\n      0xffffffffffffffffffffffffffffffffffffffff\n      and\n      0xffffffffffffffffffffffffffffffffffffffff\n      and\n      dup2\n      mstore\n      0x20\n      add\n      swap1\n      dup2\n      mstore\n      0x20\n      add\n      0x00\n      keccak256\n      0x00\n      swap1\n      sload\n      swap1\n      0x0100\n      exp\n      swap1\n      div\n      0xff\n      and\n        /* \"contracts/Jimp.sol\":2637:2695  tradingEnabled || isWhitelisted[from] || isWhitelisted[to] */\n    tag_180:\n        /* \"contracts/Jimp.sol\":2629:2719  require(tradingEnabled || isWhitelisted[from] || isWhitelisted[to], \"Trading not enabled\") */\n      tag_181\n      jumpi\n      mload(0x40)\n      0x08c379a000000000000000000000000000000000000000000000000000000000\n      dup2\n      mstore\n      0x04\n      add\n      tag_182\n      swap1\n      tag_183\n      jump\t// in\n    tag_182:\n      mload(0x40)\n      dup1\n      swap2\n      sub\n      swap1\n      revert\n    tag_181:\n        /* \"contracts/Jimp.sol\":2745:2758  isWhitelisted */\n      0x0f\n        /* \"contracts/Jimp.sol\":2745:2764  isWhitelisted[from] */\n      0x00\n        /* \"contracts/Jimp.sol\":2759:2763  from */\n      dup5\n        /* \"contracts/Jimp.sol\":2745:2764  isWhitelisted[from] */\n      0xffffffffffffffffffffffffffffffffffffffff\n      and\n      0xffffffffffffffffffffffffffffffffffffffff\n      and\n      dup2\n      mstore\n      0x20\n      add\n      swap1\n      dup2\n      mstore\n      0x20\n      add\n      0x00\n      keccak256\n      0x00\n      swap1\n      sload\n      swap1\n      0x0100\n      exp\n      swap1\n      div\n      0xff\n      and\n        /* \"contracts/Jimp.sol\":2744:2764  !isWhitelisted[from] */\n      iszero\n        /* \"contracts/Jimp.sol\":2744:2786  !isWhitelisted[from] && !isWhitelisted[to] */\n      dup1\n      iszero\n      tag_184\n      jumpi\n      pop\n        /* \"contracts/Jimp.sol\":2769:2782  isWhitelisted */\n      0x0f\n        /* \"contracts/Jimp.sol\":2769:2786  isWhitelisted[to] */\n      0x00\n        /* \"contracts/Jimp.sol\":2783:2785  to */\n      dup4\n        /* \"contracts/Jimp.sol\":2769:2786  isWhitelisted[to] */\n      0xffffffffffffffffffffffffffffffffffffffff\n      and\n      0xffffffffffffffffffffffffffffffffffffffff\n      and\n      dup2\n      mstore\n      0x20\n      add\n      swap1\n      dup2\n      mstore\n      0x20\n      add\n      0x00\n      keccak256\n      0x00\n      swap1\n      sload\n      swap1\n      0x0100\n      exp\n      swap1\n      div\n      0xff\n      and\n        /* \"contracts/Jimp.sol\":2768:2786  !isWhitelisted[to] */\n      iszero\n        /* \"contracts/Jimp.sol\":2744:2786  !isWhitelisted[from] && !isWhitelisted[to] */\n    tag_184:\n        /* \"contracts/Jimp.sol\":2740:3427  if (!isWhitelisted[from] && !isWhitelisted[to]) {... */\n      iszero\n      tag_185\n      jumpi\n        /* \"contracts/Jimp.sol\":2821:2838  maxTransferAmount */\n      sload(0x08)\n        /* \"contracts/Jimp.sol\":2811:2817  amount */\n      dup2\n        /* \"contracts/Jimp.sol\":2811:2838  amount <= maxTransferAmount */\n      gt\n      iszero\n        /* \"contracts/Jimp.sol\":2803:2870  require(amount <= maxTransferAmount, \"Transfer exceeds max amount\") */\n      tag_186\n      jumpi\n      mload(0x40)\n      0x08c379a000000000000000000000000000000000000000000000000000000000\n      dup2\n      mstore\n      0x04\n      add\n      tag_187\n      swap1\n      tag_188\n      jump\t// in\n    tag_187:\n      mload(0x40)\n      dup1\n      swap2\n      sub\n      swap1\n      revert\n    tag_186:\n        /* \"contracts/Jimp.sol\":2912:2956  lastTransferTime[from].add(transferCooldown) */\n      tag_189\n        /* \"contracts/Jimp.sol\":2939:2955  transferCooldown */\n      sload(0x10)\n        /* \"contracts/Jimp.sol\":2912:2928  lastTransferTime */\n      0x0c\n        /* \"contracts/Jimp.sol\":2912:2934  lastTransferTime[from] */\n      0x00\n        /* \"contracts/Jimp.sol\":2929:2933  from */\n      dup7\n        /* \"contracts/Jimp.sol\":2912:2934  lastTransferTime[from] */\n      0xffffffffffffffffffffffffffffffffffffffff\n      and\n      0xffffffffffffffffffffffffffffffffffffffff\n      and\n      dup2\n      mstore\n      0x20\n      add\n      swap1\n      dup2\n      mstore\n      0x20\n      add\n      0x00\n      keccak256\n      sload\n        /* \"contracts/Jimp.sol\":2912:2938  lastTransferTime[from].add */\n      tag_190\n      swap1\n        /* \"contracts/Jimp.sol\":2912:2956  lastTransferTime[from].add(transferCooldown) */\n      swap2\n      swap1\n      0xffffffff\n      and\n      jump\t// in\n    tag_189:\n        /* \"contracts/Jimp.sol\":2893:2908  block.timestamp */\n      timestamp\n        /* \"contracts/Jimp.sol\":2893:2956  block.timestamp >= lastTransferTime[from].add(transferCooldown) */\n      lt\n      iszero\n        /* \"contracts/Jimp.sol\":2885:2976  require(block.timestamp >= lastTransferTime[from].add(transferCooldown), \"Cooldown active\") */\n      tag_191\n      jumpi\n      mload(0x40)\n      0x08c379a000000000000000000000000000000000000000000000000000000000\n      dup2\n      mstore\n      0x04\n      add\n      tag_192\n      swap1\n      tag_193\n      jump\t// in\n    tag_192:\n      mload(0x40)\n      dup1\n      swap2\n      sub\n      swap1\n      revert\n    tag_191:\n        /* \"contracts/Jimp.sol\":3067:3068  0 */\n      0x00\n        /* \"contracts/Jimp.sol\":3041:3057  tokenReceiveTime */\n      0x0d\n        /* \"contracts/Jimp.sol\":3041:3063  tokenReceiveTime[from] */\n      0x00\n        /* \"contracts/Jimp.sol\":3058:3062  from */\n      dup6\n        /* \"contracts/Jimp.sol\":3041:3063  tokenReceiveTime[from] */\n      0xffffffffffffffffffffffffffffffffffffffff\n      and\n      0xffffffffffffffffffffffffffffffffffffffff\n      and\n      dup2\n      mstore\n      0x20\n      add\n      swap1\n      dup2\n      mstore\n      0x20\n      add\n      0x00\n      keccak256\n      sload\n        /* \"contracts/Jimp.sol\":3041:3068  tokenReceiveTime[from] != 0 */\n      eq\n        /* \"contracts/Jimp.sol\":3037:3193  if (tokenReceiveTime[from] != 0) {... */\n      tag_194\n      jumpi\n        /* \"contracts/Jimp.sol\":3116:3155  tokenReceiveTime[from].add(minHoldTime) */\n      tag_195\n        /* \"contracts/Jimp.sol\":3143:3154  minHoldTime */\n      sload(0x09)\n        /* \"contracts/Jimp.sol\":3116:3132  tokenReceiveTime */\n      0x0d\n        /* \"contracts/Jimp.sol\":3116:3138  tokenReceiveTime[from] */\n      0x00\n        /* \"contracts/Jimp.sol\":3133:3137  from */\n      dup7\n        /* \"contracts/Jimp.sol\":3116:3138  tokenReceiveTime[from] */\n      0xffffffffffffffffffffffffffffffffffffffff\n      and\n      0xffffffffffffffffffffffffffffffffffffffff\n      and\n      dup2\n      mstore\n      0x20\n      add\n      swap1\n      dup2\n      mstore\n      0x20\n      add\n      0x00\n      keccak256\n      sload\n        /* \"contracts/Jimp.sol\":3116:3142  tokenReceiveTime[from].add */\n      tag_190\n      swap1\n        /* \"contracts/Jimp.sol\":3116:3155  tokenReceiveTime[from].add(minHoldTime) */\n      swap2\n      swap1\n      0xffffffff\n      and\n      jump\t// in\n    tag_195:\n        /* \"contracts/Jimp.sol\":3097:3112  block.timestamp */\n      timestamp\n        /* \"contracts/Jimp.sol\":3097:3155  block.timestamp >= tokenReceiveTime[from].add(minHoldTime) */\n      lt\n      iszero\n        /* \"contracts/Jimp.sol\":3089:3177  require(block.timestamp >= tokenReceiveTime[from].add(minHoldTime), \"Hold time not met\") */\n      tag_196\n      jumpi\n      mload(0x40)\n      0x08c379a000000000000000000000000000000000000000000000000000000000\n      dup2\n      mstore\n      0x04\n      add\n      tag_197\n      swap1\n      tag_198\n      jump\t// in\n    tag_197:\n      mload(0x40)\n      dup1\n      swap2\n      sub\n      swap1\n      revert\n    tag_196:\n        /* \"contracts/Jimp.sol\":3037:3193  if (tokenReceiveTime[from] != 0) {... */\n    tag_194:\n        /* \"contracts/Jimp.sol\":3275:3299  uint256 recipientBalance */\n      0x00\n        /* \"contracts/Jimp.sol\":3302:3327  balanceOf(to).add(amount) */\n      tag_199\n        /* \"contracts/Jimp.sol\":3320:3326  amount */\n      dup3\n        /* \"contracts/Jimp.sol\":3302:3315  balanceOf(to) */\n      tag_200\n        /* \"contracts/Jimp.sol\":3312:3314  to */\n      dup6\n        /* \"contracts/Jimp.sol\":3302:3311  balanceOf */\n      tag_111\n        /* \"contracts/Jimp.sol\":3302:3315  balanceOf(to) */\n      jump\t// in\n    tag_200:\n        /* \"contracts/Jimp.sol\":3302:3319  balanceOf(to).add */\n      tag_190\n      swap1\n        /* \"contracts/Jimp.sol\":3302:3327  balanceOf(to).add(amount) */\n      swap2\n      swap1\n      0xffffffff\n      and\n      jump\t// in\n    tag_199:\n        /* \"contracts/Jimp.sol\":3275:3327  uint256 recipientBalance = balanceOf(to).add(amount) */\n      swap1\n      pop\n        /* \"contracts/Jimp.sol\":3370:3385  maxWalletAmount */\n      sload(0x0a)\n        /* \"contracts/Jimp.sol\":3350:3366  recipientBalance */\n      dup2\n        /* \"contracts/Jimp.sol\":3350:3385  recipientBalance <= maxWalletAmount */\n      gt\n      iszero\n        /* \"contracts/Jimp.sol\":3342:3415  require(recipientBalance <= maxWalletAmount, \"Exceeds max wallet amount\") */\n      tag_201\n      jumpi\n      mload(0x40)\n      0x08c379a000000000000000000000000000000000000000000000000000000000\n      dup2\n      mstore\n      0x04\n      add\n      tag_202\n      swap1\n      tag_203\n      jump\t// in\n    tag_202:\n      mload(0x40)\n      dup1\n      swap2\n      sub\n      swap1\n      revert\n    tag_201:\n        /* \"contracts/Jimp.sol\":2788:3427  {... */\n      pop\n        /* \"contracts/Jimp.sol\":2740:3427  if (!isWhitelisted[from] && !isWhitelisted[to]) {... */\n    tag_185:\n        /* \"@openzeppelin/contracts/security/ReentrancyGuard.sol\":2261:2282  _nonReentrantBefore() */\n      tag_205\n        /* \"@openzeppelin/contracts/security/ReentrancyGuard.sol\":2261:2280  _nonReentrantBefore */\n      tag_206\n        /* \"@openzeppelin/contracts/security/ReentrancyGuard.sol\":2261:2282  _nonReentrantBefore() */\n      jump\t// in\n    tag_205:\n        /* \"contracts/Jimp.sol\":4130:4131  0 */\n      0x00\n        /* \"contracts/Jimp.sol\":4116:4132  to != address(0) */\n      0xffffffffffffffffffffffffffffffffffffffff\n      and\n        /* \"contracts/Jimp.sol\":4116:4118  to */\n      dup7\n        /* \"contracts/Jimp.sol\":4116:4132  to != address(0) */\n      0xffffffffffffffffffffffffffffffffffffffff\n      and\n      sub\n        /* \"contracts/Jimp.sol\":4108:4154  require(to != address(0), \"Invalid recipient\") */\n      tag_208\n      jumpi\n      mload(0x40)\n      0x08c379a000000000000000000000000000000000000000000000000000000000\n      dup2\n      mstore\n      0x04\n      add\n      tag_209\n      swap1\n      tag_210\n      jump\t// in\n    tag_209:\n      mload(0x40)\n      dup1\n      swap2\n      sub\n      swap1\n      revert\n    tag_208:\n        /* \"contracts/Jimp.sol\":4188:4203  block.timestamp */\n      timestamp\n        /* \"contracts/Jimp.sol\":4165:4181  tokenReceiveTime */\n      0x0d\n        /* \"contracts/Jimp.sol\":4165:4185  tokenReceiveTime[to] */\n      0x00\n        /* \"contracts/Jimp.sol\":4182:4184  to */\n      dup9\n        /* \"contracts/Jimp.sol\":4165:4185  tokenReceiveTime[to] */\n      0xffffffffffffffffffffffffffffffffffffffff\n      and\n      0xffffffffffffffffffffffffffffffffffffffff\n      and\n      dup2\n      mstore\n      0x20\n      add\n      swap1\n      dup2\n      mstore\n      0x20\n      add\n      0x00\n      keccak256\n        /* \"contracts/Jimp.sol\":4165:4203  tokenReceiveTime[to] = block.timestamp */\n      dup2\n      swap1\n      sstore\n      pop\n        /* \"contracts/Jimp.sol\":4239:4254  block.timestamp */\n      timestamp\n        /* \"contracts/Jimp.sol\":4214:4230  lastTransferTime */\n      0x0c\n        /* \"contracts/Jimp.sol\":4214:4236  lastTransferTime[from] */\n      0x00\n        /* \"contracts/Jimp.sol\":4231:4235  from */\n      dup10\n        /* \"contracts/Jimp.sol\":4214:4236  lastTransferTime[from] */\n      0xffffffffffffffffffffffffffffffffffffffff\n      and\n      0xffffffffffffffffffffffffffffffffffffffff\n      and\n      dup2\n      mstore\n      0x20\n      add\n      swap1\n      dup2\n      mstore\n      0x20\n      add\n      0x00\n      keccak256\n        /* \"contracts/Jimp.sol\":4214:4254  lastTransferTime[from] = block.timestamp */\n      dup2\n      swap1\n      sstore\n      pop\n        /* \"contracts/Jimp.sol\":4272:4308  super.transferFrom(from, to, amount) */\n      tag_211\n        /* \"contracts/Jimp.sol\":4291:4295  from */\n      dup8\n        /* \"contracts/Jimp.sol\":4297:4299  to */\n      dup8\n        /* \"contracts/Jimp.sol\":4301:4307  amount */\n      dup8\n        /* \"contracts/Jimp.sol\":4272:4290  super.transferFrom */\n      tag_212\n        /* \"contracts/Jimp.sol\":4272:4308  super.transferFrom(from, to, amount) */\n      jump\t// in\n    tag_211:\n        /* \"contracts/Jimp.sol\":4265:4308  return super.transferFrom(from, to, amount) */\n      swap4\n      pop\n        /* \"@openzeppelin/contracts/security/ReentrancyGuard.sol\":2303:2323  _nonReentrantAfter() */\n      tag_213\n        /* \"@openzeppelin/contracts/security/ReentrancyGuard.sol\":2303:2321  _nonReentrantAfter */\n      tag_214\n        /* \"@openzeppelin/contracts/security/ReentrancyGuard.sol\":2303:2323  _nonReentrantAfter() */\n      jump\t// in\n    tag_213:\n        /* \"contracts/Jimp.sol\":3902:4316  function transferFrom(address from, address to, uint256 amount)... */\n      pop\n      pop\n      pop\n      swap4\n      swap3\n      pop\n      pop\n      pop\n      jump\t// out\n        /* \"contracts/Jimp.sol\":878:929  mapping(address => uint256) public tokenReceiveTime */\n    tag_77:\n      mstore(0x20, 0x0d)\n      dup1\n      0x00\n      mstore\n      keccak256(0x00, 0x40)\n      0x00\n      swap2\n      pop\n      swap1\n      pop\n      sload\n      dup2\n      jump\t// out\n        /* \"@openzeppelin/contracts/token/ERC20/ERC20.sol\":2707:2789  function decimals() public view virtual returns (uint8) {... */\n    tag_80:\n        /* \"@openzeppelin/contracts/token/ERC20/ERC20.sol\":2756:2761  uint8 */\n      0x00\n        /* \"@openzeppelin/contracts/token/ERC20/ERC20.sol\":2780:2782  18 */\n      0x12\n        /* \"@openzeppelin/contracts/token/ERC20/ERC20.sol\":2773:2782  return 18 */\n      swap1\n      pop\n        /* \"@openzeppelin/contracts/token/ERC20/ERC20.sol\":2707:2789  function decimals() public view virtual returns (uint8) {... */\n      swap1\n      jump\t// out\n        /* \"contracts/Jimp.sol\":413:473  uint256 public constant MAX_SUPPLY = 10_000_000_000 * 10**18 */\n    tag_84:\n        /* \"contracts/Jimp.sol\":450:473  10_000_000_000 * 10**18 */\n      0x204fce5e3e25026110000000\n        /* \"contracts/Jimp.sol\":413:473  uint256 public constant MAX_SUPPLY = 10_000_000_000 * 10**18 */\n      dup2\n      jump\t// out\n        /* \"contracts/Jimp.sol\":599:625  uint256 public minHoldTime */\n    tag_87:\n      sload(0x09)\n      dup2\n      jump\t// out\n        /* \"contracts/Jimp.sol\":1052:1097  mapping(address => bool) public isWhitelisted */\n    tag_91:\n      mstore(0x20, 0x0f)\n      dup1\n      0x00\n      mstore\n      keccak256(0x00, 0x40)\n      0x00\n      swap2\n      pop\n      sload\n      swap1\n      0x0100\n      exp\n      swap1\n      div\n      0xff\n      and\n      dup2\n      jump\t// out\n        /* \"contracts/Jimp.sol\":756:782  bool public tradingEnabled */\n    tag_94:\n      0x0b\n      0x00\n      swap1\n      sload\n      swap1\n      0x0100\n      exp\n      swap1\n      div\n      0xff\n      and\n      dup2\n      jump\t// out\n        /* \"contracts/Jimp.sol\":5710:5983  function batchUpdateBlacklist(address[] calldata accounts, bool status) external onlyOwner {... */\n    tag_99:\n        /* \"@openzeppelin/contracts/access/Ownable.sol\":1531:1544  _checkOwner() */\n      tag_217\n        /* \"@openzeppelin/contracts/access/Ownable.sol\":1531:1542  _checkOwner */\n      tag_153\n        /* \"@openzeppelin/contracts/access/Ownable.sol\":1531:1544  _checkOwner() */\n      jump\t// in\n    tag_217:\n        /* \"contracts/Jimp.sol\":5816:5825  uint256 i */\n      0x00\n        /* \"contracts/Jimp.sol\":5828:5829  0 */\n      0x00\n        /* \"contracts/Jimp.sol\":5816:5829  uint256 i = 0 */\n      swap1\n      pop\n        /* \"contracts/Jimp.sol\":5812:5976  for(uint256 i = 0; i < accounts.length; i++) {... */\n    tag_219:\n        /* \"contracts/Jimp.sol\":5835:5843  accounts */\n      dup4\n      dup4\n        /* \"contracts/Jimp.sol\":5835:5850  accounts.length */\n      swap1\n      pop\n        /* \"contracts/Jimp.sol\":5831:5832  i */\n      dup2\n        /* \"contracts/Jimp.sol\":5831:5850  i < accounts.length */\n      lt\n        /* \"contracts/Jimp.sol\":5812:5976  for(uint256 i = 0; i < accounts.length; i++) {... */\n      iszero\n      tag_220\n      jumpi\n        /* \"contracts/Jimp.sol\":5901:5907  status */\n      dup2\n        /* \"contracts/Jimp.sol\":5872:5885  isBlacklisted */\n      0x0e\n        /* \"contracts/Jimp.sol\":5872:5898  isBlacklisted[accounts[i]] */\n      0x00\n        /* \"contracts/Jimp.sol\":5886:5894  accounts */\n      dup7\n      dup7\n        /* \"contracts/Jimp.sol\":5895:5896  i */\n      dup6\n        /* \"contracts/Jimp.sol\":5886:5897  accounts[i] */\n      dup2\n      dup2\n      lt\n      tag_222\n      jumpi\n      tag_223\n      tag_224\n      jump\t// in\n    tag_223:\n    tag_222:\n      swap1\n      pop\n      0x20\n      mul\n      add\n      0x20\n      dup2\n      add\n      swap1\n      tag_225\n      swap2\n      swap1\n      tag_56\n      jump\t// in\n    tag_225:\n        /* \"contracts/Jimp.sol\":5872:5898  isBlacklisted[accounts[i]] */\n      0xffffffffffffffffffffffffffffffffffffffff\n      and\n      0xffffffffffffffffffffffffffffffffffffffff\n      and\n      dup2\n      mstore\n      0x20\n      add\n      swap1\n      dup2\n      mstore\n      0x20\n      add\n      0x00\n      keccak256\n      0x00\n        /* \"contracts/Jimp.sol\":5872:5907  isBlacklisted[accounts[i]] = status */\n      0x0100\n      exp\n      dup2\n      sload\n      dup2\n      0xff\n      mul\n      not\n      and\n      swap1\n      dup4\n      iszero\n      iszero\n      mul\n      or\n      swap1\n      sstore\n      pop\n        /* \"contracts/Jimp.sol\":5944:5952  accounts */\n      dup4\n      dup4\n        /* \"contracts/Jimp.sol\":5953:5954  i */\n      dup3\n        /* \"contracts/Jimp.sol\":5944:5955  accounts[i] */\n      dup2\n      dup2\n      lt\n      tag_226\n      jumpi\n      tag_227\n      tag_224\n      jump\t// in\n    tag_227:\n    tag_226:\n      swap1\n      pop\n      0x20\n      mul\n      add\n      0x20\n      dup2\n      add\n      swap1\n      tag_228\n      swap2\n      swap1\n      tag_56\n      jump\t// in\n    tag_228:\n        /* \"contracts/Jimp.sol\":5927:5964  BlacklistUpdated(accounts[i], status) */\n      0xffffffffffffffffffffffffffffffffffffffff\n      and\n      0x6a12b3df6cba4203bd7fd06b816789f87de8c594299aed5717ae070fac781bac\n        /* \"contracts/Jimp.sol\":5957:5963  status */\n      dup4\n        /* \"contracts/Jimp.sol\":5927:5964  BlacklistUpdated(accounts[i], status) */\n      mload(0x40)\n      tag_229\n      swap2\n      swap1\n      tag_53\n      jump\t// in\n    tag_229:\n      mload(0x40)\n      dup1\n      swap2\n      sub\n      swap1\n      log2\n        /* \"contracts/Jimp.sol\":5852:5855  i++ */\n      dup1\n      dup1\n      0x01\n      add\n      swap2\n      pop\n      pop\n        /* \"contracts/Jimp.sol\":5812:5976  for(uint256 i = 0; i < accounts.length; i++) {... */\n      jump(tag_219)\n    tag_220:\n      pop\n        /* \"contracts/Jimp.sol\":5710:5983  function batchUpdateBlacklist(address[] calldata accounts, bool status) external onlyOwner {... */\n      pop\n      pop\n      pop\n      jump\t// out\n        /* \"contracts/Jimp.sol\":5991:6264  function batchUpdateWhitelist(address[] calldata accounts, bool status) external onlyOwner {... */\n    tag_102:\n        /* \"@openzeppelin/contracts/access/Ownable.sol\":1531:1544  _checkOwner() */\n      tag_231\n        /* \"@openzeppelin/contracts/access/Ownable.sol\":1531:1542  _checkOwner */\n      tag_153\n        /* \"@openzeppelin/contracts/access/Ownable.sol\":1531:1544  _checkOwner() */\n      jump\t// in\n    tag_231:\n        /* \"contracts/Jimp.sol\":6097:6106  uint256 i */\n      0x00\n        /* \"contracts/Jimp.sol\":6109:6110  0 */\n      0x00\n        /* \"contracts/Jimp.sol\":6097:6110  uint256 i = 0 */\n      swap1\n      pop\n        /* \"contracts/Jimp.sol\":6093:6257  for(uint256 i = 0; i < accounts.length; i++) {... */\n    tag_233:\n        /* \"contracts/Jimp.sol\":6116:6124  accounts */\n      dup4\n      dup4\n        /* \"contracts/Jimp.sol\":6116:6131  accounts.length */\n      swap1\n      pop\n        /* \"contracts/Jimp.sol\":6112:6113  i */\n      dup2\n        /* \"contracts/Jimp.sol\":6112:6131  i < accounts.length */\n      lt\n        /* \"contracts/Jimp.sol\":6093:6257  for(uint256 i = 0; i < accounts.length; i++) {... */\n      iszero\n      tag_234\n      jumpi\n        /* \"contracts/Jimp.sol\":6182:6188  status */\n      dup2\n        /* \"contracts/Jimp.sol\":6153:6166  isWhitelisted */\n      0x0f\n        /* \"contracts/Jimp.sol\":6153:6179  isWhitelisted[accounts[i]] */\n      0x00\n        /* \"contracts/Jimp.sol\":6167:6175  accounts */\n      dup7\n      dup7\n        /* \"contracts/Jimp.sol\":6176:6177  i */\n      dup6\n        /* \"contracts/Jimp.sol\":6167:6178  accounts[i] */\n      dup2\n      dup2\n      lt\n      tag_236\n      jumpi\n      tag_237\n      tag_224\n      jump\t// in\n    tag_237:\n    tag_236:\n      swap1\n      pop\n      0x20\n      mul\n      add\n      0x20\n      dup2\n      add\n      swap1\n      tag_238\n      swap2\n      swap1\n      tag_56\n      jump\t// in\n    tag_238:\n        /* \"contracts/Jimp.sol\":6153:6179  isWhitelisted[accounts[i]] */\n      0xffffffffffffffffffffffffffffffffffffffff\n      and\n      0xffffffffffffffffffffffffffffffffffffffff\n      and\n      dup2\n      mstore\n      0x20\n      add\n      swap1\n      dup2\n      mstore\n      0x20\n      add\n      0x00\n      keccak256\n      0x00\n        /* \"contracts/Jimp.sol\":6153:6188  isWhitelisted[accounts[i]] = status */\n      0x0100\n      exp\n      dup2\n      sload\n      dup2\n      0xff\n      mul\n      not\n      and\n      swap1\n      dup4\n      iszero\n      iszero\n      mul\n      or\n      swap1\n      sstore\n      pop\n        /* \"contracts/Jimp.sol\":6225:6233  accounts */\n      dup4\n      dup4\n        /* \"contracts/Jimp.sol\":6234:6235  i */\n      dup3\n        /* \"contracts/Jimp.sol\":6225:6236  accounts[i] */\n      dup2\n      dup2\n      lt\n      tag_239\n      jumpi\n      tag_240\n      tag_224\n      jump\t// in\n    tag_240:\n    tag_239:\n      swap1\n      pop\n      0x20\n      mul\n      add\n      0x20\n      dup2\n      add\n      swap1\n      tag_241\n      swap2\n      swap1\n      tag_56\n      jump\t// in\n    tag_241:\n        /* \"contracts/Jimp.sol\":6208:6245  WhitelistUpdated(accounts[i], status) */\n      0xffffffffffffffffffffffffffffffffffffffff\n      and\n      0xf93f9a76c1bf3444d22400a00cb9fe990e6abe9dbb333fda48859cfee864543d\n        /* \"contracts/Jimp.sol\":6238:6244  status */\n      dup4\n        /* \"contracts/Jimp.sol\":6208:6245  WhitelistUpdated(accounts[i], status) */\n      mload(0x40)\n      tag_242\n      swap2\n      swap1\n      tag_53\n      jump\t// in\n    tag_242:\n      mload(0x40)\n      dup1\n      swap2\n      sub\n      swap1\n      log2\n        /* \"contracts/Jimp.sol\":6133:6136  i++ */\n      dup1\n      dup1\n      0x01\n      add\n      swap2\n      pop\n      pop\n        /* \"contracts/Jimp.sol\":6093:6257  for(uint256 i = 0; i < accounts.length; i++) {... */\n      jump(tag_233)\n    tag_234:\n      pop\n        /* \"contracts/Jimp.sol\":5991:6264  function batchUpdateWhitelist(address[] calldata accounts, bool status) external onlyOwner {... */\n      pop\n      pop\n      pop\n      jump\t// out\n        /* \"contracts/Jimp.sol\":1132:1163  uint256 public transferCooldown */\n    tag_104:\n      sload(0x10)\n      dup2\n      jump\t// out\n        /* \"contracts/Jimp.sol\":5399:5658  function emergencyWithdraw(address token) external onlyOwner {... */\n    tag_108:\n        /* \"@openzeppelin/contracts/access/Ownable.sol\":1531:1544  _checkOwner() */\n      tag_244\n        /* \"@openzeppelin/contracts/access/Ownable.sol\":1531:1542  _checkOwner */\n      tag_153\n        /* \"@openzeppelin/contracts/access/Ownable.sol\":1531:1544  _checkOwner() */\n      jump\t// in\n    tag_244:\n        /* \"contracts/Jimp.sol\":5496:5500  this */\n      address\n        /* \"contracts/Jimp.sol\":5479:5501  token != address(this) */\n      0xffffffffffffffffffffffffffffffffffffffff\n      and\n        /* \"contracts/Jimp.sol\":5479:5484  token */\n      dup2\n        /* \"contracts/Jimp.sol\":5479:5501  token != address(this) */\n      0xffffffffffffffffffffffffffffffffffffffff\n      and\n      sub\n        /* \"contracts/Jimp.sol\":5471:5534  require(token != address(this), \"Cannot withdraw token itself\") */\n      tag_246\n      jumpi\n      mload(0x40)\n      0x08c379a000000000000000000000000000000000000000000000000000000000\n      dup2\n      mstore\n      0x04\n      add\n      tag_247\n      swap1\n      tag_248\n      jump\t// in\n    tag_247:\n      mload(0x40)\n      dup1\n      swap2\n      sub\n      swap1\n      revert\n    tag_246:\n        /* \"contracts/Jimp.sol\":5545:5559  uint256 amount */\n      0x00\n        /* \"contracts/Jimp.sol\":5569:5574  token */\n      dup2\n        /* \"contracts/Jimp.sol\":5562:5585  IERC20(token).balanceOf */\n      0xffffffffffffffffffffffffffffffffffffffff\n      and\n      0x70a08231\n        /* \"contracts/Jimp.sol\":5594:5598  this */\n      address\n        /* \"contracts/Jimp.sol\":5562:5600  IERC20(token).balanceOf(address(this)) */\n      mload(0x40)\n      dup3\n      0xffffffff\n      and\n      0xe0\n      shl\n      dup2\n      mstore\n      0x04\n      add\n      tag_249\n      swap2\n      swap1\n      tag_118\n      jump\t// in\n    tag_249:\n      0x20\n      mload(0x40)\n      dup1\n      dup4\n      sub\n      dup2\n      dup7\n      gas\n      staticcall\n      iszero\n      dup1\n      iszero\n      tag_251\n      jumpi\n      returndatacopy(0x00, 0x00, returndatasize)\n      revert(0x00, returndatasize)\n    tag_251:\n      pop\n      pop\n      pop\n      pop\n      mload(0x40)\n      returndatasize\n      not(0x1f)\n      0x1f\n      dup3\n      add\n      and\n      dup3\n      add\n      dup1\n      0x40\n      mstore\n      pop\n      dup2\n      add\n      swap1\n      tag_252\n      swap2\n      swap1\n      tag_253\n      jump\t// in\n    tag_252:\n        /* \"contracts/Jimp.sol\":5545:5600  uint256 amount = IERC20(token).balanceOf(address(this)) */\n      swap1\n      pop\n        /* \"contracts/Jimp.sol\":5618:5623  token */\n      dup2\n        /* \"contracts/Jimp.sol\":5611:5633  IERC20(token).transfer */\n      0xffffffffffffffffffffffffffffffffffffffff\n      and\n      0xa9059cbb\n        /* \"contracts/Jimp.sol\":5634:5641  owner() */\n      tag_254\n        /* \"contracts/Jimp.sol\":5634:5639  owner */\n      tag_116\n        /* \"contracts/Jimp.sol\":5634:5641  owner() */\n      jump\t// in\n    tag_254:\n        /* \"contracts/Jimp.sol\":5643:5649  amount */\n      dup4\n        /* \"contracts/Jimp.sol\":5611:5650  IERC20(token).transfer(owner(), amount) */\n      mload(0x40)\n      dup4\n      0xffffffff\n      and\n      0xe0\n      shl\n      dup2\n      mstore\n      0x04\n      add\n      tag_255\n      swap3\n      swap2\n      swap1\n      tag_256\n      jump\t// in\n    tag_255:\n      0x20\n      mload(0x40)\n      dup1\n      dup4\n      sub\n      dup2\n      0x00\n      dup8\n      gas\n      call\n      iszero\n      dup1\n      iszero\n      tag_258\n      jumpi\n      returndatacopy(0x00, 0x00, returndatasize)\n      revert(0x00, returndatasize)\n    tag_258:\n      pop\n      pop\n      pop\n      pop\n      mload(0x40)\n      returndatasize\n      not(0x1f)\n      0x1f\n      dup3\n      add\n      and\n      dup3\n      add\n      dup1\n      0x40\n      mstore\n      pop\n      dup2\n      add\n      swap1\n      tag_259\n      swap2\n      swap1\n      tag_260\n      jump\t// in\n    tag_259:\n      pop\n        /* \"contracts/Jimp.sol\":5460:5658  {... */\n      pop\n        /* \"contracts/Jimp.sol\":5399:5658  function emergencyWithdraw(address token) external onlyOwner {... */\n      pop\n      jump\t// out\n        /* \"@openzeppelin/contracts/token/ERC20/ERC20.sol\":3004:3120  function balanceOf(address account) public view virtual returns (uint256) {... */\n    tag_111:\n        /* \"@openzeppelin/contracts/token/ERC20/ERC20.sol\":3069:3076  uint256 */\n      0x00\n        /* \"@openzeppelin/contracts/token/ERC20/ERC20.sol\":3095:3104  _balances */\n      0x00\n        /* \"@openzeppelin/contracts/token/ERC20/ERC20.sol\":3095:3113  _balances[account] */\n      0x00\n        /* \"@openzeppelin/contracts/token/ERC20/ERC20.sol\":3105:3112  account */\n      dup4\n        /* \"@openzeppelin/contracts/token/ERC20/ERC20.sol\":3095:3113  _balances[account] */\n      0xffffffffffffffffffffffffffffffffffffffff\n      and\n      0xffffffffffffffffffffffffffffffffffffffff\n      and\n      dup2\n      mstore\n      0x20\n      add\n      swap1\n      dup2\n      mstore\n      0x20\n      add\n      0x00\n      keccak256\n      sload\n        /* \"@openzeppelin/contracts/token/ERC20/ERC20.sol\":3088:3113  return _balances[account] */\n      swap1\n      pop\n        /* \"@openzeppelin/contracts/token/ERC20/ERC20.sol\":3004:3120  function balanceOf(address account) public view virtual returns (uint256) {... */\n      swap2\n      swap1\n      pop\n      jump\t// out\n        /* \"@openzeppelin/contracts/access/Ownable.sol\":2293:2394  function renounceOwnership() public virtual onlyOwner {... */\n    tag_114:\n        /* \"@openzeppelin/contracts/access/Ownable.sol\":1531:1544  _checkOwner() */\n      tag_263\n        /* \"@openzeppelin/contracts/access/Ownable.sol\":1531:1542  _checkOwner */\n      tag_153\n        /* \"@openzeppelin/contracts/access/Ownable.sol\":1531:1544  _checkOwner() */\n      jump\t// in\n    tag_263:\n        /* \"@openzeppelin/contracts/access/Ownable.sol\":2357:2387  _transferOwnership(address(0)) */\n      tag_265\n        /* \"@openzeppelin/contracts/access/Ownable.sol\":2384:2385  0 */\n      0x00\n        /* \"@openzeppelin/contracts/access/Ownable.sol\":2357:2375  _transferOwnership */\n      tag_266\n        /* \"@openzeppelin/contracts/access/Ownable.sol\":2357:2387  _transferOwnership(address(0)) */\n      jump\t// in\n    tag_265:\n        /* \"@openzeppelin/contracts/access/Ownable.sol\":2293:2394  function renounceOwnership() public virtual onlyOwner {... */\n      jump\t// out\n        /* \"@openzeppelin/contracts/access/Ownable.sol\":1638:1723  function owner() public view virtual returns (address) {... */\n    tag_116:\n        /* \"@openzeppelin/contracts/access/Ownable.sol\":1684:1691  address */\n      0x00\n        /* \"@openzeppelin/contracts/access/Ownable.sol\":1710:1716  _owner */\n      0x05\n      0x00\n      swap1\n      sload\n      swap1\n      0x0100\n      exp\n      swap1\n      div\n      0xffffffffffffffffffffffffffffffffffffffff\n      and\n        /* \"@openzeppelin/contracts/access/Ownable.sol\":1703:1716  return _owner */\n      swap1\n      pop\n        /* \"@openzeppelin/contracts/access/Ownable.sol\":1638:1723  function owner() public view virtual returns (address) {... */\n      swap1\n      jump\t// out\n        /* \"contracts/Jimp.sol\":4362:4500  function setTrading(bool _enabled) external onlyOwner {... */\n    tag_122:\n        /* \"@openzeppelin/contracts/access/Ownable.sol\":1531:1544  _checkOwner() */\n      tag_269\n        /* \"@openzeppelin/contracts/access/Ownable.sol\":1531:1542  _checkOwner */\n      tag_153\n        /* \"@openzeppelin/contracts/access/Ownable.sol\":1531:1544  _checkOwner() */\n      jump\t// in\n    tag_269:\n        /* \"contracts/Jimp.sol\":4444:4452  _enabled */\n      dup1\n        /* \"contracts/Jimp.sol\":4427:4441  tradingEnabled */\n      0x0b\n      0x00\n        /* \"contracts/Jimp.sol\":4427:4452  tradingEnabled = _enabled */\n      0x0100\n      exp\n      dup2\n      sload\n      dup2\n      0xff\n      mul\n      not\n      and\n      swap1\n      dup4\n      iszero\n      iszero\n      mul\n      or\n      swap1\n      sstore\n      pop\n        /* \"contracts/Jimp.sol\":4468:4492  TradingEnabled(_enabled) */\n      0xbeda7dca7bc1b3e80b871f4818129ec73b771581f803d553aeb3484098e5f65a\n        /* \"contracts/Jimp.sol\":4483:4491  _enabled */\n      dup2\n        /* \"contracts/Jimp.sol\":4468:4492  TradingEnabled(_enabled) */\n      mload(0x40)\n      tag_271\n      swap2\n      swap1\n      tag_53\n      jump\t// in\n    tag_271:\n      mload(0x40)\n      dup1\n      swap2\n      sub\n      swap1\n      log1\n        /* \"contracts/Jimp.sol\":4362:4500  function setTrading(bool _enabled) external onlyOwner {... */\n      pop\n      jump\t// out\n        /* \"contracts/Jimp.sol\":4508:4681  function updateBlacklist(address account, bool status) external onlyOwner {... */\n    tag_125:\n        /* \"@openzeppelin/contracts/access/Ownable.sol\":1531:1544  _checkOwner() */\n      tag_273\n        /* \"@openzeppelin/contracts/access/Ownable.sol\":1531:1542  _checkOwner */\n      tag_153\n        /* \"@openzeppelin/contracts/access/Ownable.sol\":1531:1544  _checkOwner() */\n      jump\t// in\n    tag_273:\n        /* \"contracts/Jimp.sol\":4618:4624  status */\n      dup1\n        /* \"contracts/Jimp.sol\":4593:4606  isBlacklisted */\n      0x0e\n        /* \"contracts/Jimp.sol\":4593:4615  isBlacklisted[account] */\n      0x00\n        /* \"contracts/Jimp.sol\":4607:4614  account */\n      dup5\n        /* \"contracts/Jimp.sol\":4593:4615  isBlacklisted[account] */\n      0xffffffffffffffffffffffffffffffffffffffff\n      and\n      0xffffffffffffffffffffffffffffffffffffffff\n      and\n      dup2\n      mstore\n      0x20\n      add\n      swap1\n      dup2\n      mstore\n      0x20\n      add\n      0x00\n      keccak256\n      0x00\n        /* \"contracts/Jimp.sol\":4593:4624  isBlacklisted[account] = status */\n      0x0100\n      exp\n      dup2\n      sload\n      dup2\n      0xff\n      mul\n      not\n      and\n      swap1\n      dup4\n      iszero\n      iszero\n      mul\n      or\n      swap1\n      sstore\n      pop\n        /* \"contracts/Jimp.sol\":4657:4664  account */\n      dup2\n        /* \"contracts/Jimp.sol\":4640:4673  BlacklistUpdated(account, status) */\n      0xffffffffffffffffffffffffffffffffffffffff\n      and\n      0x6a12b3df6cba4203bd7fd06b816789f87de8c594299aed5717ae070fac781bac\n        /* \"contracts/Jimp.sol\":4666:4672  status */\n      dup3\n        /* \"contracts/Jimp.sol\":4640:4673  BlacklistUpdated(account, status) */\n      mload(0x40)\n      tag_275\n      swap2\n      swap1\n      tag_53\n      jump\t// in\n    tag_275:\n      mload(0x40)\n      dup1\n      swap2\n      sub\n      swap1\n      log2\n        /* \"contracts/Jimp.sol\":4508:4681  function updateBlacklist(address account, bool status) external onlyOwner {... */\n      pop\n      pop\n      jump\t// out\n        /* \"@openzeppelin/contracts/token/ERC20/ERC20.sol\":1981:2074  function symbol() public view virtual returns (string memory) {... */\n    tag_127:\n        /* \"@openzeppelin/contracts/token/ERC20/ERC20.sol\":2028:2041  string memory */\n      0x60\n        /* \"@openzeppelin/contracts/token/ERC20/ERC20.sol\":2060:2067  _symbol */\n      0x04\n        /* \"@openzeppelin/contracts/token/ERC20/ERC20.sol\":2053:2067  return _symbol */\n      dup1\n      sload\n      tag_277\n      swap1\n      tag_159\n      jump\t// in\n    tag_277:\n      dup1\n      0x1f\n      add\n      0x20\n      dup1\n      swap2\n      div\n      mul\n      0x20\n      add\n      mload(0x40)\n      swap1\n      dup2\n      add\n      0x40\n      mstore\n      dup1\n      swap3\n      swap2\n      swap1\n      dup2\n      dup2\n      mstore\n      0x20\n      add\n      dup3\n      dup1\n      sload\n      tag_278\n      swap1\n      tag_159\n      jump\t// in\n    tag_278:\n      dup1\n      iszero\n      tag_279\n      jumpi\n      dup1\n      0x1f\n      lt\n      tag_280\n      jumpi\n      0x0100\n      dup1\n      dup4\n      sload\n      div\n      mul\n      dup4\n      mstore\n      swap2\n      0x20\n      add\n      swap2\n      jump(tag_279)\n    tag_280:\n      dup3\n      add\n      swap2\n      swap1\n      0x00\n      mstore\n      keccak256(0x00, 0x20)\n      swap1\n    tag_281:\n      dup2\n      sload\n      dup2\n      mstore\n      swap1\n      0x01\n      add\n      swap1\n      0x20\n      add\n      dup1\n      dup4\n      gt\n      tag_281\n      jumpi\n      dup3\n      swap1\n      sub\n      0x1f\n      and\n      dup3\n      add\n      swap2\n    tag_279:\n      pop\n      pop\n      pop\n      pop\n      pop\n      swap1\n      pop\n        /* \"@openzeppelin/contracts/token/ERC20/ERC20.sol\":1981:2074  function symbol() public view virtual returns (string memory) {... */\n      swap1\n      jump\t// out\n        /* \"contracts/Jimp.sol\":3490:3894  function transfer(address to, uint256 amount) ... */\n    tag_131:\n        /* \"contracts/Jimp.sol\":3667:3671  bool */\n      0x00\n        /* \"contracts/Jimp.sol\":3601:3611  msg.sender */\n      caller\n        /* \"contracts/Jimp.sol\":3613:3615  to */\n      dup4\n        /* \"contracts/Jimp.sol\":3617:3623  amount */\n      dup4\n        /* \"contracts/Jimp.sol\":2550:2563  isBlacklisted */\n      0x0e\n        /* \"contracts/Jimp.sol\":2550:2569  isBlacklisted[from] */\n      0x00\n        /* \"contracts/Jimp.sol\":2564:2568  from */\n      dup5\n        /* \"contracts/Jimp.sol\":2550:2569  isBlacklisted[from] */\n      0xffffffffffffffffffffffffffffffffffffffff\n      and\n      0xffffffffffffffffffffffffffffffffffffffff\n      and\n      dup2\n      mstore\n      0x20\n      add\n      swap1\n      dup2\n      mstore\n      0x20\n      add\n      0x00\n      keccak256\n      0x00\n      swap1\n      sload\n      swap1\n      0x0100\n      exp\n      swap1\n      div\n      0xff\n      and\n        /* \"contracts/Jimp.sol\":2549:2569  !isBlacklisted[from] */\n      iszero\n        /* \"contracts/Jimp.sol\":2549:2591  !isBlacklisted[from] && !isBlacklisted[to] */\n      dup1\n      iszero\n      tag_283\n      jumpi\n      pop\n        /* \"contracts/Jimp.sol\":2574:2587  isBlacklisted */\n      0x0e\n        /* \"contracts/Jimp.sol\":2574:2591  isBlacklisted[to] */\n      0x00\n        /* \"contracts/Jimp.sol\":2588:2590  to */\n      dup4\n        /* \"contracts/Jimp.sol\":2574:2591  isBlacklisted[to] */\n      0xffffffffffffffffffffffffffffffffffffffff\n      and\n      0xffffffffffffffffffffffffffffffffffffffff\n      and\n      dup2\n      mstore\n      0x20\n      add\n      swap1\n      dup2\n      mstore\n      0x20\n      add\n      0x00\n      keccak256\n      0x00\n      swap1\n      sload\n      swap1\n      0x0100\n      exp\n      swap1\n      div\n      0xff\n      and\n        /* \"contracts/Jimp.sol\":2573:2591  !isBlacklisted[to] */\n      iszero\n        /* \"contracts/Jimp.sol\":2549:2591  !isBlacklisted[from] && !isBlacklisted[to] */\n    tag_283:\n        /* \"contracts/Jimp.sol\":2541:2618  require(!isBlacklisted[from] && !isBlacklisted[to], \"Address is blacklisted\") */\n      tag_284\n      jumpi\n      mload(0x40)\n      0x08c379a000000000000000000000000000000000000000000000000000000000\n      dup2\n      mstore\n      0x04\n      add\n      tag_285\n      swap1\n      tag_178\n      jump\t// in\n    tag_285:\n      mload(0x40)\n      dup1\n      swap2\n      sub\n      swap1\n      revert\n    tag_284:\n        /* \"contracts/Jimp.sol\":2637:2651  tradingEnabled */\n      0x0b\n      0x00\n      swap1\n      sload\n      swap1\n      0x0100\n      exp\n      swap1\n      div\n      0xff\n      and\n        /* \"contracts/Jimp.sol\":2637:2674  tradingEnabled || isWhitelisted[from] */\n      dup1\n      tag_286\n      jumpi\n      pop\n        /* \"contracts/Jimp.sol\":2655:2668  isWhitelisted */\n      0x0f\n        /* \"contracts/Jimp.sol\":2655:2674  isWhitelisted[from] */\n      0x00\n        /* \"contracts/Jimp.sol\":2669:2673  from */\n      dup5\n        /* \"contracts/Jimp.sol\":2655:2674  isWhitelisted[from] */\n      0xffffffffffffffffffffffffffffffffffffffff\n      and\n      0xffffffffffffffffffffffffffffffffffffffff\n      and\n      dup2\n      mstore\n      0x20\n      add\n      swap1\n      dup2\n      mstore\n      0x20\n      add\n      0x00\n      keccak256\n      0x00\n      swap1\n      sload\n      swap1\n      0x0100\n      exp\n      swap1\n      div\n      0xff\n      and\n        /* \"contracts/Jimp.sol\":2637:2674  tradingEnabled || isWhitelisted[from] */\n    tag_286:\n        /* \"contracts/Jimp.sol\":2637:2695  tradingEnabled || isWhitelisted[from] || isWhitelisted[to] */\n      dup1\n      tag_287\n      jumpi\n      pop\n        /* \"contracts/Jimp.sol\":2678:2691  isWhitelisted */\n      0x0f\n        /* \"contracts/Jimp.sol\":2678:2695  isWhitelisted[to] */\n      0x00\n        /* \"contracts/Jimp.sol\":2692:2694  to */\n      dup4\n        /* \"contracts/Jimp.sol\":2678:2695  isWhitelisted[to] */\n      0xffffffffffffffffffffffffffffffffffffffff\n      and\n      0xffffffffffffffffffffffffffffffffffffffff\n      and\n      dup2\n      mstore\n      0x20\n      add\n      swap1\n      dup2\n      mstore\n      0x20\n      add\n      0x00\n      keccak256\n      0x00\n      swap1\n      sload\n      swap1\n      0x0100\n      exp\n      swap1\n      div\n      0xff\n      and\n        /* \"contracts/Jimp.sol\":2637:2695  tradingEnabled || isWhitelisted[from] || isWhitelisted[to] */\n    tag_287:\n        /* \"contracts/Jimp.sol\":2629:2719  require(tradingEnabled || isWhitelisted[from] || isWhitelisted[to], \"Trading not enabled\") */\n      tag_288\n      jumpi\n      mload(0x40)\n      0x08c379a000000000000000000000000000000000000000000000000000000000\n      dup2\n      mstore\n      0x04\n      add\n      tag_289\n      swap1\n      tag_183\n      jump\t// in\n    tag_289:\n      mload(0x40)\n      dup1\n      swap2\n      sub\n      swap1\n      revert\n    tag_288:\n        /* \"contracts/Jimp.sol\":2745:2758  isWhitelisted */\n      0x0f\n        /* \"contracts/Jimp.sol\":2745:2764  isWhitelisted[from] */\n      0x00\n        /* \"contracts/Jimp.sol\":2759:2763  from */\n      dup5\n        /* \"contracts/Jimp.sol\":2745:2764  isWhitelisted[from] */\n      0xffffffffffffffffffffffffffffffffffffffff\n      and\n      0xffffffffffffffffffffffffffffffffffffffff\n      and\n      dup2\n      mstore\n      0x20\n      add\n      swap1\n      dup2\n      mstore\n      0x20\n      add\n      0x00\n      keccak256\n      0x00\n      swap1\n      sload\n      swap1\n      0x0100\n      exp\n      swap1\n      div\n      0xff\n      and\n        /* \"contracts/Jimp.sol\":2744:2764  !isWhitelisted[from] */\n      iszero\n        /* \"contracts/Jimp.sol\":2744:2786  !isWhitelisted[from] && !isWhitelisted[to] */\n      dup1\n      iszero\n      tag_290\n      jumpi\n      pop\n        /* \"contracts/Jimp.sol\":2769:2782  isWhitelisted */\n      0x0f\n        /* \"contracts/Jimp.sol\":2769:2786  isWhitelisted[to] */\n      0x00\n        /* \"contracts/Jimp.sol\":2783:2785  to */\n      dup4\n        /* \"contracts/Jimp.sol\":2769:2786  isWhitelisted[to] */\n      0xffffffffffffffffffffffffffffffffffffffff\n      and\n      0xffffffffffffffffffffffffffffffffffffffff\n      and\n      dup2\n      mstore\n      0x20\n      add\n      swap1\n      dup2\n      mstore\n      0x20\n      add\n      0x00\n      keccak256\n      0x00\n      swap1\n      sload\n      swap1\n      0x0100\n      exp\n      swap1\n      div\n      0xff\n      and\n        /* \"contracts/Jimp.sol\":2768:2786  !isWhitelisted[to] */\n      iszero\n        /* \"contracts/Jimp.sol\":2744:2786  !isWhitelisted[from] && !isWhitelisted[to] */\n    tag_290:\n        /* \"contracts/Jimp.sol\":2740:3427  if (!isWhitelisted[from] && !isWhitelisted[to]) {... */\n      iszero\n      tag_291\n      jumpi\n        /* \"contracts/Jimp.sol\":2821:2838  maxTransferAmount */\n      sload(0x08)\n        /* \"contracts/Jimp.sol\":2811:2817  amount */\n      dup2\n        /* \"contracts/Jimp.sol\":2811:2838  amount <= maxTransferAmount */\n      gt\n      iszero\n        /* \"contracts/Jimp.sol\":2803:2870  require(amount <= maxTransferAmount, \"Transfer exceeds max amount\") */\n      tag_292\n      jumpi\n      mload(0x40)\n      0x08c379a000000000000000000000000000000000000000000000000000000000\n      dup2\n      mstore\n      0x04\n      add\n      tag_293\n      swap1\n      tag_188\n      jump\t// in\n    tag_293:\n      mload(0x40)\n      dup1\n      swap2\n      sub\n      swap1\n      revert\n    tag_292:\n        /* \"contracts/Jimp.sol\":2912:2956  lastTransferTime[from].add(transferCooldown) */\n      tag_294\n        /* \"contracts/Jimp.sol\":2939:2955  transferCooldown */\n      sload(0x10)\n        /* \"contracts/Jimp.sol\":2912:2928  lastTransferTime */\n      0x0c\n        /* \"contracts/Jimp.sol\":2912:2934  lastTransferTime[from] */\n      0x00\n        /* \"contracts/Jimp.sol\":2929:2933  from */\n      dup7\n        /* \"contracts/Jimp.sol\":2912:2934  lastTransferTime[from] */\n      0xffffffffffffffffffffffffffffffffffffffff\n      and\n      0xffffffffffffffffffffffffffffffffffffffff\n      and\n      dup2\n      mstore\n      0x20\n      add\n      swap1\n      dup2\n      mstore\n      0x20\n      add\n      0x00\n      keccak256\n      sload\n        /* \"contracts/Jimp.sol\":2912:2938  lastTransferTime[from].add */\n      tag_190\n      swap1\n        /* \"contracts/Jimp.sol\":2912:2956  lastTransferTime[from].add(transferCooldown) */\n      swap2\n      swap1\n      0xffffffff\n      and\n      jump\t// in\n    tag_294:\n        /* \"contracts/Jimp.sol\":2893:2908  block.timestamp */\n      timestamp\n        /* \"contracts/Jimp.sol\":2893:2956  block.timestamp >= lastTransferTime[from].add(transferCooldown) */\n      lt\n      iszero\n        /* \"contracts/Jimp.sol\":2885:2976  require(block.timestamp >= lastTransferTime[from].add(transferCooldown), \"Cooldown active\") */\n      tag_295\n      jumpi\n      mload(0x40)\n      0x08c379a000000000000000000000000000000000000000000000000000000000\n      dup2\n      mstore\n      0x04\n      add\n      tag_296\n      swap1\n      tag_193\n      jump\t// in\n    tag_296:\n      mload(0x40)\n      dup1\n      swap2\n      sub\n      swap1\n      revert\n    tag_295:\n        /* \"contracts/Jimp.sol\":3067:3068  0 */\n      0x00\n        /* \"contracts/Jimp.sol\":3041:3057  tokenReceiveTime */\n      0x0d\n        /* \"contracts/Jimp.sol\":3041:3063  tokenReceiveTime[from] */\n      0x00\n        /* \"contracts/Jimp.sol\":3058:3062  from */\n      dup6\n        /* \"contracts/Jimp.sol\":3041:3063  tokenReceiveTime[from] */\n      0xffffffffffffffffffffffffffffffffffffffff\n      and\n      0xffffffffffffffffffffffffffffffffffffffff\n      and\n      dup2\n      mstore\n      0x20\n      add\n      swap1\n      dup2\n      mstore\n      0x20\n      add\n      0x00\n      keccak256\n      sload\n        /* \"contracts/Jimp.sol\":3041:3068  tokenReceiveTime[from] != 0 */\n      eq\n        /* \"contracts/Jimp.sol\":3037:3193  if (tokenReceiveTime[from] != 0) {... */\n      tag_297\n      jumpi\n        /* \"contracts/Jimp.sol\":3116:3155  tokenReceiveTime[from].add(minHoldTime) */\n      tag_298\n        /* \"contracts/Jimp.sol\":3143:3154  minHoldTime */\n      sload(0x09)\n        /* \"contracts/Jimp.sol\":3116:3132  tokenReceiveTime */\n      0x0d\n        /* \"contracts/Jimp.sol\":3116:3138  tokenReceiveTime[from] */\n      0x00\n        /* \"contracts/Jimp.sol\":3133:3137  from */\n      dup7\n        /* \"contracts/Jimp.sol\":3116:3138  tokenReceiveTime[from] */\n      0xffffffffffffffffffffffffffffffffffffffff\n      and\n      0xffffffffffffffffffffffffffffffffffffffff\n      and\n      dup2\n      mstore\n      0x20\n      add\n      swap1\n      dup2\n      mstore\n      0x20\n      add\n      0x00\n      keccak256\n      sload\n        /* \"contracts/Jimp.sol\":3116:3142  tokenReceiveTime[from].add */\n      tag_190\n      swap1\n        /* \"contracts/Jimp.sol\":3116:3155  tokenReceiveTime[from].add(minHoldTime) */\n      swap2\n      swap1\n      0xffffffff\n      and\n      jump\t// in\n    tag_298:\n        /* \"contracts/Jimp.sol\":3097:3112  block.timestamp */\n      timestamp\n        /* \"contracts/Jimp.sol\":3097:3155  block.timestamp >= tokenReceiveTime[from].add(minHoldTime) */\n      lt\n      iszero\n        /* \"contracts/Jimp.sol\":3089:3177  require(block.timestamp >= tokenReceiveTime[from].add(minHoldTime), \"Hold time not met\") */\n      tag_299\n      jumpi\n      mload(0x40)\n      0x08c379a000000000000000000000000000000000000000000000000000000000\n      dup2\n      mstore\n      0x04\n      add\n      tag_300\n      swap1\n      tag_198\n      jump\t// in\n    tag_300:\n      mload(0x40)\n      dup1\n      swap2\n      sub\n      swap1\n      revert\n    tag_299:\n        /* \"contracts/Jimp.sol\":3037:3193  if (tokenReceiveTime[from] != 0) {... */\n    tag_297:\n        /* \"contracts/Jimp.sol\":3275:3299  uint256 recipientBalance */\n      0x00\n        /* \"contracts/Jimp.sol\":3302:3327  balanceOf(to).add(amount) */\n      tag_301\n        /* \"contracts/Jimp.sol\":3320:3326  amount */\n      dup3\n        /* \"contracts/Jimp.sol\":3302:3315  balanceOf(to) */\n      tag_302\n        /* \"contracts/Jimp.sol\":3312:3314  to */\n      dup6\n        /* \"contracts/Jimp.sol\":3302:3311  balanceOf */\n      tag_111\n        /* \"contracts/Jimp.sol\":3302:3315  balanceOf(to) */\n      jump\t// in\n    tag_302:\n        /* \"contracts/Jimp.sol\":3302:3319  balanceOf(to).add */\n      tag_190\n      swap1\n        /* \"contracts/Jimp.sol\":3302:3327  balanceOf(to).add(amount) */\n      swap2\n      swap1\n      0xffffffff\n      and\n      jump\t// in\n    tag_301:\n        /* \"contracts/Jimp.sol\":3275:3327  uint256 recipientBalance = balanceOf(to).add(amount) */\n      swap1\n      pop\n        /* \"contracts/Jimp.sol\":3370:3385  maxWalletAmount */\n      sload(0x0a)\n        /* \"contracts/Jimp.sol\":3350:3366  recipientBalance */\n      dup2\n        /* \"contracts/Jimp.sol\":3350:3385  recipientBalance <= maxWalletAmount */\n      gt\n      iszero\n        /* \"contracts/Jimp.sol\":3342:3415  require(recipientBalance <= maxWalletAmount, \"Exceeds max wallet amount\") */\n      tag_303\n      jumpi\n      mload(0x40)\n      0x08c379a000000000000000000000000000000000000000000000000000000000\n      dup2\n      mstore\n      0x04\n      add\n      tag_304\n      swap1\n      tag_203\n      jump\t// in\n    tag_304:\n      mload(0x40)\n      dup1\n      swap2\n      sub\n      swap1\n      revert\n    tag_303:\n        /* \"contracts/Jimp.sol\":2788:3427  {... */\n      pop\n        /* \"contracts/Jimp.sol\":2740:3427  if (!isWhitelisted[from] && !isWhitelisted[to]) {... */\n    tag_291:\n        /* \"@openzeppelin/contracts/security/ReentrancyGuard.sol\":2261:2282  _nonReentrantBefore() */\n      tag_306\n        /* \"@openzeppelin/contracts/security/ReentrancyGuard.sol\":2261:2280  _nonReentrantBefore */\n      tag_206\n        /* \"@openzeppelin/contracts/security/ReentrancyGuard.sol\":2261:2282  _nonReentrantBefore() */\n      jump\t// in\n    tag_306:\n        /* \"contracts/Jimp.sol\":3712:3713  0 */\n      0x00\n        /* \"contracts/Jimp.sol\":3698:3714  to != address(0) */\n      0xffffffffffffffffffffffffffffffffffffffff\n      and\n        /* \"contracts/Jimp.sol\":3698:3700  to */\n      dup7\n        /* \"contracts/Jimp.sol\":3698:3714  to != address(0) */\n      0xffffffffffffffffffffffffffffffffffffffff\n      and\n      sub\n        /* \"contracts/Jimp.sol\":3690:3736  require(to != address(0), \"Invalid recipient\") */\n      tag_308\n      jumpi\n      mload(0x40)\n      0x08c379a000000000000000000000000000000000000000000000000000000000\n      dup2\n      mstore\n      0x04\n      add\n      tag_309\n      swap1\n      tag_210\n      jump\t// in\n    tag_309:\n      mload(0x40)\n      dup1\n      swap2\n      sub\n      swap1\n      revert\n    tag_308:\n        /* \"contracts/Jimp.sol\":3770:3785  block.timestamp */\n      timestamp\n        /* \"contracts/Jimp.sol\":3747:3763  tokenReceiveTime */\n      0x0d\n        /* \"contracts/Jimp.sol\":3747:3767  tokenReceiveTime[to] */\n      0x00\n        /* \"contracts/Jimp.sol\":3764:3766  to */\n      dup9\n        /* \"contracts/Jimp.sol\":3747:3767  tokenReceiveTime[to] */\n      0xffffffffffffffffffffffffffffffffffffffff\n      and\n      0xffffffffffffffffffffffffffffffffffffffff\n      and\n      dup2\n      mstore\n      0x20\n      add\n      swap1\n      dup2\n      mstore\n      0x20\n      add\n      0x00\n      keccak256\n        /* \"contracts/Jimp.sol\":3747:3785  tokenReceiveTime[to] = block.timestamp */\n      dup2\n      swap1\n      sstore\n      pop\n        /* \"contracts/Jimp.sol\":3827:3842  block.timestamp */\n      timestamp\n        /* \"contracts/Jimp.sol\":3796:3812  lastTransferTime */\n      0x0c\n        /* \"contracts/Jimp.sol\":3796:3824  lastTransferTime[msg.sender] */\n      0x00\n        /* \"contracts/Jimp.sol\":3813:3823  msg.sender */\n      caller\n        /* \"contracts/Jimp.sol\":3796:3824  lastTransferTime[msg.sender] */\n      0xffffffffffffffffffffffffffffffffffffffff\n      and\n      0xffffffffffffffffffffffffffffffffffffffff\n      and\n      dup2\n      mstore\n      0x20\n      add\n      swap1\n      dup2\n      mstore\n      0x20\n      add\n      0x00\n      keccak256\n        /* \"contracts/Jimp.sol\":3796:3842  lastTransferTime[msg.sender] = block.timestamp */\n      dup2\n      swap1\n      sstore\n      pop\n        /* \"contracts/Jimp.sol\":3860:3886  super.transfer(to, amount) */\n      tag_310\n        /* \"contracts/Jimp.sol\":3875:3877  to */\n      dup7\n        /* \"contracts/Jimp.sol\":3879:3885  amount */\n      dup7\n        /* \"contracts/Jimp.sol\":3860:3874  super.transfer */\n      tag_311\n        /* \"contracts/Jimp.sol\":3860:3886  super.transfer(to, amount) */\n      jump\t// in\n    tag_310:\n        /* \"contracts/Jimp.sol\":3853:3886  return super.transfer(to, amount) */\n      swap4\n      pop\n        /* \"@openzeppelin/contracts/security/ReentrancyGuard.sol\":2303:2323  _nonReentrantAfter() */\n      tag_312\n        /* \"@openzeppelin/contracts/security/ReentrancyGuard.sol\":2303:2321  _nonReentrantAfter */\n      tag_214\n        /* \"@openzeppelin/contracts/security/ReentrancyGuard.sol\":2303:2323  _nonReentrantAfter() */\n      jump\t// in\n    tag_312:\n        /* \"contracts/Jimp.sol\":3490:3894  function transfer(address to, uint256 amount) ... */\n      pop\n      pop\n      pop\n      swap3\n      swap2\n      pop\n      pop\n      jump\t// out\n        /* \"contracts/Jimp.sol\":510:542  uint256 public maxTransferAmount */\n    tag_134:\n      sload(0x08)\n      dup2\n      jump\t// out\n        /* \"contracts/Jimp.sol\":681:711  uint256 public maxWalletAmount */\n    tag_137:\n      sload(0x0a)\n      dup2\n      jump\t// out\n        /* \"@openzeppelin/contracts/token/ERC20/ERC20.sol\":3551:3691  function allowance(address owner, address spender) public view virtual returns (uint256) {... */\n    tag_142:\n        /* \"@openzeppelin/contracts/token/ERC20/ERC20.sol\":3631:3638  uint256 */\n      0x00\n        /* \"@openzeppelin/contracts/token/ERC20/ERC20.sol\":3657:3668  _allowances */\n      0x01\n        /* \"@openzeppelin/contracts/token/ERC20/ERC20.sol\":3657:3675  _allowances[owner] */\n      0x00\n        /* \"@openzeppelin/contracts/token/ERC20/ERC20.sol\":3669:3674  owner */\n      dup5\n        /* \"@openzeppelin/contracts/token/ERC20/ERC20.sol\":3657:3675  _allowances[owner] */\n      0xffffffffffffffffffffffffffffffffffffffff\n      and\n      0xffffffffffffffffffffffffffffffffffffffff\n      and\n      dup2\n      mstore\n      0x20\n      add\n      swap1\n      dup2\n      mstore\n      0x20\n      add\n      0x00\n      keccak256\n        /* \"@openzeppelin/contracts/token/ERC20/ERC20.sol\":3657:3684  _allowances[owner][spender] */\n      0x00\n        /* \"@openzeppelin/contracts/token/ERC20/ERC20.sol\":3676:3683  spender */\n      dup4\n        /* \"@openzeppelin/contracts/token/ERC20/ERC20.sol\":3657:3684  _allowances[owner][spender] */\n      0xffffffffffffffffffffffffffffffffffffffff\n      and\n      0xffffffffffffffffffffffffffffffffffffffff\n      and\n      dup2\n      mstore\n      0x20\n      add\n      swap1\n      dup2\n      mstore\n      0x20\n      add\n      0x00\n      keccak256\n      sload\n        /* \"@openzeppelin/contracts/token/ERC20/ERC20.sol\":3650:3684  return _allowances[owner][spender] */\n      swap1\n      pop\n        /* \"@openzeppelin/contracts/token/ERC20/ERC20.sol\":3551:3691  function allowance(address owner, address spender) public view virtual returns (uint256) {... */\n      swap3\n      swap2\n      pop\n      pop\n      jump\t// out\n        /* \"@openzeppelin/contracts/access/Ownable.sol\":2543:2758  function transferOwnership(address newOwner) public virtual onlyOwner {... */\n    tag_146:\n        /* \"@openzeppelin/contracts/access/Ownable.sol\":1531:1544  _checkOwner() */\n      tag_315\n        /* \"@openzeppelin/contracts/access/Ownable.sol\":1531:1542  _checkOwner */\n      tag_153\n        /* \"@openzeppelin/contracts/access/Ownable.sol\":1531:1544  _checkOwner() */\n      jump\t// in\n    tag_315:\n        /* \"@openzeppelin/contracts/access/Ownable.sol\":2647:2648  0 */\n      0x00\n        /* \"@openzeppelin/contracts/access/Ownable.sol\":2627:2649  newOwner == address(0) */\n      0xffffffffffffffffffffffffffffffffffffffff\n      and\n        /* \"@openzeppelin/contracts/access/Ownable.sol\":2627:2635  newOwner */\n      dup2\n        /* \"@openzeppelin/contracts/access/Ownable.sol\":2627:2649  newOwner == address(0) */\n      0xffffffffffffffffffffffffffffffffffffffff\n      and\n      sub\n        /* \"@openzeppelin/contracts/access/Ownable.sol\":2623:2714  if (newOwner == address(0)) {... */\n      tag_317\n      jumpi\n        /* \"@openzeppelin/contracts/access/Ownable.sol\":2700:2701  0 */\n      0x00\n        /* \"@openzeppelin/contracts/access/Ownable.sol\":2672:2703  OwnableInvalidOwner(address(0)) */\n      mload(0x40)\n      0x1e4fbdf700000000000000000000000000000000000000000000000000000000\n      dup2\n      mstore\n      0x04\n      add\n      tag_318\n      swap2\n      swap1\n      tag_118\n      jump\t// in\n    tag_318:\n      mload(0x40)\n      dup1\n      swap2\n      sub\n      swap1\n      revert\n        /* \"@openzeppelin/contracts/access/Ownable.sol\":2623:2714  if (newOwner == address(0)) {... */\n    tag_317:\n        /* \"@openzeppelin/contracts/access/Ownable.sol\":2723:2751  _transferOwnership(newOwner) */\n      tag_319\n        /* \"@openzeppelin/contracts/access/Ownable.sol\":2742:2750  newOwner */\n      dup2\n        /* \"@openzeppelin/contracts/access/Ownable.sol\":2723:2741  _transferOwnership */\n      tag_266\n        /* \"@openzeppelin/contracts/access/Ownable.sol\":2723:2751  _transferOwnership(newOwner) */\n      jump\t// in\n    tag_319:\n        /* \"@openzeppelin/contracts/access/Ownable.sol\":2543:2758  function transferOwnership(address newOwner) public virtual onlyOwner {... */\n      pop\n      jump\t// out\n        /* \"contracts/Jimp.sol\":972:1017  mapping(address => bool) public isBlacklisted */\n    tag_149:\n      mstore(0x20, 0x0e)\n      dup1\n      0x00\n      mstore\n      keccak256(0x00, 0x40)\n      0x00\n      swap2\n      pop\n      sload\n      swap1\n      0x0100\n      exp\n      swap1\n      div\n      0xff\n      and\n      dup2\n      jump\t// out\n        /* \"@openzeppelin/contracts/access/Ownable.sol\":1796:1958  function _checkOwner() internal view virtual {... */\n    tag_153:\n        /* \"@openzeppelin/contracts/access/Ownable.sol\":1866:1878  _msgSender() */\n      tag_321\n        /* \"@openzeppelin/contracts/access/Ownable.sol\":1866:1876  _msgSender */\n      tag_166\n        /* \"@openzeppelin/contracts/access/Ownable.sol\":1866:1878  _msgSender() */\n      jump\t// in\n    tag_321:\n        /* \"@openzeppelin/contracts/access/Ownable.sol\":1855:1878  owner() != _msgSender() */\n      0xffffffffffffffffffffffffffffffffffffffff\n      and\n        /* \"@openzeppelin/contracts/access/Ownable.sol\":1855:1862  owner() */\n      tag_322\n        /* \"@openzeppelin/contracts/access/Ownable.sol\":1855:1860  owner */\n      tag_116\n        /* \"@openzeppelin/contracts/access/Ownable.sol\":1855:1862  owner() */\n      jump\t// in\n    tag_322:\n        /* \"@openzeppelin/contracts/access/Ownable.sol\":1855:1878  owner() != _msgSender() */\n      0xffffffffffffffffffffffffffffffffffffffff\n      and\n      eq\n        /* \"@openzeppelin/contracts/access/Ownable.sol\":1851:1952  if (owner() != _msgSender()) {... */\n      tag_323\n      jumpi\n        /* \"@openzeppelin/contracts/access/Ownable.sol\":1928:1940  _msgSender() */\n      tag_324\n        /* \"@openzeppelin/contracts/access/Ownable.sol\":1928:1938  _msgSender */\n      tag_166\n        /* \"@openzeppelin/contracts/access/Ownable.sol\":1928:1940  _msgSender() */\n      jump\t// in\n    tag_324:\n        /* \"@openzeppelin/contracts/access/Ownable.sol\":1901:1941  OwnableUnauthorizedAccount(_msgSender()) */\n      mload(0x40)\n      0x118cdaa700000000000000000000000000000000000000000000000000000000\n      dup2\n      mstore\n      0x04\n      add\n      tag_325\n      swap2\n      swap1\n      tag_118\n      jump\t// in\n    tag_325:\n      mload(0x40)\n      dup1\n      swap2\n      sub\n      swap1\n      revert\n        /* \"@openzeppelin/contracts/access/Ownable.sol\":1851:1952  if (owner() != _msgSender()) {... */\n    tag_323:\n        /* \"@openzeppelin/contracts/access/Ownable.sol\":1796:1958  function _checkOwner() internal view virtual {... */\n      jump\t// out\n        /* \"@openzeppelin/contracts/utils/Context.sol\":656:752  function _msgSender() internal view virtual returns (address) {... */\n    tag_166:\n        /* \"@openzeppelin/contracts/utils/Context.sol\":709:716  address */\n      0x00\n        /* \"@openzeppelin/contracts/utils/Context.sol\":735:745  msg.sender */\n      caller\n        /* \"@openzeppelin/contracts/utils/Context.sol\":728:745  return msg.sender */\n      swap1\n      pop\n        /* \"@openzeppelin/contracts/utils/Context.sol\":656:752  function _msgSender() internal view virtual returns (address) {... */\n      swap1\n      jump\t// out\n        /* \"@openzeppelin/contracts/token/ERC20/ERC20.sol\":8726:8854  function _approve(address owner, address spender, uint256 value) internal {... */\n    tag_168:\n        /* \"@openzeppelin/contracts/token/ERC20/ERC20.sol\":8810:8847  _approve(owner, spender, value, true) */\n      tag_328\n        /* \"@openzeppelin/contracts/token/ERC20/ERC20.sol\":8819:8824  owner */\n      dup4\n        /* \"@openzeppelin/contracts/token/ERC20/ERC20.sol\":8826:8833  spender */\n      dup4\n        /* \"@openzeppelin/contracts/token/ERC20/ERC20.sol\":8835:8840  value */\n      dup4\n        /* \"@openzeppelin/contracts/token/ERC20/ERC20.sol\":8842:8846  true */\n      0x01\n        /* \"@openzeppelin/contracts/token/ERC20/ERC20.sol\":8810:8818  _approve */\n      tag_329\n        /* \"@openzeppelin/contracts/token/ERC20/ERC20.sol\":8810:8847  _approve(owner, spender, value, true) */\n      jump\t// in\n    tag_328:\n        /* \"@openzeppelin/contracts/token/ERC20/ERC20.sol\":8726:8854  function _approve(address owner, address spender, uint256 value) internal {... */\n      pop\n      pop\n      pop\n      jump\t// out\n        /* \"@openzeppelin/contracts/utils/math/SafeMath.sol\":2755:2851  function add(uint256 a, uint256 b) internal pure returns (uint256) {... */\n    tag_190:\n        /* \"@openzeppelin/contracts/utils/math/SafeMath.sol\":2813:2820  uint256 */\n      0x00\n        /* \"@openzeppelin/contracts/utils/math/SafeMath.sol\":2843:2844  b */\n      dup2\n        /* \"@openzeppelin/contracts/utils/math/SafeMath.sol\":2839:2840  a */\n      dup4\n        /* \"@openzeppelin/contracts/utils/math/SafeMath.sol\":2839:2844  a + b */\n      tag_331\n      swap2\n      swap1\n      tag_332\n      jump\t// in\n    tag_331:\n        /* \"@openzeppelin/contracts/utils/math/SafeMath.sol\":2832:2844  return a + b */\n      swap1\n      pop\n        /* \"@openzeppelin/contracts/utils/math/SafeMath.sol\":2755:2851  function add(uint256 a, uint256 b) internal pure returns (uint256) {... */\n      swap3\n      swap2\n      pop\n      pop\n      jump\t// out\n        /* \"@openzeppelin/contracts/security/ReentrancyGuard.sol\":2336:2623  function _nonReentrantBefore() private {... */\n    tag_206:\n        /* \"@openzeppelin/contracts/security/ReentrancyGuard.sol\":1759:1760  2 */\n      0x02\n        /* \"@openzeppelin/contracts/security/ReentrancyGuard.sol\":2468:2475  _status */\n      sload(0x06)\n        /* \"@openzeppelin/contracts/security/ReentrancyGuard.sol\":2468:2487  _status != _ENTERED */\n      sub\n        /* \"@openzeppelin/contracts/security/ReentrancyGuard.sol\":2460:2523  require(_status != _ENTERED, \"ReentrancyGuard: reentrant call\") */\n      tag_334\n      jumpi\n      mload(0x40)\n      0x08c379a000000000000000000000000000000000000000000000000000000000\n      dup2\n      mstore\n      0x04\n      add\n      tag_335\n      swap1\n      tag_336\n      jump\t// in\n    tag_335:\n      mload(0x40)\n      dup1\n      swap2\n      sub\n      swap1\n      revert\n    tag_334:\n        /* \"@openzeppelin/contracts/security/ReentrancyGuard.sol\":1759:1760  2 */\n      0x02\n        /* \"@openzeppelin/contracts/security/ReentrancyGuard.sol\":2598:2605  _status */\n      0x06\n        /* \"@openzeppelin/contracts/security/ReentrancyGuard.sol\":2598:2616  _status = _ENTERED */\n      dup2\n      swap1\n      sstore\n      pop\n        /* \"@openzeppelin/contracts/security/ReentrancyGuard.sol\":2336:2623  function _nonReentrantBefore() private {... */\n      jump\t// out\n        /* \"@openzeppelin/contracts/token/ERC20/ERC20.sol\":4776:5020  function transferFrom(address from, address to, uint256 value) public virtual returns (bool) {... */\n    tag_212:\n        /* \"@openzeppelin/contracts/token/ERC20/ERC20.sol\":4863:4867  bool */\n      0x00\n        /* \"@openzeppelin/contracts/token/ERC20/ERC20.sol\":4879:4894  address spender */\n      0x00\n        /* \"@openzeppelin/contracts/token/ERC20/ERC20.sol\":4897:4909  _msgSender() */\n      tag_338\n        /* \"@openzeppelin/contracts/token/ERC20/ERC20.sol\":4897:4907  _msgSender */\n      tag_166\n        /* \"@openzeppelin/contracts/token/ERC20/ERC20.sol\":4897:4909  _msgSender() */\n      jump\t// in\n    tag_338:\n        /* \"@openzeppelin/contracts/token/ERC20/ERC20.sol\":4879:4909  address spender = _msgSender() */\n      swap1\n      pop\n        /* \"@openzeppelin/contracts/token/ERC20/ERC20.sol\":4919:4956  _spendAllowance(from, spender, value) */\n      tag_339\n        /* \"@openzeppelin/contracts/token/ERC20/ERC20.sol\":4935:4939  from */\n      dup6\n        /* \"@openzeppelin/contracts/token/ERC20/ERC20.sol\":4941:4948  spender */\n      dup3\n        /* \"@openzeppelin/contracts/token/ERC20/ERC20.sol\":4950:4955  value */\n      dup6\n        /* \"@openzeppelin/contracts/token/ERC20/ERC20.sol\":4919:4934  _spendAllowance */\n      tag_340\n        /* \"@openzeppelin/contracts/token/ERC20/ERC20.sol\":4919:4956  _spendAllowance(from, spender, value) */\n      jump\t// in\n    tag_339:\n        /* \"@openzeppelin/contracts/token/ERC20/ERC20.sol\":4966:4992  _transfer(from, to, value) */\n      tag_341\n        /* \"@openzeppelin/contracts/token/ERC20/ERC20.sol\":4976:4980  from */\n      dup6\n        /* \"@openzeppelin/contracts/token/ERC20/ERC20.sol\":4982:4984  to */\n      dup6\n        /* \"@openzeppelin/contracts/token/ERC20/ERC20.sol\":4986:4991  value */\n      dup6\n        /* \"@openzeppelin/contracts/token/ERC20/ERC20.sol\":4966:4975  _transfer */\n      tag_342\n        /* \"@openzeppelin/contracts/token/ERC20/ERC20.sol\":4966:4992  _transfer(from, to, value) */\n      jump\t// in\n    tag_341:\n        /* \"@openzeppelin/contracts/token/ERC20/ERC20.sol\":5009:5013  true */\n      0x01\n        /* \"@openzeppelin/contracts/token/ERC20/ERC20.sol\":5002:5013  return true */\n      swap2\n      pop\n      pop\n        /* \"@openzeppelin/contracts/token/ERC20/ERC20.sol\":4776:5020  function transferFrom(address from, address to, uint256 value) public virtual returns (bool) {... */\n      swap4\n      swap3\n      pop\n      pop\n      pop\n      jump\t// out\n        /* \"@openzeppelin/contracts/security/ReentrancyGuard.sol\":2629:2838  function _nonReentrantAfter() private {... */\n    tag_214:\n        /* \"@openzeppelin/contracts/security/ReentrancyGuard.sol\":1716:1717  1 */\n      0x01\n        /* \"@openzeppelin/contracts/security/ReentrancyGuard.sol\":2809:2816  _status */\n      0x06\n        /* \"@openzeppelin/contracts/security/ReentrancyGuard.sol\":2809:2831  _status = _NOT_ENTERED */\n      dup2\n      swap1\n      sstore\n      pop\n        /* \"@openzeppelin/contracts/security/ReentrancyGuard.sol\":2629:2838  function _nonReentrantAfter() private {... */\n      jump\t// out\n        /* \"@openzeppelin/contracts/access/Ownable.sol\":2912:3099  function _transferOwnership(address newOwner) internal virtual {... */\n    tag_266:\n        /* \"@openzeppelin/contracts/access/Ownable.sol\":2985:3001  address oldOwner */\n      0x00\n        /* \"@openzeppelin/contracts/access/Ownable.sol\":3004:3010  _owner */\n      0x05\n      0x00\n      swap1\n      sload\n      swap1\n      0x0100\n      exp\n      swap1\n      div\n      0xffffffffffffffffffffffffffffffffffffffff\n      and\n        /* \"@openzeppelin/contracts/access/Ownable.sol\":2985:3010  address oldOwner = _owner */\n      swap1\n      pop\n        /* \"@openzeppelin/contracts/access/Ownable.sol\":3029:3037  newOwner */\n      dup2\n        /* \"@openzeppelin/contracts/access/Ownable.sol\":3020:3026  _owner */\n      0x05\n      0x00\n        /* \"@openzeppelin/contracts/access/Ownable.sol\":3020:3037  _owner = newOwner */\n      0x0100\n      exp\n      dup2\n      sload\n      dup2\n      0xffffffffffffffffffffffffffffffffffffffff\n      mul\n      not\n      and\n      swap1\n      dup4\n      0xffffffffffffffffffffffffffffffffffffffff\n      and\n      mul\n      or\n      swap1\n      sstore\n      pop\n        /* \"@openzeppelin/contracts/access/Ownable.sol\":3083:3091  newOwner */\n      dup2\n        /* \"@openzeppelin/contracts/access/Ownable.sol\":3052:3092  OwnershipTransferred(oldOwner, newOwner) */\n      0xffffffffffffffffffffffffffffffffffffffff\n      and\n        /* \"@openzeppelin/contracts/access/Ownable.sol\":3073:3081  oldOwner */\n      dup2\n        /* \"@openzeppelin/contracts/access/Ownable.sol\":3052:3092  OwnershipTransferred(oldOwner, newOwner) */\n      0xffffffffffffffffffffffffffffffffffffffff\n      and\n      0x8be0079c531659141344cd1fd0a4f28419497f9722a3daafe3b4186f6b6457e0\n      mload(0x40)\n      mload(0x40)\n      dup1\n      swap2\n      sub\n      swap1\n      log3\n        /* \"@openzeppelin/contracts/access/Ownable.sol\":2975:3099  {... */\n      pop\n        /* \"@openzeppelin/contracts/access/Ownable.sol\":2912:3099  function _transferOwnership(address newOwner) internal virtual {... */\n      pop\n      jump\t// out\n        /* \"@openzeppelin/contracts/token/ERC20/ERC20.sol\":3315:3493  function transfer(address to, uint256 value) public virtual returns (bool) {... */\n    tag_311:\n        /* \"@openzeppelin/contracts/token/ERC20/ERC20.sol\":3384:3388  bool */\n      0x00\n        /* \"@openzeppelin/contracts/token/ERC20/ERC20.sol\":3400:3413  address owner */\n      0x00\n        /* \"@openzeppelin/contracts/token/ERC20/ERC20.sol\":3416:3428  _msgSender() */\n      tag_346\n        /* \"@openzeppelin/contracts/token/ERC20/ERC20.sol\":3416:3426  _msgSender */\n      tag_166\n        /* \"@openzeppelin/contracts/token/ERC20/ERC20.sol\":3416:3428  _msgSender() */\n      jump\t// in\n    tag_346:\n        /* \"@openzeppelin/contracts/token/ERC20/ERC20.sol\":3400:3428  address owner = _msgSender() */\n      swap1\n      pop\n        /* \"@openzeppelin/contracts/token/ERC20/ERC20.sol\":3438:3465  _transfer(owner, to, value) */\n      tag_347\n        /* \"@openzeppelin/contracts/token/ERC20/ERC20.sol\":3448:3453  owner */\n      dup2\n        /* \"@openzeppelin/contracts/token/ERC20/ERC20.sol\":3455:3457  to */\n      dup6\n        /* \"@openzeppelin/contracts/token/ERC20/ERC20.sol\":3459:3464  value */\n      dup6\n        /* \"@openzeppelin/contracts/token/ERC20/ERC20.sol\":3438:3447  _transfer */\n      tag_342\n        /* \"@openzeppelin/contracts/token/ERC20/ERC20.sol\":3438:3465  _transfer(owner, to, value) */\n      jump\t// in\n    tag_347:\n        /* \"@openzeppelin/contracts/token/ERC20/ERC20.sol\":3482:3486  true */\n      0x01\n        /* \"@openzeppelin/contracts/token/ERC20/ERC20.sol\":3475:3486  return true */\n      swap2\n      pop\n      pop\n        /* \"@openzeppelin/contracts/token/ERC20/ERC20.sol\":3315:3493  function transfer(address to, uint256 value) public virtual returns (bool) {... */\n      swap3\n      swap2\n      pop\n      pop\n      jump\t// out\n        /* \"@openzeppelin/contracts/token/ERC20/ERC20.sol\":9701:10133  function _approve(address owner, address spender, uint256 value, bool emitEvent) internal virtual {... */\n    tag_329:\n        /* \"@openzeppelin/contracts/token/ERC20/ERC20.sol\":9830:9831  0 */\n      0x00\n        /* \"@openzeppelin/contracts/token/ERC20/ERC20.sol\":9813:9832  owner == address(0) */\n      0xffffffffffffffffffffffffffffffffffffffff\n      and\n        /* \"@openzeppelin/contracts/token/ERC20/ERC20.sol\":9813:9818  owner */\n      dup5\n        /* \"@openzeppelin/contracts/token/ERC20/ERC20.sol\":9813:9832  owner == address(0) */\n      0xffffffffffffffffffffffffffffffffffffffff\n      and\n      sub\n        /* \"@openzeppelin/contracts/token/ERC20/ERC20.sol\":9809:9898  if (owner == address(0)) {... */\n      tag_349\n      jumpi\n        /* \"@openzeppelin/contracts/token/ERC20/ERC20.sol\":9884:9885  0 */\n      0x00\n        /* \"@openzeppelin/contracts/token/ERC20/ERC20.sol\":9855:9887  ERC20InvalidApprover(address(0)) */\n      mload(0x40)\n      0xe602df0500000000000000000000000000000000000000000000000000000000\n      dup2\n      mstore\n      0x04\n      add\n      tag_350\n      swap2\n      swap1\n      tag_118\n      jump\t// in\n    tag_350:\n      mload(0x40)\n      dup1\n      swap2\n      sub\n      swap1\n      revert\n        /* \"@openzeppelin/contracts/token/ERC20/ERC20.sol\":9809:9898  if (owner == address(0)) {... */\n    tag_349:\n        /* \"@openzeppelin/contracts/token/ERC20/ERC20.sol\":9930:9931  0 */\n      0x00\n        /* \"@openzeppelin/contracts/token/ERC20/ERC20.sol\":9911:9932  spender == address(0) */\n      0xffffffffffffffffffffffffffffffffffffffff\n      and\n        /* \"@openzeppelin/contracts/token/ERC20/ERC20.sol\":9911:9918  spender */\n      dup4\n        /* \"@openzeppelin/contracts/token/ERC20/ERC20.sol\":9911:9932  spender == address(0) */\n      0xffffffffffffffffffffffffffffffffffffffff\n      and\n      sub\n        /* \"@openzeppelin/contracts/token/ERC20/ERC20.sol\":9907:9997  if (spender == address(0)) {... */\n      tag_351\n      jumpi\n        /* \"@openzeppelin/contracts/token/ERC20/ERC20.sol\":9983:9984  0 */\n      0x00\n        /* \"@openzeppelin/contracts/token/ERC20/ERC20.sol\":9955:9986  ERC20InvalidSpender(address(0)) */\n      mload(0x40)\n      0x94280d6200000000000000000000000000000000000000000000000000000000\n      dup2\n      mstore\n      0x04\n      add\n      tag_352\n      swap2\n      swap1\n      tag_118\n      jump\t// in\n    tag_352:\n      mload(0x40)\n      dup1\n      swap2\n      sub\n      swap1\n      revert\n        /* \"@openzeppelin/contracts/token/ERC20/ERC20.sol\":9907:9997  if (spender == address(0)) {... */\n    tag_351:\n        /* \"@openzeppelin/contracts/token/ERC20/ERC20.sol\":10036:10041  value */\n      dup2\n        /* \"@openzeppelin/contracts/token/ERC20/ERC20.sol\":10006:10017  _allowances */\n      0x01\n        /* \"@openzeppelin/contracts/token/ERC20/ERC20.sol\":10006:10024  _allowances[owner] */\n      0x00\n        /* \"@openzeppelin/contracts/token/ERC20/ERC20.sol\":10018:10023  owner */\n      dup7\n        /* \"@openzeppelin/contracts/token/ERC20/ERC20.sol\":10006:10024  _allowances[owner] */\n      0xffffffffffffffffffffffffffffffffffffffff\n      and\n      0xffffffffffffffffffffffffffffffffffffffff\n      and\n      dup2\n      mstore\n      0x20\n      add\n      swap1\n      dup2\n      mstore\n      0x20\n      add\n      0x00\n      keccak256\n        /* \"@openzeppelin/contracts/token/ERC20/ERC20.sol\":10006:10033  _allowances[owner][spender] */\n      0x00\n        /* \"@openzeppelin/contracts/token/ERC20/ERC20.sol\":10025:10032  spender */\n      dup6\n        /* \"@openzeppelin/contracts/token/ERC20/ERC20.sol\":10006:10033  _allowances[owner][spender] */\n      0xffffffffffffffffffffffffffffffffffffffff\n      and\n      0xffffffffffffffffffffffffffffffffffffffff\n      and\n      dup2\n      mstore\n      0x20\n      add\n      swap1\n      dup2\n      mstore\n      0x20\n      add\n      0x00\n      keccak256\n        /* \"@openzeppelin/contracts/token/ERC20/ERC20.sol\":10006:10041  _allowances[owner][spender] = value */\n      dup2\n      swap1\n      sstore\n      pop\n        /* \"@openzeppelin/contracts/token/ERC20/ERC20.sol\":10055:10064  emitEvent */\n      dup1\n        /* \"@openzeppelin/contracts/token/ERC20/ERC20.sol\":10051:10127  if (emitEvent) {... */\n      iszero\n      tag_353\n      jumpi\n        /* \"@openzeppelin/contracts/token/ERC20/ERC20.sol\":10101:10108  spender */\n      dup3\n        /* \"@openzeppelin/contracts/token/ERC20/ERC20.sol\":10085:10116  Approval(owner, spender, value) */\n      0xffffffffffffffffffffffffffffffffffffffff\n      and\n        /* \"@openzeppelin/contracts/token/ERC20/ERC20.sol\":10094:10099  owner */\n      dup5\n        /* \"@openzeppelin/contracts/token/ERC20/ERC20.sol\":10085:10116  Approval(owner, spender, value) */\n      0xffffffffffffffffffffffffffffffffffffffff\n      and\n      0x8c5be1e5ebec7d5bd14f71427d1e84f3dd0314c0f7b2291e5b200ac8c7c3b925\n        /* \"@openzeppelin/contracts/token/ERC20/ERC20.sol\":10110:10115  value */\n      dup5\n        /* \"@openzeppelin/contracts/token/ERC20/ERC20.sol\":10085:10116  Approval(owner, spender, value) */\n      mload(0x40)\n      tag_354\n      swap2\n      swap1\n      tag_59\n      jump\t// in\n    tag_354:\n      mload(0x40)\n      dup1\n      swap2\n      sub\n      swap1\n      log3\n        /* \"@openzeppelin/contracts/token/ERC20/ERC20.sol\":10051:10127  if (emitEvent) {... */\n    tag_353:\n        /* \"@openzeppelin/contracts/token/ERC20/ERC20.sol\":9701:10133  function _approve(address owner, address spender, uint256 value, bool emitEvent) internal virtual {... */\n      pop\n      pop\n      pop\n      pop\n      jump\t// out\n        /* \"@openzeppelin/contracts/token/ERC20/ERC20.sol\":10415:10892  function _spendAllowance(address owner, address spender, uint256 value) internal virtual {... */\n    tag_340:\n        /* \"@openzeppelin/contracts/token/ERC20/ERC20.sol\":10514:10538  uint256 currentAllowance */\n      0x00\n        /* \"@openzeppelin/contracts/token/ERC20/ERC20.sol\":10541:10566  allowance(owner, spender) */\n      tag_356\n        /* \"@openzeppelin/contracts/token/ERC20/ERC20.sol\":10551:10556  owner */\n      dup5\n        /* \"@openzeppelin/contracts/token/ERC20/ERC20.sol\":10558:10565  spender */\n      dup5\n        /* \"@openzeppelin/contracts/token/ERC20/ERC20.sol\":10541:10550  allowance */\n      tag_142\n        /* \"@openzeppelin/contracts/token/ERC20/ERC20.sol\":10541:10566  allowance(owner, spender) */\n      jump\t// in\n    tag_356:\n        /* \"@openzeppelin/contracts/token/ERC20/ERC20.sol\":10514:10566  uint256 currentAllowance = allowance(owner, spender) */\n      swap1\n      pop\n        /* \"@openzeppelin/contracts/token/ERC20/ERC20.sol\":10600:10617  type(uint256).max */\n      0xffffffffffffffffffffffffffffffffffffffffffffffffffffffffffffffff\n        /* \"@openzeppelin/contracts/token/ERC20/ERC20.sol\":10580:10596  currentAllowance */\n      dup2\n        /* \"@openzeppelin/contracts/token/ERC20/ERC20.sol\":10580:10617  currentAllowance != type(uint256).max */\n      eq\n        /* \"@openzeppelin/contracts/token/ERC20/ERC20.sol\":10576:10886  if (currentAllowance != type(uint256).max) {... */\n      tag_357\n      jumpi\n        /* \"@openzeppelin/contracts/token/ERC20/ERC20.sol\":10656:10661  value */\n      dup2\n        /* \"@openzeppelin/contracts/token/ERC20/ERC20.sol\":10637:10653  currentAllowance */\n      dup2\n        /* \"@openzeppelin/contracts/token/ERC20/ERC20.sol\":10637:10661  currentAllowance < value */\n      lt\n        /* \"@openzeppelin/contracts/token/ERC20/ERC20.sol\":10633:10763  if (currentAllowance < value) {... */\n      iszero\n      tag_358\n      jumpi\n        /* \"@openzeppelin/contracts/token/ERC20/ERC20.sol\":10715:10722  spender */\n      dup3\n        /* \"@openzeppelin/contracts/token/ERC20/ERC20.sol\":10724:10740  currentAllowance */\n      dup2\n        /* \"@openzeppelin/contracts/token/ERC20/ERC20.sol\":10742:10747  value */\n      dup4\n        /* \"@openzeppelin/contracts/token/ERC20/ERC20.sol\":10688:10748  ERC20InsufficientAllowance(spender, currentAllowance, value) */\n      mload(0x40)\n      0xfb8f41b200000000000000000000000000000000000000000000000000000000\n      dup2\n      mstore\n      0x04\n      add\n      tag_359\n      swap4\n      swap3\n      swap2\n      swap1\n      tag_360\n      jump\t// in\n    tag_359:\n      mload(0x40)\n      dup1\n      swap2\n      sub\n      swap1\n      revert\n        /* \"@openzeppelin/contracts/token/ERC20/ERC20.sol\":10633:10763  if (currentAllowance < value) {... */\n    tag_358:\n        /* \"@openzeppelin/contracts/token/ERC20/ERC20.sol\":10804:10861  _approve(owner, spender, currentAllowance - value, false) */\n      tag_361\n        /* \"@openzeppelin/contracts/token/ERC20/ERC20.sol\":10813:10818  owner */\n      dup5\n        /* \"@openzeppelin/contracts/token/ERC20/ERC20.sol\":10820:10827  spender */\n      dup5\n        /* \"@openzeppelin/contracts/token/ERC20/ERC20.sol\":10848:10853  value */\n      dup5\n        /* \"@openzeppelin/contracts/token/ERC20/ERC20.sol\":10829:10845  currentAllowance */\n      dup5\n        /* \"@openzeppelin/contracts/token/ERC20/ERC20.sol\":10829:10853  currentAllowance - value */\n      sub\n        /* \"@openzeppelin/contracts/token/ERC20/ERC20.sol\":10855:10860  false */\n      0x00\n        /* \"@openzeppelin/contracts/token/ERC20/ERC20.sol\":10804:10812  _approve */\n      tag_329\n        /* \"@openzeppelin/contracts/token/ERC20/ERC20.sol\":10804:10861  _approve(owner, spender, currentAllowance - value, false) */\n      jump\t// in\n    tag_361:\n        /* \"@openzeppelin/contracts/token/ERC20/ERC20.sol\":10576:10886  if (currentAllowance != type(uint256).max) {... */\n    tag_357:\n        /* \"@openzeppelin/contracts/token/ERC20/ERC20.sol\":10504:10892  {... */\n      pop\n        /* \"@openzeppelin/contracts/token/ERC20/ERC20.sol\":10415:10892  function _spendAllowance(address owner, address spender, uint256 value) internal virtual {... */\n      pop\n      pop\n      pop\n      jump\t// out\n        /* \"@openzeppelin/contracts/token/ERC20/ERC20.sol\":5393:5693  function _transfer(address from, address to, uint256 value) internal {... */\n    tag_342:\n        /* \"@openzeppelin/contracts/token/ERC20/ERC20.sol\":5492:5493  0 */\n      0x00\n        /* \"@openzeppelin/contracts/token/ERC20/ERC20.sol\":5476:5494  from == address(0) */\n      0xffffffffffffffffffffffffffffffffffffffff\n      and\n        /* \"@openzeppelin/contracts/token/ERC20/ERC20.sol\":5476:5480  from */\n      dup4\n        /* \"@openzeppelin/contracts/token/ERC20/ERC20.sol\":5476:5494  from == address(0) */\n      0xffffffffffffffffffffffffffffffffffffffff\n      and\n      sub\n        /* \"@openzeppelin/contracts/token/ERC20/ERC20.sol\":5472:5558  if (from == address(0)) {... */\n      tag_363\n      jumpi\n        /* \"@openzeppelin/contracts/token/ERC20/ERC20.sol\":5544:5545  0 */\n      0x00\n        /* \"@openzeppelin/contracts/token/ERC20/ERC20.sol\":5517:5547  ERC20InvalidSender(address(0)) */\n      mload(0x40)\n      0x96c6fd1e00000000000000000000000000000000000000000000000000000000\n      dup2\n      mstore\n      0x04\n      add\n      tag_364\n      swap2\n      swap1\n      tag_118\n      jump\t// in\n    tag_364:\n      mload(0x40)\n      dup1\n      swap2\n      sub\n      swap1\n      revert\n        /* \"@openzeppelin/contracts/token/ERC20/ERC20.sol\":5472:5558  if (from == address(0)) {... */\n    tag_363:\n        /* \"@openzeppelin/contracts/token/ERC20/ERC20.sol\":5585:5586  0 */\n      0x00\n        /* \"@openzeppelin/contracts/token/ERC20/ERC20.sol\":5571:5587  to == address(0) */\n      0xffffffffffffffffffffffffffffffffffffffff\n      and\n        /* \"@openzeppelin/contracts/token/ERC20/ERC20.sol\":5571:5573  to */\n      dup3\n        /* \"@openzeppelin/contracts/token/ERC20/ERC20.sol\":5571:5587  to == address(0) */\n      0xffffffffffffffffffffffffffffffffffffffff\n      and\n      sub\n        /* \"@openzeppelin/contracts/token/ERC20/ERC20.sol\":5567:5653  if (to == address(0)) {... */\n      tag_365\n      jumpi\n        /* \"@openzeppelin/contracts/token/ERC20/ERC20.sol\":5639:5640  0 */\n      0x00\n        /* \"@openzeppelin/contracts/token/ERC20/ERC20.sol\":5610:5642  ERC20InvalidReceiver(address(0)) */\n      mload(0x40)\n      0xec442f0500000000000000000000000000000000000000000000000000000000\n      dup2\n      mstore\n      0x04\n      add\n      tag_366\n      swap2\n      swap1\n      tag_118\n      jump\t// in\n    tag_366:\n      mload(0x40)\n      dup1\n      swap2\n      sub\n      swap1\n      revert\n        /* \"@openzeppelin/contracts/token/ERC20/ERC20.sol\":5567:5653  if (to == address(0)) {... */\n    tag_365:\n        /* \"@openzeppelin/contracts/token/ERC20/ERC20.sol\":5662:5686  _update(from, to, value) */\n      tag_367\n        /* \"@openzeppelin/contracts/token/ERC20/ERC20.sol\":5670:5674  from */\n      dup4\n        /* \"@openzeppelin/contracts/token/ERC20/ERC20.sol\":5676:5678  to */\n      dup4\n        /* \"@openzeppelin/contracts/token/ERC20/ERC20.sol\":5680:5685  value */\n      dup4\n        /* \"@openzeppelin/contracts/token/ERC20/ERC20.sol\":5662:5669  _update */\n      tag_368\n        /* \"@openzeppelin/contracts/token/ERC20/ERC20.sol\":5662:5686  _update(from, to, value) */\n      jump\t// in\n    tag_367:\n        /* \"@openzeppelin/contracts/token/ERC20/ERC20.sol\":5393:5693  function _transfer(address from, address to, uint256 value) internal {... */\n      pop\n      pop\n      pop\n      jump\t// out\n        /* \"@openzeppelin/contracts/token/ERC20/ERC20.sol\":6008:7115  function _update(address from, address to, uint256 value) internal virtual {... */\n    tag_368:\n        /* \"@openzeppelin/contracts/token/ERC20/ERC20.sol\":6113:6114  0 */\n      0x00\n        /* \"@openzeppelin/contracts/token/ERC20/ERC20.sol\":6097:6115  from == address(0) */\n      0xffffffffffffffffffffffffffffffffffffffff\n      and\n        /* \"@openzeppelin/contracts/token/ERC20/ERC20.sol\":6097:6101  from */\n      dup4\n        /* \"@openzeppelin/contracts/token/ERC20/ERC20.sol\":6097:6115  from == address(0) */\n      0xffffffffffffffffffffffffffffffffffffffff\n      and\n      sub\n        /* \"@openzeppelin/contracts/token/ERC20/ERC20.sol\":6093:6633  if (from == address(0)) {... */\n      tag_370\n      jumpi\n        /* \"@openzeppelin/contracts/token/ERC20/ERC20.sol\":6249:6254  value */\n      dup1\n        /* \"@openzeppelin/contracts/token/ERC20/ERC20.sol\":6233:6245  _totalSupply */\n      0x02\n      0x00\n        /* \"@openzeppelin/contracts/token/ERC20/ERC20.sol\":6233:6254  _totalSupply += value */\n      dup3\n      dup3\n      sload\n      tag_371\n      swap2\n      swap1\n      tag_332\n      jump\t// in\n    tag_371:\n      swap3\n      pop\n      pop\n      dup2\n      swap1\n      sstore\n      pop\n        /* \"@openzeppelin/contracts/token/ERC20/ERC20.sol\":6093:6633  if (from == address(0)) {... */\n      jump(tag_372)\n    tag_370:\n        /* \"@openzeppelin/contracts/token/ERC20/ERC20.sol\":6285:6304  uint256 fromBalance */\n      0x00\n        /* \"@openzeppelin/contracts/token/ERC20/ERC20.sol\":6307:6316  _balances */\n      0x00\n        /* \"@openzeppelin/contracts/token/ERC20/ERC20.sol\":6307:6322  _balances[from] */\n      0x00\n        /* \"@openzeppelin/contracts/token/ERC20/ERC20.sol\":6317:6321  from */\n      dup6\n        /* \"@openzeppelin/contracts/token/ERC20/ERC20.sol\":6307:6322  _balances[from] */\n      0xffffffffffffffffffffffffffffffffffffffff\n      and\n      0xffffffffffffffffffffffffffffffffffffffff\n      and\n      dup2\n      mstore\n      0x20\n      add\n      swap1\n      dup2\n      mstore\n      0x20\n      add\n      0x00\n      keccak256\n      sload\n        /* \"@openzeppelin/contracts/token/ERC20/ERC20.sol\":6285:6322  uint256 fromBalance = _balances[from] */\n      swap1\n      pop\n        /* \"@openzeppelin/contracts/token/ERC20/ERC20.sol\":6354:6359  value */\n      dup2\n        /* \"@openzeppelin/contracts/token/ERC20/ERC20.sol\":6340:6351  fromBalance */\n      dup2\n        /* \"@openzeppelin/contracts/token/ERC20/ERC20.sol\":6340:6359  fromBalance < value */\n      lt\n        /* \"@openzeppelin/contracts/token/ERC20/ERC20.sol\":6336:6451  if (fromBalance < value) {... */\n      iszero\n      tag_373\n      jumpi\n        /* \"@openzeppelin/contracts/token/ERC20/ERC20.sol\":6411:6415  from */\n      dup4\n        /* \"@openzeppelin/contracts/token/ERC20/ERC20.sol\":6417:6428  fromBalance */\n      dup2\n        /* \"@openzeppelin/contracts/token/ERC20/ERC20.sol\":6430:6435  value */\n      dup4\n        /* \"@openzeppelin/contracts/token/ERC20/ERC20.sol\":6386:6436  ERC20InsufficientBalance(from, fromBalance, value) */\n      mload(0x40)\n      0xe450d38c00000000000000000000000000000000000000000000000000000000\n      dup2\n      mstore\n      0x04\n      add\n      tag_374\n      swap4\n      swap3\n      swap2\n      swap1\n      tag_360\n      jump\t// in\n    tag_374:\n      mload(0x40)\n      dup1\n      swap2\n      sub\n      swap1\n      revert\n        /* \"@openzeppelin/contracts/token/ERC20/ERC20.sol\":6336:6451  if (fromBalance < value) {... */\n    tag_373:\n        /* \"@openzeppelin/contracts/token/ERC20/ERC20.sol\":6603:6608  value */\n      dup2\n        /* \"@openzeppelin/contracts/token/ERC20/ERC20.sol\":6589:6600  fromBalance */\n      dup2\n        /* \"@openzeppelin/contracts/token/ERC20/ERC20.sol\":6589:6608  fromBalance - value */\n      sub\n        /* \"@openzeppelin/contracts/token/ERC20/ERC20.sol\":6571:6580  _balances */\n      0x00\n        /* \"@openzeppelin/contracts/token/ERC20/ERC20.sol\":6571:6586  _balances[from] */\n      0x00\n        /* \"@openzeppelin/contracts/token/ERC20/ERC20.sol\":6581:6585  from */\n      dup7\n        /* \"@openzeppelin/contracts/token/ERC20/ERC20.sol\":6571:6586  _balances[from] */\n      0xffffffffffffffffffffffffffffffffffffffff\n      and\n      0xffffffffffffffffffffffffffffffffffffffff\n      and\n      dup2\n      mstore\n      0x20\n      add\n      swap1\n      dup2\n      mstore\n      0x20\n      add\n      0x00\n      keccak256\n        /* \"@openzeppelin/contracts/token/ERC20/ERC20.sol\":6571:6608  _balances[from] = fromBalance - value */\n      dup2\n      swap1\n      sstore\n      pop\n        /* \"@openzeppelin/contracts/token/ERC20/ERC20.sol\":6271:6633  {... */\n      pop\n        /* \"@openzeppelin/contracts/token/ERC20/ERC20.sol\":6093:6633  if (from == address(0)) {... */\n    tag_372:\n        /* \"@openzeppelin/contracts/token/ERC20/ERC20.sol\":6661:6662  0 */\n      0x00\n        /* \"@openzeppelin/contracts/token/ERC20/ERC20.sol\":6647:6663  to == address(0) */\n      0xffffffffffffffffffffffffffffffffffffffff\n      and\n        /* \"@openzeppelin/contracts/token/ERC20/ERC20.sol\":6647:6649  to */\n      dup3\n        /* \"@openzeppelin/contracts/token/ERC20/ERC20.sol\":6647:6663  to == address(0) */\n      0xffffffffffffffffffffffffffffffffffffffff\n      and\n      sub\n        /* \"@openzeppelin/contracts/token/ERC20/ERC20.sol\":6643:7068  if (to == address(0)) {... */\n      tag_375\n      jumpi\n        /* \"@openzeppelin/contracts/token/ERC20/ERC20.sol\":6826:6831  value */\n      dup1\n        /* \"@openzeppelin/contracts/token/ERC20/ERC20.sol\":6810:6822  _totalSupply */\n      0x02\n      0x00\n        /* \"@openzeppelin/contracts/token/ERC20/ERC20.sol\":6810:6831  _totalSupply -= value */\n      dup3\n      dup3\n      sload\n      sub\n      swap3\n      pop\n      pop\n      dup2\n      swap1\n      sstore\n      pop\n        /* \"@openzeppelin/contracts/token/ERC20/ERC20.sol\":6643:7068  if (to == address(0)) {... */\n      jump(tag_376)\n    tag_375:\n        /* \"@openzeppelin/contracts/token/ERC20/ERC20.sol\":7038:7043  value */\n      dup1\n        /* \"@openzeppelin/contracts/token/ERC20/ERC20.sol\":7021:7030  _balances */\n      0x00\n        /* \"@openzeppelin/contracts/token/ERC20/ERC20.sol\":7021:7034  _balances[to] */\n      0x00\n        /* \"@openzeppelin/contracts/token/ERC20/ERC20.sol\":7031:7033  to */\n      dup5\n        /* \"@openzeppelin/contracts/token/ERC20/ERC20.sol\":7021:7034  _balances[to] */\n      0xffffffffffffffffffffffffffffffffffffffff\n      and\n      0xffffffffffffffffffffffffffffffffffffffff\n      and\n      dup2\n      mstore\n      0x20\n      add\n      swap1\n      dup2\n      mstore\n      0x20\n      add\n      0x00\n      keccak256\n      0x00\n        /* \"@openzeppelin/contracts/token/ERC20/ERC20.sol\":7021:7043  _balances[to] += value */\n      dup3\n      dup3\n      sload\n      add\n      swap3\n      pop\n      pop\n      dup2\n      swap1\n      sstore\n      pop\n        /* \"@openzeppelin/contracts/token/ERC20/ERC20.sol\":6643:7068  if (to == address(0)) {... */\n    tag_376:\n        /* \"@openzeppelin/contracts/token/ERC20/ERC20.sol\":7098:7100  to */\n      dup2\n        /* \"@openzeppelin/contracts/token/ERC20/ERC20.sol\":7083:7108  Transfer(from, to, value) */\n      0xffffffffffffffffffffffffffffffffffffffff\n      and\n        /* \"@openzeppelin/contracts/token/ERC20/ERC20.sol\":7092:7096  from */\n      dup4\n        /* \"@openzeppelin/contracts/token/ERC20/ERC20.sol\":7083:7108  Transfer(from, to, value) */\n      0xffffffffffffffffffffffffffffffffffffffff\n      and\n      0xddf252ad1be2c89b69c2b068fc378daa952ba7f163c4a11628f55a4df523b3ef\n        /* \"@openzeppelin/contracts/token/ERC20/ERC20.sol\":7102:7107  value */\n      dup4\n        /* \"@openzeppelin/contracts/token/ERC20/ERC20.sol\":7083:7108  Transfer(from, to, value) */\n      mload(0x40)\n      tag_377\n      swap2\n      swap1\n      tag_59\n      jump\t// in\n    tag_377:\n      mload(0x40)\n      dup1\n      swap2\n      sub\n      swap1\n      log3\n        /* \"@openzeppelin/contracts/token/ERC20/ERC20.sol\":6008:7115  function _update(address from, address to, uint256 value) internal virtual {... */\n      pop\n      pop\n      pop\n      jump\t// out\n        /* \"#utility.yul\":88:205   */\n    tag_379:\n        /* \"#utility.yul\":197:198   */\n      0x00\n        /* \"#utility.yul\":194:195   */\n      0x00\n        /* \"#utility.yul\":187:199   */\n      revert\n        /* \"#utility.yul\":211:328   */\n    tag_380:\n        /* \"#utility.yul\":320:321   */\n      0x00\n        /* \"#utility.yul\":317:318   */\n      0x00\n        /* \"#utility.yul\":310:322   */\n      revert\n        /* \"#utility.yul\":334:411   */\n    tag_381:\n        /* \"#utility.yul\":371:378   */\n      0x00\n        /* \"#utility.yul\":400:405   */\n      dup2\n        /* \"#utility.yul\":389:405   */\n      swap1\n      pop\n        /* \"#utility.yul\":334:411   */\n      swap2\n      swap1\n      pop\n      jump\t// out\n        /* \"#utility.yul\":417:539   */\n    tag_382:\n        /* \"#utility.yul\":490:514   */\n      tag_433\n        /* \"#utility.yul\":508:513   */\n      dup2\n        /* \"#utility.yul\":490:514   */\n      tag_381\n      jump\t// in\n    tag_433:\n        /* \"#utility.yul\":483:488   */\n      dup2\n        /* \"#utility.yul\":480:515   */\n      eq\n        /* \"#utility.yul\":470:533   */\n      tag_434\n      jumpi\n        /* \"#utility.yul\":529:530   */\n      0x00\n        /* \"#utility.yul\":526:527   */\n      0x00\n        /* \"#utility.yul\":519:531   */\n      revert\n        /* \"#utility.yul\":470:533   */\n    tag_434:\n        /* \"#utility.yul\":417:539   */\n      pop\n      jump\t// out\n        /* \"#utility.yul\":545:684   */\n    tag_383:\n        /* \"#utility.yul\":591:596   */\n      0x00\n        /* \"#utility.yul\":629:635   */\n      dup2\n        /* \"#utility.yul\":616:636   */\n      calldataload\n        /* \"#utility.yul\":607:636   */\n      swap1\n      pop\n        /* \"#utility.yul\":645:678   */\n      tag_436\n        /* \"#utility.yul\":672:677   */\n      dup2\n        /* \"#utility.yul\":645:678   */\n      tag_382\n      jump\t// in\n    tag_436:\n        /* \"#utility.yul\":545:684   */\n      swap3\n      swap2\n      pop\n      pop\n      jump\t// out\n        /* \"#utility.yul\":690:1455   */\n    tag_42:\n        /* \"#utility.yul\":776:782   */\n      0x00\n        /* \"#utility.yul\":784:790   */\n      0x00\n        /* \"#utility.yul\":792:798   */\n      0x00\n        /* \"#utility.yul\":800:806   */\n      0x00\n        /* \"#utility.yul\":849:852   */\n      0x80\n        /* \"#utility.yul\":837:846   */\n      dup6\n        /* \"#utility.yul\":828:835   */\n      dup8\n        /* \"#utility.yul\":824:847   */\n      sub\n        /* \"#utility.yul\":820:853   */\n      slt\n        /* \"#utility.yul\":817:937   */\n      iszero\n      tag_438\n      jumpi\n        /* \"#utility.yul\":856:935   */\n      tag_439\n      tag_379\n      jump\t// in\n    tag_439:\n        /* \"#utility.yul\":817:937   */\n    tag_438:\n        /* \"#utility.yul\":976:977   */\n      0x00\n        /* \"#utility.yul\":1001:1054   */\n      tag_440\n        /* \"#utility.yul\":1046:1053   */\n      dup8\n        /* \"#utility.yul\":1037:1043   */\n      dup3\n        /* \"#utility.yul\":1026:1035   */\n      dup9\n        /* \"#utility.yul\":1022:1044   */\n      add\n        /* \"#utility.yul\":1001:1054   */\n      tag_383\n      jump\t// in\n    tag_440:\n        /* \"#utility.yul\":991:1054   */\n      swap5\n      pop\n        /* \"#utility.yul\":947:1064   */\n      pop\n        /* \"#utility.yul\":1103:1105   */\n      0x20\n        /* \"#utility.yul\":1129:1182   */\n      tag_441\n        /* \"#utility.yul\":1174:1181   */\n      dup8\n        /* \"#utility.yul\":1165:1171   */\n      dup3\n        /* \"#utility.yul\":1154:1163   */\n      dup9\n        /* \"#utility.yul\":1150:1172   */\n      add\n        /* \"#utility.yul\":1129:1182   */\n      tag_383\n      jump\t// in\n    tag_441:\n        /* \"#utility.yul\":1119:1182   */\n      swap4\n      pop\n        /* \"#utility.yul\":1074:1192   */\n      pop\n        /* \"#utility.yul\":1231:1233   */\n      0x40\n        /* \"#utility.yul\":1257:1310   */\n      tag_442\n        /* \"#utility.yul\":1302:1309   */\n      dup8\n        /* \"#utility.yul\":1293:1299   */\n      dup3\n        /* \"#utility.yul\":1282:1291   */\n      dup9\n        /* \"#utility.yul\":1278:1300   */\n      add\n        /* \"#utility.yul\":1257:1310   */\n      tag_383\n      jump\t// in\n    tag_442:\n        /* \"#utility.yul\":1247:1310   */\n      swap3\n      pop\n        /* \"#utility.yul\":1202:1320   */\n      pop\n        /* \"#utility.yul\":1359:1361   */\n      0x60\n        /* \"#utility.yul\":1385:1438   */\n      tag_443\n        /* \"#utility.yul\":1430:1437   */\n      dup8\n        /* \"#utility.yul\":1421:1427   */\n      dup3\n        /* \"#utility.yul\":1410:1419   */\n      dup9\n        /* \"#utility.yul\":1406:1428   */\n      add\n        /* \"#utility.yul\":1385:1438   */\n      tag_383\n      jump\t// in\n    tag_443:\n        /* \"#utility.yul\":1375:1438   */\n      swap2\n      pop\n        /* \"#utility.yul\":1330:1448   */\n      pop\n        /* \"#utility.yul\":690:1455   */\n      swap3\n      swap6\n      swap2\n      swap5\n      pop\n      swap3\n      pop\n      jump\t// out\n        /* \"#utility.yul\":1461:1560   */\n    tag_384:\n        /* \"#utility.yul\":1513:1519   */\n      0x00\n        /* \"#utility.yul\":1547:1552   */\n      dup2\n        /* \"#utility.yul\":1541:1553   */\n      mload\n        /* \"#utility.yul\":1531:1553   */\n      swap1\n      pop\n        /* \"#utility.yul\":1461:1560   */\n      swap2\n      swap1\n      pop\n      jump\t// out\n        /* \"#utility.yul\":1566:1735   */\n    tag_385:\n        /* \"#utility.yul\":1650:1661   */\n      0x00\n        /* \"#utility.yul\":1684:1690   */\n      dup3\n        /* \"#utility.yul\":1679:1682   */\n      dup3\n        /* \"#utility.yul\":1672:1691   */\n      mstore\n        /* \"#utility.yul\":1724:1728   */\n      0x20\n        /* \"#utility.yul\":1719:1722   */\n      dup3\n        /* \"#utility.yul\":1715:1729   */\n      add\n        /* \"#utility.yul\":1700:1729   */\n      swap1\n      pop\n        /* \"#utility.yul\":1566:1735   */\n      swap3\n      swap2\n      pop\n      pop\n      jump\t// out\n        /* \"#utility.yul\":1741:1880   */\n    tag_386:\n        /* \"#utility.yul\":1830:1836   */\n      dup3\n        /* \"#utility.yul\":1825:1828   */\n      dup2\n        /* \"#utility.yul\":1820:1823   */\n      dup4\n        /* \"#utility.yul\":1814:1837   */\n      mcopy\n        /* \"#utility.yul\":1871:1872   */\n      0x00\n        /* \"#utility.yul\":1862:1868   */\n      dup4\n        /* \"#utility.yul\":1857:1860   */\n      dup4\n        /* \"#utility.yul\":1853:1869   */\n      add\n        /* \"#utility.yul\":1846:1873   */\n      mstore\n        /* \"#utility.yul\":1741:1880   */\n      pop\n      pop\n      pop\n      jump\t// out\n        /* \"#utility.yul\":1886:1988   */\n    tag_387:\n        /* \"#utility.yul\":1927:1933   */\n      0x00\n        /* \"#utility.yul\":1978:1980   */\n      0x1f\n        /* \"#utility.yul\":1974:1981   */\n      not\n        /* \"#utility.yul\":1969:1971   */\n      0x1f\n        /* \"#utility.yul\":1962:1967   */\n      dup4\n        /* \"#utility.yul\":1958:1972   */\n      add\n        /* \"#utility.yul\":1954:1982   */\n      and\n        /* \"#utility.yul\":1944:1982   */\n      swap1\n      pop\n        /* \"#utility.yul\":1886:1988   */\n      swap2\n      swap1\n      pop\n      jump\t// out\n        /* \"#utility.yul\":1994:2371   */\n    tag_388:\n        /* \"#utility.yul\":2082:2085   */\n      0x00\n        /* \"#utility.yul\":2110:2149   */\n      tag_449\n        /* \"#utility.yul\":2143:2148   */\n      dup3\n        /* \"#utility.yul\":2110:2149   */\n      tag_384\n      jump\t// in\n    tag_449:\n        /* \"#utility.yul\":2165:2236   */\n      tag_450\n        /* \"#utility.yul\":2229:2235   */\n      dup2\n        /* \"#utility.yul\":2224:2227   */\n      dup6\n        /* \"#utility.yul\":2165:2236   */\n      tag_385\n      jump\t// in\n    tag_450:\n        /* \"#utility.yul\":2158:2236   */\n      swap4\n      pop\n        /* \"#utility.yul\":2245:2310   */\n      tag_451\n        /* \"#utility.yul\":2303:2309   */\n      dup2\n        /* \"#utility.yul\":2298:2301   */\n      dup6\n        /* \"#utility.yul\":2291:2295   */\n      0x20\n        /* \"#utility.yul\":2284:2289   */\n      dup7\n        /* \"#utility.yul\":2280:2296   */\n      add\n        /* \"#utility.yul\":2245:2310   */\n      tag_386\n      jump\t// in\n    tag_451:\n        /* \"#utility.yul\":2335:2364   */\n      tag_452\n        /* \"#utility.yul\":2357:2363   */\n      dup2\n        /* \"#utility.yul\":2335:2364   */\n      tag_387\n      jump\t// in\n    tag_452:\n        /* \"#utility.yul\":2330:2333   */\n      dup5\n        /* \"#utility.yul\":2326:2365   */\n      add\n        /* \"#utility.yul\":2319:2365   */\n      swap2\n      pop\n        /* \"#utility.yul\":2086:2371   */\n      pop\n        /* \"#utility.yul\":1994:2371   */\n      swap3\n      swap2\n      pop\n      pop\n      jump\t// out\n        /* \"#utility.yul\":2377:2690   */\n    tag_47:\n        /* \"#utility.yul\":2490:2494   */\n      0x00\n        /* \"#utility.yul\":2528:2530   */\n      0x20\n        /* \"#utility.yul\":2517:2526   */\n      dup3\n        /* \"#utility.yul\":2513:2531   */\n      add\n        /* \"#utility.yul\":2505:2531   */\n      swap1\n      pop\n        /* \"#utility.yul\":2577:2586   */\n      dup2\n        /* \"#utility.yul\":2571:2575   */\n      dup2\n        /* \"#utility.yul\":2567:2587   */\n      sub\n        /* \"#utility.yul\":2563:2564   */\n      0x00\n        /* \"#utility.yul\":2552:2561   */\n      dup4\n        /* \"#utility.yul\":2548:2565   */\n      add\n        /* \"#utility.yul\":2541:2588   */\n      mstore\n        /* \"#utility.yul\":2605:2683   */\n      tag_454\n        /* \"#utility.yul\":2678:2682   */\n      dup2\n        /* \"#utility.yul\":2669:2675   */\n      dup5\n        /* \"#utility.yul\":2605:2683   */\n      tag_388\n      jump\t// in\n    tag_454:\n        /* \"#utility.yul\":2597:2683   */\n      swap1\n      pop\n        /* \"#utility.yul\":2377:2690   */\n      swap3\n      swap2\n      pop\n      pop\n      jump\t// out\n        /* \"#utility.yul\":2696:2822   */\n    tag_389:\n        /* \"#utility.yul\":2733:2740   */\n      0x00\n        /* \"#utility.yul\":2773:2815   */\n      0xffffffffffffffffffffffffffffffffffffffff\n        /* \"#utility.yul\":2766:2771   */\n      dup3\n        /* \"#utility.yul\":2762:2816   */\n      and\n        /* \"#utility.yul\":2751:2816   */\n      swap1\n      pop\n        /* \"#utility.yul\":2696:2822   */\n      swap2\n      swap1\n      pop\n      jump\t// out\n        /* \"#utility.yul\":2828:2924   */\n    tag_390:\n        /* \"#utility.yul\":2865:2872   */\n      0x00\n        /* \"#utility.yul\":2894:2918   */\n      tag_457\n        /* \"#utility.yul\":2912:2917   */\n      dup3\n        /* \"#utility.yul\":2894:2918   */\n      tag_389\n      jump\t// in\n    tag_457:\n        /* \"#utility.yul\":2883:2918   */\n      swap1\n      pop\n        /* \"#utility.yul\":2828:2924   */\n      swap2\n      swap1\n      pop\n      jump\t// out\n        /* \"#utility.yul\":2930:3052   */\n    tag_391:\n        /* \"#utility.yul\":3003:3027   */\n      tag_459\n        /* \"#utility.yul\":3021:3026   */\n      dup2\n        /* \"#utility.yul\":3003:3027   */\n      tag_390\n      jump\t// in\n    tag_459:\n        /* \"#utility.yul\":2996:3001   */\n      dup2\n        /* \"#utility.yul\":2993:3028   */\n      eq\n        /* \"#utility.yul\":2983:3046   */\n      tag_460\n      jumpi\n        /* \"#utility.yul\":3042:3043   */\n      0x00\n        /* \"#utility.yul\":3039:3040   */\n      0x00\n        /* \"#utility.yul\":3032:3044   */\n      revert\n        /* \"#utility.yul\":2983:3046   */\n    tag_460:\n        /* \"#utility.yul\":2930:3052   */\n      pop\n      jump\t// out\n        /* \"#utility.yul\":3058:3197   */\n    tag_392:\n        /* \"#utility.yul\":3104:3109   */\n      0x00\n        /* \"#utility.yul\":3142:3148   */\n      dup2\n        /* \"#utility.yul\":3129:3149   */\n      calldataload\n        /* \"#utility.yul\":3120:3149   */\n      swap1\n      pop\n        /* \"#utility.yul\":3158:3191   */\n      tag_462\n        /* \"#utility.yul\":3185:3190   */\n      dup2\n        /* \"#utility.yul\":3158:3191   */\n      tag_391\n      jump\t// in\n    tag_462:\n        /* \"#utility.yul\":3058:3197   */\n      swap3\n      swap2\n      pop\n      pop\n      jump\t// out\n        /* \"#utility.yul\":3203:3677   */\n    tag_50:\n        /* \"#utility.yul\":3271:3277   */\n      0x00\n        /* \"#utility.yul\":3279:3285   */\n      0x00\n        /* \"#utility.yul\":3328:3330   */\n      0x40\n        /* \"#utility.yul\":3316:3325   */\n      dup4\n        /* \"#utility.yul\":3307:3314   */\n      dup6\n        /* \"#utility.yul\":3303:3326   */\n      sub\n        /* \"#utility.yul\":3299:3331   */\n      slt\n        /* \"#utility.yul\":3296:3415   */\n      iszero\n      tag_464\n      jumpi\n        /* \"#utility.yul\":3334:3413   */\n      tag_465\n      tag_379\n      jump\t// in\n    tag_465:\n        /* \"#utility.yul\":3296:3415   */\n    tag_464:\n        /* \"#utility.yul\":3454:3455   */\n      0x00\n        /* \"#utility.yul\":3479:3532   */\n      tag_466\n        /* \"#utility.yul\":3524:3531   */\n      dup6\n        /* \"#utility.yul\":3515:3521   */\n      dup3\n        /* \"#utility.yul\":3504:3513   */\n      dup7\n        /* \"#utility.yul\":3500:3522   */\n      add\n        /* \"#utility.yul\":3479:3532   */\n      tag_392\n      jump\t// in\n    tag_466:\n        /* \"#utility.yul\":3469:3532   */\n      swap3\n      pop\n        /* \"#utility.yul\":3425:3542   */\n      pop\n        /* \"#utility.yul\":3581:3583   */\n      0x20\n        /* \"#utility.yul\":3607:3660   */\n      tag_467\n        /* \"#utility.yul\":3652:3659   */\n      dup6\n        /* \"#utility.yul\":3643:3649   */\n      dup3\n        /* \"#utility.yul\":3632:3641   */\n      dup7\n        /* \"#utility.yul\":3628:3650   */\n      add\n        /* \"#utility.yul\":3607:3660   */\n      tag_383\n      jump\t// in\n    tag_467:\n        /* \"#utility.yul\":3597:3660   */\n      swap2\n      pop\n        /* \"#utility.yul\":3552:3670   */\n      pop\n        /* \"#utility.yul\":3203:3677   */\n      swap3\n      pop\n      swap3\n      swap1\n      pop\n      jump\t// out\n        /* \"#utility.yul\":3683:3773   */\n    tag_393:\n        /* \"#utility.yul\":3717:3724   */\n      0x00\n        /* \"#utility.yul\":3760:3765   */\n      dup2\n        /* \"#utility.yul\":3753:3766   */\n      iszero\n        /* \"#utility.yul\":3746:3767   */\n      iszero\n        /* \"#utility.yul\":3735:3767   */\n      swap1\n      pop\n        /* \"#utility.yul\":3683:3773   */\n      swap2\n      swap1\n      pop\n      jump\t// out\n        /* \"#utility.yul\":3779:3888   */\n    tag_394:\n        /* \"#utility.yul\":3860:3881   */\n      tag_470\n        /* \"#utility.yul\":3875:3880   */\n      dup2\n        /* \"#utility.yul\":3860:3881   */\n      tag_393\n      jump\t// in\n    tag_470:\n        /* \"#utility.yul\":3855:3858   */\n      dup3\n        /* \"#utility.yul\":3848:3882   */\n      mstore\n        /* \"#utility.yul\":3779:3888   */\n      pop\n      pop\n      jump\t// out\n        /* \"#utility.yul\":3894:4104   */\n    tag_53:\n        /* \"#utility.yul\":3981:3985   */\n      0x00\n        /* \"#utility.yul\":4019:4021   */\n      0x20\n        /* \"#utility.yul\":4008:4017   */\n      dup3\n        /* \"#utility.yul\":4004:4022   */\n      add\n        /* \"#utility.yul\":3996:4022   */\n      swap1\n      pop\n        /* \"#utility.yul\":4032:4097   */\n      tag_472\n        /* \"#utility.yul\":4094:4095   */\n      0x00\n        /* \"#utility.yul\":4083:4092   */\n      dup4\n        /* \"#utility.yul\":4079:4096   */\n      add\n        /* \"#utility.yul\":4070:4076   */\n      dup5\n        /* \"#utility.yul\":4032:4097   */\n      tag_394\n      jump\t// in\n    tag_472:\n        /* \"#utility.yul\":3894:4104   */\n      swap3\n      swap2\n      pop\n      pop\n      jump\t// out\n        /* \"#utility.yul\":4110:4439   */\n    tag_56:\n        /* \"#utility.yul\":4169:4175   */\n      0x00\n        /* \"#utility.yul\":4218:4220   */\n      0x20\n        /* \"#utility.yul\":4206:4215   */\n      dup3\n        /* \"#utility.yul\":4197:4204   */\n      dup5\n        /* \"#utility.yul\":4193:4216   */\n      sub\n        /* \"#utility.yul\":4189:4221   */\n      slt\n        /* \"#utility.yul\":4186:4305   */\n      iszero\n      tag_474\n      jumpi\n        /* \"#utility.yul\":4224:4303   */\n      tag_475\n      tag_379\n      jump\t// in\n    tag_475:\n        /* \"#utility.yul\":4186:4305   */\n    tag_474:\n        /* \"#utility.yul\":4344:4345   */\n      0x00\n        /* \"#utility.yul\":4369:4422   */\n      tag_476\n        /* \"#utility.yul\":4414:4421   */\n      dup5\n        /* \"#utility.yul\":4405:4411   */\n      dup3\n        /* \"#utility.yul\":4394:4403   */\n      dup6\n        /* \"#utility.yul\":4390:4412   */\n      add\n        /* \"#utility.yul\":4369:4422   */\n      tag_392\n      jump\t// in\n    tag_476:\n        /* \"#utility.yul\":4359:4422   */\n      swap2\n      pop\n        /* \"#utility.yul\":4315:4432   */\n      pop\n        /* \"#utility.yul\":4110:4439   */\n      swap3\n      swap2\n      pop\n      pop\n      jump\t// out\n        /* \"#utility.yul\":4445:4563   */\n    tag_395:\n        /* \"#utility.yul\":4532:4556   */\n      tag_478\n        /* \"#utility.yul\":4550:4555   */\n      dup2\n        /* \"#utility.yul\":4532:4556   */\n      tag_381\n      jump\t// in\n    tag_478:\n        /* \"#utility.yul\":4527:4530   */\n      dup3\n        /* \"#utility.yul\":4520:4557   */\n      mstore\n        /* \"#utility.yul\":4445:4563   */\n      pop\n      pop\n      jump\t// out\n        /* \"#utility.yul\":4569:4791   */\n    tag_59:\n        /* \"#utility.yul\":4662:4666   */\n      0x00\n        /* \"#utility.yul\":4700:4702   */\n      0x20\n        /* \"#utility.yul\":4689:4698   */\n      dup3\n        /* \"#utility.yul\":4685:4703   */\n      add\n        /* \"#utility.yul\":4677:4703   */\n      swap1\n      pop\n        /* \"#utility.yul\":4713:4784   */\n      tag_480\n        /* \"#utility.yul\":4781:4782   */\n      0x00\n        /* \"#utility.yul\":4770:4779   */\n      dup4\n        /* \"#utility.yul\":4766:4783   */\n      add\n        /* \"#utility.yul\":4757:4763   */\n      dup5\n        /* \"#utility.yul\":4713:4784   */\n      tag_395\n      jump\t// in\n    tag_480:\n        /* \"#utility.yul\":4569:4791   */\n      swap3\n      swap2\n      pop\n      pop\n      jump\t// out\n        /* \"#utility.yul\":4797:4913   */\n    tag_396:\n        /* \"#utility.yul\":4867:4888   */\n      tag_482\n        /* \"#utility.yul\":4882:4887   */\n      dup2\n        /* \"#utility.yul\":4867:4888   */\n      tag_393\n      jump\t// in\n    tag_482:\n        /* \"#utility.yul\":4860:4865   */\n      dup2\n        /* \"#utility.yul\":4857:4889   */\n      eq\n        /* \"#utility.yul\":4847:4907   */\n      tag_483\n      jumpi\n        /* \"#utility.yul\":4903:4904   */\n      0x00\n        /* \"#utility.yul\":4900:4901   */\n      0x00\n        /* \"#utility.yul\":4893:4905   */\n      revert\n        /* \"#utility.yul\":4847:4907   */\n    tag_483:\n        /* \"#utility.yul\":4797:4913   */\n      pop\n      jump\t// out\n        /* \"#utility.yul\":4919:5052   */\n    tag_397:\n        /* \"#utility.yul\":4962:4967   */\n      0x00\n        /* \"#utility.yul\":5000:5006   */\n      dup2\n        /* \"#utility.yul\":4987:5007   */\n      calldataload\n        /* \"#utility.yul\":4978:5007   */\n      swap1\n      pop\n        /* \"#utility.yul\":5016:5046   */\n      tag_485\n        /* \"#utility.yul\":5040:5045   */\n      dup2\n        /* \"#utility.yul\":5016:5046   */\n      tag_396\n      jump\t// in\n    tag_485:\n        /* \"#utility.yul\":4919:5052   */\n      swap3\n      swap2\n      pop\n      pop\n      jump\t// out\n        /* \"#utility.yul\":5058:5526   */\n    tag_62:\n        /* \"#utility.yul\":5123:5129   */\n      0x00\n        /* \"#utility.yul\":5131:5137   */\n      0x00\n        /* \"#utility.yul\":5180:5182   */\n      0x40\n        /* \"#utility.yul\":5168:5177   */\n      dup4\n        /* \"#utility.yul\":5159:5166   */\n      dup6\n        /* \"#utility.yul\":5155:5178   */\n      sub\n        /* \"#utility.yul\":5151:5183   */\n      slt\n        /* \"#utility.yul\":5148:5267   */\n      iszero\n      tag_487\n      jumpi\n        /* \"#utility.yul\":5186:5265   */\n      tag_488\n      tag_379\n      jump\t// in\n    tag_488:\n        /* \"#utility.yul\":5148:5267   */\n    tag_487:\n        /* \"#utility.yul\":5306:5307   */\n      0x00\n        /* \"#utility.yul\":5331:5384   */\n      tag_489\n        /* \"#utility.yul\":5376:5383   */\n      dup6\n        /* \"#utility.yul\":5367:5373   */\n      dup3\n        /* \"#utility.yul\":5356:5365   */\n      dup7\n        /* \"#utility.yul\":5352:5374   */\n      add\n        /* \"#utility.yul\":5331:5384   */\n      tag_392\n      jump\t// in\n    tag_489:\n        /* \"#utility.yul\":5321:5384   */\n      swap3\n      pop\n        /* \"#utility.yul\":5277:5394   */\n      pop\n        /* \"#utility.yul\":5433:5435   */\n      0x20\n        /* \"#utility.yul\":5459:5509   */\n      tag_490\n        /* \"#utility.yul\":5501:5508   */\n      dup6\n        /* \"#utility.yul\":5492:5498   */\n      dup3\n        /* \"#utility.yul\":5481:5490   */\n      dup7\n        /* \"#utility.yul\":5477:5499   */\n      add\n        /* \"#utility.yul\":5459:5509   */\n      tag_397\n      jump\t// in\n    tag_490:\n        /* \"#utility.yul\":5449:5509   */\n      swap2\n      pop\n        /* \"#utility.yul\":5404:5519   */\n      pop\n        /* \"#utility.yul\":5058:5526   */\n      swap3\n      pop\n      swap3\n      swap1\n      pop\n      jump\t// out\n        /* \"#utility.yul\":5532:6151   */\n    tag_72:\n        /* \"#utility.yul\":5609:5615   */\n      0x00\n        /* \"#utility.yul\":5617:5623   */\n      0x00\n        /* \"#utility.yul\":5625:5631   */\n      0x00\n        /* \"#utility.yul\":5674:5676   */\n      0x60\n        /* \"#utility.yul\":5662:5671   */\n      dup5\n        /* \"#utility.yul\":5653:5660   */\n      dup7\n        /* \"#utility.yul\":5649:5672   */\n      sub\n        /* \"#utility.yul\":5645:5677   */\n      slt\n        /* \"#utility.yul\":5642:5761   */\n      iszero\n      tag_492\n      jumpi\n        /* \"#utility.yul\":5680:5759   */\n      tag_493\n      tag_379\n      jump\t// in\n    tag_493:\n        /* \"#utility.yul\":5642:5761   */\n    tag_492:\n        /* \"#utility.yul\":5800:5801   */\n      0x00\n        /* \"#utility.yul\":5825:5878   */\n      tag_494\n        /* \"#utility.yul\":5870:5877   */\n      dup7\n        /* \"#utility.yul\":5861:5867   */\n      dup3\n        /* \"#utility.yul\":5850:5859   */\n      dup8\n        /* \"#utility.yul\":5846:5868   */\n      add\n        /* \"#utility.yul\":5825:5878   */\n      tag_392\n      jump\t// in\n    tag_494:\n        /* \"#utility.yul\":5815:5878   */\n      swap4\n      pop\n        /* \"#utility.yul\":5771:5888   */\n      pop\n        /* \"#utility.yul\":5927:5929   */\n      0x20\n        /* \"#utility.yul\":5953:6006   */\n      tag_495\n        /* \"#utility.yul\":5998:6005   */\n      dup7\n        /* \"#utility.yul\":5989:5995   */\n      dup3\n        /* \"#utility.yul\":5978:5987   */\n      dup8\n        /* \"#utility.yul\":5974:5996   */\n      add\n        /* \"#utility.yul\":5953:6006   */\n      tag_392\n      jump\t// in\n    tag_495:\n        /* \"#utility.yul\":5943:6006   */\n      swap3\n      pop\n        /* \"#utility.yul\":5898:6016   */\n      pop\n        /* \"#utility.yul\":6055:6057   */\n      0x40\n        /* \"#utility.yul\":6081:6134   */\n      tag_496\n        /* \"#utility.yul\":6126:6133   */\n      dup7\n        /* \"#utility.yul\":6117:6123   */\n      dup3\n        /* \"#utility.yul\":6106:6115   */\n      dup8\n        /* \"#utility.yul\":6102:6124   */\n      add\n        /* \"#utility.yul\":6081:6134   */\n      tag_383\n      jump\t// in\n    tag_496:\n        /* \"#utility.yul\":6071:6134   */\n      swap2\n      pop\n        /* \"#utility.yul\":6026:6144   */\n      pop\n        /* \"#utility.yul\":5532:6151   */\n      swap3\n      pop\n      swap3\n      pop\n      swap3\n      jump\t// out\n        /* \"#utility.yul\":6157:6243   */\n    tag_398:\n        /* \"#utility.yul\":6192:6199   */\n      0x00\n        /* \"#utility.yul\":6232:6236   */\n      0xff\n        /* \"#utility.yul\":6225:6230   */\n      dup3\n        /* \"#utility.yul\":6221:6237   */\n      and\n        /* \"#utility.yul\":6210:6237   */\n      swap1\n      pop\n        /* \"#utility.yul\":6157:6243   */\n      swap2\n      swap1\n      pop\n      jump\t// out\n        /* \"#utility.yul\":6249:6361   */\n    tag_399:\n        /* \"#utility.yul\":6332:6354   */\n      tag_499\n        /* \"#utility.yul\":6348:6353   */\n      dup2\n        /* \"#utility.yul\":6332:6354   */\n      tag_398\n      jump\t// in\n    tag_499:\n        /* \"#utility.yul\":6327:6330   */\n      dup3\n        /* \"#utility.yul\":6320:6355   */\n      mstore\n        /* \"#utility.yul\":6249:6361   */\n      pop\n      pop\n      jump\t// out\n        /* \"#utility.yul\":6367:6581   */\n    tag_82:\n        /* \"#utility.yul\":6456:6460   */\n      0x00\n        /* \"#utility.yul\":6494:6496   */\n      0x20\n        /* \"#utility.yul\":6483:6492   */\n      dup3\n        /* \"#utility.yul\":6479:6497   */\n      add\n        /* \"#utility.yul\":6471:6497   */\n      swap1\n      pop\n        /* \"#utility.yul\":6507:6574   */\n      tag_501\n        /* \"#utility.yul\":6571:6572   */\n      0x00\n        /* \"#utility.yul\":6560:6569   */\n      dup4\n        /* \"#utility.yul\":6556:6573   */\n      add\n        /* \"#utility.yul\":6547:6553   */\n      dup5\n        /* \"#utility.yul\":6507:6574   */\n      tag_399\n      jump\t// in\n    tag_501:\n        /* \"#utility.yul\":6367:6581   */\n      swap3\n      swap2\n      pop\n      pop\n      jump\t// out\n        /* \"#utility.yul\":6587:6704   */\n    tag_400:\n        /* \"#utility.yul\":6696:6697   */\n      0x00\n        /* \"#utility.yul\":6693:6694   */\n      0x00\n        /* \"#utility.yul\":6686:6698   */\n      revert\n        /* \"#utility.yul\":6710:6827   */\n    tag_401:\n        /* \"#utility.yul\":6819:6820   */\n      0x00\n        /* \"#utility.yul\":6816:6817   */\n      0x00\n        /* \"#utility.yul\":6809:6821   */\n      revert\n        /* \"#utility.yul\":6833:6950   */\n    tag_402:\n        /* \"#utility.yul\":6942:6943   */\n      0x00\n        /* \"#utility.yul\":6939:6940   */\n      0x00\n        /* \"#utility.yul\":6932:6944   */\n      revert\n        /* \"#utility.yul\":6973:7541   */\n    tag_403:\n        /* \"#utility.yul\":7046:7054   */\n      0x00\n        /* \"#utility.yul\":7056:7062   */\n      0x00\n        /* \"#utility.yul\":7106:7109   */\n      dup4\n        /* \"#utility.yul\":7099:7103   */\n      0x1f\n        /* \"#utility.yul\":7091:7097   */\n      dup5\n        /* \"#utility.yul\":7087:7104   */\n      add\n        /* \"#utility.yul\":7083:7110   */\n      slt\n        /* \"#utility.yul\":7073:7195   */\n      tag_506\n      jumpi\n        /* \"#utility.yul\":7114:7193   */\n      tag_507\n      tag_400\n      jump\t// in\n    tag_507:\n        /* \"#utility.yul\":7073:7195   */\n    tag_506:\n        /* \"#utility.yul\":7227:7233   */\n      dup3\n        /* \"#utility.yul\":7214:7234   */\n      calldataload\n        /* \"#utility.yul\":7204:7234   */\n      swap1\n      pop\n        /* \"#utility.yul\":7257:7275   */\n      0xffffffffffffffff\n        /* \"#utility.yul\":7249:7255   */\n      dup2\n        /* \"#utility.yul\":7246:7276   */\n      gt\n        /* \"#utility.yul\":7243:7360   */\n      iszero\n      tag_508\n      jumpi\n        /* \"#utility.yul\":7279:7358   */\n      tag_509\n      tag_401\n      jump\t// in\n    tag_509:\n        /* \"#utility.yul\":7243:7360   */\n    tag_508:\n        /* \"#utility.yul\":7393:7397   */\n      0x20\n        /* \"#utility.yul\":7385:7391   */\n      dup4\n        /* \"#utility.yul\":7381:7398   */\n      add\n        /* \"#utility.yul\":7369:7398   */\n      swap2\n      pop\n        /* \"#utility.yul\":7447:7450   */\n      dup4\n        /* \"#utility.yul\":7439:7443   */\n      0x20\n        /* \"#utility.yul\":7431:7437   */\n      dup3\n        /* \"#utility.yul\":7427:7444   */\n      mul\n        /* \"#utility.yul\":7417:7425   */\n      dup4\n        /* \"#utility.yul\":7413:7445   */\n      add\n        /* \"#utility.yul\":7410:7451   */\n      gt\n        /* \"#utility.yul\":7407:7535   */\n      iszero\n      tag_510\n      jumpi\n        /* \"#utility.yul\":7454:7533   */\n      tag_511\n      tag_402\n      jump\t// in\n    tag_511:\n        /* \"#utility.yul\":7407:7535   */\n    tag_510:\n        /* \"#utility.yul\":6973:7541   */\n      swap3\n      pop\n      swap3\n      swap1\n      pop\n      jump\t// out\n        /* \"#utility.yul\":7547:8245   */\n    tag_98:\n        /* \"#utility.yul\":7639:7645   */\n      0x00\n        /* \"#utility.yul\":7647:7653   */\n      0x00\n        /* \"#utility.yul\":7655:7661   */\n      0x00\n        /* \"#utility.yul\":7704:7706   */\n      0x40\n        /* \"#utility.yul\":7692:7701   */\n      dup5\n        /* \"#utility.yul\":7683:7690   */\n      dup7\n        /* \"#utility.yul\":7679:7702   */\n      sub\n        /* \"#utility.yul\":7675:7707   */\n      slt\n        /* \"#utility.yul\":7672:7791   */\n      iszero\n      tag_513\n      jumpi\n        /* \"#utility.yul\":7710:7789   */\n      tag_514\n      tag_379\n      jump\t// in\n    tag_514:\n        /* \"#utility.yul\":7672:7791   */\n    tag_513:\n        /* \"#utility.yul\":7858:7859   */\n      0x00\n        /* \"#utility.yul\":7847:7856   */\n      dup5\n        /* \"#utility.yul\":7843:7860   */\n      add\n        /* \"#utility.yul\":7830:7861   */\n      calldataload\n        /* \"#utility.yul\":7888:7906   */\n      0xffffffffffffffff\n        /* \"#utility.yul\":7880:7886   */\n      dup2\n        /* \"#utility.yul\":7877:7907   */\n      gt\n        /* \"#utility.yul\":7874:7991   */\n      iszero\n      tag_515\n      jumpi\n        /* \"#utility.yul\":7910:7989   */\n      tag_516\n      tag_380\n      jump\t// in\n    tag_516:\n        /* \"#utility.yul\":7874:7991   */\n    tag_515:\n        /* \"#utility.yul\":8023:8103   */\n      tag_517\n        /* \"#utility.yul\":8095:8102   */\n      dup7\n        /* \"#utility.yul\":8086:8092   */\n      dup3\n        /* \"#utility.yul\":8075:8084   */\n      dup8\n        /* \"#utility.yul\":8071:8093   */\n      add\n        /* \"#utility.yul\":8023:8103   */\n      tag_403\n      jump\t// in\n    tag_517:\n        /* \"#utility.yul\":8005:8103   */\n      swap4\n      pop\n      swap4\n      pop\n        /* \"#utility.yul\":7801:8113   */\n      pop\n        /* \"#utility.yul\":8152:8154   */\n      0x20\n        /* \"#utility.yul\":8178:8228   */\n      tag_518\n        /* \"#utility.yul\":8220:8227   */\n      dup7\n        /* \"#utility.yul\":8211:8217   */\n      dup3\n        /* \"#utility.yul\":8200:8209   */\n      dup8\n        /* \"#utility.yul\":8196:8218   */\n      add\n        /* \"#utility.yul\":8178:8228   */\n      tag_397\n      jump\t// in\n    tag_518:\n        /* \"#utility.yul\":8168:8228   */\n      swap2\n      pop\n        /* \"#utility.yul\":8123:8238   */\n      pop\n        /* \"#utility.yul\":7547:8245   */\n      swap3\n      pop\n      swap3\n      pop\n      swap3\n      jump\t// out\n        /* \"#utility.yul\":8251:8369   */\n    tag_404:\n        /* \"#utility.yul\":8338:8362   */\n      tag_520\n        /* \"#utility.yul\":8356:8361   */\n      dup2\n        /* \"#utility.yul\":8338:8362   */\n      tag_390\n      jump\t// in\n    tag_520:\n        /* \"#utility.yul\":8333:8336   */\n      dup3\n        /* \"#utility.yul\":8326:8363   */\n      mstore\n        /* \"#utility.yul\":8251:8369   */\n      pop\n      pop\n      jump\t// out\n        /* \"#utility.yul\":8375:8597   */\n    tag_118:\n        /* \"#utility.yul\":8468:8472   */\n      0x00\n        /* \"#utility.yul\":8506:8508   */\n      0x20\n        /* \"#utility.yul\":8495:8504   */\n      dup3\n        /* \"#utility.yul\":8491:8509   */\n      add\n        /* \"#utility.yul\":8483:8509   */\n      swap1\n      pop\n        /* \"#utility.yul\":8519:8590   */\n      tag_522\n        /* \"#utility.yul\":8587:8588   */\n      0x00\n        /* \"#utility.yul\":8576:8585   */\n      dup4\n        /* \"#utility.yul\":8572:8589   */\n      add\n        /* \"#utility.yul\":8563:8569   */\n      dup5\n        /* \"#utility.yul\":8519:8590   */\n      tag_404\n      jump\t// in\n    tag_522:\n        /* \"#utility.yul\":8375:8597   */\n      swap3\n      swap2\n      pop\n      pop\n      jump\t// out\n        /* \"#utility.yul\":8603:8926   */\n    tag_121:\n        /* \"#utility.yul\":8659:8665   */\n      0x00\n        /* \"#utility.yul\":8708:8710   */\n      0x20\n        /* \"#utility.yul\":8696:8705   */\n      dup3\n        /* \"#utility.yul\":8687:8694   */\n      dup5\n        /* \"#utility.yul\":8683:8706   */\n      sub\n        /* \"#utility.yul\":8679:8711   */\n      slt\n        /* \"#utility.yul\":8676:8795   */\n      iszero\n      tag_524\n      jumpi\n        /* \"#utility.yul\":8714:8793   */\n      tag_525\n      tag_379\n      jump\t// in\n    tag_525:\n        /* \"#utility.yul\":8676:8795   */\n    tag_524:\n        /* \"#utility.yul\":8834:8835   */\n      0x00\n        /* \"#utility.yul\":8859:8909   */\n      tag_526\n        /* \"#utility.yul\":8901:8908   */\n      dup5\n        /* \"#utility.yul\":8892:8898   */\n      dup3\n        /* \"#utility.yul\":8881:8890   */\n      dup6\n        /* \"#utility.yul\":8877:8899   */\n      add\n        /* \"#utility.yul\":8859:8909   */\n      tag_397\n      jump\t// in\n    tag_526:\n        /* \"#utility.yul\":8849:8909   */\n      swap2\n      pop\n        /* \"#utility.yul\":8805:8919   */\n      pop\n        /* \"#utility.yul\":8603:8926   */\n      swap3\n      swap2\n      pop\n      pop\n      jump\t// out\n        /* \"#utility.yul\":8932:9406   */\n    tag_141:\n        /* \"#utility.yul\":9000:9006   */\n      0x00\n        /* \"#utility.yul\":9008:9014   */\n      0x00\n        /* \"#utility.yul\":9057:9059   */\n      0x40\n        /* \"#utility.yul\":9045:9054   */\n      dup4\n        /* \"#utility.yul\":9036:9043   */\n      dup6\n        /* \"#utility.yul\":9032:9055   */\n      sub\n        /* \"#utility.yul\":9028:9060   */\n      slt\n        /* \"#utility.yul\":9025:9144   */\n      iszero\n      tag_528\n      jumpi\n        /* \"#utility.yul\":9063:9142   */\n      tag_529\n      tag_379\n      jump\t// in\n    tag_529:\n        /* \"#utility.yul\":9025:9144   */\n    tag_528:\n        /* \"#utility.yul\":9183:9184   */\n      0x00\n        /* \"#utility.yul\":9208:9261   */\n      tag_530\n        /* \"#utility.yul\":9253:9260   */\n      dup6\n        /* \"#utility.yul\":9244:9250   */\n      dup3\n        /* \"#utility.yul\":9233:9242   */\n      dup7\n        /* \"#utility.yul\":9229:9251   */\n      add\n        /* \"#utility.yul\":9208:9261   */\n      tag_392\n      jump\t// in\n    tag_530:\n        /* \"#utility.yul\":9198:9261   */\n      swap3\n      pop\n        /* \"#utility.yul\":9154:9271   */\n      pop\n        /* \"#utility.yul\":9310:9312   */\n      0x20\n        /* \"#utility.yul\":9336:9389   */\n      tag_531\n        /* \"#utility.yul\":9381:9388   */\n      dup6\n        /* \"#utility.yul\":9372:9378   */\n      dup3\n        /* \"#utility.yul\":9361:9370   */\n      dup7\n        /* \"#utility.yul\":9357:9379   */\n      add\n        /* \"#utility.yul\":9336:9389   */\n      tag_392\n      jump\t// in\n    tag_531:\n        /* \"#utility.yul\":9326:9389   */\n      swap2\n      pop\n        /* \"#utility.yul\":9281:9399   */\n      pop\n        /* \"#utility.yul\":8932:9406   */\n      swap3\n      pop\n      swap3\n      swap1\n      pop\n      jump\t// out\n        /* \"#utility.yul\":9412:9965   */\n    tag_156:\n        /* \"#utility.yul\":9589:9593   */\n      0x00\n        /* \"#utility.yul\":9627:9630   */\n      0x80\n        /* \"#utility.yul\":9616:9625   */\n      dup3\n        /* \"#utility.yul\":9612:9631   */\n      add\n        /* \"#utility.yul\":9604:9631   */\n      swap1\n      pop\n        /* \"#utility.yul\":9641:9712   */\n      tag_533\n        /* \"#utility.yul\":9709:9710   */\n      0x00\n        /* \"#utility.yul\":9698:9707   */\n      dup4\n        /* \"#utility.yul\":9694:9711   */\n      add\n        /* \"#utility.yul\":9685:9691   */\n      dup8\n        /* \"#utility.yul\":9641:9712   */\n      tag_395\n      jump\t// in\n    tag_533:\n        /* \"#utility.yul\":9722:9794   */\n      tag_534\n        /* \"#utility.yul\":9790:9792   */\n      0x20\n        /* \"#utility.yul\":9779:9788   */\n      dup4\n        /* \"#utility.yul\":9775:9793   */\n      add\n        /* \"#utility.yul\":9766:9772   */\n      dup7\n        /* \"#utility.yul\":9722:9794   */\n      tag_395\n      jump\t// in\n    tag_534:\n        /* \"#utility.yul\":9804:9876   */\n      tag_535\n        /* \"#utility.yul\":9872:9874   */\n      0x40\n        /* \"#utility.yul\":9861:9870   */\n      dup4\n        /* \"#utility.yul\":9857:9875   */\n      add\n        /* \"#utility.yul\":9848:9854   */\n      dup6\n        /* \"#utility.yul\":9804:9876   */\n      tag_395\n      jump\t// in\n    tag_535:\n        /* \"#utility.yul\":9886:9958   */\n      tag_536\n        /* \"#utility.yul\":9954:9956   */\n      0x60\n        /* \"#utility.yul\":9943:9952   */\n      dup4\n        /* \"#utility.yul\":9939:9957   */\n      add\n        /* \"#utility.yul\":9930:9936   */\n      dup5\n        /* \"#utility.yul\":9886:9958   */\n      tag_395\n      jump\t// in\n    tag_536:\n        /* \"#utility.yul\":9412:9965   */\n      swap6\n      swap5\n      pop\n      pop\n      pop\n      pop\n      pop\n      jump\t// out\n        /* \"#utility.yul\":9971:10151   */\n    tag_405:\n        /* \"#utility.yul\":10019:10096   */\n      0x4e487b7100000000000000000000000000000000000000000000000000000000\n        /* \"#utility.yul\":10016:10017   */\n      0x00\n        /* \"#utility.yul\":10009:10097   */\n      mstore\n        /* \"#utility.yul\":10116:10120   */\n      0x22\n        /* \"#utility.yul\":10113:10114   */\n      0x04\n        /* \"#utility.yul\":10106:10121   */\n      mstore\n        /* \"#utility.yul\":10140:10144   */\n      0x24\n        /* \"#utility.yul\":10137:10138   */\n      0x00\n        /* \"#utility.yul\":10130:10145   */\n      revert\n        /* \"#utility.yul\":10157:10477   */\n    tag_159:\n        /* \"#utility.yul\":10201:10207   */\n      0x00\n        /* \"#utility.yul\":10238:10239   */\n      0x02\n        /* \"#utility.yul\":10232:10236   */\n      dup3\n        /* \"#utility.yul\":10228:10240   */\n      div\n        /* \"#utility.yul\":10218:10240   */\n      swap1\n      pop\n        /* \"#utility.yul\":10285:10286   */\n      0x01\n        /* \"#utility.yul\":10279:10283   */\n      dup3\n        /* \"#utility.yul\":10275:10287   */\n      and\n        /* \"#utility.yul\":10306:10324   */\n      dup1\n        /* \"#utility.yul\":10296:10377   */\n      tag_539\n      jumpi\n        /* \"#utility.yul\":10362:10366   */\n      0x7f\n        /* \"#utility.yul\":10354:10360   */\n      dup3\n        /* \"#utility.yul\":10350:10367   */\n      and\n        /* \"#utility.yul\":10340:10367   */\n      swap2\n      pop\n        /* \"#utility.yul\":10296:10377   */\n    tag_539:\n        /* \"#utility.yul\":10424:10426   */\n      0x20\n        /* \"#utility.yul\":10416:10422   */\n      dup3\n        /* \"#utility.yul\":10413:10427   */\n      lt\n        /* \"#utility.yul\":10393:10411   */\n      dup2\n        /* \"#utility.yul\":10390:10428   */\n      sub\n        /* \"#utility.yul\":10387:10471   */\n      tag_540\n      jumpi\n        /* \"#utility.yul\":10443:10461   */\n      tag_541\n      tag_405\n      jump\t// in\n    tag_541:\n        /* \"#utility.yul\":10387:10471   */\n    tag_540:\n        /* \"#utility.yul\":10208:10477   */\n      pop\n        /* \"#utility.yul\":10157:10477   */\n      swap2\n      swap1\n      pop\n      jump\t// out\n        /* \"#utility.yul\":10483:10655   */\n    tag_406:\n        /* \"#utility.yul\":10623:10647   */\n      0x4164647265737320697320626c61636b6c697374656400000000000000000000\n        /* \"#utility.yul\":10619:10620   */\n      0x00\n        /* \"#utility.yul\":10611:10617   */\n      dup3\n        /* \"#utility.yul\":10607:10621   */\n      add\n        /* \"#utility.yul\":10600:10648   */\n      mstore\n        /* \"#utility.yul\":10483:10655   */\n      pop\n      jump\t// out\n        /* \"#utility.yul\":10661:11027   */\n    tag_407:\n        /* \"#utility.yul\":10803:10806   */\n      0x00\n        /* \"#utility.yul\":10824:10891   */\n      tag_544\n        /* \"#utility.yul\":10888:10890   */\n      0x16\n        /* \"#utility.yul\":10883:10886   */\n      dup4\n        /* \"#utility.yul\":10824:10891   */\n      tag_385\n      jump\t// in\n    tag_544:\n        /* \"#utility.yul\":10817:10891   */\n      swap2\n      pop\n        /* \"#utility.yul\":10900:10993   */\n      tag_545\n        /* \"#utility.yul\":10989:10992   */\n      dup3\n        /* \"#utility.yul\":10900:10993   */\n      tag_406\n      jump\t// in\n    tag_545:\n        /* \"#utility.yul\":11018:11020   */\n      0x20\n        /* \"#utility.yul\":11013:11016   */\n      dup3\n        /* \"#utility.yul\":11009:11021   */\n      add\n        /* \"#utility.yul\":11002:11021   */\n      swap1\n      pop\n        /* \"#utility.yul\":10661:11027   */\n      swap2\n      swap1\n      pop\n      jump\t// out\n        /* \"#utility.yul\":11033:11452   */\n    tag_178:\n        /* \"#utility.yul\":11199:11203   */\n      0x00\n        /* \"#utility.yul\":11237:11239   */\n      0x20\n        /* \"#utility.yul\":11226:11235   */\n      dup3\n        /* \"#utility.yul\":11222:11240   */\n      add\n        /* \"#utility.yul\":11214:11240   */\n      swap1\n      pop\n        /* \"#utility.yul\":11286:11295   */\n      dup2\n        /* \"#utility.yul\":11280:11284   */\n      dup2\n        /* \"#utility.yul\":11276:11296   */\n      sub\n        /* \"#utility.yul\":11272:11273   */\n      0x00\n        /* \"#utility.yul\":11261:11270   */\n      dup4\n        /* \"#utility.yul\":11257:11274   */\n      add\n        /* \"#utility.yul\":11250:11297   */\n      mstore\n        /* \"#utility.yul\":11314:11445   */\n      tag_547\n        /* \"#utility.yul\":11440:11444   */\n      dup2\n        /* \"#utility.yul\":11314:11445   */\n      tag_407\n      jump\t// in\n    tag_547:\n        /* \"#utility.yul\":11306:11445   */\n      swap1\n      pop\n        /* \"#utility.yul\":11033:11452   */\n      swap2\n      swap1\n      pop\n      jump\t// out\n        /* \"#utility.yul\":11458:11627   */\n    tag_408:\n        /* \"#utility.yul\":11598:11619   */\n      0x54726164696e67206e6f7420656e61626c656400000000000000000000000000\n        /* \"#utility.yul\":11594:11595   */\n      0x00\n        /* \"#utility.yul\":11586:11592   */\n      dup3\n        /* \"#utility.yul\":11582:11596   */\n      add\n        /* \"#utility.yul\":11575:11620   */\n      mstore\n        /* \"#utility.yul\":11458:11627   */\n      pop\n      jump\t// out\n        /* \"#utility.yul\":11633:11999   */\n    tag_409:\n        /* \"#utility.yul\":11775:11778   */\n      0x00\n        /* \"#utility.yul\":11796:11863   */\n      tag_550\n        /* \"#utility.yul\":11860:11862   */\n      0x13\n        /* \"#utility.yul\":11855:11858   */\n      dup4\n        /* \"#utility.yul\":11796:11863   */\n      tag_385\n      jump\t// in\n    tag_550:\n        /* \"#utility.yul\":11789:11863   */\n      swap2\n      pop\n        /* \"#utility.yul\":11872:11965   */\n      tag_551\n        /* \"#utility.yul\":11961:11964   */\n      dup3\n        /* \"#utility.yul\":11872:11965   */\n      tag_408\n      jump\t// in\n    tag_551:\n        /* \"#utility.yul\":11990:11992   */\n      0x20\n        /* \"#utility.yul\":11985:11988   */\n      dup3\n        /* \"#utility.yul\":11981:11993   */\n      add\n        /* \"#utility.yul\":11974:11993   */\n      swap1\n      pop\n        /* \"#utility.yul\":11633:11999   */\n      swap2\n      swap1\n      pop\n      jump\t// out\n        /* \"#utility.yul\":12005:12424   */\n    tag_183:\n        /* \"#utility.yul\":12171:12175   */\n      0x00\n        /* \"#utility.yul\":12209:12211   */\n      0x20\n        /* \"#utility.yul\":12198:12207   */\n      dup3\n        /* \"#utility.yul\":12194:12212   */\n      add\n        /* \"#utility.yul\":12186:12212   */\n      swap1\n      pop\n        /* \"#utility.yul\":12258:12267   */\n      dup2\n        /* \"#utility.yul\":12252:12256   */\n      dup2\n        /* \"#utility.yul\":12248:12268   */\n      sub\n        /* \"#utility.yul\":12244:12245   */\n      0x00\n        /* \"#utility.yul\":12233:12242   */\n      dup4\n        /* \"#utility.yul\":12229:12246   */\n      add\n        /* \"#utility.yul\":12222:12269   */\n      mstore\n        /* \"#utility.yul\":12286:12417   */\n      tag_553\n        /* \"#utility.yul\":12412:12416   */\n      dup2\n        /* \"#utility.yul\":12286:12417   */\n      tag_409\n      jump\t// in\n    tag_553:\n        /* \"#utility.yul\":12278:12417   */\n      swap1\n      pop\n        /* \"#utility.yul\":12005:12424   */\n      swap2\n      swap1\n      pop\n      jump\t// out\n        /* \"#utility.yul\":12430:12607   */\n    tag_410:\n        /* \"#utility.yul\":12570:12599   */\n      0x5472616e736665722065786365656473206d617820616d6f756e740000000000\n        /* \"#utility.yul\":12566:12567   */\n      0x00\n        /* \"#utility.yul\":12558:12564   */\n      dup3\n        /* \"#utility.yul\":12554:12568   */\n      add\n        /* \"#utility.yul\":12547:12600   */\n      mstore\n        /* \"#utility.yul\":12430:12607   */\n      pop\n      jump\t// out\n        /* \"#utility.yul\":12613:12979   */\n    tag_411:\n        /* \"#utility.yul\":12755:12758   */\n      0x00\n        /* \"#utility.yul\":12776:12843   */\n      tag_556\n        /* \"#utility.yul\":12840:12842   */\n      0x1b\n        /* \"#utility.yul\":12835:12838   */\n      dup4\n        /* \"#utility.yul\":12776:12843   */\n      tag_385\n      jump\t// in\n    tag_556:\n        /* \"#utility.yul\":12769:12843   */\n      swap2\n      pop\n        /* \"#utility.yul\":12852:12945   */\n      tag_557\n        /* \"#utility.yul\":12941:12944   */\n      dup3\n        /* \"#utility.yul\":12852:12945   */\n      tag_410\n      jump\t// in\n    tag_557:\n        /* \"#utility.yul\":12970:12972   */\n      0x20\n        /* \"#utility.yul\":12965:12968   */\n      dup3\n        /* \"#utility.yul\":12961:12973   */\n      add\n        /* \"#utility.yul\":12954:12973   */\n      swap1\n      pop\n        /* \"#utility.yul\":12613:12979   */\n      swap2\n      swap1\n      pop\n      jump\t// out\n        /* \"#utility.yul\":12985:13404   */\n    tag_188:\n        /* \"#utility.yul\":13151:13155   */\n      0x00\n        /* \"#utility.yul\":13189:13191   */\n      0x20\n        /* \"#utility.yul\":13178:13187   */\n      dup3\n        /* \"#utility.yul\":13174:13192   */\n      add\n        /* \"#utility.yul\":13166:13192   */\n      swap1\n      pop\n        /* \"#utility.yul\":13238:13247   */\n      dup2\n        /* \"#utility.yul\":13232:13236   */\n      dup2\n        /* \"#utility.yul\":13228:13248   */\n      sub\n        /* \"#utility.yul\":13224:13225   */\n      0x00\n        /* \"#utility.yul\":13213:13222   */\n      dup4\n        /* \"#utility.yul\":13209:13226   */\n      add\n        /* \"#utility.yul\":13202:13249   */\n      mstore\n        /* \"#utility.yul\":13266:13397   */\n      tag_559\n        /* \"#utility.yul\":13392:13396   */\n      dup2\n        /* \"#utility.yul\":13266:13397   */\n      tag_411\n      jump\t// in\n    tag_559:\n        /* \"#utility.yul\":13258:13397   */\n      swap1\n      pop\n        /* \"#utility.yul\":12985:13404   */\n      swap2\n      swap1\n      pop\n      jump\t// out\n        /* \"#utility.yul\":13410:13575   */\n    tag_412:\n        /* \"#utility.yul\":13550:13567   */\n      0x436f6f6c646f776e206163746976650000000000000000000000000000000000\n        /* \"#utility.yul\":13546:13547   */\n      0x00\n        /* \"#utility.yul\":13538:13544   */\n      dup3\n        /* \"#utility.yul\":13534:13548   */\n      add\n        /* \"#utility.yul\":13527:13568   */\n      mstore\n        /* \"#utility.yul\":13410:13575   */\n      pop\n      jump\t// out\n        /* \"#utility.yul\":13581:13947   */\n    tag_413:\n        /* \"#utility.yul\":13723:13726   */\n      0x00\n        /* \"#utility.yul\":13744:13811   */\n      tag_562\n        /* \"#utility.yul\":13808:13810   */\n      0x0f\n        /* \"#utility.yul\":13803:13806   */\n      dup4\n        /* \"#utility.yul\":13744:13811   */\n      tag_385\n      jump\t// in\n    tag_562:\n        /* \"#utility.yul\":13737:13811   */\n      swap2\n      pop\n        /* \"#utility.yul\":13820:13913   */\n      tag_563\n        /* \"#utility.yul\":13909:13912   */\n      dup3\n        /* \"#utility.yul\":13820:13913   */\n      tag_412\n      jump\t// in\n    tag_563:\n        /* \"#utility.yul\":13938:13940   */\n      0x20\n        /* \"#utility.yul\":13933:13936   */\n      dup3\n        /* \"#utility.yul\":13929:13941   */\n      add\n        /* \"#utility.yul\":13922:13941   */\n      swap1\n      pop\n        /* \"#utility.yul\":13581:13947   */\n      swap2\n      swap1\n      pop\n      jump\t// out\n        /* \"#utility.yul\":13953:14372   */\n    tag_193:\n        /* \"#utility.yul\":14119:14123   */\n      0x00\n        /* \"#utility.yul\":14157:14159   */\n      0x20\n        /* \"#utility.yul\":14146:14155   */\n      dup3\n        /* \"#utility.yul\":14142:14160   */\n      add\n        /* \"#utility.yul\":14134:14160   */\n      swap1\n      pop\n        /* \"#utility.yul\":14206:14215   */\n      dup2\n        /* \"#utility.yul\":14200:14204   */\n      dup2\n        /* \"#utility.yul\":14196:14216   */\n      sub\n        /* \"#utility.yul\":14192:14193   */\n      0x00\n        /* \"#utility.yul\":14181:14190   */\n      dup4\n        /* \"#utility.yul\":14177:14194   */\n      add\n        /* \"#utility.yul\":14170:14217   */\n      mstore\n        /* \"#utility.yul\":14234:14365   */\n      tag_565\n        /* \"#utility.yul\":14360:14364   */\n      dup2\n        /* \"#utility.yul\":14234:14365   */\n      tag_413\n      jump\t// in\n    tag_565:\n        /* \"#utility.yul\":14226:14365   */\n      swap1\n      pop\n        /* \"#utility.yul\":13953:14372   */\n      swap2\n      swap1\n      pop\n      jump\t// out\n        /* \"#utility.yul\":14378:14545   */\n    tag_414:\n        /* \"#utility.yul\":14518:14537   */\n      0x486f6c642074696d65206e6f74206d6574000000000000000000000000000000\n        /* \"#utility.yul\":14514:14515   */\n      0x00\n        /* \"#utility.yul\":14506:14512   */\n      dup3\n        /* \"#utility.yul\":14502:14516   */\n      add\n        /* \"#utility.yul\":14495:14538   */\n      mstore\n        /* \"#utility.yul\":14378:14545   */\n      pop\n      jump\t// out\n        /* \"#utility.yul\":14551:14917   */\n    tag_415:\n        /* \"#utility.yul\":14693:14696   */\n      0x00\n        /* \"#utility.yul\":14714:14781   */\n      tag_568\n        /* \"#utility.yul\":14778:14780   */\n      0x11\n        /* \"#utility.yul\":14773:14776   */\n      dup4\n        /* \"#utility.yul\":14714:14781   */\n      tag_385\n      jump\t// in\n    tag_568:\n        /* \"#utility.yul\":14707:14781   */\n      swap2\n      pop\n        /* \"#utility.yul\":14790:14883   */\n      tag_569\n        /* \"#utility.yul\":14879:14882   */\n      dup3\n        /* \"#utility.yul\":14790:14883   */\n      tag_414\n      jump\t// in\n    tag_569:\n        /* \"#utility.yul\":14908:14910   */\n      0x20\n        /* \"#utility.yul\":14903:14906   */\n      dup3\n        /* \"#utility.yul\":14899:14911   */\n      add\n        /* \"#utility.yul\":14892:14911   */\n      swap1\n      pop\n        /* \"#utility.yul\":14551:14917   */\n      swap2\n      swap1\n      pop\n      jump\t// out\n        /* \"#utility.yul\":14923:15342   */\n    tag_198:\n        /* \"#utility.yul\":15089:15093   */\n      0x00\n        /* \"#utility.yul\":15127:15129   */\n      0x20\n        /* \"#utility.yul\":15116:15125   */\n      dup3\n        /* \"#utility.yul\":15112:15130   */\n      add\n        /* \"#utility.yul\":15104:15130   */\n      swap1\n      pop\n        /* \"#utility.yul\":15176:15185   */\n      dup2\n        /* \"#utility.yul\":15170:15174   */\n      dup2\n        /* \"#utility.yul\":15166:15186   */\n      sub\n        /* \"#utility.yul\":15162:15163   */\n      0x00\n        /* \"#utility.yul\":15151:15160   */\n      dup4\n        /* \"#utility.yul\":15147:15164   */\n      add\n        /* \"#utility.yul\":15140:15187   */\n      mstore\n        /* \"#utility.yul\":15204:15335   */\n      tag_571\n        /* \"#utility.yul\":15330:15334   */\n      dup2\n        /* \"#utility.yul\":15204:15335   */\n      tag_415\n      jump\t// in\n    tag_571:\n        /* \"#utility.yul\":15196:15335   */\n      swap1\n      pop\n        /* \"#utility.yul\":14923:15342   */\n      swap2\n      swap1\n      pop\n      jump\t// out\n        /* \"#utility.yul\":15348:15523   */\n    tag_416:\n        /* \"#utility.yul\":15488:15515   */\n      0x45786365656473206d61782077616c6c657420616d6f756e7400000000000000\n        /* \"#utility.yul\":15484:15485   */\n      0x00\n        /* \"#utility.yul\":15476:15482   */\n      dup3\n        /* \"#utility.yul\":15472:15486   */\n      add\n        /* \"#utility.yul\":15465:15516   */\n      mstore\n        /* \"#utility.yul\":15348:15523   */\n      pop\n      jump\t// out\n        /* \"#utility.yul\":15529:15895   */\n    tag_417:\n        /* \"#utility.yul\":15671:15674   */\n      0x00\n        /* \"#utility.yul\":15692:15759   */\n      tag_574\n        /* \"#utility.yul\":15756:15758   */\n      0x19\n        /* \"#utility.yul\":15751:15754   */\n      dup4\n        /* \"#utility.yul\":15692:15759   */\n      tag_385\n      jump\t// in\n    tag_574:\n        /* \"#utility.yul\":15685:15759   */\n      swap2\n      pop\n        /* \"#utility.yul\":15768:15861   */\n      tag_575\n        /* \"#utility.yul\":15857:15860   */\n      dup3\n        /* \"#utility.yul\":15768:15861   */\n      tag_416\n      jump\t// in\n    tag_575:\n        /* \"#utility.yul\":15886:15888   */\n      0x20\n        /* \"#utility.yul\":15881:15884   */\n      dup3\n        /* \"#utility.yul\":15877:15889   */\n      add\n        /* \"#utility.yul\":15870:15889   */\n      swap1\n      pop\n        /* \"#utility.yul\":15529:15895   */\n      swap2\n      swap1\n      pop\n      jump\t// out\n        /* \"#utility.yul\":15901:16320   */\n    tag_203:\n        /* \"#utility.yul\":16067:16071   */\n      0x00\n        /* \"#utility.yul\":16105:16107   */\n      0x20\n        /* \"#utility.yul\":16094:16103   */\n      dup3\n        /* \"#utility.yul\":16090:16108   */\n      add\n        /* \"#utility.yul\":16082:16108   */\n      swap1\n      pop\n        /* \"#utility.yul\":16154:16163   */\n      dup2\n        /* \"#utility.yul\":16148:16152   */\n      dup2\n        /* \"#utility.yul\":16144:16164   */\n      sub\n        /* \"#utility.yul\":16140:16141   */\n      0x00\n        /* \"#utility.yul\":16129:16138   */\n      dup4\n        /* \"#utility.yul\":16125:16142   */\n      add\n        /* \"#utility.yul\":16118:16165   */\n      mstore\n        /* \"#utility.yul\":16182:16313   */\n      tag_577\n        /* \"#utility.yul\":16308:16312   */\n      dup2\n        /* \"#utility.yul\":16182:16313   */\n      tag_417\n      jump\t// in\n    tag_577:\n        /* \"#utility.yul\":16174:16313   */\n      swap1\n      pop\n        /* \"#utility.yul\":15901:16320   */\n      swap2\n      swap1\n      pop\n      jump\t// out\n        /* \"#utility.yul\":16326:16493   */\n    tag_418:\n        /* \"#utility.yul\":16466:16485   */\n      0x496e76616c696420726563697069656e74000000000000000000000000000000\n        /* \"#utility.yul\":16462:16463   */\n      0x00\n        /* \"#utility.yul\":16454:16460   */\n      dup3\n        /* \"#utility.yul\":16450:16464   */\n      add\n        /* \"#utility.yul\":16443:16486   */\n      mstore\n        /* \"#utility.yul\":16326:16493   */\n      pop\n      jump\t// out\n        /* \"#utility.yul\":16499:16865   */\n    tag_419:\n        /* \"#utility.yul\":16641:16644   */\n      0x00\n        /* \"#utility.yul\":16662:16729   */\n      tag_580\n        /* \"#utility.yul\":16726:16728   */\n      0x11\n        /* \"#utility.yul\":16721:16724   */\n      dup4\n        /* \"#utility.yul\":16662:16729   */\n      tag_385\n      jump\t// in\n    tag_580:\n        /* \"#utility.yul\":16655:16729   */\n      swap2\n      pop\n        /* \"#utility.yul\":16738:16831   */\n      tag_581\n        /* \"#utility.yul\":16827:16830   */\n      dup3\n        /* \"#utility.yul\":16738:16831   */\n      tag_418\n      jump\t// in\n    tag_581:\n        /* \"#utility.yul\":16856:16858   */\n      0x20\n        /* \"#utility.yul\":16851:16854   */\n      dup3\n        /* \"#utility.yul\":16847:16859   */\n      add\n        /* \"#utility.yul\":16840:16859   */\n      swap1\n      pop\n        /* \"#utility.yul\":16499:16865   */\n      swap2\n      swap1\n      pop\n      jump\t// out\n        /* \"#utility.yul\":16871:17290   */\n    tag_210:\n        /* \"#utility.yul\":17037:17041   */\n      0x00\n        /* \"#utility.yul\":17075:17077   */\n      0x20\n        /* \"#utility.yul\":17064:17073   */\n      dup3\n        /* \"#utility.yul\":17060:17078   */\n      add\n        /* \"#utility.yul\":17052:17078   */\n      swap1\n      pop\n        /* \"#utility.yul\":17124:17133   */\n      dup2\n        /* \"#utility.yul\":17118:17122   */\n      dup2\n        /* \"#utility.yul\":17114:17134   */\n      sub\n        /* \"#utility.yul\":17110:17111   */\n      0x00\n        /* \"#utility.yul\":17099:17108   */\n      dup4\n        /* \"#utility.yul\":17095:17112   */\n      add\n        /* \"#utility.yul\":17088:17135   */\n      mstore\n        /* \"#utility.yul\":17152:17283   */\n      tag_583\n        /* \"#utility.yul\":17278:17282   */\n      dup2\n        /* \"#utility.yul\":17152:17283   */\n      tag_419\n      jump\t// in\n    tag_583:\n        /* \"#utility.yul\":17144:17283   */\n      swap1\n      pop\n        /* \"#utility.yul\":16871:17290   */\n      swap2\n      swap1\n      pop\n      jump\t// out\n        /* \"#utility.yul\":17296:17476   */\n    tag_224:\n        /* \"#utility.yul\":17344:17421   */\n      0x4e487b7100000000000000000000000000000000000000000000000000000000\n        /* \"#utility.yul\":17341:17342   */\n      0x00\n        /* \"#utility.yul\":17334:17422   */\n      mstore\n        /* \"#utility.yul\":17441:17445   */\n      0x32\n        /* \"#utility.yul\":17438:17439   */\n      0x04\n        /* \"#utility.yul\":17431:17446   */\n      mstore\n        /* \"#utility.yul\":17465:17469   */\n      0x24\n        /* \"#utility.yul\":17462:17463   */\n      0x00\n        /* \"#utility.yul\":17455:17470   */\n      revert\n        /* \"#utility.yul\":17482:17660   */\n    tag_420:\n        /* \"#utility.yul\":17622:17652   */\n      0x43616e6e6f7420776974686472617720746f6b656e20697473656c6600000000\n        /* \"#utility.yul\":17618:17619   */\n      0x00\n        /* \"#utility.yul\":17610:17616   */\n      dup3\n        /* \"#utility.yul\":17606:17620   */\n      add\n        /* \"#utility.yul\":17599:17653   */\n      mstore\n        /* \"#utility.yul\":17482:17660   */\n      pop\n      jump\t// out\n        /* \"#utility.yul\":17666:18032   */\n    tag_421:\n        /* \"#utility.yul\":17808:17811   */\n      0x00\n        /* \"#utility.yul\":17829:17896   */\n      tag_587\n        /* \"#utility.yul\":17893:17895   */\n      0x1c\n        /* \"#utility.yul\":17888:17891   */\n      dup4\n        /* \"#utility.yul\":17829:17896   */\n      tag_385\n      jump\t// in\n    tag_587:\n        /* \"#utility.yul\":17822:17896   */\n      swap2\n      pop\n        /* \"#utility.yul\":17905:17998   */\n      tag_588\n        /* \"#utility.yul\":17994:17997   */\n      dup3\n        /* \"#utility.yul\":17905:17998   */\n      tag_420\n      jump\t// in\n    tag_588:\n        /* \"#utility.yul\":18023:18025   */\n      0x20\n        /* \"#utility.yul\":18018:18021   */\n      dup3\n        /* \"#utility.yul\":18014:18026   */\n      add\n        /* \"#utility.yul\":18007:18026   */\n      swap1\n      pop\n        /* \"#utility.yul\":17666:18032   */\n      swap2\n      swap1\n      pop\n      jump\t// out\n        /* \"#utility.yul\":18038:18457   */\n    tag_248:\n        /* \"#utility.yul\":18204:18208   */\n      0x00\n        /* \"#utility.yul\":18242:18244   */\n      0x20\n        /* \"#utility.yul\":18231:18240   */\n      dup3\n        /* \"#utility.yul\":18227:18245   */\n      add\n        /* \"#utility.yul\":18219:18245   */\n      swap1\n      pop\n        /* \"#utility.yul\":18291:18300   */\n      dup2\n        /* \"#utility.yul\":18285:18289   */\n      dup2\n        /* \"#utility.yul\":18281:18301   */\n      sub\n        /* \"#utility.yul\":18277:18278   */\n      0x00\n        /* \"#utility.yul\":18266:18275   */\n      dup4\n        /* \"#utility.yul\":18262:18279   */\n      add\n        /* \"#utility.yul\":18255:18302   */\n      mstore\n        /* \"#utility.yul\":18319:18450   */\n      tag_590\n        /* \"#utility.yul\":18445:18449   */\n      dup2\n        /* \"#utility.yul\":18319:18450   */\n      tag_421\n      jump\t// in\n    tag_590:\n        /* \"#utility.yul\":18311:18450   */\n      swap1\n      pop\n        /* \"#utility.yul\":18038:18457   */\n      swap2\n      swap1\n      pop\n      jump\t// out\n        /* \"#utility.yul\":18463:18606   */\n    tag_422:\n        /* \"#utility.yul\":18520:18525   */\n      0x00\n        /* \"#utility.yul\":18551:18557   */\n      dup2\n        /* \"#utility.yul\":18545:18558   */\n      mload\n        /* \"#utility.yul\":18536:18558   */\n      swap1\n      pop\n        /* \"#utility.yul\":18567:18600   */\n      tag_592\n        /* \"#utility.yul\":18594:18599   */\n      dup2\n        /* \"#utility.yul\":18567:18600   */\n      tag_382\n      jump\t// in\n    tag_592:\n        /* \"#utility.yul\":18463:18606   */\n      swap3\n      swap2\n      pop\n      pop\n      jump\t// out\n        /* \"#utility.yul\":18612:18963   */\n    tag_253:\n        /* \"#utility.yul\":18682:18688   */\n      0x00\n        /* \"#utility.yul\":18731:18733   */\n      0x20\n        /* \"#utility.yul\":18719:18728   */\n      dup3\n        /* \"#utility.yul\":18710:18717   */\n      dup5\n        /* \"#utility.yul\":18706:18729   */\n      sub\n        /* \"#utility.yul\":18702:18734   */\n      slt\n        /* \"#utility.yul\":18699:18818   */\n      iszero\n      tag_594\n      jumpi\n        /* \"#utility.yul\":18737:18816   */\n      tag_595\n      tag_379\n      jump\t// in\n    tag_595:\n        /* \"#utility.yul\":18699:18818   */\n    tag_594:\n        /* \"#utility.yul\":18857:18858   */\n      0x00\n        /* \"#utility.yul\":18882:18946   */\n      tag_596\n        /* \"#utility.yul\":18938:18945   */\n      dup5\n        /* \"#utility.yul\":18929:18935   */\n      dup3\n        /* \"#utility.yul\":18918:18927   */\n      dup6\n        /* \"#utility.yul\":18914:18936   */\n      add\n        /* \"#utility.yul\":18882:18946   */\n      tag_422\n      jump\t// in\n    tag_596:\n        /* \"#utility.yul\":18872:18946   */\n      swap2\n      pop\n        /* \"#utility.yul\":18828:18956   */\n      pop\n        /* \"#utility.yul\":18612:18963   */\n      swap3\n      swap2\n      pop\n      pop\n      jump\t// out\n        /* \"#utility.yul\":18969:19301   */\n    tag_256:\n        /* \"#utility.yul\":19090:19094   */\n      0x00\n        /* \"#utility.yul\":19128:19130   */\n      0x40\n        /* \"#utility.yul\":19117:19126   */\n      dup3\n        /* \"#utility.yul\":19113:19131   */\n      add\n        /* \"#utility.yul\":19105:19131   */\n      swap1\n      pop\n        /* \"#utility.yul\":19141:19212   */\n      tag_598\n        /* \"#utility.yul\":19209:19210   */\n      0x00\n        /* \"#utility.yul\":19198:19207   */\n      dup4\n        /* \"#utility.yul\":19194:19211   */\n      add\n        /* \"#utility.yul\":19185:19191   */\n      dup6\n        /* \"#utility.yul\":19141:19212   */\n      tag_404\n      jump\t// in\n    tag_598:\n        /* \"#utility.yul\":19222:19294   */\n      tag_599\n        /* \"#utility.yul\":19290:19292   */\n      0x20\n        /* \"#utility.yul\":19279:19288   */\n      dup4\n        /* \"#utility.yul\":19275:19293   */\n      add\n        /* \"#utility.yul\":19266:19272   */\n      dup5\n        /* \"#utility.yul\":19222:19294   */\n      tag_395\n      jump\t// in\n    tag_599:\n        /* \"#utility.yul\":18969:19301   */\n      swap4\n      swap3\n      pop\n      pop\n      pop\n      jump\t// out\n        /* \"#utility.yul\":19307:19444   */\n    tag_423:\n        /* \"#utility.yul\":19361:19366   */\n      0x00\n        /* \"#utility.yul\":19392:19398   */\n      dup2\n        /* \"#utility.yul\":19386:19399   */\n      mload\n        /* \"#utility.yul\":19377:19399   */\n      swap1\n      pop\n        /* \"#utility.yul\":19408:19438   */\n      tag_601\n        /* \"#utility.yul\":19432:19437   */\n      dup2\n        /* \"#utility.yul\":19408:19438   */\n      tag_396\n      jump\t// in\n    tag_601:\n        /* \"#utility.yul\":19307:19444   */\n      swap3\n      swap2\n      pop\n      pop\n      jump\t// out\n        /* \"#utility.yul\":19450:19795   */\n    tag_260:\n        /* \"#utility.yul\":19517:19523   */\n      0x00\n        /* \"#utility.yul\":19566:19568   */\n      0x20\n        /* \"#utility.yul\":19554:19563   */\n      dup3\n        /* \"#utility.yul\":19545:19552   */\n      dup5\n        /* \"#utility.yul\":19541:19564   */\n      sub\n        /* \"#utility.yul\":19537:19569   */\n      slt\n        /* \"#utility.yul\":19534:19653   */\n      iszero\n      tag_603\n      jumpi\n        /* \"#utility.yul\":19572:19651   */\n      tag_604\n      tag_379\n      jump\t// in\n    tag_604:\n        /* \"#utility.yul\":19534:19653   */\n    tag_603:\n        /* \"#utility.yul\":19692:19693   */\n      0x00\n        /* \"#utility.yul\":19717:19778   */\n      tag_605\n        /* \"#utility.yul\":19770:19777   */\n      dup5\n        /* \"#utility.yul\":19761:19767   */\n      dup3\n        /* \"#utility.yul\":19750:19759   */\n      dup6\n        /* \"#utility.yul\":19746:19768   */\n      add\n        /* \"#utility.yul\":19717:19778   */\n      tag_423\n      jump\t// in\n    tag_605:\n        /* \"#utility.yul\":19707:19778   */\n      swap2\n      pop\n        /* \"#utility.yul\":19663:19788   */\n      pop\n        /* \"#utility.yul\":19450:19795   */\n      swap3\n      swap2\n      pop\n      pop\n      jump\t// out\n        /* \"#utility.yul\":19801:19981   */\n    tag_424:\n        /* \"#utility.yul\":19849:19926   */\n      0x4e487b7100000000000000000000000000000000000000000000000000000000\n        /* \"#utility.yul\":19846:19847   */\n      0x00\n        /* \"#utility.yul\":19839:19927   */\n      mstore\n        /* \"#utility.yul\":19946:19950   */\n      0x11\n        /* \"#utility.yul\":19943:19944   */\n      0x04\n        /* \"#utility.yul\":19936:19951   */\n      mstore\n        /* \"#utility.yul\":19970:19974   */\n      0x24\n        /* \"#utility.yul\":19967:19968   */\n      0x00\n        /* \"#utility.yul\":19960:19975   */\n      revert\n        /* \"#utility.yul\":19987:20178   */\n    tag_332:\n        /* \"#utility.yul\":20027:20030   */\n      0x00\n        /* \"#utility.yul\":20046:20066   */\n      tag_608\n        /* \"#utility.yul\":20064:20065   */\n      dup3\n        /* \"#utility.yul\":20046:20066   */\n      tag_381\n      jump\t// in\n    tag_608:\n        /* \"#utility.yul\":20041:20066   */\n      swap2\n      pop\n        /* \"#utility.yul\":20080:20100   */\n      tag_609\n        /* \"#utility.yul\":20098:20099   */\n      dup4\n        /* \"#utility.yul\":20080:20100   */\n      tag_381\n      jump\t// in\n    tag_609:\n        /* \"#utility.yul\":20075:20100   */\n      swap3\n      pop\n        /* \"#utility.yul\":20123:20124   */\n      dup3\n        /* \"#utility.yul\":20120:20121   */\n      dup3\n        /* \"#utility.yul\":20116:20125   */\n      add\n        /* \"#utility.yul\":20109:20125   */\n      swap1\n      pop\n        /* \"#utility.yul\":20144:20147   */\n      dup1\n        /* \"#utility.yul\":20141:20142   */\n      dup3\n        /* \"#utility.yul\":20138:20148   */\n      gt\n        /* \"#utility.yul\":20135:20171   */\n      iszero\n      tag_610\n      jumpi\n        /* \"#utility.yul\":20151:20169   */\n      tag_611\n      tag_424\n      jump\t// in\n    tag_611:\n        /* \"#utility.yul\":20135:20171   */\n    tag_610:\n        /* \"#utility.yul\":19987:20178   */\n      swap3\n      swap2\n      pop\n      pop\n      jump\t// out\n        /* \"#utility.yul\":20184:20365   */\n    tag_425:\n        /* \"#utility.yul\":20324:20357   */\n      0x5265656e7472616e637947756172643a207265656e7472616e742063616c6c00\n        /* \"#utility.yul\":20320:20321   */\n      0x00\n        /* \"#utility.yul\":20312:20318   */\n      dup3\n        /* \"#utility.yul\":20308:20322   */\n      add\n        /* \"#utility.yul\":20301:20358   */\n      mstore\n        /* \"#utility.yul\":20184:20365   */\n      pop\n      jump\t// out\n        /* \"#utility.yul\":20371:20737   */\n    tag_426:\n        /* \"#utility.yul\":20513:20516   */\n      0x00\n        /* \"#utility.yul\":20534:20601   */\n      tag_614\n        /* \"#utility.yul\":20598:20600   */\n      0x1f\n        /* \"#utility.yul\":20593:20596   */\n      dup4\n        /* \"#utility.yul\":20534:20601   */\n      tag_385\n      jump\t// in\n    tag_614:\n        /* \"#utility.yul\":20527:20601   */\n      swap2\n      pop\n        /* \"#utility.yul\":20610:20703   */\n      tag_615\n        /* \"#utility.yul\":20699:20702   */\n      dup3\n        /* \"#utility.yul\":20610:20703   */\n      tag_425\n      jump\t// in\n    tag_615:\n        /* \"#utility.yul\":20728:20730   */\n      0x20\n        /* \"#utility.yul\":20723:20726   */\n      dup3\n        /* \"#utility.yul\":20719:20731   */\n      add\n        /* \"#utility.yul\":20712:20731   */\n      swap1\n      pop\n        /* \"#utility.yul\":20371:20737   */\n      swap2\n      swap1\n      pop\n      jump\t// out\n        /* \"#utility.yul\":20743:21162   */\n    tag_336:\n        /* \"#utility.yul\":20909:20913   */\n      0x00\n        /* \"#utility.yul\":20947:20949   */\n      0x20\n        /* \"#utility.yul\":20936:20945   */\n      dup3\n        /* \"#utility.yul\":20932:20950   */\n      add\n        /* \"#utility.yul\":20924:20950   */\n      swap1\n      pop\n        /* \"#utility.yul\":20996:21005   */\n      dup2\n        /* \"#utility.yul\":20990:20994   */\n      dup2\n        /* \"#utility.yul\":20986:21006   */\n      sub\n        /* \"#utility.yul\":20982:20983   */\n      0x00\n        /* \"#utility.yul\":20971:20980   */\n      dup4\n        /* \"#utility.yul\":20967:20984   */\n      add\n        /* \"#utility.yul\":20960:21007   */\n      mstore\n        /* \"#utility.yul\":21024:21155   */\n      tag_617\n        /* \"#utility.yul\":21150:21154   */\n      dup2\n        /* \"#utility.yul\":21024:21155   */\n      tag_426\n      jump\t// in\n    tag_617:\n        /* \"#utility.yul\":21016:21155   */\n      swap1\n      pop\n        /* \"#utility.yul\":20743:21162   */\n      swap2\n      swap1\n      pop\n      jump\t// out\n        /* \"#utility.yul\":21168:21610   */\n    tag_360:\n        /* \"#utility.yul\":21317:21321   */\n      0x00\n        /* \"#utility.yul\":21355:21357   */\n      0x60\n        /* \"#utility.yul\":21344:21353   */\n      dup3\n        /* \"#utility.yul\":21340:21358   */\n      add\n        /* \"#utility.yul\":21332:21358   */\n      swap1\n      pop\n        /* \"#utility.yul\":21368:21439   */\n      tag_619\n        /* \"#utility.yul\":21436:21437   */\n      0x00\n        /* \"#utility.yul\":21425:21434   */\n      dup4\n        /* \"#utility.yul\":21421:21438   */\n      add\n        /* \"#utility.yul\":21412:21418   */\n      dup7\n        /* \"#utility.yul\":21368:21439   */\n      tag_404\n      jump\t// in\n    tag_619:\n        /* \"#utility.yul\":21449:21521   */\n      tag_620\n        /* \"#utility.yul\":21517:21519   */\n      0x20\n        /* \"#utility.yul\":21506:21515   */\n      dup4\n        /* \"#utility.yul\":21502:21520   */\n      add\n        /* \"#utility.yul\":21493:21499   */\n      dup6\n        /* \"#utility.yul\":21449:21521   */\n      tag_395\n      jump\t// in\n    tag_620:\n        /* \"#utility.yul\":21531:21603   */\n      tag_621\n        /* \"#utility.yul\":21599:21601   */\n      0x40\n        /* \"#utility.yul\":21588:21597   */\n      dup4\n        /* \"#utility.yul\":21584:21602   */\n      add\n        /* \"#utility.yul\":21575:21581   */\n      dup5\n        /* \"#utility.yul\":21531:21603   */\n      tag_395\n      jump\t// in\n    tag_621:\n        /* \"#utility.yul\":21168:21610   */\n      swap5\n      swap4\n      pop\n      pop\n      pop\n      pop\n      jump\t// out\n\n    auxdata: 0xa2646970667358221220046c762e4feec9060ada05bb5c89f5409dfd61bcfe662247a648c69cc259d9cd64736f6c634300081c0033\n}\n",
				"bytecode": {
					"linkReferences": {},
					"object": "608060405234801561000f575f5ffd5b50336040518060400160405280601181526020017f50726f7068656379204a696d70736f6e730000000000000000000000000000008152506040518060400160405280600481526020017f4a696d7000000000000000000000000000000000000000000000000000000000815250816003908161008c919061084a565b50806004908161009c919061084a565b5050505f73ffffffffffffffffffffffffffffffffffffffff168173ffffffffffffffffffffffffffffffffffffffff160361010f575f6040517f1e4fbdf70000000000000000000000000000000000000000000000000000000081526004016101069190610958565b60405180910390fd5b61011e816102ac60201b60201c565b50600160068190555060075f9054906101000a900460ff1615610176576040517f08c379a000000000000000000000000000000000000000000000000000000000815260040161016d906109cb565b60405180910390fd5b610192336b204fce5e3e2502611000000061036f60201b60201c565b600160075f6101000a81548160ff021916908315150217905550683635c9adc5dea0000060088190555069152d02c7e14af6800000600a8190555062015180600981905550603c6010819055505f600b5f6101000a81548160ff0219169083151502179055506001600f5f3373ffffffffffffffffffffffffffffffffffffffff1673ffffffffffffffffffffffffffffffffffffffff1681526020019081526020015f205f6101000a81548160ff0219169083151502179055503373ffffffffffffffffffffffffffffffffffffffff167f9d5570c03a71af73640da09c132d73bb3efe7ca4f55516a1afc2597cbdfd620c6b204fce5e3e2502611000000060405161029f91906109f8565b60405180910390a2610aa6565b5f60055f9054906101000a900473ffffffffffffffffffffffffffffffffffffffff1690508160055f6101000a81548173ffffffffffffffffffffffffffffffffffffffff021916908373ffffffffffffffffffffffffffffffffffffffff1602179055508173ffffffffffffffffffffffffffffffffffffffff168173ffffffffffffffffffffffffffffffffffffffff167f8be0079c531659141344cd1fd0a4f28419497f9722a3daafe3b4186f6b6457e060405160405180910390a35050565b5f73ffffffffffffffffffffffffffffffffffffffff168273ffffffffffffffffffffffffffffffffffffffff16036103df575f6040517fec442f050000000000000000000000000000000000000000000000000000000081526004016103d69190610958565b60405180910390fd5b6103f05f83836103f460201b60201c565b5050565b5f73ffffffffffffffffffffffffffffffffffffffff168373ffffffffffffffffffffffffffffffffffffffff1603610444578060025f8282546104389190610a3e565b92505081905550610512565b5f5f5f8573ffffffffffffffffffffffffffffffffffffffff1673ffffffffffffffffffffffffffffffffffffffff1681526020019081526020015f20549050818110156104cd578381836040517fe450d38c0000000000000000000000000000000000000000000000000000000081526004016104c493929190610a71565b60405180910390fd5b8181035f5f8673ffffffffffffffffffffffffffffffffffffffff1673ffffffffffffffffffffffffffffffffffffffff1681526020019081526020015f2081905550505b5f73ffffffffffffffffffffffffffffffffffffffff168273ffffffffffffffffffffffffffffffffffffffff1603610559578060025f82825403925050819055506105a3565b805f5f8473ffffffffffffffffffffffffffffffffffffffff1673ffffffffffffffffffffffffffffffffffffffff1681526020019081526020015f205f82825401925050819055505b8173ffffffffffffffffffffffffffffffffffffffff168373ffffffffffffffffffffffffffffffffffffffff167fddf252ad1be2c89b69c2b068fc378daa952ba7f163c4a11628f55a4df523b3ef8360405161060091906109f8565b60405180910390a3505050565b5f81519050919050565b7f4e487b71000000000000000000000000000000000000000000000000000000005f52604160045260245ffd5b7f4e487b71000000000000000000000000000000000000000000000000000000005f52602260045260245ffd5b5f600282049050600182168061068857607f821691505b60208210810361069b5761069a610644565b5b50919050565b5f819050815f5260205f209050919050565b5f6020601f8301049050919050565b5f82821b905092915050565b5f600883026106fd7fffffffffffffffffffffffffffffffffffffffffffffffffffffffffffffffff826106c2565b61070786836106c2565b95508019841693508086168417925050509392505050565b5f819050919050565b5f819050919050565b5f61074b6107466107418461071f565b610728565b61071f565b9050919050565b5f819050919050565b61076483610731565b61077861077082610752565b8484546106ce565b825550505050565b5f5f905090565b61078f610780565b61079a81848461075b565b505050565b5b818110156107bd576107b25f82610787565b6001810190506107a0565b5050565b601f821115610802576107d3816106a1565b6107dc846106b3565b810160208510156107eb578190505b6107ff6107f7856106b3565b83018261079f565b50505b505050565b5f82821c905092915050565b5f6108225f1984600802610807565b1980831691505092915050565b5f61083a8383610813565b9150826002028217905092915050565b6108538261060d565b67ffffffffffffffff81111561086c5761086b610617565b5b6108768254610671565b6108818282856107c1565b5f60209050601f8311600181146108b2575f84156108a0578287015190505b6108aa858261082f565b865550610911565b601f1984166108c0866106a1565b5f5b828110156108e7578489015182556001820191506020850194506020810190506108c2565b868310156109045784890151610900601f891682610813565b8355505b6001600288020188555050505b505050505050565b5f73ffffffffffffffffffffffffffffffffffffffff82169050919050565b5f61094282610919565b9050919050565b61095281610938565b82525050565b5f60208201905061096b5f830184610949565b92915050565b5f82825260208201905092915050565b7f416c726561647920696e697469616c697a6564000000000000000000000000005f82015250565b5f6109b5601383610971565b91506109c082610981565b602082019050919050565b5f6020820190508181035f8301526109e2816109a9565b9050919050565b6109f28161071f565b82525050565b5f602082019050610a0b5f8301846109e9565b92915050565b7f4e487b71000000000000000000000000000000000000000000000000000000005f52601160045260245ffd5b5f610a488261071f565b9150610a538361071f565b9250828201905080821115610a6b57610a6a610a11565b5b92915050565b5f606082019050610a845f830186610949565b610a9160208301856109e9565b610a9e60408301846109e9565b949350505050565b612c7180610ab35f395ff3fe608060405234801561000f575f5ffd5b50600436106101d8575f3560e01c8063611274c5116101025780639155e083116100a0578063aa4bde281161006f578063aa4bde2814610544578063dd62ed3e14610562578063f2fde38b14610592578063fe575a87146105ae576101d8565b80639155e083146104bc57806395d89b41146104d8578063a9059cbb146104f6578063a9e7572314610526576101d8565b806370a08231116100dc57806370a0823114610448578063715018a6146104785780638da5cb5b146104825780638f70ccf7146104a0576101d8565b8063611274c5146103f257806368f162931461040e5780636ff1c9bc1461042c576101d8565b806323b872dd1161017a578063330671ad11610149578063330671ad1461036a5780633af32abf146103885780634ada218b146103b85780636072e6a8146103d6576101d8565b806323b872dd146102ce578063283af019146102fe578063313ce5671461032e57806332cb6b0c1461034c576101d8565b80630d2d8a31116101b65780630d2d8a31146102465780630d392cd914610276578063158ef93e1461029257806318160ddd146102b0576101d8565b806302cd093d146101dc57806306fdde03146101f8578063095ea7b314610216575b5f5ffd5b6101f660048036038101906101f1919061223f565b6105de565b005b610200610645565b60405161020d9190612313565b60405180910390f35b610230600480360381019061022b919061238d565b6106d5565b60405161023d91906123e5565b60405180910390f35b610260600480360381019061025b91906123fe565b6106f7565b60405161026d9190612438565b60405180910390f35b610290600480360381019061028b919061247b565b61070c565b005b61029a6107ba565b6040516102a791906123e5565b60405180910390f35b6102b86107cc565b6040516102c59190612438565b60405180910390f35b6102e860048036038101906102e391906124b9565b6107d5565b6040516102f591906123e5565b60405180910390f35b610318600480360381019061031391906123fe565b610d79565b6040516103259190612438565b60405180910390f35b610336610d8e565b6040516103439190612524565b60405180910390f35b610354610d96565b6040516103619190612438565b60405180910390f35b610372610da6565b60405161037f9190612438565b60405180910390f35b6103a2600480360381019061039d91906123fe565b610dac565b6040516103af91906123e5565b60405180910390f35b6103c0610dc9565b6040516103cd91906123e5565b60405180910390f35b6103f060048036038101906103eb919061259e565b610ddb565b005b61040c6004803603810190610407919061259e565b610ef6565b005b610416611011565b6040516104239190612438565b60405180910390f35b610446600480360381019061044191906123fe565b611017565b005b610462600480360381019061045d91906123fe565b61118f565b60405161046f9190612438565b60405180910390f35b6104806111d4565b005b61048a6111e7565b604051610497919061260a565b60405180910390f35b6104ba60048036038101906104b59190612623565b61120f565b005b6104d660048036038101906104d1919061247b565b61126a565b005b6104e0611318565b6040516104ed9190612313565b60405180910390f35b610510600480360381019061050b919061238d565b6113a8565b60405161051d91906123e5565b60405180910390f35b61052e61194a565b60405161053b9190612438565b60405180910390f35b61054c611950565b6040516105599190612438565b60405180910390f35b61057c6004803603810190610577919061264e565b611956565b6040516105899190612438565b60405180910390f35b6105ac60048036038101906105a791906123fe565b6119d8565b005b6105c860048036038101906105c391906123fe565b611a5c565b6040516105d591906123e5565b60405180910390f35b6105e6611a79565b8360088190555082600a8190555081600981905550806010819055507fbb5d5c94dff5adb0bc0e043a6c2cf9bb8153231069831102f0e8e53b89924f1f84848484604051610637949392919061268c565b60405180910390a150505050565b606060038054610654906126fc565b80601f0160208091040260200160405190810160405280929190818152602001828054610680906126fc565b80156106cb5780601f106106a2576101008083540402835291602001916106cb565b820191905f5260205f20905b8154815290600101906020018083116106ae57829003601f168201915b5050505050905090565b5f5f6106df611b00565b90506106ec818585611b07565b600191505092915050565b600c602052805f5260405f205f915090505481565b610714611a79565b80600f5f8473ffffffffffffffffffffffffffffffffffffffff1673ffffffffffffffffffffffffffffffffffffffff1681526020019081526020015f205f6101000a81548160ff0219169083151502179055508173ffffffffffffffffffffffffffffffffffffffff167ff93f9a76c1bf3444d22400a00cb9fe990e6abe9dbb333fda48859cfee864543d826040516107ae91906123e5565b60405180910390a25050565b60075f9054906101000a900460ff1681565b5f600254905090565b5f838383600e5f8473ffffffffffffffffffffffffffffffffffffffff1673ffffffffffffffffffffffffffffffffffffffff1681526020019081526020015f205f9054906101000a900460ff161580156108775750600e5f8373ffffffffffffffffffffffffffffffffffffffff1673ffffffffffffffffffffffffffffffffffffffff1681526020019081526020015f205f9054906101000a900460ff16155b6108b6576040517f08c379a00000000000000000000000000000000000000000000000000000000081526004016108ad90612776565b60405180910390fd5b600b5f9054906101000a900460ff16806109165750600f5f8473ffffffffffffffffffffffffffffffffffffffff1673ffffffffffffffffffffffffffffffffffffffff1681526020019081526020015f205f9054906101000a900460ff165b806109675750600f5f8373ffffffffffffffffffffffffffffffffffffffff1673ffffffffffffffffffffffffffffffffffffffff1681526020019081526020015f205f9054906101000a900460ff165b6109a6576040517f08c379a000000000000000000000000000000000000000000000000000000000815260040161099d906127de565b60405180910390fd5b600f5f8473ffffffffffffffffffffffffffffffffffffffff1673ffffffffffffffffffffffffffffffffffffffff1681526020019081526020015f205f9054906101000a900460ff16158015610a445750600f5f8373ffffffffffffffffffffffffffffffffffffffff1673ffffffffffffffffffffffffffffffffffffffff1681526020019081526020015f205f9054906101000a900460ff16155b15610c6057600854811115610a8e576040517f08c379a0000000000000000000000000000000000000000000000000000000008152600401610a8590612846565b60405180910390fd5b610ae0601054600c5f8673ffffffffffffffffffffffffffffffffffffffff1673ffffffffffffffffffffffffffffffffffffffff1681526020019081526020015f2054611b1990919063ffffffff16565b421015610b22576040517f08c379a0000000000000000000000000000000000000000000000000000000008152600401610b19906128ae565b60405180910390fd5b5f600d5f8573ffffffffffffffffffffffffffffffffffffffff1673ffffffffffffffffffffffffffffffffffffffff1681526020019081526020015f205414610bfb57610bb8600954600d5f8673ffffffffffffffffffffffffffffffffffffffff1673ffffffffffffffffffffffffffffffffffffffff1681526020019081526020015f2054611b1990919063ffffffff16565b421015610bfa576040517f08c379a0000000000000000000000000000000000000000000000000000000008152600401610bf190612916565b60405180910390fd5b5b5f610c1782610c098561118f565b611b1990919063ffffffff16565b9050600a54811115610c5e576040517f08c379a0000000000000000000000000000000000000000000000000000000008152600401610c559061297e565b60405180910390fd5b505b610c68611b2e565b5f73ffffffffffffffffffffffffffffffffffffffff168673ffffffffffffffffffffffffffffffffffffffff1603610cd6576040517f08c379a0000000000000000000000000000000000000000000000000000000008152600401610ccd906129e6565b60405180910390fd5b42600d5f8873ffffffffffffffffffffffffffffffffffffffff1673ffffffffffffffffffffffffffffffffffffffff1681526020019081526020015f208190555042600c5f8973ffffffffffffffffffffffffffffffffffffffff1673ffffffffffffffffffffffffffffffffffffffff1681526020019081526020015f2081905550610d65878787611b7d565b9350610d6f611bab565b5050509392505050565b600d602052805f5260405f205f915090505481565b5f6012905090565b6b204fce5e3e2502611000000081565b60095481565b600f602052805f5260405f205f915054906101000a900460ff1681565b600b5f9054906101000a900460ff1681565b610de3611a79565b5f5f90505b83839050811015610ef05781600e5f868685818110610e0a57610e09612a04565b5b9050602002016020810190610e1f91906123fe565b73ffffffffffffffffffffffffffffffffffffffff1673ffffffffffffffffffffffffffffffffffffffff1681526020019081526020015f205f6101000a81548160ff021916908315150217905550838382818110610e8157610e80612a04565b5b9050602002016020810190610e9691906123fe565b73ffffffffffffffffffffffffffffffffffffffff167f6a12b3df6cba4203bd7fd06b816789f87de8c594299aed5717ae070fac781bac83604051610edb91906123e5565b60405180910390a28080600101915050610de8565b50505050565b610efe611a79565b5f5f90505b8383905081101561100b5781600f5f868685818110610f2557610f24612a04565b5b9050602002016020810190610f3a91906123fe565b73ffffffffffffffffffffffffffffffffffffffff1673ffffffffffffffffffffffffffffffffffffffff1681526020019081526020015f205f6101000a81548160ff021916908315150217905550838382818110610f9c57610f9b612a04565b5b9050602002016020810190610fb191906123fe565b73ffffffffffffffffffffffffffffffffffffffff167ff93f9a76c1bf3444d22400a00cb9fe990e6abe9dbb333fda48859cfee864543d83604051610ff691906123e5565b60405180910390a28080600101915050610f03565b50505050565b60105481565b61101f611a79565b3073ffffffffffffffffffffffffffffffffffffffff168173ffffffffffffffffffffffffffffffffffffffff160361108d576040517f08c379a000000000000000000000000000000000000000000000000000000000815260040161108490612a7b565b60405180910390fd5b5f8173ffffffffffffffffffffffffffffffffffffffff166370a08231306040518263ffffffff1660e01b81526004016110c7919061260a565b602060405180830381865afa1580156110e2573d5f5f3e3d5ffd5b505050506040513d601f19601f820116820180604052508101906111069190612aad565b90508173ffffffffffffffffffffffffffffffffffffffff1663a9059cbb61112c6111e7565b836040518363ffffffff1660e01b815260040161114a929190612ad8565b6020604051808303815f875af1158015611166573d5f5f3e3d5ffd5b505050506040513d601f19601f8201168201806040525081019061118a9190612b13565b505050565b5f5f5f8373ffffffffffffffffffffffffffffffffffffffff1673ffffffffffffffffffffffffffffffffffffffff1681526020019081526020015f20549050919050565b6111dc611a79565b6111e55f611bb5565b565b5f60055f9054906101000a900473ffffffffffffffffffffffffffffffffffffffff16905090565b611217611a79565b80600b5f6101000a81548160ff0219169083151502179055507fbeda7dca7bc1b3e80b871f4818129ec73b771581f803d553aeb3484098e5f65a8160405161125f91906123e5565b60405180910390a150565b611272611a79565b80600e5f8473ffffffffffffffffffffffffffffffffffffffff1673ffffffffffffffffffffffffffffffffffffffff1681526020019081526020015f205f6101000a81548160ff0219169083151502179055508173ffffffffffffffffffffffffffffffffffffffff167f6a12b3df6cba4203bd7fd06b816789f87de8c594299aed5717ae070fac781bac8260405161130c91906123e5565b60405180910390a25050565b606060048054611327906126fc565b80601f0160208091040260200160405190810160405280929190818152602001828054611353906126fc565b801561139e5780601f106113755761010080835404028352916020019161139e565b820191905f5260205f20905b81548152906001019060200180831161138157829003601f168201915b5050505050905090565b5f338383600e5f8473ffffffffffffffffffffffffffffffffffffffff1673ffffffffffffffffffffffffffffffffffffffff1681526020019081526020015f205f9054906101000a900460ff1615801561144a5750600e5f8373ffffffffffffffffffffffffffffffffffffffff1673ffffffffffffffffffffffffffffffffffffffff1681526020019081526020015f205f9054906101000a900460ff16155b611489576040517f08c379a000000000000000000000000000000000000000000000000000000000815260040161148090612776565b60405180910390fd5b600b5f9054906101000a900460ff16806114e95750600f5f8473ffffffffffffffffffffffffffffffffffffffff1673ffffffffffffffffffffffffffffffffffffffff1681526020019081526020015f205f9054906101000a900460ff165b8061153a5750600f5f8373ffffffffffffffffffffffffffffffffffffffff1673ffffffffffffffffffffffffffffffffffffffff1681526020019081526020015f205f9054906101000a900460ff165b611579576040517f08c379a0000000000000000000000000000000000000000000000000000000008152600401611570906127de565b60405180910390fd5b600f5f8473ffffffffffffffffffffffffffffffffffffffff1673ffffffffffffffffffffffffffffffffffffffff1681526020019081526020015f205f9054906101000a900460ff161580156116175750600f5f8373ffffffffffffffffffffffffffffffffffffffff1673ffffffffffffffffffffffffffffffffffffffff1681526020019081526020015f205f9054906101000a900460ff16155b1561183357600854811115611661576040517f08c379a000000000000000000000000000000000000000000000000000000000815260040161165890612846565b60405180910390fd5b6116b3601054600c5f8673ffffffffffffffffffffffffffffffffffffffff1673ffffffffffffffffffffffffffffffffffffffff1681526020019081526020015f2054611b1990919063ffffffff16565b4210156116f5576040517f08c379a00000000000000000000000000000000000000000000000000000000081526004016116ec906128ae565b60405180910390fd5b5f600d5f8573ffffffffffffffffffffffffffffffffffffffff1673ffffffffffffffffffffffffffffffffffffffff1681526020019081526020015f2054146117ce5761178b600954600d5f8673ffffffffffffffffffffffffffffffffffffffff1673ffffffffffffffffffffffffffffffffffffffff1681526020019081526020015f2054611b1990919063ffffffff16565b4210156117cd576040517f08c379a00000000000000000000000000000000000000000000000000000000081526004016117c490612916565b60405180910390fd5b5b5f6117ea826117dc8561118f565b611b1990919063ffffffff16565b9050600a54811115611831576040517f08c379a00000000000000000000000000000000000000000000000000000000081526004016118289061297e565b60405180910390fd5b505b61183b611b2e565b5f73ffffffffffffffffffffffffffffffffffffffff168673ffffffffffffffffffffffffffffffffffffffff16036118a9576040517f08c379a00000000000000000000000000000000000000000000000000000000081526004016118a0906129e6565b60405180910390fd5b42600d5f8873ffffffffffffffffffffffffffffffffffffffff1673ffffffffffffffffffffffffffffffffffffffff1681526020019081526020015f208190555042600c5f3373ffffffffffffffffffffffffffffffffffffffff1673ffffffffffffffffffffffffffffffffffffffff1681526020019081526020015f20819055506119378686611c78565b9350611941611bab565b50505092915050565b60085481565b600a5481565b5f60015f8473ffffffffffffffffffffffffffffffffffffffff1673ffffffffffffffffffffffffffffffffffffffff1681526020019081526020015f205f8373ffffffffffffffffffffffffffffffffffffffff1673ffffffffffffffffffffffffffffffffffffffff1681526020019081526020015f2054905092915050565b6119e0611a79565b5f73ffffffffffffffffffffffffffffffffffffffff168173ffffffffffffffffffffffffffffffffffffffff1603611a50575f6040517f1e4fbdf7000000000000000000000000000000000000000000000000000000008152600401611a47919061260a565b60405180910390fd5b611a5981611bb5565b50565b600e602052805f5260405f205f915054906101000a900460ff1681565b611a81611b00565b73ffffffffffffffffffffffffffffffffffffffff16611a9f6111e7565b73ffffffffffffffffffffffffffffffffffffffff1614611afe57611ac2611b00565b6040517f118cdaa7000000000000000000000000000000000000000000000000000000008152600401611af5919061260a565b60405180910390fd5b565b5f33905090565b611b148383836001611c9a565b505050565b5f8183611b269190612b6b565b905092915050565b600260065403611b73576040517f08c379a0000000000000000000000000000000000000000000000000000000008152600401611b6a90612be8565b60405180910390fd5b6002600681905550565b5f5f611b87611b00565b9050611b94858285611e69565b611b9f858585611efb565b60019150509392505050565b6001600681905550565b5f60055f9054906101000a900473ffffffffffffffffffffffffffffffffffffffff1690508160055f6101000a81548173ffffffffffffffffffffffffffffffffffffffff021916908373ffffffffffffffffffffffffffffffffffffffff1602179055508173ffffffffffffffffffffffffffffffffffffffff168173ffffffffffffffffffffffffffffffffffffffff167f8be0079c531659141344cd1fd0a4f28419497f9722a3daafe3b4186f6b6457e060405160405180910390a35050565b5f5f611c82611b00565b9050611c8f818585611efb565b600191505092915050565b5f73ffffffffffffffffffffffffffffffffffffffff168473ffffffffffffffffffffffffffffffffffffffff1603611d0a575f6040517fe602df05000000000000000000000000000000000000000000000000000000008152600401611d01919061260a565b60405180910390fd5b5f73ffffffffffffffffffffffffffffffffffffffff168373ffffffffffffffffffffffffffffffffffffffff1603611d7a575f6040517f94280d62000000000000000000000000000000000000000000000000000000008152600401611d71919061260a565b60405180910390fd5b8160015f8673ffffffffffffffffffffffffffffffffffffffff1673ffffffffffffffffffffffffffffffffffffffff1681526020019081526020015f205f8573ffffffffffffffffffffffffffffffffffffffff1673ffffffffffffffffffffffffffffffffffffffff1681526020019081526020015f20819055508015611e63578273ffffffffffffffffffffffffffffffffffffffff168473ffffffffffffffffffffffffffffffffffffffff167f8c5be1e5ebec7d5bd14f71427d1e84f3dd0314c0f7b2291e5b200ac8c7c3b92584604051611e5a9190612438565b60405180910390a35b50505050565b5f611e748484611956565b90507fffffffffffffffffffffffffffffffffffffffffffffffffffffffffffffffff8114611ef55781811015611ee6578281836040517ffb8f41b2000000000000000000000000000000000000000000000000000000008152600401611edd93929190612c06565b60405180910390fd5b611ef484848484035f611c9a565b5b50505050565b5f73ffffffffffffffffffffffffffffffffffffffff168373ffffffffffffffffffffffffffffffffffffffff1603611f6b575f6040517f96c6fd1e000000000000000000000000000000000000000000000000000000008152600401611f62919061260a565b60405180910390fd5b5f73ffffffffffffffffffffffffffffffffffffffff168273ffffffffffffffffffffffffffffffffffffffff1603611fdb575f6040517fec442f05000000000000000000000000000000000000000000000000000000008152600401611fd2919061260a565b60405180910390fd5b611fe6838383611feb565b505050565b5f73ffffffffffffffffffffffffffffffffffffffff168373ffffffffffffffffffffffffffffffffffffffff160361203b578060025f82825461202f9190612b6b565b92505081905550612109565b5f5f5f8573ffffffffffffffffffffffffffffffffffffffff1673ffffffffffffffffffffffffffffffffffffffff1681526020019081526020015f20549050818110156120c4578381836040517fe450d38c0000000000000000000000000000000000000000000000000000000081526004016120bb93929190612c06565b60405180910390fd5b8181035f5f8673ffffffffffffffffffffffffffffffffffffffff1673ffffffffffffffffffffffffffffffffffffffff1681526020019081526020015f2081905550505b5f73ffffffffffffffffffffffffffffffffffffffff168273ffffffffffffffffffffffffffffffffffffffff1603612150578060025f828254039250508190555061219a565b805f5f8473ffffffffffffffffffffffffffffffffffffffff1673ffffffffffffffffffffffffffffffffffffffff1681526020019081526020015f205f82825401925050819055505b8173ffffffffffffffffffffffffffffffffffffffff168373ffffffffffffffffffffffffffffffffffffffff167fddf252ad1be2c89b69c2b068fc378daa952ba7f163c4a11628f55a4df523b3ef836040516121f79190612438565b60405180910390a3505050565b5f5ffd5b5f5ffd5b5f819050919050565b61221e8161220c565b8114612228575f5ffd5b50565b5f8135905061223981612215565b92915050565b5f5f5f5f6080858703121561225757612256612204565b5b5f6122648782880161222b565b94505060206122758782880161222b565b93505060406122868782880161222b565b92505060606122978782880161222b565b91505092959194509250565b5f81519050919050565b5f82825260208201905092915050565b8281835e5f83830152505050565b5f601f19601f8301169050919050565b5f6122e5826122a3565b6122ef81856122ad565b93506122ff8185602086016122bd565b612308816122cb565b840191505092915050565b5f6020820190508181035f83015261232b81846122db565b905092915050565b5f73ffffffffffffffffffffffffffffffffffffffff82169050919050565b5f61235c82612333565b9050919050565b61236c81612352565b8114612376575f5ffd5b50565b5f8135905061238781612363565b92915050565b5f5f604083850312156123a3576123a2612204565b5b5f6123b085828601612379565b92505060206123c18582860161222b565b9150509250929050565b5f8115159050919050565b6123df816123cb565b82525050565b5f6020820190506123f85f8301846123d6565b92915050565b5f6020828403121561241357612412612204565b5b5f61242084828501612379565b91505092915050565b6124328161220c565b82525050565b5f60208201905061244b5f830184612429565b92915050565b61245a816123cb565b8114612464575f5ffd5b50565b5f8135905061247581612451565b92915050565b5f5f6040838503121561249157612490612204565b5b5f61249e85828601612379565b92505060206124af85828601612467565b9150509250929050565b5f5f5f606084860312156124d0576124cf612204565b5b5f6124dd86828701612379565b93505060206124ee86828701612379565b92505060406124ff8682870161222b565b9150509250925092565b5f60ff82169050919050565b61251e81612509565b82525050565b5f6020820190506125375f830184612515565b92915050565b5f5ffd5b5f5ffd5b5f5ffd5b5f5f83601f84011261255e5761255d61253d565b5b8235905067ffffffffffffffff81111561257b5761257a612541565b5b60208301915083602082028301111561259757612596612545565b5b9250929050565b5f5f5f604084860312156125b5576125b4612204565b5b5f84013567ffffffffffffffff8111156125d2576125d1612208565b5b6125de86828701612549565b935093505060206125f186828701612467565b9150509250925092565b61260481612352565b82525050565b5f60208201905061261d5f8301846125fb565b92915050565b5f6020828403121561263857612637612204565b5b5f61264584828501612467565b91505092915050565b5f5f6040838503121561266457612663612204565b5b5f61267185828601612379565b925050602061268285828601612379565b9150509250929050565b5f60808201905061269f5f830187612429565b6126ac6020830186612429565b6126b96040830185612429565b6126c66060830184612429565b95945050505050565b7f4e487b71000000000000000000000000000000000000000000000000000000005f52602260045260245ffd5b5f600282049050600182168061271357607f821691505b602082108103612726576127256126cf565b5b50919050565b7f4164647265737320697320626c61636b6c6973746564000000000000000000005f82015250565b5f6127606016836122ad565b915061276b8261272c565b602082019050919050565b5f6020820190508181035f83015261278d81612754565b9050919050565b7f54726164696e67206e6f7420656e61626c6564000000000000000000000000005f82015250565b5f6127c86013836122ad565b91506127d382612794565b602082019050919050565b5f6020820190508181035f8301526127f5816127bc565b9050919050565b7f5472616e736665722065786365656473206d617820616d6f756e7400000000005f82015250565b5f612830601b836122ad565b915061283b826127fc565b602082019050919050565b5f6020820190508181035f83015261285d81612824565b9050919050565b7f436f6f6c646f776e2061637469766500000000000000000000000000000000005f82015250565b5f612898600f836122ad565b91506128a382612864565b602082019050919050565b5f6020820190508181035f8301526128c58161288c565b9050919050565b7f486f6c642074696d65206e6f74206d65740000000000000000000000000000005f82015250565b5f6129006011836122ad565b915061290b826128cc565b602082019050919050565b5f6020820190508181035f83015261292d816128f4565b9050919050565b7f45786365656473206d61782077616c6c657420616d6f756e74000000000000005f82015250565b5f6129686019836122ad565b915061297382612934565b602082019050919050565b5f6020820190508181035f8301526129958161295c565b9050919050565b7f496e76616c696420726563697069656e740000000000000000000000000000005f82015250565b5f6129d06011836122ad565b91506129db8261299c565b602082019050919050565b5f6020820190508181035f8301526129fd816129c4565b9050919050565b7f4e487b71000000000000000000000000000000000000000000000000000000005f52603260045260245ffd5b7f43616e6e6f7420776974686472617720746f6b656e20697473656c66000000005f82015250565b5f612a65601c836122ad565b9150612a7082612a31565b602082019050919050565b5f6020820190508181035f830152612a9281612a59565b9050919050565b5f81519050612aa781612215565b92915050565b5f60208284031215612ac257612ac1612204565b5b5f612acf84828501612a99565b91505092915050565b5f604082019050612aeb5f8301856125fb565b612af86020830184612429565b9392505050565b5f81519050612b0d81612451565b92915050565b5f60208284031215612b2857612b27612204565b5b5f612b3584828501612aff565b91505092915050565b7f4e487b71000000000000000000000000000000000000000000000000000000005f52601160045260245ffd5b5f612b758261220c565b9150612b808361220c565b9250828201905080821115612b9857612b97612b3e565b5b92915050565b7f5265656e7472616e637947756172643a207265656e7472616e742063616c6c005f82015250565b5f612bd2601f836122ad565b9150612bdd82612b9e565b602082019050919050565b5f6020820190508181035f830152612bff81612bc6565b9050919050565b5f606082019050612c195f8301866125fb565b612c266020830185612429565b612c336040830184612429565b94935050505056fea2646970667358221220046c762e4feec9060ada05bb5c89f5409dfd61bcfe662247a648c69cc259d9cd64736f6c634300081c0033",
					"opcodes": "PUSH1 0x80 PUSH1 0x40 MSTORE CALLVALUE DUP1 ISZERO PUSH2 0xF JUMPI PUSH0 PUSH0 REVERT JUMPDEST POP CALLER PUSH1 0x40 MLOAD DUP1 PUSH1 0x40 ADD PUSH1 0x40 MSTORE DUP1 PUSH1 0x11 DUP2 MSTORE PUSH1 0x20 ADD PUSH32 0x50726F7068656379204A696D70736F6E73000000000000000000000000000000 DUP2 MSTORE POP PUSH1 0x40 MLOAD DUP1 PUSH1 0x40 ADD PUSH1 0x40 MSTORE DUP1 PUSH1 0x4 DUP2 MSTORE PUSH1 0x20 ADD PUSH32 0x4A696D7000000000000000000000000000000000000000000000000000000000 DUP2 MSTORE POP DUP2 PUSH1 0x3 SWAP1 DUP2 PUSH2 0x8C SWAP2 SWAP1 PUSH2 0x84A JUMP JUMPDEST POP DUP1 PUSH1 0x4 SWAP1 DUP2 PUSH2 0x9C SWAP2 SWAP1 PUSH2 0x84A JUMP JUMPDEST POP POP POP PUSH0 PUSH20 0xFFFFFFFFFFFFFFFFFFFFFFFFFFFFFFFFFFFFFFFF AND DUP2 PUSH20 0xFFFFFFFFFFFFFFFFFFFFFFFFFFFFFFFFFFFFFFFF AND SUB PUSH2 0x10F JUMPI PUSH0 PUSH1 0x40 MLOAD PUSH32 0x1E4FBDF700000000000000000000000000000000000000000000000000000000 DUP2 MSTORE PUSH1 0x4 ADD PUSH2 0x106 SWAP2 SWAP1 PUSH2 0x958 JUMP JUMPDEST PUSH1 0x40 MLOAD DUP1 SWAP2 SUB SWAP1 REVERT JUMPDEST PUSH2 0x11E DUP2 PUSH2 0x2AC PUSH1 0x20 SHL PUSH1 0x20 SHR JUMP JUMPDEST POP PUSH1 0x1 PUSH1 0x6 DUP2 SWAP1 SSTORE POP PUSH1 0x7 PUSH0 SWAP1 SLOAD SWAP1 PUSH2 0x100 EXP SWAP1 DIV PUSH1 0xFF AND ISZERO PUSH2 0x176 JUMPI PUSH1 0x40 MLOAD PUSH32 0x8C379A000000000000000000000000000000000000000000000000000000000 DUP2 MSTORE PUSH1 0x4 ADD PUSH2 0x16D SWAP1 PUSH2 0x9CB JUMP JUMPDEST PUSH1 0x40 MLOAD DUP1 SWAP2 SUB SWAP1 REVERT JUMPDEST PUSH2 0x192 CALLER PUSH12 0x204FCE5E3E25026110000000 PUSH2 0x36F PUSH1 0x20 SHL PUSH1 0x20 SHR JUMP JUMPDEST PUSH1 0x1 PUSH1 0x7 PUSH0 PUSH2 0x100 EXP DUP2 SLOAD DUP2 PUSH1 0xFF MUL NOT AND SWAP1 DUP4 ISZERO ISZERO MUL OR SWAP1 SSTORE POP PUSH9 0x3635C9ADC5DEA00000 PUSH1 0x8 DUP2 SWAP1 SSTORE POP PUSH10 0x152D02C7E14AF6800000 PUSH1 0xA DUP2 SWAP1 SSTORE POP PUSH3 0x15180 PUSH1 0x9 DUP2 SWAP1 SSTORE POP PUSH1 0x3C PUSH1 0x10 DUP2 SWAP1 SSTORE POP PUSH0 PUSH1 0xB PUSH0 PUSH2 0x100 EXP DUP2 SLOAD DUP2 PUSH1 0xFF MUL NOT AND SWAP1 DUP4 ISZERO ISZERO MUL OR SWAP1 SSTORE POP PUSH1 0x1 PUSH1 0xF PUSH0 CALLER PUSH20 0xFFFFFFFFFFFFFFFFFFFFFFFFFFFFFFFFFFFFFFFF AND PUSH20 0xFFFFFFFFFFFFFFFFFFFFFFFFFFFFFFFFFFFFFFFF AND DUP2 MSTORE PUSH1 0x20 ADD SWAP1 DUP2 MSTORE PUSH1 0x20 ADD PUSH0 KECCAK256 PUSH0 PUSH2 0x100 EXP DUP2 SLOAD DUP2 PUSH1 0xFF MUL NOT AND SWAP1 DUP4 ISZERO ISZERO MUL OR SWAP1 SSTORE POP CALLER PUSH20 0xFFFFFFFFFFFFFFFFFFFFFFFFFFFFFFFFFFFFFFFF AND PUSH32 0x9D5570C03A71AF73640DA09C132D73BB3EFE7CA4F55516A1AFC2597CBDFD620C PUSH12 0x204FCE5E3E25026110000000 PUSH1 0x40 MLOAD PUSH2 0x29F SWAP2 SWAP1 PUSH2 0x9F8 JUMP JUMPDEST PUSH1 0x40 MLOAD DUP1 SWAP2 SUB SWAP1 LOG2 PUSH2 0xAA6 JUMP JUMPDEST PUSH0 PUSH1 0x5 PUSH0 SWAP1 SLOAD SWAP1 PUSH2 0x100 EXP SWAP1 DIV PUSH20 0xFFFFFFFFFFFFFFFFFFFFFFFFFFFFFFFFFFFFFFFF AND SWAP1 POP DUP2 PUSH1 0x5 PUSH0 PUSH2 0x100 EXP DUP2 SLOAD DUP2 PUSH20 0xFFFFFFFFFFFFFFFFFFFFFFFFFFFFFFFFFFFFFFFF MUL NOT AND SWAP1 DUP4 PUSH20 0xFFFFFFFFFFFFFFFFFFFFFFFFFFFFFFFFFFFFFFFF AND MUL OR SWAP1 SSTORE POP DUP2 PUSH20 0xFFFFFFFFFFFFFFFFFFFFFFFFFFFFFFFFFFFFFFFF AND DUP2 PUSH20 0xFFFFFFFFFFFFFFFFFFFFFFFFFFFFFFFFFFFFFFFF AND PUSH32 0x8BE0079C531659141344CD1FD0A4F28419497F9722A3DAAFE3B4186F6B6457E0 PUSH1 0x40 MLOAD PUSH1 0x40 MLOAD DUP1 SWAP2 SUB SWAP1 LOG3 POP POP JUMP JUMPDEST PUSH0 PUSH20 0xFFFFFFFFFFFFFFFFFFFFFFFFFFFFFFFFFFFFFFFF AND DUP3 PUSH20 0xFFFFFFFFFFFFFFFFFFFFFFFFFFFFFFFFFFFFFFFF AND SUB PUSH2 0x3DF JUMPI PUSH0 PUSH1 0x40 MLOAD PUSH32 0xEC442F0500000000000000000000000000000000000000000000000000000000 DUP2 MSTORE PUSH1 0x4 ADD PUSH2 0x3D6 SWAP2 SWAP1 PUSH2 0x958 JUMP JUMPDEST PUSH1 0x40 MLOAD DUP1 SWAP2 SUB SWAP1 REVERT JUMPDEST PUSH2 0x3F0 PUSH0 DUP4 DUP4 PUSH2 0x3F4 PUSH1 0x20 SHL PUSH1 0x20 SHR JUMP JUMPDEST POP POP JUMP JUMPDEST PUSH0 PUSH20 0xFFFFFFFFFFFFFFFFFFFFFFFFFFFFFFFFFFFFFFFF AND DUP4 PUSH20 0xFFFFFFFFFFFFFFFFFFFFFFFFFFFFFFFFFFFFFFFF AND SUB PUSH2 0x444 JUMPI DUP1 PUSH1 0x2 PUSH0 DUP3 DUP3 SLOAD PUSH2 0x438 SWAP2 SWAP1 PUSH2 0xA3E JUMP JUMPDEST SWAP3 POP POP DUP2 SWAP1 SSTORE POP PUSH2 0x512 JUMP JUMPDEST PUSH0 PUSH0 PUSH0 DUP6 PUSH20 0xFFFFFFFFFFFFFFFFFFFFFFFFFFFFFFFFFFFFFFFF AND PUSH20 0xFFFFFFFFFFFFFFFFFFFFFFFFFFFFFFFFFFFFFFFF AND DUP2 MSTORE PUSH1 0x20 ADD SWAP1 DUP2 MSTORE PUSH1 0x20 ADD PUSH0 KECCAK256 SLOAD SWAP1 POP DUP2 DUP2 LT ISZERO PUSH2 0x4CD JUMPI DUP4 DUP2 DUP4 PUSH1 0x40 MLOAD PUSH32 0xE450D38C00000000000000000000000000000000000000000000000000000000 DUP2 MSTORE PUSH1 0x4 ADD PUSH2 0x4C4 SWAP4 SWAP3 SWAP2 SWAP1 PUSH2 0xA71 JUMP JUMPDEST PUSH1 0x40 MLOAD DUP1 SWAP2 SUB SWAP1 REVERT JUMPDEST DUP2 DUP2 SUB PUSH0 PUSH0 DUP7 PUSH20 0xFFFFFFFFFFFFFFFFFFFFFFFFFFFFFFFFFFFFFFFF AND PUSH20 0xFFFFFFFFFFFFFFFFFFFFFFFFFFFFFFFFFFFFFFFF AND DUP2 MSTORE PUSH1 0x20 ADD SWAP1 DUP2 MSTORE PUSH1 0x20 ADD PUSH0 KECCAK256 DUP2 SWAP1 SSTORE POP POP JUMPDEST PUSH0 PUSH20 0xFFFFFFFFFFFFFFFFFFFFFFFFFFFFFFFFFFFFFFFF AND DUP3 PUSH20 0xFFFFFFFFFFFFFFFFFFFFFFFFFFFFFFFFFFFFFFFF AND SUB PUSH2 0x559 JUMPI DUP1 PUSH1 0x2 PUSH0 DUP3 DUP3 SLOAD SUB SWAP3 POP POP DUP2 SWAP1 SSTORE POP PUSH2 0x5A3 JUMP JUMPDEST DUP1 PUSH0 PUSH0 DUP5 PUSH20 0xFFFFFFFFFFFFFFFFFFFFFFFFFFFFFFFFFFFFFFFF AND PUSH20 0xFFFFFFFFFFFFFFFFFFFFFFFFFFFFFFFFFFFFFFFF AND DUP2 MSTORE PUSH1 0x20 ADD SWAP1 DUP2 MSTORE PUSH1 0x20 ADD PUSH0 KECCAK256 PUSH0 DUP3 DUP3 SLOAD ADD SWAP3 POP POP DUP2 SWAP1 SSTORE POP JUMPDEST DUP2 PUSH20 0xFFFFFFFFFFFFFFFFFFFFFFFFFFFFFFFFFFFFFFFF AND DUP4 PUSH20 0xFFFFFFFFFFFFFFFFFFFFFFFFFFFFFFFFFFFFFFFF AND PUSH32 0xDDF252AD1BE2C89B69C2B068FC378DAA952BA7F163C4A11628F55A4DF523B3EF DUP4 PUSH1 0x40 MLOAD PUSH2 0x600 SWAP2 SWAP1 PUSH2 0x9F8 JUMP JUMPDEST PUSH1 0x40 MLOAD DUP1 SWAP2 SUB SWAP1 LOG3 POP POP POP JUMP JUMPDEST PUSH0 DUP2 MLOAD SWAP1 POP SWAP2 SWAP1 POP JUMP JUMPDEST PUSH32 0x4E487B7100000000000000000000000000000000000000000000000000000000 PUSH0 MSTORE PUSH1 0x41 PUSH1 0x4 MSTORE PUSH1 0x24 PUSH0 REVERT JUMPDEST PUSH32 0x4E487B7100000000000000000000000000000000000000000000000000000000 PUSH0 MSTORE PUSH1 0x22 PUSH1 0x4 MSTORE PUSH1 0x24 PUSH0 REVERT JUMPDEST PUSH0 PUSH1 0x2 DUP3 DIV SWAP1 POP PUSH1 0x1 DUP3 AND DUP1 PUSH2 0x688 JUMPI PUSH1 0x7F DUP3 AND SWAP2 POP JUMPDEST PUSH1 0x20 DUP3 LT DUP2 SUB PUSH2 0x69B JUMPI PUSH2 0x69A PUSH2 0x644 JUMP JUMPDEST JUMPDEST POP SWAP2 SWAP1 POP JUMP JUMPDEST PUSH0 DUP2 SWAP1 POP DUP2 PUSH0 MSTORE PUSH1 0x20 PUSH0 KECCAK256 SWAP1 POP SWAP2 SWAP1 POP JUMP JUMPDEST PUSH0 PUSH1 0x20 PUSH1 0x1F DUP4 ADD DIV SWAP1 POP SWAP2 SWAP1 POP JUMP JUMPDEST PUSH0 DUP3 DUP3 SHL SWAP1 POP SWAP3 SWAP2 POP POP JUMP JUMPDEST PUSH0 PUSH1 0x8 DUP4 MUL PUSH2 0x6FD PUSH32 0xFFFFFFFFFFFFFFFFFFFFFFFFFFFFFFFFFFFFFFFFFFFFFFFFFFFFFFFFFFFFFFFF DUP3 PUSH2 0x6C2 JUMP JUMPDEST PUSH2 0x707 DUP7 DUP4 PUSH2 0x6C2 JUMP JUMPDEST SWAP6 POP DUP1 NOT DUP5 AND SWAP4 POP DUP1 DUP7 AND DUP5 OR SWAP3 POP POP POP SWAP4 SWAP3 POP POP POP JUMP JUMPDEST PUSH0 DUP2 SWAP1 POP SWAP2 SWAP1 POP JUMP JUMPDEST PUSH0 DUP2 SWAP1 POP SWAP2 SWAP1 POP JUMP JUMPDEST PUSH0 PUSH2 0x74B PUSH2 0x746 PUSH2 0x741 DUP5 PUSH2 0x71F JUMP JUMPDEST PUSH2 0x728 JUMP JUMPDEST PUSH2 0x71F JUMP JUMPDEST SWAP1 POP SWAP2 SWAP1 POP JUMP JUMPDEST PUSH0 DUP2 SWAP1 POP SWAP2 SWAP1 POP JUMP JUMPDEST PUSH2 0x764 DUP4 PUSH2 0x731 JUMP JUMPDEST PUSH2 0x778 PUSH2 0x770 DUP3 PUSH2 0x752 JUMP JUMPDEST DUP5 DUP5 SLOAD PUSH2 0x6CE JUMP JUMPDEST DUP3 SSTORE POP POP POP POP JUMP JUMPDEST PUSH0 PUSH0 SWAP1 POP SWAP1 JUMP JUMPDEST PUSH2 0x78F PUSH2 0x780 JUMP JUMPDEST PUSH2 0x79A DUP2 DUP5 DUP5 PUSH2 0x75B JUMP JUMPDEST POP POP POP JUMP JUMPDEST JUMPDEST DUP2 DUP2 LT ISZERO PUSH2 0x7BD JUMPI PUSH2 0x7B2 PUSH0 DUP3 PUSH2 0x787 JUMP JUMPDEST PUSH1 0x1 DUP2 ADD SWAP1 POP PUSH2 0x7A0 JUMP JUMPDEST POP POP JUMP JUMPDEST PUSH1 0x1F DUP3 GT ISZERO PUSH2 0x802 JUMPI PUSH2 0x7D3 DUP2 PUSH2 0x6A1 JUMP JUMPDEST PUSH2 0x7DC DUP5 PUSH2 0x6B3 JUMP JUMPDEST DUP2 ADD PUSH1 0x20 DUP6 LT ISZERO PUSH2 0x7EB JUMPI DUP2 SWAP1 POP JUMPDEST PUSH2 0x7FF PUSH2 0x7F7 DUP6 PUSH2 0x6B3 JUMP JUMPDEST DUP4 ADD DUP3 PUSH2 0x79F JUMP JUMPDEST POP POP JUMPDEST POP POP POP JUMP JUMPDEST PUSH0 DUP3 DUP3 SHR SWAP1 POP SWAP3 SWAP2 POP POP JUMP JUMPDEST PUSH0 PUSH2 0x822 PUSH0 NOT DUP5 PUSH1 0x8 MUL PUSH2 0x807 JUMP JUMPDEST NOT DUP1 DUP4 AND SWAP2 POP POP SWAP3 SWAP2 POP POP JUMP JUMPDEST PUSH0 PUSH2 0x83A DUP4 DUP4 PUSH2 0x813 JUMP JUMPDEST SWAP2 POP DUP3 PUSH1 0x2 MUL DUP3 OR SWAP1 POP SWAP3 SWAP2 POP POP JUMP JUMPDEST PUSH2 0x853 DUP3 PUSH2 0x60D JUMP JUMPDEST PUSH8 0xFFFFFFFFFFFFFFFF DUP2 GT ISZERO PUSH2 0x86C JUMPI PUSH2 0x86B PUSH2 0x617 JUMP JUMPDEST JUMPDEST PUSH2 0x876 DUP3 SLOAD PUSH2 0x671 JUMP JUMPDEST PUSH2 0x881 DUP3 DUP3 DUP6 PUSH2 0x7C1 JUMP JUMPDEST PUSH0 PUSH1 0x20 SWAP1 POP PUSH1 0x1F DUP4 GT PUSH1 0x1 DUP2 EQ PUSH2 0x8B2 JUMPI PUSH0 DUP5 ISZERO PUSH2 0x8A0 JUMPI DUP3 DUP8 ADD MLOAD SWAP1 POP JUMPDEST PUSH2 0x8AA DUP6 DUP3 PUSH2 0x82F JUMP JUMPDEST DUP7 SSTORE POP PUSH2 0x911 JUMP JUMPDEST PUSH1 0x1F NOT DUP5 AND PUSH2 0x8C0 DUP7 PUSH2 0x6A1 JUMP JUMPDEST PUSH0 JUMPDEST DUP3 DUP2 LT ISZERO PUSH2 0x8E7 JUMPI DUP5 DUP10 ADD MLOAD DUP3 SSTORE PUSH1 0x1 DUP3 ADD SWAP2 POP PUSH1 0x20 DUP6 ADD SWAP5 POP PUSH1 0x20 DUP2 ADD SWAP1 POP PUSH2 0x8C2 JUMP JUMPDEST DUP7 DUP4 LT ISZERO PUSH2 0x904 JUMPI DUP5 DUP10 ADD MLOAD PUSH2 0x900 PUSH1 0x1F DUP10 AND DUP3 PUSH2 0x813 JUMP JUMPDEST DUP4 SSTORE POP JUMPDEST PUSH1 0x1 PUSH1 0x2 DUP9 MUL ADD DUP9 SSTORE POP POP POP JUMPDEST POP POP POP POP POP POP JUMP JUMPDEST PUSH0 PUSH20 0xFFFFFFFFFFFFFFFFFFFFFFFFFFFFFFFFFFFFFFFF DUP3 AND SWAP1 POP SWAP2 SWAP1 POP JUMP JUMPDEST PUSH0 PUSH2 0x942 DUP3 PUSH2 0x919 JUMP JUMPDEST SWAP1 POP SWAP2 SWAP1 POP JUMP JUMPDEST PUSH2 0x952 DUP2 PUSH2 0x938 JUMP JUMPDEST DUP3 MSTORE POP POP JUMP JUMPDEST PUSH0 PUSH1 0x20 DUP3 ADD SWAP1 POP PUSH2 0x96B PUSH0 DUP4 ADD DUP5 PUSH2 0x949 JUMP JUMPDEST SWAP3 SWAP2 POP POP JUMP JUMPDEST PUSH0 DUP3 DUP3 MSTORE PUSH1 0x20 DUP3 ADD SWAP1 POP SWAP3 SWAP2 POP POP JUMP JUMPDEST PUSH32 0x416C726561647920696E697469616C697A656400000000000000000000000000 PUSH0 DUP3 ADD MSTORE POP JUMP JUMPDEST PUSH0 PUSH2 0x9B5 PUSH1 0x13 DUP4 PUSH2 0x971 JUMP JUMPDEST SWAP2 POP PUSH2 0x9C0 DUP3 PUSH2 0x981 JUMP JUMPDEST PUSH1 0x20 DUP3 ADD SWAP1 POP SWAP2 SWAP1 POP JUMP JUMPDEST PUSH0 PUSH1 0x20 DUP3 ADD SWAP1 POP DUP2 DUP2 SUB PUSH0 DUP4 ADD MSTORE PUSH2 0x9E2 DUP2 PUSH2 0x9A9 JUMP JUMPDEST SWAP1 POP SWAP2 SWAP1 POP JUMP JUMPDEST PUSH2 0x9F2 DUP2 PUSH2 0x71F JUMP JUMPDEST DUP3 MSTORE POP POP JUMP JUMPDEST PUSH0 PUSH1 0x20 DUP3 ADD SWAP1 POP PUSH2 0xA0B PUSH0 DUP4 ADD DUP5 PUSH2 0x9E9 JUMP JUMPDEST SWAP3 SWAP2 POP POP JUMP JUMPDEST PUSH32 0x4E487B7100000000000000000000000000000000000000000000000000000000 PUSH0 MSTORE PUSH1 0x11 PUSH1 0x4 MSTORE PUSH1 0x24 PUSH0 REVERT JUMPDEST PUSH0 PUSH2 0xA48 DUP3 PUSH2 0x71F JUMP JUMPDEST SWAP2 POP PUSH2 0xA53 DUP4 PUSH2 0x71F JUMP JUMPDEST SWAP3 POP DUP3 DUP3 ADD SWAP1 POP DUP1 DUP3 GT ISZERO PUSH2 0xA6B JUMPI PUSH2 0xA6A PUSH2 0xA11 JUMP JUMPDEST JUMPDEST SWAP3 SWAP2 POP POP JUMP JUMPDEST PUSH0 PUSH1 0x60 DUP3 ADD SWAP1 POP PUSH2 0xA84 PUSH0 DUP4 ADD DUP7 PUSH2 0x949 JUMP JUMPDEST PUSH2 0xA91 PUSH1 0x20 DUP4 ADD DUP6 PUSH2 0x9E9 JUMP JUMPDEST PUSH2 0xA9E PUSH1 0x40 DUP4 ADD DUP5 PUSH2 0x9E9 JUMP JUMPDEST SWAP5 SWAP4 POP POP POP POP JUMP JUMPDEST PUSH2 0x2C71 DUP1 PUSH2 0xAB3 PUSH0 CODECOPY PUSH0 RETURN INVALID PUSH1 0x80 PUSH1 0x40 MSTORE CALLVALUE DUP1 ISZERO PUSH2 0xF JUMPI PUSH0 PUSH0 REVERT JUMPDEST POP PUSH1 0x4 CALLDATASIZE LT PUSH2 0x1D8 JUMPI PUSH0 CALLDATALOAD PUSH1 0xE0 SHR DUP1 PUSH4 0x611274C5 GT PUSH2 0x102 JUMPI DUP1 PUSH4 0x9155E083 GT PUSH2 0xA0 JUMPI DUP1 PUSH4 0xAA4BDE28 GT PUSH2 0x6F JUMPI DUP1 PUSH4 0xAA4BDE28 EQ PUSH2 0x544 JUMPI DUP1 PUSH4 0xDD62ED3E EQ PUSH2 0x562 JUMPI DUP1 PUSH4 0xF2FDE38B EQ PUSH2 0x592 JUMPI DUP1 PUSH4 0xFE575A87 EQ PUSH2 0x5AE JUMPI PUSH2 0x1D8 JUMP JUMPDEST DUP1 PUSH4 0x9155E083 EQ PUSH2 0x4BC JUMPI DUP1 PUSH4 0x95D89B41 EQ PUSH2 0x4D8 JUMPI DUP1 PUSH4 0xA9059CBB EQ PUSH2 0x4F6 JUMPI DUP1 PUSH4 0xA9E75723 EQ PUSH2 0x526 JUMPI PUSH2 0x1D8 JUMP JUMPDEST DUP1 PUSH4 0x70A08231 GT PUSH2 0xDC JUMPI DUP1 PUSH4 0x70A08231 EQ PUSH2 0x448 JUMPI DUP1 PUSH4 0x715018A6 EQ PUSH2 0x478 JUMPI DUP1 PUSH4 0x8DA5CB5B EQ PUSH2 0x482 JUMPI DUP1 PUSH4 0x8F70CCF7 EQ PUSH2 0x4A0 JUMPI PUSH2 0x1D8 JUMP JUMPDEST DUP1 PUSH4 0x611274C5 EQ PUSH2 0x3F2 JUMPI DUP1 PUSH4 0x68F16293 EQ PUSH2 0x40E JUMPI DUP1 PUSH4 0x6FF1C9BC EQ PUSH2 0x42C JUMPI PUSH2 0x1D8 JUMP JUMPDEST DUP1 PUSH4 0x23B872DD GT PUSH2 0x17A JUMPI DUP1 PUSH4 0x330671AD GT PUSH2 0x149 JUMPI DUP1 PUSH4 0x330671AD EQ PUSH2 0x36A JUMPI DUP1 PUSH4 0x3AF32ABF EQ PUSH2 0x388 JUMPI DUP1 PUSH4 0x4ADA218B EQ PUSH2 0x3B8 JUMPI DUP1 PUSH4 0x6072E6A8 EQ PUSH2 0x3D6 JUMPI PUSH2 0x1D8 JUMP JUMPDEST DUP1 PUSH4 0x23B872DD EQ PUSH2 0x2CE JUMPI DUP1 PUSH4 0x283AF019 EQ PUSH2 0x2FE JUMPI DUP1 PUSH4 0x313CE567 EQ PUSH2 0x32E JUMPI DUP1 PUSH4 0x32CB6B0C EQ PUSH2 0x34C JUMPI PUSH2 0x1D8 JUMP JUMPDEST DUP1 PUSH4 0xD2D8A31 GT PUSH2 0x1B6 JUMPI DUP1 PUSH4 0xD2D8A31 EQ PUSH2 0x246 JUMPI DUP1 PUSH4 0xD392CD9 EQ PUSH2 0x276 JUMPI DUP1 PUSH4 0x158EF93E EQ PUSH2 0x292 JUMPI DUP1 PUSH4 0x18160DDD EQ PUSH2 0x2B0 JUMPI PUSH2 0x1D8 JUMP JUMPDEST DUP1 PUSH4 0x2CD093D EQ PUSH2 0x1DC JUMPI DUP1 PUSH4 0x6FDDE03 EQ PUSH2 0x1F8 JUMPI DUP1 PUSH4 0x95EA7B3 EQ PUSH2 0x216 JUMPI JUMPDEST PUSH0 PUSH0 REVERT JUMPDEST PUSH2 0x1F6 PUSH1 0x4 DUP1 CALLDATASIZE SUB DUP2 ADD SWAP1 PUSH2 0x1F1 SWAP2 SWAP1 PUSH2 0x223F JUMP JUMPDEST PUSH2 0x5DE JUMP JUMPDEST STOP JUMPDEST PUSH2 0x200 PUSH2 0x645 JUMP JUMPDEST PUSH1 0x40 MLOAD PUSH2 0x20D SWAP2 SWAP1 PUSH2 0x2313 JUMP JUMPDEST PUSH1 0x40 MLOAD DUP1 SWAP2 SUB SWAP1 RETURN JUMPDEST PUSH2 0x230 PUSH1 0x4 DUP1 CALLDATASIZE SUB DUP2 ADD SWAP1 PUSH2 0x22B SWAP2 SWAP1 PUSH2 0x238D JUMP JUMPDEST PUSH2 0x6D5 JUMP JUMPDEST PUSH1 0x40 MLOAD PUSH2 0x23D SWAP2 SWAP1 PUSH2 0x23E5 JUMP JUMPDEST PUSH1 0x40 MLOAD DUP1 SWAP2 SUB SWAP1 RETURN JUMPDEST PUSH2 0x260 PUSH1 0x4 DUP1 CALLDATASIZE SUB DUP2 ADD SWAP1 PUSH2 0x25B SWAP2 SWAP1 PUSH2 0x23FE JUMP JUMPDEST PUSH2 0x6F7 JUMP JUMPDEST PUSH1 0x40 MLOAD PUSH2 0x26D SWAP2 SWAP1 PUSH2 0x2438 JUMP JUMPDEST PUSH1 0x40 MLOAD DUP1 SWAP2 SUB SWAP1 RETURN JUMPDEST PUSH2 0x290 PUSH1 0x4 DUP1 CALLDATASIZE SUB DUP2 ADD SWAP1 PUSH2 0x28B SWAP2 SWAP1 PUSH2 0x247B JUMP JUMPDEST PUSH2 0x70C JUMP JUMPDEST STOP JUMPDEST PUSH2 0x29A PUSH2 0x7BA JUMP JUMPDEST PUSH1 0x40 MLOAD PUSH2 0x2A7 SWAP2 SWAP1 PUSH2 0x23E5 JUMP JUMPDEST PUSH1 0x40 MLOAD DUP1 SWAP2 SUB SWAP1 RETURN JUMPDEST PUSH2 0x2B8 PUSH2 0x7CC JUMP JUMPDEST PUSH1 0x40 MLOAD PUSH2 0x2C5 SWAP2 SWAP1 PUSH2 0x2438 JUMP JUMPDEST PUSH1 0x40 MLOAD DUP1 SWAP2 SUB SWAP1 RETURN JUMPDEST PUSH2 0x2E8 PUSH1 0x4 DUP1 CALLDATASIZE SUB DUP2 ADD SWAP1 PUSH2 0x2E3 SWAP2 SWAP1 PUSH2 0x24B9 JUMP JUMPDEST PUSH2 0x7D5 JUMP JUMPDEST PUSH1 0x40 MLOAD PUSH2 0x2F5 SWAP2 SWAP1 PUSH2 0x23E5 JUMP JUMPDEST PUSH1 0x40 MLOAD DUP1 SWAP2 SUB SWAP1 RETURN JUMPDEST PUSH2 0x318 PUSH1 0x4 DUP1 CALLDATASIZE SUB DUP2 ADD SWAP1 PUSH2 0x313 SWAP2 SWAP1 PUSH2 0x23FE JUMP JUMPDEST PUSH2 0xD79 JUMP JUMPDEST PUSH1 0x40 MLOAD PUSH2 0x325 SWAP2 SWAP1 PUSH2 0x2438 JUMP JUMPDEST PUSH1 0x40 MLOAD DUP1 SWAP2 SUB SWAP1 RETURN JUMPDEST PUSH2 0x336 PUSH2 0xD8E JUMP JUMPDEST PUSH1 0x40 MLOAD PUSH2 0x343 SWAP2 SWAP1 PUSH2 0x2524 JUMP JUMPDEST PUSH1 0x40 MLOAD DUP1 SWAP2 SUB SWAP1 RETURN JUMPDEST PUSH2 0x354 PUSH2 0xD96 JUMP JUMPDEST PUSH1 0x40 MLOAD PUSH2 0x361 SWAP2 SWAP1 PUSH2 0x2438 JUMP JUMPDEST PUSH1 0x40 MLOAD DUP1 SWAP2 SUB SWAP1 RETURN JUMPDEST PUSH2 0x372 PUSH2 0xDA6 JUMP JUMPDEST PUSH1 0x40 MLOAD PUSH2 0x37F SWAP2 SWAP1 PUSH2 0x2438 JUMP JUMPDEST PUSH1 0x40 MLOAD DUP1 SWAP2 SUB SWAP1 RETURN JUMPDEST PUSH2 0x3A2 PUSH1 0x4 DUP1 CALLDATASIZE SUB DUP2 ADD SWAP1 PUSH2 0x39D SWAP2 SWAP1 PUSH2 0x23FE JUMP JUMPDEST PUSH2 0xDAC JUMP JUMPDEST PUSH1 0x40 MLOAD PUSH2 0x3AF SWAP2 SWAP1 PUSH2 0x23E5 JUMP JUMPDEST PUSH1 0x40 MLOAD DUP1 SWAP2 SUB SWAP1 RETURN JUMPDEST PUSH2 0x3C0 PUSH2 0xDC9 JUMP JUMPDEST PUSH1 0x40 MLOAD PUSH2 0x3CD SWAP2 SWAP1 PUSH2 0x23E5 JUMP JUMPDEST PUSH1 0x40 MLOAD DUP1 SWAP2 SUB SWAP1 RETURN JUMPDEST PUSH2 0x3F0 PUSH1 0x4 DUP1 CALLDATASIZE SUB DUP2 ADD SWAP1 PUSH2 0x3EB SWAP2 SWAP1 PUSH2 0x259E JUMP JUMPDEST PUSH2 0xDDB JUMP JUMPDEST STOP JUMPDEST PUSH2 0x40C PUSH1 0x4 DUP1 CALLDATASIZE SUB DUP2 ADD SWAP1 PUSH2 0x407 SWAP2 SWAP1 PUSH2 0x259E JUMP JUMPDEST PUSH2 0xEF6 JUMP JUMPDEST STOP JUMPDEST PUSH2 0x416 PUSH2 0x1011 JUMP JUMPDEST PUSH1 0x40 MLOAD PUSH2 0x423 SWAP2 SWAP1 PUSH2 0x2438 JUMP JUMPDEST PUSH1 0x40 MLOAD DUP1 SWAP2 SUB SWAP1 RETURN JUMPDEST PUSH2 0x446 PUSH1 0x4 DUP1 CALLDATASIZE SUB DUP2 ADD SWAP1 PUSH2 0x441 SWAP2 SWAP1 PUSH2 0x23FE JUMP JUMPDEST PUSH2 0x1017 JUMP JUMPDEST STOP JUMPDEST PUSH2 0x462 PUSH1 0x4 DUP1 CALLDATASIZE SUB DUP2 ADD SWAP1 PUSH2 0x45D SWAP2 SWAP1 PUSH2 0x23FE JUMP JUMPDEST PUSH2 0x118F JUMP JUMPDEST PUSH1 0x40 MLOAD PUSH2 0x46F SWAP2 SWAP1 PUSH2 0x2438 JUMP JUMPDEST PUSH1 0x40 MLOAD DUP1 SWAP2 SUB SWAP1 RETURN JUMPDEST PUSH2 0x480 PUSH2 0x11D4 JUMP JUMPDEST STOP JUMPDEST PUSH2 0x48A PUSH2 0x11E7 JUMP JUMPDEST PUSH1 0x40 MLOAD PUSH2 0x497 SWAP2 SWAP1 PUSH2 0x260A JUMP JUMPDEST PUSH1 0x40 MLOAD DUP1 SWAP2 SUB SWAP1 RETURN JUMPDEST PUSH2 0x4BA PUSH1 0x4 DUP1 CALLDATASIZE SUB DUP2 ADD SWAP1 PUSH2 0x4B5 SWAP2 SWAP1 PUSH2 0x2623 JUMP JUMPDEST PUSH2 0x120F JUMP JUMPDEST STOP JUMPDEST PUSH2 0x4D6 PUSH1 0x4 DUP1 CALLDATASIZE SUB DUP2 ADD SWAP1 PUSH2 0x4D1 SWAP2 SWAP1 PUSH2 0x247B JUMP JUMPDEST PUSH2 0x126A JUMP JUMPDEST STOP JUMPDEST PUSH2 0x4E0 PUSH2 0x1318 JUMP JUMPDEST PUSH1 0x40 MLOAD PUSH2 0x4ED SWAP2 SWAP1 PUSH2 0x2313 JUMP JUMPDEST PUSH1 0x40 MLOAD DUP1 SWAP2 SUB SWAP1 RETURN JUMPDEST PUSH2 0x510 PUSH1 0x4 DUP1 CALLDATASIZE SUB DUP2 ADD SWAP1 PUSH2 0x50B SWAP2 SWAP1 PUSH2 0x238D JUMP JUMPDEST PUSH2 0x13A8 JUMP JUMPDEST PUSH1 0x40 MLOAD PUSH2 0x51D SWAP2 SWAP1 PUSH2 0x23E5 JUMP JUMPDEST PUSH1 0x40 MLOAD DUP1 SWAP2 SUB SWAP1 RETURN JUMPDEST PUSH2 0x52E PUSH2 0x194A JUMP JUMPDEST PUSH1 0x40 MLOAD PUSH2 0x53B SWAP2 SWAP1 PUSH2 0x2438 JUMP JUMPDEST PUSH1 0x40 MLOAD DUP1 SWAP2 SUB SWAP1 RETURN JUMPDEST PUSH2 0x54C PUSH2 0x1950 JUMP JUMPDEST PUSH1 0x40 MLOAD PUSH2 0x559 SWAP2 SWAP1 PUSH2 0x2438 JUMP JUMPDEST PUSH1 0x40 MLOAD DUP1 SWAP2 SUB SWAP1 RETURN JUMPDEST PUSH2 0x57C PUSH1 0x4 DUP1 CALLDATASIZE SUB DUP2 ADD SWAP1 PUSH2 0x577 SWAP2 SWAP1 PUSH2 0x264E JUMP JUMPDEST PUSH2 0x1956 JUMP JUMPDEST PUSH1 0x40 MLOAD PUSH2 0x589 SWAP2 SWAP1 PUSH2 0x2438 JUMP JUMPDEST PUSH1 0x40 MLOAD DUP1 SWAP2 SUB SWAP1 RETURN JUMPDEST PUSH2 0x5AC PUSH1 0x4 DUP1 CALLDATASIZE SUB DUP2 ADD SWAP1 PUSH2 0x5A7 SWAP2 SWAP1 PUSH2 0x23FE JUMP JUMPDEST PUSH2 0x19D8 JUMP JUMPDEST STOP JUMPDEST PUSH2 0x5C8 PUSH1 0x4 DUP1 CALLDATASIZE SUB DUP2 ADD SWAP1 PUSH2 0x5C3 SWAP2 SWAP1 PUSH2 0x23FE JUMP JUMPDEST PUSH2 0x1A5C JUMP JUMPDEST PUSH1 0x40 MLOAD PUSH2 0x5D5 SWAP2 SWAP1 PUSH2 0x23E5 JUMP JUMPDEST PUSH1 0x40 MLOAD DUP1 SWAP2 SUB SWAP1 RETURN JUMPDEST PUSH2 0x5E6 PUSH2 0x1A79 JUMP JUMPDEST DUP4 PUSH1 0x8 DUP2 SWAP1 SSTORE POP DUP3 PUSH1 0xA DUP2 SWAP1 SSTORE POP DUP2 PUSH1 0x9 DUP2 SWAP1 SSTORE POP DUP1 PUSH1 0x10 DUP2 SWAP1 SSTORE POP PUSH32 0xBB5D5C94DFF5ADB0BC0E043A6C2CF9BB8153231069831102F0E8E53B89924F1F DUP5 DUP5 DUP5 DUP5 PUSH1 0x40 MLOAD PUSH2 0x637 SWAP5 SWAP4 SWAP3 SWAP2 SWAP1 PUSH2 0x268C JUMP JUMPDEST PUSH1 0x40 MLOAD DUP1 SWAP2 SUB SWAP1 LOG1 POP POP POP POP JUMP JUMPDEST PUSH1 0x60 PUSH1 0x3 DUP1 SLOAD PUSH2 0x654 SWAP1 PUSH2 0x26FC JUMP JUMPDEST DUP1 PUSH1 0x1F ADD PUSH1 0x20 DUP1 SWAP2 DIV MUL PUSH1 0x20 ADD PUSH1 0x40 MLOAD SWAP1 DUP2 ADD PUSH1 0x40 MSTORE DUP1 SWAP3 SWAP2 SWAP1 DUP2 DUP2 MSTORE PUSH1 0x20 ADD DUP3 DUP1 SLOAD PUSH2 0x680 SWAP1 PUSH2 0x26FC JUMP JUMPDEST DUP1 ISZERO PUSH2 0x6CB JUMPI DUP1 PUSH1 0x1F LT PUSH2 0x6A2 JUMPI PUSH2 0x100 DUP1 DUP4 SLOAD DIV MUL DUP4 MSTORE SWAP2 PUSH1 0x20 ADD SWAP2 PUSH2 0x6CB JUMP JUMPDEST DUP3 ADD SWAP2 SWAP1 PUSH0 MSTORE PUSH1 0x20 PUSH0 KECCAK256 SWAP1 JUMPDEST DUP2 SLOAD DUP2 MSTORE SWAP1 PUSH1 0x1 ADD SWAP1 PUSH1 0x20 ADD DUP1 DUP4 GT PUSH2 0x6AE JUMPI DUP3 SWAP1 SUB PUSH1 0x1F AND DUP3 ADD SWAP2 JUMPDEST POP POP POP POP POP SWAP1 POP SWAP1 JUMP JUMPDEST PUSH0 PUSH0 PUSH2 0x6DF PUSH2 0x1B00 JUMP JUMPDEST SWAP1 POP PUSH2 0x6EC DUP2 DUP6 DUP6 PUSH2 0x1B07 JUMP JUMPDEST PUSH1 0x1 SWAP2 POP POP SWAP3 SWAP2 POP POP JUMP JUMPDEST PUSH1 0xC PUSH1 0x20 MSTORE DUP1 PUSH0 MSTORE PUSH1 0x40 PUSH0 KECCAK256 PUSH0 SWAP2 POP SWAP1 POP SLOAD DUP2 JUMP JUMPDEST PUSH2 0x714 PUSH2 0x1A79 JUMP JUMPDEST DUP1 PUSH1 0xF PUSH0 DUP5 PUSH20 0xFFFFFFFFFFFFFFFFFFFFFFFFFFFFFFFFFFFFFFFF AND PUSH20 0xFFFFFFFFFFFFFFFFFFFFFFFFFFFFFFFFFFFFFFFF AND DUP2 MSTORE PUSH1 0x20 ADD SWAP1 DUP2 MSTORE PUSH1 0x20 ADD PUSH0 KECCAK256 PUSH0 PUSH2 0x100 EXP DUP2 SLOAD DUP2 PUSH1 0xFF MUL NOT AND SWAP1 DUP4 ISZERO ISZERO MUL OR SWAP1 SSTORE POP DUP2 PUSH20 0xFFFFFFFFFFFFFFFFFFFFFFFFFFFFFFFFFFFFFFFF AND PUSH32 0xF93F9A76C1BF3444D22400A00CB9FE990E6ABE9DBB333FDA48859CFEE864543D DUP3 PUSH1 0x40 MLOAD PUSH2 0x7AE SWAP2 SWAP1 PUSH2 0x23E5 JUMP JUMPDEST PUSH1 0x40 MLOAD DUP1 SWAP2 SUB SWAP1 LOG2 POP POP JUMP JUMPDEST PUSH1 0x7 PUSH0 SWAP1 SLOAD SWAP1 PUSH2 0x100 EXP SWAP1 DIV PUSH1 0xFF AND DUP2 JUMP JUMPDEST PUSH0 PUSH1 0x2 SLOAD SWAP1 POP SWAP1 JUMP JUMPDEST PUSH0 DUP4 DUP4 DUP4 PUSH1 0xE PUSH0 DUP5 PUSH20 0xFFFFFFFFFFFFFFFFFFFFFFFFFFFFFFFFFFFFFFFF AND PUSH20 0xFFFFFFFFFFFFFFFFFFFFFFFFFFFFFFFFFFFFFFFF AND DUP2 MSTORE PUSH1 0x20 ADD SWAP1 DUP2 MSTORE PUSH1 0x20 ADD PUSH0 KECCAK256 PUSH0 SWAP1 SLOAD SWAP1 PUSH2 0x100 EXP SWAP1 DIV PUSH1 0xFF AND ISZERO DUP1 ISZERO PUSH2 0x877 JUMPI POP PUSH1 0xE PUSH0 DUP4 PUSH20 0xFFFFFFFFFFFFFFFFFFFFFFFFFFFFFFFFFFFFFFFF AND PUSH20 0xFFFFFFFFFFFFFFFFFFFFFFFFFFFFFFFFFFFFFFFF AND DUP2 MSTORE PUSH1 0x20 ADD SWAP1 DUP2 MSTORE PUSH1 0x20 ADD PUSH0 KECCAK256 PUSH0 SWAP1 SLOAD SWAP1 PUSH2 0x100 EXP SWAP1 DIV PUSH1 0xFF AND ISZERO JUMPDEST PUSH2 0x8B6 JUMPI PUSH1 0x40 MLOAD PUSH32 0x8C379A000000000000000000000000000000000000000000000000000000000 DUP2 MSTORE PUSH1 0x4 ADD PUSH2 0x8AD SWAP1 PUSH2 0x2776 JUMP JUMPDEST PUSH1 0x40 MLOAD DUP1 SWAP2 SUB SWAP1 REVERT JUMPDEST PUSH1 0xB PUSH0 SWAP1 SLOAD SWAP1 PUSH2 0x100 EXP SWAP1 DIV PUSH1 0xFF AND DUP1 PUSH2 0x916 JUMPI POP PUSH1 0xF PUSH0 DUP5 PUSH20 0xFFFFFFFFFFFFFFFFFFFFFFFFFFFFFFFFFFFFFFFF AND PUSH20 0xFFFFFFFFFFFFFFFFFFFFFFFFFFFFFFFFFFFFFFFF AND DUP2 MSTORE PUSH1 0x20 ADD SWAP1 DUP2 MSTORE PUSH1 0x20 ADD PUSH0 KECCAK256 PUSH0 SWAP1 SLOAD SWAP1 PUSH2 0x100 EXP SWAP1 DIV PUSH1 0xFF AND JUMPDEST DUP1 PUSH2 0x967 JUMPI POP PUSH1 0xF PUSH0 DUP4 PUSH20 0xFFFFFFFFFFFFFFFFFFFFFFFFFFFFFFFFFFFFFFFF AND PUSH20 0xFFFFFFFFFFFFFFFFFFFFFFFFFFFFFFFFFFFFFFFF AND DUP2 MSTORE PUSH1 0x20 ADD SWAP1 DUP2 MSTORE PUSH1 0x20 ADD PUSH0 KECCAK256 PUSH0 SWAP1 SLOAD SWAP1 PUSH2 0x100 EXP SWAP1 DIV PUSH1 0xFF AND JUMPDEST PUSH2 0x9A6 JUMPI PUSH1 0x40 MLOAD PUSH32 0x8C379A000000000000000000000000000000000000000000000000000000000 DUP2 MSTORE PUSH1 0x4 ADD PUSH2 0x99D SWAP1 PUSH2 0x27DE JUMP JUMPDEST PUSH1 0x40 MLOAD DUP1 SWAP2 SUB SWAP1 REVERT JUMPDEST PUSH1 0xF PUSH0 DUP5 PUSH20 0xFFFFFFFFFFFFFFFFFFFFFFFFFFFFFFFFFFFFFFFF AND PUSH20 0xFFFFFFFFFFFFFFFFFFFFFFFFFFFFFFFFFFFFFFFF AND DUP2 MSTORE PUSH1 0x20 ADD SWAP1 DUP2 MSTORE PUSH1 0x20 ADD PUSH0 KECCAK256 PUSH0 SWAP1 SLOAD SWAP1 PUSH2 0x100 EXP SWAP1 DIV PUSH1 0xFF AND ISZERO DUP1 ISZERO PUSH2 0xA44 JUMPI POP PUSH1 0xF PUSH0 DUP4 PUSH20 0xFFFFFFFFFFFFFFFFFFFFFFFFFFFFFFFFFFFFFFFF AND PUSH20 0xFFFFFFFFFFFFFFFFFFFFFFFFFFFFFFFFFFFFFFFF AND DUP2 MSTORE PUSH1 0x20 ADD SWAP1 DUP2 MSTORE PUSH1 0x20 ADD PUSH0 KECCAK256 PUSH0 SWAP1 SLOAD SWAP1 PUSH2 0x100 EXP SWAP1 DIV PUSH1 0xFF AND ISZERO JUMPDEST ISZERO PUSH2 0xC60 JUMPI PUSH1 0x8 SLOAD DUP2 GT ISZERO PUSH2 0xA8E JUMPI PUSH1 0x40 MLOAD PUSH32 0x8C379A000000000000000000000000000000000000000000000000000000000 DUP2 MSTORE PUSH1 0x4 ADD PUSH2 0xA85 SWAP1 PUSH2 0x2846 JUMP JUMPDEST PUSH1 0x40 MLOAD DUP1 SWAP2 SUB SWAP1 REVERT JUMPDEST PUSH2 0xAE0 PUSH1 0x10 SLOAD PUSH1 0xC PUSH0 DUP7 PUSH20 0xFFFFFFFFFFFFFFFFFFFFFFFFFFFFFFFFFFFFFFFF AND PUSH20 0xFFFFFFFFFFFFFFFFFFFFFFFFFFFFFFFFFFFFFFFF AND DUP2 MSTORE PUSH1 0x20 ADD SWAP1 DUP2 MSTORE PUSH1 0x20 ADD PUSH0 KECCAK256 SLOAD PUSH2 0x1B19 SWAP1 SWAP2 SWAP1 PUSH4 0xFFFFFFFF AND JUMP JUMPDEST TIMESTAMP LT ISZERO PUSH2 0xB22 JUMPI PUSH1 0x40 MLOAD PUSH32 0x8C379A000000000000000000000000000000000000000000000000000000000 DUP2 MSTORE PUSH1 0x4 ADD PUSH2 0xB19 SWAP1 PUSH2 0x28AE JUMP JUMPDEST PUSH1 0x40 MLOAD DUP1 SWAP2 SUB SWAP1 REVERT JUMPDEST PUSH0 PUSH1 0xD PUSH0 DUP6 PUSH20 0xFFFFFFFFFFFFFFFFFFFFFFFFFFFFFFFFFFFFFFFF AND PUSH20 0xFFFFFFFFFFFFFFFFFFFFFFFFFFFFFFFFFFFFFFFF AND DUP2 MSTORE PUSH1 0x20 ADD SWAP1 DUP2 MSTORE PUSH1 0x20 ADD PUSH0 KECCAK256 SLOAD EQ PUSH2 0xBFB JUMPI PUSH2 0xBB8 PUSH1 0x9 SLOAD PUSH1 0xD PUSH0 DUP7 PUSH20 0xFFFFFFFFFFFFFFFFFFFFFFFFFFFFFFFFFFFFFFFF AND PUSH20 0xFFFFFFFFFFFFFFFFFFFFFFFFFFFFFFFFFFFFFFFF AND DUP2 MSTORE PUSH1 0x20 ADD SWAP1 DUP2 MSTORE PUSH1 0x20 ADD PUSH0 KECCAK256 SLOAD PUSH2 0x1B19 SWAP1 SWAP2 SWAP1 PUSH4 0xFFFFFFFF AND JUMP JUMPDEST TIMESTAMP LT ISZERO PUSH2 0xBFA JUMPI PUSH1 0x40 MLOAD PUSH32 0x8C379A000000000000000000000000000000000000000000000000000000000 DUP2 MSTORE PUSH1 0x4 ADD PUSH2 0xBF1 SWAP1 PUSH2 0x2916 JUMP JUMPDEST PUSH1 0x40 MLOAD DUP1 SWAP2 SUB SWAP1 REVERT JUMPDEST JUMPDEST PUSH0 PUSH2 0xC17 DUP3 PUSH2 0xC09 DUP6 PUSH2 0x118F JUMP JUMPDEST PUSH2 0x1B19 SWAP1 SWAP2 SWAP1 PUSH4 0xFFFFFFFF AND JUMP JUMPDEST SWAP1 POP PUSH1 0xA SLOAD DUP2 GT ISZERO PUSH2 0xC5E JUMPI PUSH1 0x40 MLOAD PUSH32 0x8C379A000000000000000000000000000000000000000000000000000000000 DUP2 MSTORE PUSH1 0x4 ADD PUSH2 0xC55 SWAP1 PUSH2 0x297E JUMP JUMPDEST PUSH1 0x40 MLOAD DUP1 SWAP2 SUB SWAP1 REVERT JUMPDEST POP JUMPDEST PUSH2 0xC68 PUSH2 0x1B2E JUMP JUMPDEST PUSH0 PUSH20 0xFFFFFFFFFFFFFFFFFFFFFFFFFFFFFFFFFFFFFFFF AND DUP7 PUSH20 0xFFFFFFFFFFFFFFFFFFFFFFFFFFFFFFFFFFFFFFFF AND SUB PUSH2 0xCD6 JUMPI PUSH1 0x40 MLOAD PUSH32 0x8C379A000000000000000000000000000000000000000000000000000000000 DUP2 MSTORE PUSH1 0x4 ADD PUSH2 0xCCD SWAP1 PUSH2 0x29E6 JUMP JUMPDEST PUSH1 0x40 MLOAD DUP1 SWAP2 SUB SWAP1 REVERT JUMPDEST TIMESTAMP PUSH1 0xD PUSH0 DUP9 PUSH20 0xFFFFFFFFFFFFFFFFFFFFFFFFFFFFFFFFFFFFFFFF AND PUSH20 0xFFFFFFFFFFFFFFFFFFFFFFFFFFFFFFFFFFFFFFFF AND DUP2 MSTORE PUSH1 0x20 ADD SWAP1 DUP2 MSTORE PUSH1 0x20 ADD PUSH0 KECCAK256 DUP2 SWAP1 SSTORE POP TIMESTAMP PUSH1 0xC PUSH0 DUP10 PUSH20 0xFFFFFFFFFFFFFFFFFFFFFFFFFFFFFFFFFFFFFFFF AND PUSH20 0xFFFFFFFFFFFFFFFFFFFFFFFFFFFFFFFFFFFFFFFF AND DUP2 MSTORE PUSH1 0x20 ADD SWAP1 DUP2 MSTORE PUSH1 0x20 ADD PUSH0 KECCAK256 DUP2 SWAP1 SSTORE POP PUSH2 0xD65 DUP8 DUP8 DUP8 PUSH2 0x1B7D JUMP JUMPDEST SWAP4 POP PUSH2 0xD6F PUSH2 0x1BAB JUMP JUMPDEST POP POP POP SWAP4 SWAP3 POP POP POP JUMP JUMPDEST PUSH1 0xD PUSH1 0x20 MSTORE DUP1 PUSH0 MSTORE PUSH1 0x40 PUSH0 KECCAK256 PUSH0 SWAP2 POP SWAP1 POP SLOAD DUP2 JUMP JUMPDEST PUSH0 PUSH1 0x12 SWAP1 POP SWAP1 JUMP JUMPDEST PUSH12 0x204FCE5E3E25026110000000 DUP2 JUMP JUMPDEST PUSH1 0x9 SLOAD DUP2 JUMP JUMPDEST PUSH1 0xF PUSH1 0x20 MSTORE DUP1 PUSH0 MSTORE PUSH1 0x40 PUSH0 KECCAK256 PUSH0 SWAP2 POP SLOAD SWAP1 PUSH2 0x100 EXP SWAP1 DIV PUSH1 0xFF AND DUP2 JUMP JUMPDEST PUSH1 0xB PUSH0 SWAP1 SLOAD SWAP1 PUSH2 0x100 EXP SWAP1 DIV PUSH1 0xFF AND DUP2 JUMP JUMPDEST PUSH2 0xDE3 PUSH2 0x1A79 JUMP JUMPDEST PUSH0 PUSH0 SWAP1 POP JUMPDEST DUP4 DUP4 SWAP1 POP DUP2 LT ISZERO PUSH2 0xEF0 JUMPI DUP2 PUSH1 0xE PUSH0 DUP7 DUP7 DUP6 DUP2 DUP2 LT PUSH2 0xE0A JUMPI PUSH2 0xE09 PUSH2 0x2A04 JUMP JUMPDEST JUMPDEST SWAP1 POP PUSH1 0x20 MUL ADD PUSH1 0x20 DUP2 ADD SWAP1 PUSH2 0xE1F SWAP2 SWAP1 PUSH2 0x23FE JUMP JUMPDEST PUSH20 0xFFFFFFFFFFFFFFFFFFFFFFFFFFFFFFFFFFFFFFFF AND PUSH20 0xFFFFFFFFFFFFFFFFFFFFFFFFFFFFFFFFFFFFFFFF AND DUP2 MSTORE PUSH1 0x20 ADD SWAP1 DUP2 MSTORE PUSH1 0x20 ADD PUSH0 KECCAK256 PUSH0 PUSH2 0x100 EXP DUP2 SLOAD DUP2 PUSH1 0xFF MUL NOT AND SWAP1 DUP4 ISZERO ISZERO MUL OR SWAP1 SSTORE POP DUP4 DUP4 DUP3 DUP2 DUP2 LT PUSH2 0xE81 JUMPI PUSH2 0xE80 PUSH2 0x2A04 JUMP JUMPDEST JUMPDEST SWAP1 POP PUSH1 0x20 MUL ADD PUSH1 0x20 DUP2 ADD SWAP1 PUSH2 0xE96 SWAP2 SWAP1 PUSH2 0x23FE JUMP JUMPDEST PUSH20 0xFFFFFFFFFFFFFFFFFFFFFFFFFFFFFFFFFFFFFFFF AND PUSH32 0x6A12B3DF6CBA4203BD7FD06B816789F87DE8C594299AED5717AE070FAC781BAC DUP4 PUSH1 0x40 MLOAD PUSH2 0xEDB SWAP2 SWAP1 PUSH2 0x23E5 JUMP JUMPDEST PUSH1 0x40 MLOAD DUP1 SWAP2 SUB SWAP1 LOG2 DUP1 DUP1 PUSH1 0x1 ADD SWAP2 POP POP PUSH2 0xDE8 JUMP JUMPDEST POP POP POP POP JUMP JUMPDEST PUSH2 0xEFE PUSH2 0x1A79 JUMP JUMPDEST PUSH0 PUSH0 SWAP1 POP JUMPDEST DUP4 DUP4 SWAP1 POP DUP2 LT ISZERO PUSH2 0x100B JUMPI DUP2 PUSH1 0xF PUSH0 DUP7 DUP7 DUP6 DUP2 DUP2 LT PUSH2 0xF25 JUMPI PUSH2 0xF24 PUSH2 0x2A04 JUMP JUMPDEST JUMPDEST SWAP1 POP PUSH1 0x20 MUL ADD PUSH1 0x20 DUP2 ADD SWAP1 PUSH2 0xF3A SWAP2 SWAP1 PUSH2 0x23FE JUMP JUMPDEST PUSH20 0xFFFFFFFFFFFFFFFFFFFFFFFFFFFFFFFFFFFFFFFF AND PUSH20 0xFFFFFFFFFFFFFFFFFFFFFFFFFFFFFFFFFFFFFFFF AND DUP2 MSTORE PUSH1 0x20 ADD SWAP1 DUP2 MSTORE PUSH1 0x20 ADD PUSH0 KECCAK256 PUSH0 PUSH2 0x100 EXP DUP2 SLOAD DUP2 PUSH1 0xFF MUL NOT AND SWAP1 DUP4 ISZERO ISZERO MUL OR SWAP1 SSTORE POP DUP4 DUP4 DUP3 DUP2 DUP2 LT PUSH2 0xF9C JUMPI PUSH2 0xF9B PUSH2 0x2A04 JUMP JUMPDEST JUMPDEST SWAP1 POP PUSH1 0x20 MUL ADD PUSH1 0x20 DUP2 ADD SWAP1 PUSH2 0xFB1 SWAP2 SWAP1 PUSH2 0x23FE JUMP JUMPDEST PUSH20 0xFFFFFFFFFFFFFFFFFFFFFFFFFFFFFFFFFFFFFFFF AND PUSH32 0xF93F9A76C1BF3444D22400A00CB9FE990E6ABE9DBB333FDA48859CFEE864543D DUP4 PUSH1 0x40 MLOAD PUSH2 0xFF6 SWAP2 SWAP1 PUSH2 0x23E5 JUMP JUMPDEST PUSH1 0x40 MLOAD DUP1 SWAP2 SUB SWAP1 LOG2 DUP1 DUP1 PUSH1 0x1 ADD SWAP2 POP POP PUSH2 0xF03 JUMP JUMPDEST POP POP POP POP JUMP JUMPDEST PUSH1 0x10 SLOAD DUP2 JUMP JUMPDEST PUSH2 0x101F PUSH2 0x1A79 JUMP JUMPDEST ADDRESS PUSH20 0xFFFFFFFFFFFFFFFFFFFFFFFFFFFFFFFFFFFFFFFF AND DUP2 PUSH20 0xFFFFFFFFFFFFFFFFFFFFFFFFFFFFFFFFFFFFFFFF AND SUB PUSH2 0x108D JUMPI PUSH1 0x40 MLOAD PUSH32 0x8C379A000000000000000000000000000000000000000000000000000000000 DUP2 MSTORE PUSH1 0x4 ADD PUSH2 0x1084 SWAP1 PUSH2 0x2A7B JUMP JUMPDEST PUSH1 0x40 MLOAD DUP1 SWAP2 SUB SWAP1 REVERT JUMPDEST PUSH0 DUP2 PUSH20 0xFFFFFFFFFFFFFFFFFFFFFFFFFFFFFFFFFFFFFFFF AND PUSH4 0x70A08231 ADDRESS PUSH1 0x40 MLOAD DUP3 PUSH4 0xFFFFFFFF AND PUSH1 0xE0 SHL DUP2 MSTORE PUSH1 0x4 ADD PUSH2 0x10C7 SWAP2 SWAP1 PUSH2 0x260A JUMP JUMPDEST PUSH1 0x20 PUSH1 0x40 MLOAD DUP1 DUP4 SUB DUP2 DUP7 GAS STATICCALL ISZERO DUP1 ISZERO PUSH2 0x10E2 JUMPI RETURNDATASIZE PUSH0 PUSH0 RETURNDATACOPY RETURNDATASIZE PUSH0 REVERT JUMPDEST POP POP POP POP PUSH1 0x40 MLOAD RETURNDATASIZE PUSH1 0x1F NOT PUSH1 0x1F DUP3 ADD AND DUP3 ADD DUP1 PUSH1 0x40 MSTORE POP DUP2 ADD SWAP1 PUSH2 0x1106 SWAP2 SWAP1 PUSH2 0x2AAD JUMP JUMPDEST SWAP1 POP DUP2 PUSH20 0xFFFFFFFFFFFFFFFFFFFFFFFFFFFFFFFFFFFFFFFF AND PUSH4 0xA9059CBB PUSH2 0x112C PUSH2 0x11E7 JUMP JUMPDEST DUP4 PUSH1 0x40 MLOAD DUP4 PUSH4 0xFFFFFFFF AND PUSH1 0xE0 SHL DUP2 MSTORE PUSH1 0x4 ADD PUSH2 0x114A SWAP3 SWAP2 SWAP1 PUSH2 0x2AD8 JUMP JUMPDEST PUSH1 0x20 PUSH1 0x40 MLOAD DUP1 DUP4 SUB DUP2 PUSH0 DUP8 GAS CALL ISZERO DUP1 ISZERO PUSH2 0x1166 JUMPI RETURNDATASIZE PUSH0 PUSH0 RETURNDATACOPY RETURNDATASIZE PUSH0 REVERT JUMPDEST POP POP POP POP PUSH1 0x40 MLOAD RETURNDATASIZE PUSH1 0x1F NOT PUSH1 0x1F DUP3 ADD AND DUP3 ADD DUP1 PUSH1 0x40 MSTORE POP DUP2 ADD SWAP1 PUSH2 0x118A SWAP2 SWAP1 PUSH2 0x2B13 JUMP JUMPDEST POP POP POP JUMP JUMPDEST PUSH0 PUSH0 PUSH0 DUP4 PUSH20 0xFFFFFFFFFFFFFFFFFFFFFFFFFFFFFFFFFFFFFFFF AND PUSH20 0xFFFFFFFFFFFFFFFFFFFFFFFFFFFFFFFFFFFFFFFF AND DUP2 MSTORE PUSH1 0x20 ADD SWAP1 DUP2 MSTORE PUSH1 0x20 ADD PUSH0 KECCAK256 SLOAD SWAP1 POP SWAP2 SWAP1 POP JUMP JUMPDEST PUSH2 0x11DC PUSH2 0x1A79 JUMP JUMPDEST PUSH2 0x11E5 PUSH0 PUSH2 0x1BB5 JUMP JUMPDEST JUMP JUMPDEST PUSH0 PUSH1 0x5 PUSH0 SWAP1 SLOAD SWAP1 PUSH2 0x100 EXP SWAP1 DIV PUSH20 0xFFFFFFFFFFFFFFFFFFFFFFFFFFFFFFFFFFFFFFFF AND SWAP1 POP SWAP1 JUMP JUMPDEST PUSH2 0x1217 PUSH2 0x1A79 JUMP JUMPDEST DUP1 PUSH1 0xB PUSH0 PUSH2 0x100 EXP DUP2 SLOAD DUP2 PUSH1 0xFF MUL NOT AND SWAP1 DUP4 ISZERO ISZERO MUL OR SWAP1 SSTORE POP PUSH32 0xBEDA7DCA7BC1B3E80B871F4818129EC73B771581F803D553AEB3484098E5F65A DUP2 PUSH1 0x40 MLOAD PUSH2 0x125F SWAP2 SWAP1 PUSH2 0x23E5 JUMP JUMPDEST PUSH1 0x40 MLOAD DUP1 SWAP2 SUB SWAP1 LOG1 POP JUMP JUMPDEST PUSH2 0x1272 PUSH2 0x1A79 JUMP JUMPDEST DUP1 PUSH1 0xE PUSH0 DUP5 PUSH20 0xFFFFFFFFFFFFFFFFFFFFFFFFFFFFFFFFFFFFFFFF AND PUSH20 0xFFFFFFFFFFFFFFFFFFFFFFFFFFFFFFFFFFFFFFFF AND DUP2 MSTORE PUSH1 0x20 ADD SWAP1 DUP2 MSTORE PUSH1 0x20 ADD PUSH0 KECCAK256 PUSH0 PUSH2 0x100 EXP DUP2 SLOAD DUP2 PUSH1 0xFF MUL NOT AND SWAP1 DUP4 ISZERO ISZERO MUL OR SWAP1 SSTORE POP DUP2 PUSH20 0xFFFFFFFFFFFFFFFFFFFFFFFFFFFFFFFFFFFFFFFF AND PUSH32 0x6A12B3DF6CBA4203BD7FD06B816789F87DE8C594299AED5717AE070FAC781BAC DUP3 PUSH1 0x40 MLOAD PUSH2 0x130C SWAP2 SWAP1 PUSH2 0x23E5 JUMP JUMPDEST PUSH1 0x40 MLOAD DUP1 SWAP2 SUB SWAP1 LOG2 POP POP JUMP JUMPDEST PUSH1 0x60 PUSH1 0x4 DUP1 SLOAD PUSH2 0x1327 SWAP1 PUSH2 0x26FC JUMP JUMPDEST DUP1 PUSH1 0x1F ADD PUSH1 0x20 DUP1 SWAP2 DIV MUL PUSH1 0x20 ADD PUSH1 0x40 MLOAD SWAP1 DUP2 ADD PUSH1 0x40 MSTORE DUP1 SWAP3 SWAP2 SWAP1 DUP2 DUP2 MSTORE PUSH1 0x20 ADD DUP3 DUP1 SLOAD PUSH2 0x1353 SWAP1 PUSH2 0x26FC JUMP JUMPDEST DUP1 ISZERO PUSH2 0x139E JUMPI DUP1 PUSH1 0x1F LT PUSH2 0x1375 JUMPI PUSH2 0x100 DUP1 DUP4 SLOAD DIV MUL DUP4 MSTORE SWAP2 PUSH1 0x20 ADD SWAP2 PUSH2 0x139E JUMP JUMPDEST DUP3 ADD SWAP2 SWAP1 PUSH0 MSTORE PUSH1 0x20 PUSH0 KECCAK256 SWAP1 JUMPDEST DUP2 SLOAD DUP2 MSTORE SWAP1 PUSH1 0x1 ADD SWAP1 PUSH1 0x20 ADD DUP1 DUP4 GT PUSH2 0x1381 JUMPI DUP3 SWAP1 SUB PUSH1 0x1F AND DUP3 ADD SWAP2 JUMPDEST POP POP POP POP POP SWAP1 POP SWAP1 JUMP JUMPDEST PUSH0 CALLER DUP4 DUP4 PUSH1 0xE PUSH0 DUP5 PUSH20 0xFFFFFFFFFFFFFFFFFFFFFFFFFFFFFFFFFFFFFFFF AND PUSH20 0xFFFFFFFFFFFFFFFFFFFFFFFFFFFFFFFFFFFFFFFF AND DUP2 MSTORE PUSH1 0x20 ADD SWAP1 DUP2 MSTORE PUSH1 0x20 ADD PUSH0 KECCAK256 PUSH0 SWAP1 SLOAD SWAP1 PUSH2 0x100 EXP SWAP1 DIV PUSH1 0xFF AND ISZERO DUP1 ISZERO PUSH2 0x144A JUMPI POP PUSH1 0xE PUSH0 DUP4 PUSH20 0xFFFFFFFFFFFFFFFFFFFFFFFFFFFFFFFFFFFFFFFF AND PUSH20 0xFFFFFFFFFFFFFFFFFFFFFFFFFFFFFFFFFFFFFFFF AND DUP2 MSTORE PUSH1 0x20 ADD SWAP1 DUP2 MSTORE PUSH1 0x20 ADD PUSH0 KECCAK256 PUSH0 SWAP1 SLOAD SWAP1 PUSH2 0x100 EXP SWAP1 DIV PUSH1 0xFF AND ISZERO JUMPDEST PUSH2 0x1489 JUMPI PUSH1 0x40 MLOAD PUSH32 0x8C379A000000000000000000000000000000000000000000000000000000000 DUP2 MSTORE PUSH1 0x4 ADD PUSH2 0x1480 SWAP1 PUSH2 0x2776 JUMP JUMPDEST PUSH1 0x40 MLOAD DUP1 SWAP2 SUB SWAP1 REVERT JUMPDEST PUSH1 0xB PUSH0 SWAP1 SLOAD SWAP1 PUSH2 0x100 EXP SWAP1 DIV PUSH1 0xFF AND DUP1 PUSH2 0x14E9 JUMPI POP PUSH1 0xF PUSH0 DUP5 PUSH20 0xFFFFFFFFFFFFFFFFFFFFFFFFFFFFFFFFFFFFFFFF AND PUSH20 0xFFFFFFFFFFFFFFFFFFFFFFFFFFFFFFFFFFFFFFFF AND DUP2 MSTORE PUSH1 0x20 ADD SWAP1 DUP2 MSTORE PUSH1 0x20 ADD PUSH0 KECCAK256 PUSH0 SWAP1 SLOAD SWAP1 PUSH2 0x100 EXP SWAP1 DIV PUSH1 0xFF AND JUMPDEST DUP1 PUSH2 0x153A JUMPI POP PUSH1 0xF PUSH0 DUP4 PUSH20 0xFFFFFFFFFFFFFFFFFFFFFFFFFFFFFFFFFFFFFFFF AND PUSH20 0xFFFFFFFFFFFFFFFFFFFFFFFFFFFFFFFFFFFFFFFF AND DUP2 MSTORE PUSH1 0x20 ADD SWAP1 DUP2 MSTORE PUSH1 0x20 ADD PUSH0 KECCAK256 PUSH0 SWAP1 SLOAD SWAP1 PUSH2 0x100 EXP SWAP1 DIV PUSH1 0xFF AND JUMPDEST PUSH2 0x1579 JUMPI PUSH1 0x40 MLOAD PUSH32 0x8C379A000000000000000000000000000000000000000000000000000000000 DUP2 MSTORE PUSH1 0x4 ADD PUSH2 0x1570 SWAP1 PUSH2 0x27DE JUMP JUMPDEST PUSH1 0x40 MLOAD DUP1 SWAP2 SUB SWAP1 REVERT JUMPDEST PUSH1 0xF PUSH0 DUP5 PUSH20 0xFFFFFFFFFFFFFFFFFFFFFFFFFFFFFFFFFFFFFFFF AND PUSH20 0xFFFFFFFFFFFFFFFFFFFFFFFFFFFFFFFFFFFFFFFF AND DUP2 MSTORE PUSH1 0x20 ADD SWAP1 DUP2 MSTORE PUSH1 0x20 ADD PUSH0 KECCAK256 PUSH0 SWAP1 SLOAD SWAP1 PUSH2 0x100 EXP SWAP1 DIV PUSH1 0xFF AND ISZERO DUP1 ISZERO PUSH2 0x1617 JUMPI POP PUSH1 0xF PUSH0 DUP4 PUSH20 0xFFFFFFFFFFFFFFFFFFFFFFFFFFFFFFFFFFFFFFFF AND PUSH20 0xFFFFFFFFFFFFFFFFFFFFFFFFFFFFFFFFFFFFFFFF AND DUP2 MSTORE PUSH1 0x20 ADD SWAP1 DUP2 MSTORE PUSH1 0x20 ADD PUSH0 KECCAK256 PUSH0 SWAP1 SLOAD SWAP1 PUSH2 0x100 EXP SWAP1 DIV PUSH1 0xFF AND ISZERO JUMPDEST ISZERO PUSH2 0x1833 JUMPI PUSH1 0x8 SLOAD DUP2 GT ISZERO PUSH2 0x1661 JUMPI PUSH1 0x40 MLOAD PUSH32 0x8C379A000000000000000000000000000000000000000000000000000000000 DUP2 MSTORE PUSH1 0x4 ADD PUSH2 0x1658 SWAP1 PUSH2 0x2846 JUMP JUMPDEST PUSH1 0x40 MLOAD DUP1 SWAP2 SUB SWAP1 REVERT JUMPDEST PUSH2 0x16B3 PUSH1 0x10 SLOAD PUSH1 0xC PUSH0 DUP7 PUSH20 0xFFFFFFFFFFFFFFFFFFFFFFFFFFFFFFFFFFFFFFFF AND PUSH20 0xFFFFFFFFFFFFFFFFFFFFFFFFFFFFFFFFFFFFFFFF AND DUP2 MSTORE PUSH1 0x20 ADD SWAP1 DUP2 MSTORE PUSH1 0x20 ADD PUSH0 KECCAK256 SLOAD PUSH2 0x1B19 SWAP1 SWAP2 SWAP1 PUSH4 0xFFFFFFFF AND JUMP JUMPDEST TIMESTAMP LT ISZERO PUSH2 0x16F5 JUMPI PUSH1 0x40 MLOAD PUSH32 0x8C379A000000000000000000000000000000000000000000000000000000000 DUP2 MSTORE PUSH1 0x4 ADD PUSH2 0x16EC SWAP1 PUSH2 0x28AE JUMP JUMPDEST PUSH1 0x40 MLOAD DUP1 SWAP2 SUB SWAP1 REVERT JUMPDEST PUSH0 PUSH1 0xD PUSH0 DUP6 PUSH20 0xFFFFFFFFFFFFFFFFFFFFFFFFFFFFFFFFFFFFFFFF AND PUSH20 0xFFFFFFFFFFFFFFFFFFFFFFFFFFFFFFFFFFFFFFFF AND DUP2 MSTORE PUSH1 0x20 ADD SWAP1 DUP2 MSTORE PUSH1 0x20 ADD PUSH0 KECCAK256 SLOAD EQ PUSH2 0x17CE JUMPI PUSH2 0x178B PUSH1 0x9 SLOAD PUSH1 0xD PUSH0 DUP7 PUSH20 0xFFFFFFFFFFFFFFFFFFFFFFFFFFFFFFFFFFFFFFFF AND PUSH20 0xFFFFFFFFFFFFFFFFFFFFFFFFFFFFFFFFFFFFFFFF AND DUP2 MSTORE PUSH1 0x20 ADD SWAP1 DUP2 MSTORE PUSH1 0x20 ADD PUSH0 KECCAK256 SLOAD PUSH2 0x1B19 SWAP1 SWAP2 SWAP1 PUSH4 0xFFFFFFFF AND JUMP JUMPDEST TIMESTAMP LT ISZERO PUSH2 0x17CD JUMPI PUSH1 0x40 MLOAD PUSH32 0x8C379A000000000000000000000000000000000000000000000000000000000 DUP2 MSTORE PUSH1 0x4 ADD PUSH2 0x17C4 SWAP1 PUSH2 0x2916 JUMP JUMPDEST PUSH1 0x40 MLOAD DUP1 SWAP2 SUB SWAP1 REVERT JUMPDEST JUMPDEST PUSH0 PUSH2 0x17EA DUP3 PUSH2 0x17DC DUP6 PUSH2 0x118F JUMP JUMPDEST PUSH2 0x1B19 SWAP1 SWAP2 SWAP1 PUSH4 0xFFFFFFFF AND JUMP JUMPDEST SWAP1 POP PUSH1 0xA SLOAD DUP2 GT ISZERO PUSH2 0x1831 JUMPI PUSH1 0x40 MLOAD PUSH32 0x8C379A000000000000000000000000000000000000000000000000000000000 DUP2 MSTORE PUSH1 0x4 ADD PUSH2 0x1828 SWAP1 PUSH2 0x297E JUMP JUMPDEST PUSH1 0x40 MLOAD DUP1 SWAP2 SUB SWAP1 REVERT JUMPDEST POP JUMPDEST PUSH2 0x183B PUSH2 0x1B2E JUMP JUMPDEST PUSH0 PUSH20 0xFFFFFFFFFFFFFFFFFFFFFFFFFFFFFFFFFFFFFFFF AND DUP7 PUSH20 0xFFFFFFFFFFFFFFFFFFFFFFFFFFFFFFFFFFFFFFFF AND SUB PUSH2 0x18A9 JUMPI PUSH1 0x40 MLOAD PUSH32 0x8C379A000000000000000000000000000000000000000000000000000000000 DUP2 MSTORE PUSH1 0x4 ADD PUSH2 0x18A0 SWAP1 PUSH2 0x29E6 JUMP JUMPDEST PUSH1 0x40 MLOAD DUP1 SWAP2 SUB SWAP1 REVERT JUMPDEST TIMESTAMP PUSH1 0xD PUSH0 DUP9 PUSH20 0xFFFFFFFFFFFFFFFFFFFFFFFFFFFFFFFFFFFFFFFF AND PUSH20 0xFFFFFFFFFFFFFFFFFFFFFFFFFFFFFFFFFFFFFFFF AND DUP2 MSTORE PUSH1 0x20 ADD SWAP1 DUP2 MSTORE PUSH1 0x20 ADD PUSH0 KECCAK256 DUP2 SWAP1 SSTORE POP TIMESTAMP PUSH1 0xC PUSH0 CALLER PUSH20 0xFFFFFFFFFFFFFFFFFFFFFFFFFFFFFFFFFFFFFFFF AND PUSH20 0xFFFFFFFFFFFFFFFFFFFFFFFFFFFFFFFFFFFFFFFF AND DUP2 MSTORE PUSH1 0x20 ADD SWAP1 DUP2 MSTORE PUSH1 0x20 ADD PUSH0 KECCAK256 DUP2 SWAP1 SSTORE POP PUSH2 0x1937 DUP7 DUP7 PUSH2 0x1C78 JUMP JUMPDEST SWAP4 POP PUSH2 0x1941 PUSH2 0x1BAB JUMP JUMPDEST POP POP POP SWAP3 SWAP2 POP POP JUMP JUMPDEST PUSH1 0x8 SLOAD DUP2 JUMP JUMPDEST PUSH1 0xA SLOAD DUP2 JUMP JUMPDEST PUSH0 PUSH1 0x1 PUSH0 DUP5 PUSH20 0xFFFFFFFFFFFFFFFFFFFFFFFFFFFFFFFFFFFFFFFF AND PUSH20 0xFFFFFFFFFFFFFFFFFFFFFFFFFFFFFFFFFFFFFFFF AND DUP2 MSTORE PUSH1 0x20 ADD SWAP1 DUP2 MSTORE PUSH1 0x20 ADD PUSH0 KECCAK256 PUSH0 DUP4 PUSH20 0xFFFFFFFFFFFFFFFFFFFFFFFFFFFFFFFFFFFFFFFF AND PUSH20 0xFFFFFFFFFFFFFFFFFFFFFFFFFFFFFFFFFFFFFFFF AND DUP2 MSTORE PUSH1 0x20 ADD SWAP1 DUP2 MSTORE PUSH1 0x20 ADD PUSH0 KECCAK256 SLOAD SWAP1 POP SWAP3 SWAP2 POP POP JUMP JUMPDEST PUSH2 0x19E0 PUSH2 0x1A79 JUMP JUMPDEST PUSH0 PUSH20 0xFFFFFFFFFFFFFFFFFFFFFFFFFFFFFFFFFFFFFFFF AND DUP2 PUSH20 0xFFFFFFFFFFFFFFFFFFFFFFFFFFFFFFFFFFFFFFFF AND SUB PUSH2 0x1A50 JUMPI PUSH0 PUSH1 0x40 MLOAD PUSH32 0x1E4FBDF700000000000000000000000000000000000000000000000000000000 DUP2 MSTORE PUSH1 0x4 ADD PUSH2 0x1A47 SWAP2 SWAP1 PUSH2 0x260A JUMP JUMPDEST PUSH1 0x40 MLOAD DUP1 SWAP2 SUB SWAP1 REVERT JUMPDEST PUSH2 0x1A59 DUP2 PUSH2 0x1BB5 JUMP JUMPDEST POP JUMP JUMPDEST PUSH1 0xE PUSH1 0x20 MSTORE DUP1 PUSH0 MSTORE PUSH1 0x40 PUSH0 KECCAK256 PUSH0 SWAP2 POP SLOAD SWAP1 PUSH2 0x100 EXP SWAP1 DIV PUSH1 0xFF AND DUP2 JUMP JUMPDEST PUSH2 0x1A81 PUSH2 0x1B00 JUMP JUMPDEST PUSH20 0xFFFFFFFFFFFFFFFFFFFFFFFFFFFFFFFFFFFFFFFF AND PUSH2 0x1A9F PUSH2 0x11E7 JUMP JUMPDEST PUSH20 0xFFFFFFFFFFFFFFFFFFFFFFFFFFFFFFFFFFFFFFFF AND EQ PUSH2 0x1AFE JUMPI PUSH2 0x1AC2 PUSH2 0x1B00 JUMP JUMPDEST PUSH1 0x40 MLOAD PUSH32 0x118CDAA700000000000000000000000000000000000000000000000000000000 DUP2 MSTORE PUSH1 0x4 ADD PUSH2 0x1AF5 SWAP2 SWAP1 PUSH2 0x260A JUMP JUMPDEST PUSH1 0x40 MLOAD DUP1 SWAP2 SUB SWAP1 REVERT JUMPDEST JUMP JUMPDEST PUSH0 CALLER SWAP1 POP SWAP1 JUMP JUMPDEST PUSH2 0x1B14 DUP4 DUP4 DUP4 PUSH1 0x1 PUSH2 0x1C9A JUMP JUMPDEST POP POP POP JUMP JUMPDEST PUSH0 DUP2 DUP4 PUSH2 0x1B26 SWAP2 SWAP1 PUSH2 0x2B6B JUMP JUMPDEST SWAP1 POP SWAP3 SWAP2 POP POP JUMP JUMPDEST PUSH1 0x2 PUSH1 0x6 SLOAD SUB PUSH2 0x1B73 JUMPI PUSH1 0x40 MLOAD PUSH32 0x8C379A000000000000000000000000000000000000000000000000000000000 DUP2 MSTORE PUSH1 0x4 ADD PUSH2 0x1B6A SWAP1 PUSH2 0x2BE8 JUMP JUMPDEST PUSH1 0x40 MLOAD DUP1 SWAP2 SUB SWAP1 REVERT JUMPDEST PUSH1 0x2 PUSH1 0x6 DUP2 SWAP1 SSTORE POP JUMP JUMPDEST PUSH0 PUSH0 PUSH2 0x1B87 PUSH2 0x1B00 JUMP JUMPDEST SWAP1 POP PUSH2 0x1B94 DUP6 DUP3 DUP6 PUSH2 0x1E69 JUMP JUMPDEST PUSH2 0x1B9F DUP6 DUP6 DUP6 PUSH2 0x1EFB JUMP JUMPDEST PUSH1 0x1 SWAP2 POP POP SWAP4 SWAP3 POP POP POP JUMP JUMPDEST PUSH1 0x1 PUSH1 0x6 DUP2 SWAP1 SSTORE POP JUMP JUMPDEST PUSH0 PUSH1 0x5 PUSH0 SWAP1 SLOAD SWAP1 PUSH2 0x100 EXP SWAP1 DIV PUSH20 0xFFFFFFFFFFFFFFFFFFFFFFFFFFFFFFFFFFFFFFFF AND SWAP1 POP DUP2 PUSH1 0x5 PUSH0 PUSH2 0x100 EXP DUP2 SLOAD DUP2 PUSH20 0xFFFFFFFFFFFFFFFFFFFFFFFFFFFFFFFFFFFFFFFF MUL NOT AND SWAP1 DUP4 PUSH20 0xFFFFFFFFFFFFFFFFFFFFFFFFFFFFFFFFFFFFFFFF AND MUL OR SWAP1 SSTORE POP DUP2 PUSH20 0xFFFFFFFFFFFFFFFFFFFFFFFFFFFFFFFFFFFFFFFF AND DUP2 PUSH20 0xFFFFFFFFFFFFFFFFFFFFFFFFFFFFFFFFFFFFFFFF AND PUSH32 0x8BE0079C531659141344CD1FD0A4F28419497F9722A3DAAFE3B4186F6B6457E0 PUSH1 0x40 MLOAD PUSH1 0x40 MLOAD DUP1 SWAP2 SUB SWAP1 LOG3 POP POP JUMP JUMPDEST PUSH0 PUSH0 PUSH2 0x1C82 PUSH2 0x1B00 JUMP JUMPDEST SWAP1 POP PUSH2 0x1C8F DUP2 DUP6 DUP6 PUSH2 0x1EFB JUMP JUMPDEST PUSH1 0x1 SWAP2 POP POP SWAP3 SWAP2 POP POP JUMP JUMPDEST PUSH0 PUSH20 0xFFFFFFFFFFFFFFFFFFFFFFFFFFFFFFFFFFFFFFFF AND DUP5 PUSH20 0xFFFFFFFFFFFFFFFFFFFFFFFFFFFFFFFFFFFFFFFF AND SUB PUSH2 0x1D0A JUMPI PUSH0 PUSH1 0x40 MLOAD PUSH32 0xE602DF0500000000000000000000000000000000000000000000000000000000 DUP2 MSTORE PUSH1 0x4 ADD PUSH2 0x1D01 SWAP2 SWAP1 PUSH2 0x260A JUMP JUMPDEST PUSH1 0x40 MLOAD DUP1 SWAP2 SUB SWAP1 REVERT JUMPDEST PUSH0 PUSH20 0xFFFFFFFFFFFFFFFFFFFFFFFFFFFFFFFFFFFFFFFF AND DUP4 PUSH20 0xFFFFFFFFFFFFFFFFFFFFFFFFFFFFFFFFFFFFFFFF AND SUB PUSH2 0x1D7A JUMPI PUSH0 PUSH1 0x40 MLOAD PUSH32 0x94280D6200000000000000000000000000000000000000000000000000000000 DUP2 MSTORE PUSH1 0x4 ADD PUSH2 0x1D71 SWAP2 SWAP1 PUSH2 0x260A JUMP JUMPDEST PUSH1 0x40 MLOAD DUP1 SWAP2 SUB SWAP1 REVERT JUMPDEST DUP2 PUSH1 0x1 PUSH0 DUP7 PUSH20 0xFFFFFFFFFFFFFFFFFFFFFFFFFFFFFFFFFFFFFFFF AND PUSH20 0xFFFFFFFFFFFFFFFFFFFFFFFFFFFFFFFFFFFFFFFF AND DUP2 MSTORE PUSH1 0x20 ADD SWAP1 DUP2 MSTORE PUSH1 0x20 ADD PUSH0 KECCAK256 PUSH0 DUP6 PUSH20 0xFFFFFFFFFFFFFFFFFFFFFFFFFFFFFFFFFFFFFFFF AND PUSH20 0xFFFFFFFFFFFFFFFFFFFFFFFFFFFFFFFFFFFFFFFF AND DUP2 MSTORE PUSH1 0x20 ADD SWAP1 DUP2 MSTORE PUSH1 0x20 ADD PUSH0 KECCAK256 DUP2 SWAP1 SSTORE POP DUP1 ISZERO PUSH2 0x1E63 JUMPI DUP3 PUSH20 0xFFFFFFFFFFFFFFFFFFFFFFFFFFFFFFFFFFFFFFFF AND DUP5 PUSH20 0xFFFFFFFFFFFFFFFFFFFFFFFFFFFFFFFFFFFFFFFF AND PUSH32 0x8C5BE1E5EBEC7D5BD14F71427D1E84F3DD0314C0F7B2291E5B200AC8C7C3B925 DUP5 PUSH1 0x40 MLOAD PUSH2 0x1E5A SWAP2 SWAP1 PUSH2 0x2438 JUMP JUMPDEST PUSH1 0x40 MLOAD DUP1 SWAP2 SUB SWAP1 LOG3 JUMPDEST POP POP POP POP JUMP JUMPDEST PUSH0 PUSH2 0x1E74 DUP5 DUP5 PUSH2 0x1956 JUMP JUMPDEST SWAP1 POP PUSH32 0xFFFFFFFFFFFFFFFFFFFFFFFFFFFFFFFFFFFFFFFFFFFFFFFFFFFFFFFFFFFFFFFF DUP2 EQ PUSH2 0x1EF5 JUMPI DUP2 DUP2 LT ISZERO PUSH2 0x1EE6 JUMPI DUP3 DUP2 DUP4 PUSH1 0x40 MLOAD PUSH32 0xFB8F41B200000000000000000000000000000000000000000000000000000000 DUP2 MSTORE PUSH1 0x4 ADD PUSH2 0x1EDD SWAP4 SWAP3 SWAP2 SWAP1 PUSH2 0x2C06 JUMP JUMPDEST PUSH1 0x40 MLOAD DUP1 SWAP2 SUB SWAP1 REVERT JUMPDEST PUSH2 0x1EF4 DUP5 DUP5 DUP5 DUP5 SUB PUSH0 PUSH2 0x1C9A JUMP JUMPDEST JUMPDEST POP POP POP POP JUMP JUMPDEST PUSH0 PUSH20 0xFFFFFFFFFFFFFFFFFFFFFFFFFFFFFFFFFFFFFFFF AND DUP4 PUSH20 0xFFFFFFFFFFFFFFFFFFFFFFFFFFFFFFFFFFFFFFFF AND SUB PUSH2 0x1F6B JUMPI PUSH0 PUSH1 0x40 MLOAD PUSH32 0x96C6FD1E00000000000000000000000000000000000000000000000000000000 DUP2 MSTORE PUSH1 0x4 ADD PUSH2 0x1F62 SWAP2 SWAP1 PUSH2 0x260A JUMP JUMPDEST PUSH1 0x40 MLOAD DUP1 SWAP2 SUB SWAP1 REVERT JUMPDEST PUSH0 PUSH20 0xFFFFFFFFFFFFFFFFFFFFFFFFFFFFFFFFFFFFFFFF AND DUP3 PUSH20 0xFFFFFFFFFFFFFFFFFFFFFFFFFFFFFFFFFFFFFFFF AND SUB PUSH2 0x1FDB JUMPI PUSH0 PUSH1 0x40 MLOAD PUSH32 0xEC442F0500000000000000000000000000000000000000000000000000000000 DUP2 MSTORE PUSH1 0x4 ADD PUSH2 0x1FD2 SWAP2 SWAP1 PUSH2 0x260A JUMP JUMPDEST PUSH1 0x40 MLOAD DUP1 SWAP2 SUB SWAP1 REVERT JUMPDEST PUSH2 0x1FE6 DUP4 DUP4 DUP4 PUSH2 0x1FEB JUMP JUMPDEST POP POP POP JUMP JUMPDEST PUSH0 PUSH20 0xFFFFFFFFFFFFFFFFFFFFFFFFFFFFFFFFFFFFFFFF AND DUP4 PUSH20 0xFFFFFFFFFFFFFFFFFFFFFFFFFFFFFFFFFFFFFFFF AND SUB PUSH2 0x203B JUMPI DUP1 PUSH1 0x2 PUSH0 DUP3 DUP3 SLOAD PUSH2 0x202F SWAP2 SWAP1 PUSH2 0x2B6B JUMP JUMPDEST SWAP3 POP POP DUP2 SWAP1 SSTORE POP PUSH2 0x2109 JUMP JUMPDEST PUSH0 PUSH0 PUSH0 DUP6 PUSH20 0xFFFFFFFFFFFFFFFFFFFFFFFFFFFFFFFFFFFFFFFF AND PUSH20 0xFFFFFFFFFFFFFFFFFFFFFFFFFFFFFFFFFFFFFFFF AND DUP2 MSTORE PUSH1 0x20 ADD SWAP1 DUP2 MSTORE PUSH1 0x20 ADD PUSH0 KECCAK256 SLOAD SWAP1 POP DUP2 DUP2 LT ISZERO PUSH2 0x20C4 JUMPI DUP4 DUP2 DUP4 PUSH1 0x40 MLOAD PUSH32 0xE450D38C00000000000000000000000000000000000000000000000000000000 DUP2 MSTORE PUSH1 0x4 ADD PUSH2 0x20BB SWAP4 SWAP3 SWAP2 SWAP1 PUSH2 0x2C06 JUMP JUMPDEST PUSH1 0x40 MLOAD DUP1 SWAP2 SUB SWAP1 REVERT JUMPDEST DUP2 DUP2 SUB PUSH0 PUSH0 DUP7 PUSH20 0xFFFFFFFFFFFFFFFFFFFFFFFFFFFFFFFFFFFFFFFF AND PUSH20 0xFFFFFFFFFFFFFFFFFFFFFFFFFFFFFFFFFFFFFFFF AND DUP2 MSTORE PUSH1 0x20 ADD SWAP1 DUP2 MSTORE PUSH1 0x20 ADD PUSH0 KECCAK256 DUP2 SWAP1 SSTORE POP POP JUMPDEST PUSH0 PUSH20 0xFFFFFFFFFFFFFFFFFFFFFFFFFFFFFFFFFFFFFFFF AND DUP3 PUSH20 0xFFFFFFFFFFFFFFFFFFFFFFFFFFFFFFFFFFFFFFFF AND SUB PUSH2 0x2150 JUMPI DUP1 PUSH1 0x2 PUSH0 DUP3 DUP3 SLOAD SUB SWAP3 POP POP DUP2 SWAP1 SSTORE POP PUSH2 0x219A JUMP JUMPDEST DUP1 PUSH0 PUSH0 DUP5 PUSH20 0xFFFFFFFFFFFFFFFFFFFFFFFFFFFFFFFFFFFFFFFF AND PUSH20 0xFFFFFFFFFFFFFFFFFFFFFFFFFFFFFFFFFFFFFFFF AND DUP2 MSTORE PUSH1 0x20 ADD SWAP1 DUP2 MSTORE PUSH1 0x20 ADD PUSH0 KECCAK256 PUSH0 DUP3 DUP3 SLOAD ADD SWAP3 POP POP DUP2 SWAP1 SSTORE POP JUMPDEST DUP2 PUSH20 0xFFFFFFFFFFFFFFFFFFFFFFFFFFFFFFFFFFFFFFFF AND DUP4 PUSH20 0xFFFFFFFFFFFFFFFFFFFFFFFFFFFFFFFFFFFFFFFF AND PUSH32 0xDDF252AD1BE2C89B69C2B068FC378DAA952BA7F163C4A11628F55A4DF523B3EF DUP4 PUSH1 0x40 MLOAD PUSH2 0x21F7 SWAP2 SWAP1 PUSH2 0x2438 JUMP JUMPDEST PUSH1 0x40 MLOAD DUP1 SWAP2 SUB SWAP1 LOG3 POP POP POP JUMP JUMPDEST PUSH0 PUSH0 REVERT JUMPDEST PUSH0 PUSH0 REVERT JUMPDEST PUSH0 DUP2 SWAP1 POP SWAP2 SWAP1 POP JUMP JUMPDEST PUSH2 0x221E DUP2 PUSH2 0x220C JUMP JUMPDEST DUP2 EQ PUSH2 0x2228 JUMPI PUSH0 PUSH0 REVERT JUMPDEST POP JUMP JUMPDEST PUSH0 DUP2 CALLDATALOAD SWAP1 POP PUSH2 0x2239 DUP2 PUSH2 0x2215 JUMP JUMPDEST SWAP3 SWAP2 POP POP JUMP JUMPDEST PUSH0 PUSH0 PUSH0 PUSH0 PUSH1 0x80 DUP6 DUP8 SUB SLT ISZERO PUSH2 0x2257 JUMPI PUSH2 0x2256 PUSH2 0x2204 JUMP JUMPDEST JUMPDEST PUSH0 PUSH2 0x2264 DUP8 DUP3 DUP9 ADD PUSH2 0x222B JUMP JUMPDEST SWAP5 POP POP PUSH1 0x20 PUSH2 0x2275 DUP8 DUP3 DUP9 ADD PUSH2 0x222B JUMP JUMPDEST SWAP4 POP POP PUSH1 0x40 PUSH2 0x2286 DUP8 DUP3 DUP9 ADD PUSH2 0x222B JUMP JUMPDEST SWAP3 POP POP PUSH1 0x60 PUSH2 0x2297 DUP8 DUP3 DUP9 ADD PUSH2 0x222B JUMP JUMPDEST SWAP2 POP POP SWAP3 SWAP6 SWAP2 SWAP5 POP SWAP3 POP JUMP JUMPDEST PUSH0 DUP2 MLOAD SWAP1 POP SWAP2 SWAP1 POP JUMP JUMPDEST PUSH0 DUP3 DUP3 MSTORE PUSH1 0x20 DUP3 ADD SWAP1 POP SWAP3 SWAP2 POP POP JUMP JUMPDEST DUP3 DUP2 DUP4 MCOPY PUSH0 DUP4 DUP4 ADD MSTORE POP POP POP JUMP JUMPDEST PUSH0 PUSH1 0x1F NOT PUSH1 0x1F DUP4 ADD AND SWAP1 POP SWAP2 SWAP1 POP JUMP JUMPDEST PUSH0 PUSH2 0x22E5 DUP3 PUSH2 0x22A3 JUMP JUMPDEST PUSH2 0x22EF DUP2 DUP6 PUSH2 0x22AD JUMP JUMPDEST SWAP4 POP PUSH2 0x22FF DUP2 DUP6 PUSH1 0x20 DUP7 ADD PUSH2 0x22BD JUMP JUMPDEST PUSH2 0x2308 DUP2 PUSH2 0x22CB JUMP JUMPDEST DUP5 ADD SWAP2 POP POP SWAP3 SWAP2 POP POP JUMP JUMPDEST PUSH0 PUSH1 0x20 DUP3 ADD SWAP1 POP DUP2 DUP2 SUB PUSH0 DUP4 ADD MSTORE PUSH2 0x232B DUP2 DUP5 PUSH2 0x22DB JUMP JUMPDEST SWAP1 POP SWAP3 SWAP2 POP POP JUMP JUMPDEST PUSH0 PUSH20 0xFFFFFFFFFFFFFFFFFFFFFFFFFFFFFFFFFFFFFFFF DUP3 AND SWAP1 POP SWAP2 SWAP1 POP JUMP JUMPDEST PUSH0 PUSH2 0x235C DUP3 PUSH2 0x2333 JUMP JUMPDEST SWAP1 POP SWAP2 SWAP1 POP JUMP JUMPDEST PUSH2 0x236C DUP2 PUSH2 0x2352 JUMP JUMPDEST DUP2 EQ PUSH2 0x2376 JUMPI PUSH0 PUSH0 REVERT JUMPDEST POP JUMP JUMPDEST PUSH0 DUP2 CALLDATALOAD SWAP1 POP PUSH2 0x2387 DUP2 PUSH2 0x2363 JUMP JUMPDEST SWAP3 SWAP2 POP POP JUMP JUMPDEST PUSH0 PUSH0 PUSH1 0x40 DUP4 DUP6 SUB SLT ISZERO PUSH2 0x23A3 JUMPI PUSH2 0x23A2 PUSH2 0x2204 JUMP JUMPDEST JUMPDEST PUSH0 PUSH2 0x23B0 DUP6 DUP3 DUP7 ADD PUSH2 0x2379 JUMP JUMPDEST SWAP3 POP POP PUSH1 0x20 PUSH2 0x23C1 DUP6 DUP3 DUP7 ADD PUSH2 0x222B JUMP JUMPDEST SWAP2 POP POP SWAP3 POP SWAP3 SWAP1 POP JUMP JUMPDEST PUSH0 DUP2 ISZERO ISZERO SWAP1 POP SWAP2 SWAP1 POP JUMP JUMPDEST PUSH2 0x23DF DUP2 PUSH2 0x23CB JUMP JUMPDEST DUP3 MSTORE POP POP JUMP JUMPDEST PUSH0 PUSH1 0x20 DUP3 ADD SWAP1 POP PUSH2 0x23F8 PUSH0 DUP4 ADD DUP5 PUSH2 0x23D6 JUMP JUMPDEST SWAP3 SWAP2 POP POP JUMP JUMPDEST PUSH0 PUSH1 0x20 DUP3 DUP5 SUB SLT ISZERO PUSH2 0x2413 JUMPI PUSH2 0x2412 PUSH2 0x2204 JUMP JUMPDEST JUMPDEST PUSH0 PUSH2 0x2420 DUP5 DUP3 DUP6 ADD PUSH2 0x2379 JUMP JUMPDEST SWAP2 POP POP SWAP3 SWAP2 POP POP JUMP JUMPDEST PUSH2 0x2432 DUP2 PUSH2 0x220C JUMP JUMPDEST DUP3 MSTORE POP POP JUMP JUMPDEST PUSH0 PUSH1 0x20 DUP3 ADD SWAP1 POP PUSH2 0x244B PUSH0 DUP4 ADD DUP5 PUSH2 0x2429 JUMP JUMPDEST SWAP3 SWAP2 POP POP JUMP JUMPDEST PUSH2 0x245A DUP2 PUSH2 0x23CB JUMP JUMPDEST DUP2 EQ PUSH2 0x2464 JUMPI PUSH0 PUSH0 REVERT JUMPDEST POP JUMP JUMPDEST PUSH0 DUP2 CALLDATALOAD SWAP1 POP PUSH2 0x2475 DUP2 PUSH2 0x2451 JUMP JUMPDEST SWAP3 SWAP2 POP POP JUMP JUMPDEST PUSH0 PUSH0 PUSH1 0x40 DUP4 DUP6 SUB SLT ISZERO PUSH2 0x2491 JUMPI PUSH2 0x2490 PUSH2 0x2204 JUMP JUMPDEST JUMPDEST PUSH0 PUSH2 0x249E DUP6 DUP3 DUP7 ADD PUSH2 0x2379 JUMP JUMPDEST SWAP3 POP POP PUSH1 0x20 PUSH2 0x24AF DUP6 DUP3 DUP7 ADD PUSH2 0x2467 JUMP JUMPDEST SWAP2 POP POP SWAP3 POP SWAP3 SWAP1 POP JUMP JUMPDEST PUSH0 PUSH0 PUSH0 PUSH1 0x60 DUP5 DUP7 SUB SLT ISZERO PUSH2 0x24D0 JUMPI PUSH2 0x24CF PUSH2 0x2204 JUMP JUMPDEST JUMPDEST PUSH0 PUSH2 0x24DD DUP7 DUP3 DUP8 ADD PUSH2 0x2379 JUMP JUMPDEST SWAP4 POP POP PUSH1 0x20 PUSH2 0x24EE DUP7 DUP3 DUP8 ADD PUSH2 0x2379 JUMP JUMPDEST SWAP3 POP POP PUSH1 0x40 PUSH2 0x24FF DUP7 DUP3 DUP8 ADD PUSH2 0x222B JUMP JUMPDEST SWAP2 POP POP SWAP3 POP SWAP3 POP SWAP3 JUMP JUMPDEST PUSH0 PUSH1 0xFF DUP3 AND SWAP1 POP SWAP2 SWAP1 POP JUMP JUMPDEST PUSH2 0x251E DUP2 PUSH2 0x2509 JUMP JUMPDEST DUP3 MSTORE POP POP JUMP JUMPDEST PUSH0 PUSH1 0x20 DUP3 ADD SWAP1 POP PUSH2 0x2537 PUSH0 DUP4 ADD DUP5 PUSH2 0x2515 JUMP JUMPDEST SWAP3 SWAP2 POP POP JUMP JUMPDEST PUSH0 PUSH0 REVERT JUMPDEST PUSH0 PUSH0 REVERT JUMPDEST PUSH0 PUSH0 REVERT JUMPDEST PUSH0 PUSH0 DUP4 PUSH1 0x1F DUP5 ADD SLT PUSH2 0x255E JUMPI PUSH2 0x255D PUSH2 0x253D JUMP JUMPDEST JUMPDEST DUP3 CALLDATALOAD SWAP1 POP PUSH8 0xFFFFFFFFFFFFFFFF DUP2 GT ISZERO PUSH2 0x257B JUMPI PUSH2 0x257A PUSH2 0x2541 JUMP JUMPDEST JUMPDEST PUSH1 0x20 DUP4 ADD SWAP2 POP DUP4 PUSH1 0x20 DUP3 MUL DUP4 ADD GT ISZERO PUSH2 0x2597 JUMPI PUSH2 0x2596 PUSH2 0x2545 JUMP JUMPDEST JUMPDEST SWAP3 POP SWAP3 SWAP1 POP JUMP JUMPDEST PUSH0 PUSH0 PUSH0 PUSH1 0x40 DUP5 DUP7 SUB SLT ISZERO PUSH2 0x25B5 JUMPI PUSH2 0x25B4 PUSH2 0x2204 JUMP JUMPDEST JUMPDEST PUSH0 DUP5 ADD CALLDATALOAD PUSH8 0xFFFFFFFFFFFFFFFF DUP2 GT ISZERO PUSH2 0x25D2 JUMPI PUSH2 0x25D1 PUSH2 0x2208 JUMP JUMPDEST JUMPDEST PUSH2 0x25DE DUP7 DUP3 DUP8 ADD PUSH2 0x2549 JUMP JUMPDEST SWAP4 POP SWAP4 POP POP PUSH1 0x20 PUSH2 0x25F1 DUP7 DUP3 DUP8 ADD PUSH2 0x2467 JUMP JUMPDEST SWAP2 POP POP SWAP3 POP SWAP3 POP SWAP3 JUMP JUMPDEST PUSH2 0x2604 DUP2 PUSH2 0x2352 JUMP JUMPDEST DUP3 MSTORE POP POP JUMP JUMPDEST PUSH0 PUSH1 0x20 DUP3 ADD SWAP1 POP PUSH2 0x261D PUSH0 DUP4 ADD DUP5 PUSH2 0x25FB JUMP JUMPDEST SWAP3 SWAP2 POP POP JUMP JUMPDEST PUSH0 PUSH1 0x20 DUP3 DUP5 SUB SLT ISZERO PUSH2 0x2638 JUMPI PUSH2 0x2637 PUSH2 0x2204 JUMP JUMPDEST JUMPDEST PUSH0 PUSH2 0x2645 DUP5 DUP3 DUP6 ADD PUSH2 0x2467 JUMP JUMPDEST SWAP2 POP POP SWAP3 SWAP2 POP POP JUMP JUMPDEST PUSH0 PUSH0 PUSH1 0x40 DUP4 DUP6 SUB SLT ISZERO PUSH2 0x2664 JUMPI PUSH2 0x2663 PUSH2 0x2204 JUMP JUMPDEST JUMPDEST PUSH0 PUSH2 0x2671 DUP6 DUP3 DUP7 ADD PUSH2 0x2379 JUMP JUMPDEST SWAP3 POP POP PUSH1 0x20 PUSH2 0x2682 DUP6 DUP3 DUP7 ADD PUSH2 0x2379 JUMP JUMPDEST SWAP2 POP POP SWAP3 POP SWAP3 SWAP1 POP JUMP JUMPDEST PUSH0 PUSH1 0x80 DUP3 ADD SWAP1 POP PUSH2 0x269F PUSH0 DUP4 ADD DUP8 PUSH2 0x2429 JUMP JUMPDEST PUSH2 0x26AC PUSH1 0x20 DUP4 ADD DUP7 PUSH2 0x2429 JUMP JUMPDEST PUSH2 0x26B9 PUSH1 0x40 DUP4 ADD DUP6 PUSH2 0x2429 JUMP JUMPDEST PUSH2 0x26C6 PUSH1 0x60 DUP4 ADD DUP5 PUSH2 0x2429 JUMP JUMPDEST SWAP6 SWAP5 POP POP POP POP POP JUMP JUMPDEST PUSH32 0x4E487B7100000000000000000000000000000000000000000000000000000000 PUSH0 MSTORE PUSH1 0x22 PUSH1 0x4 MSTORE PUSH1 0x24 PUSH0 REVERT JUMPDEST PUSH0 PUSH1 0x2 DUP3 DIV SWAP1 POP PUSH1 0x1 DUP3 AND DUP1 PUSH2 0x2713 JUMPI PUSH1 0x7F DUP3 AND SWAP2 POP JUMPDEST PUSH1 0x20 DUP3 LT DUP2 SUB PUSH2 0x2726 JUMPI PUSH2 0x2725 PUSH2 0x26CF JUMP JUMPDEST JUMPDEST POP SWAP2 SWAP1 POP JUMP JUMPDEST PUSH32 0x4164647265737320697320626C61636B6C697374656400000000000000000000 PUSH0 DUP3 ADD MSTORE POP JUMP JUMPDEST PUSH0 PUSH2 0x2760 PUSH1 0x16 DUP4 PUSH2 0x22AD JUMP JUMPDEST SWAP2 POP PUSH2 0x276B DUP3 PUSH2 0x272C JUMP JUMPDEST PUSH1 0x20 DUP3 ADD SWAP1 POP SWAP2 SWAP1 POP JUMP JUMPDEST PUSH0 PUSH1 0x20 DUP3 ADD SWAP1 POP DUP2 DUP2 SUB PUSH0 DUP4 ADD MSTORE PUSH2 0x278D DUP2 PUSH2 0x2754 JUMP JUMPDEST SWAP1 POP SWAP2 SWAP1 POP JUMP JUMPDEST PUSH32 0x54726164696E67206E6F7420656E61626C656400000000000000000000000000 PUSH0 DUP3 ADD MSTORE POP JUMP JUMPDEST PUSH0 PUSH2 0x27C8 PUSH1 0x13 DUP4 PUSH2 0x22AD JUMP JUMPDEST SWAP2 POP PUSH2 0x27D3 DUP3 PUSH2 0x2794 JUMP JUMPDEST PUSH1 0x20 DUP3 ADD SWAP1 POP SWAP2 SWAP1 POP JUMP JUMPDEST PUSH0 PUSH1 0x20 DUP3 ADD SWAP1 POP DUP2 DUP2 SUB PUSH0 DUP4 ADD MSTORE PUSH2 0x27F5 DUP2 PUSH2 0x27BC JUMP JUMPDEST SWAP1 POP SWAP2 SWAP1 POP JUMP JUMPDEST PUSH32 0x5472616E736665722065786365656473206D617820616D6F756E740000000000 PUSH0 DUP3 ADD MSTORE POP JUMP JUMPDEST PUSH0 PUSH2 0x2830 PUSH1 0x1B DUP4 PUSH2 0x22AD JUMP JUMPDEST SWAP2 POP PUSH2 0x283B DUP3 PUSH2 0x27FC JUMP JUMPDEST PUSH1 0x20 DUP3 ADD SWAP1 POP SWAP2 SWAP1 POP JUMP JUMPDEST PUSH0 PUSH1 0x20 DUP3 ADD SWAP1 POP DUP2 DUP2 SUB PUSH0 DUP4 ADD MSTORE PUSH2 0x285D DUP2 PUSH2 0x2824 JUMP JUMPDEST SWAP1 POP SWAP2 SWAP1 POP JUMP JUMPDEST PUSH32 0x436F6F6C646F776E206163746976650000000000000000000000000000000000 PUSH0 DUP3 ADD MSTORE POP JUMP JUMPDEST PUSH0 PUSH2 0x2898 PUSH1 0xF DUP4 PUSH2 0x22AD JUMP JUMPDEST SWAP2 POP PUSH2 0x28A3 DUP3 PUSH2 0x2864 JUMP JUMPDEST PUSH1 0x20 DUP3 ADD SWAP1 POP SWAP2 SWAP1 POP JUMP JUMPDEST PUSH0 PUSH1 0x20 DUP3 ADD SWAP1 POP DUP2 DUP2 SUB PUSH0 DUP4 ADD MSTORE PUSH2 0x28C5 DUP2 PUSH2 0x288C JUMP JUMPDEST SWAP1 POP SWAP2 SWAP1 POP JUMP JUMPDEST PUSH32 0x486F6C642074696D65206E6F74206D6574000000000000000000000000000000 PUSH0 DUP3 ADD MSTORE POP JUMP JUMPDEST PUSH0 PUSH2 0x2900 PUSH1 0x11 DUP4 PUSH2 0x22AD JUMP JUMPDEST SWAP2 POP PUSH2 0x290B DUP3 PUSH2 0x28CC JUMP JUMPDEST PUSH1 0x20 DUP3 ADD SWAP1 POP SWAP2 SWAP1 POP JUMP JUMPDEST PUSH0 PUSH1 0x20 DUP3 ADD SWAP1 POP DUP2 DUP2 SUB PUSH0 DUP4 ADD MSTORE PUSH2 0x292D DUP2 PUSH2 0x28F4 JUMP JUMPDEST SWAP1 POP SWAP2 SWAP1 POP JUMP JUMPDEST PUSH32 0x45786365656473206D61782077616C6C657420616D6F756E7400000000000000 PUSH0 DUP3 ADD MSTORE POP JUMP JUMPDEST PUSH0 PUSH2 0x2968 PUSH1 0x19 DUP4 PUSH2 0x22AD JUMP JUMPDEST SWAP2 POP PUSH2 0x2973 DUP3 PUSH2 0x2934 JUMP JUMPDEST PUSH1 0x20 DUP3 ADD SWAP1 POP SWAP2 SWAP1 POP JUMP JUMPDEST PUSH0 PUSH1 0x20 DUP3 ADD SWAP1 POP DUP2 DUP2 SUB PUSH0 DUP4 ADD MSTORE PUSH2 0x2995 DUP2 PUSH2 0x295C JUMP JUMPDEST SWAP1 POP SWAP2 SWAP1 POP JUMP JUMPDEST PUSH32 0x496E76616C696420726563697069656E74000000000000000000000000000000 PUSH0 DUP3 ADD MSTORE POP JUMP JUMPDEST PUSH0 PUSH2 0x29D0 PUSH1 0x11 DUP4 PUSH2 0x22AD JUMP JUMPDEST SWAP2 POP PUSH2 0x29DB DUP3 PUSH2 0x299C JUMP JUMPDEST PUSH1 0x20 DUP3 ADD SWAP1 POP SWAP2 SWAP1 POP JUMP JUMPDEST PUSH0 PUSH1 0x20 DUP3 ADD SWAP1 POP DUP2 DUP2 SUB PUSH0 DUP4 ADD MSTORE PUSH2 0x29FD DUP2 PUSH2 0x29C4 JUMP JUMPDEST SWAP1 POP SWAP2 SWAP1 POP JUMP JUMPDEST PUSH32 0x4E487B7100000000000000000000000000000000000000000000000000000000 PUSH0 MSTORE PUSH1 0x32 PUSH1 0x4 MSTORE PUSH1 0x24 PUSH0 REVERT JUMPDEST PUSH32 0x43616E6E6F7420776974686472617720746F6B656E20697473656C6600000000 PUSH0 DUP3 ADD MSTORE POP JUMP JUMPDEST PUSH0 PUSH2 0x2A65 PUSH1 0x1C DUP4 PUSH2 0x22AD JUMP JUMPDEST SWAP2 POP PUSH2 0x2A70 DUP3 PUSH2 0x2A31 JUMP JUMPDEST PUSH1 0x20 DUP3 ADD SWAP1 POP SWAP2 SWAP1 POP JUMP JUMPDEST PUSH0 PUSH1 0x20 DUP3 ADD SWAP1 POP DUP2 DUP2 SUB PUSH0 DUP4 ADD MSTORE PUSH2 0x2A92 DUP2 PUSH2 0x2A59 JUMP JUMPDEST SWAP1 POP SWAP2 SWAP1 POP JUMP JUMPDEST PUSH0 DUP2 MLOAD SWAP1 POP PUSH2 0x2AA7 DUP2 PUSH2 0x2215 JUMP JUMPDEST SWAP3 SWAP2 POP POP JUMP JUMPDEST PUSH0 PUSH1 0x20 DUP3 DUP5 SUB SLT ISZERO PUSH2 0x2AC2 JUMPI PUSH2 0x2AC1 PUSH2 0x2204 JUMP JUMPDEST JUMPDEST PUSH0 PUSH2 0x2ACF DUP5 DUP3 DUP6 ADD PUSH2 0x2A99 JUMP JUMPDEST SWAP2 POP POP SWAP3 SWAP2 POP POP JUMP JUMPDEST PUSH0 PUSH1 0x40 DUP3 ADD SWAP1 POP PUSH2 0x2AEB PUSH0 DUP4 ADD DUP6 PUSH2 0x25FB JUMP JUMPDEST PUSH2 0x2AF8 PUSH1 0x20 DUP4 ADD DUP5 PUSH2 0x2429 JUMP JUMPDEST SWAP4 SWAP3 POP POP POP JUMP JUMPDEST PUSH0 DUP2 MLOAD SWAP1 POP PUSH2 0x2B0D DUP2 PUSH2 0x2451 JUMP JUMPDEST SWAP3 SWAP2 POP POP JUMP JUMPDEST PUSH0 PUSH1 0x20 DUP3 DUP5 SUB SLT ISZERO PUSH2 0x2B28 JUMPI PUSH2 0x2B27 PUSH2 0x2204 JUMP JUMPDEST JUMPDEST PUSH0 PUSH2 0x2B35 DUP5 DUP3 DUP6 ADD PUSH2 0x2AFF JUMP JUMPDEST SWAP2 POP POP SWAP3 SWAP2 POP POP JUMP JUMPDEST PUSH32 0x4E487B7100000000000000000000000000000000000000000000000000000000 PUSH0 MSTORE PUSH1 0x11 PUSH1 0x4 MSTORE PUSH1 0x24 PUSH0 REVERT JUMPDEST PUSH0 PUSH2 0x2B75 DUP3 PUSH2 0x220C JUMP JUMPDEST SWAP2 POP PUSH2 0x2B80 DUP4 PUSH2 0x220C JUMP JUMPDEST SWAP3 POP DUP3 DUP3 ADD SWAP1 POP DUP1 DUP3 GT ISZERO PUSH2 0x2B98 JUMPI PUSH2 0x2B97 PUSH2 0x2B3E JUMP JUMPDEST JUMPDEST SWAP3 SWAP2 POP POP JUMP JUMPDEST PUSH32 0x5265656E7472616E637947756172643A207265656E7472616E742063616C6C00 PUSH0 DUP3 ADD MSTORE POP JUMP JUMPDEST PUSH0 PUSH2 0x2BD2 PUSH1 0x1F DUP4 PUSH2 0x22AD JUMP JUMPDEST SWAP2 POP PUSH2 0x2BDD DUP3 PUSH2 0x2B9E JUMP JUMPDEST PUSH1 0x20 DUP3 ADD SWAP1 POP SWAP2 SWAP1 POP JUMP JUMPDEST PUSH0 PUSH1 0x20 DUP3 ADD SWAP1 POP DUP2 DUP2 SUB PUSH0 DUP4 ADD MSTORE PUSH2 0x2BFF DUP2 PUSH2 0x2BC6 JUMP JUMPDEST SWAP1 POP SWAP2 SWAP1 POP JUMP JUMPDEST PUSH0 PUSH1 0x60 DUP3 ADD SWAP1 POP PUSH2 0x2C19 PUSH0 DUP4 ADD DUP7 PUSH2 0x25FB JUMP JUMPDEST PUSH2 0x2C26 PUSH1 0x20 DUP4 ADD DUP6 PUSH2 0x2429 JUMP JUMPDEST PUSH2 0x2C33 PUSH1 0x40 DUP4 ADD DUP5 PUSH2 0x2429 JUMP JUMPDEST SWAP5 SWAP4 POP POP POP POP JUMP INVALID LOG2 PUSH5 0x6970667358 0x22 SLT KECCAK256 DIV PUSH13 0x762E4FEEC9060ADA05BB5C89F5 BLOCKHASH SWAP14 REVERT PUSH2 0xBCFE PUSH7 0x2247A648C69CC2 MSIZE 0xD9 0xCD PUSH5 0x736F6C6343 STOP ADDMOD SHR STOP CALLER "
				},
				"gasEstimates": {
					"creation": {
						"codeDepositCost": "2275400",
						"executionCost": "infinite",
						"totalCost": "infinite"
					},
					"external": {
						"MAX_SUPPLY()": "437",
						"allowance(address,address)": "infinite",
						"approve(address,uint256)": "infinite",
						"balanceOf(address)": "2873",
						"batchUpdateBlacklist(address[],bool)": "infinite",
						"batchUpdateWhitelist(address[],bool)": "infinite",
						"decimals()": "428",
						"emergencyWithdraw(address)": "infinite",
						"initialized()": "2556",
						"isBlacklisted(address)": "2943",
						"isWhitelisted(address)": "2900",
						"lastTransferTime(address)": "2848",
						"maxTransferAmount()": "2536",
						"maxWalletAmount()": "2469",
						"minHoldTime()": "2470",
						"name()": "infinite",
						"owner()": "2604",
						"renounceOwnership()": "infinite",
						"setTrading(bool)": "infinite",
						"symbol()": "infinite",
						"tokenReceiveTime(address)": "2870",
						"totalSupply()": "2544",
						"tradingEnabled()": "2555",
						"transfer(address,uint256)": "infinite",
						"transferCooldown()": "2493",
						"transferFrom(address,address,uint256)": "infinite",
						"transferOwnership(address)": "infinite",
						"updateBlacklist(address,bool)": "infinite",
						"updateSecurityParams(uint256,uint256,uint256,uint256)": "infinite",
						"updateWhitelist(address,bool)": "infinite"
					}
				},
				"methodIdentifiers": {
					"MAX_SUPPLY()": "32cb6b0c",
					"allowance(address,address)": "dd62ed3e",
					"approve(address,uint256)": "095ea7b3",
					"balanceOf(address)": "70a08231",
					"batchUpdateBlacklist(address[],bool)": "6072e6a8",
					"batchUpdateWhitelist(address[],bool)": "611274c5",
					"decimals()": "313ce567",
					"emergencyWithdraw(address)": "6ff1c9bc",
					"initialized()": "158ef93e",
					"isBlacklisted(address)": "fe575a87",
					"isWhitelisted(address)": "3af32abf",
					"lastTransferTime(address)": "0d2d8a31",
					"maxTransferAmount()": "a9e75723",
					"maxWalletAmount()": "aa4bde28",
					"minHoldTime()": "330671ad",
					"name()": "06fdde03",
					"owner()": "8da5cb5b",
					"renounceOwnership()": "715018a6",
					"setTrading(bool)": "8f70ccf7",
					"symbol()": "95d89b41",
					"tokenReceiveTime(address)": "283af019",
					"totalSupply()": "18160ddd",
					"tradingEnabled()": "4ada218b",
					"transfer(address,uint256)": "a9059cbb",
					"transferCooldown()": "68f16293",
					"transferFrom(address,address,uint256)": "23b872dd",
					"transferOwnership(address)": "f2fde38b",
					"updateBlacklist(address,bool)": "9155e083",
					"updateSecurityParams(uint256,uint256,uint256,uint256)": "02cd093d",
					"updateWhitelist(address,bool)": "0d392cd9"
				}
			},
			"storageLayout": {
				"storage": [
					{
						"astId": 372,
						"contract": "contracts/Jimp.sol:Prophecy_Jimpsons",
						"label": "_balances",
						"offset": 0,
						"slot": "0",
						"type": "t_mapping(t_address,t_uint256)"
					},
					{
						"astId": 378,
						"contract": "contracts/Jimp.sol:Prophecy_Jimpsons",
						"label": "_allowances",
						"offset": 0,
						"slot": "1",
						"type": "t_mapping(t_address,t_mapping(t_address,t_uint256))"
					},
					{
						"astId": 380,
						"contract": "contracts/Jimp.sol:Prophecy_Jimpsons",
						"label": "_totalSupply",
						"offset": 0,
						"slot": "2",
						"type": "t_uint256"
					},
					{
						"astId": 382,
						"contract": "contracts/Jimp.sol:Prophecy_Jimpsons",
						"label": "_name",
						"offset": 0,
						"slot": "3",
						"type": "t_string_storage"
					},
					{
						"astId": 384,
						"contract": "contracts/Jimp.sol:Prophecy_Jimpsons",
						"label": "_symbol",
						"offset": 0,
						"slot": "4",
						"type": "t_string_storage"
					},
					{
						"astId": 8,
						"contract": "contracts/Jimp.sol:Prophecy_Jimpsons",
						"label": "_owner",
						"offset": 0,
						"slot": "5",
						"type": "t_address"
					},
					{
						"astId": 295,
						"contract": "contracts/Jimp.sol:Prophecy_Jimpsons",
						"label": "_status",
						"offset": 0,
						"slot": "6",
						"type": "t_uint256"
					},
					{
						"astId": 1336,
						"contract": "contracts/Jimp.sol:Prophecy_Jimpsons",
						"label": "initialized",
						"offset": 0,
						"slot": "7",
						"type": "t_bool"
					},
					{
						"astId": 1338,
						"contract": "contracts/Jimp.sol:Prophecy_Jimpsons",
						"label": "maxTransferAmount",
						"offset": 0,
						"slot": "8",
						"type": "t_uint256"
					},
					{
						"astId": 1340,
						"contract": "contracts/Jimp.sol:Prophecy_Jimpsons",
						"label": "minHoldTime",
						"offset": 0,
						"slot": "9",
						"type": "t_uint256"
					},
					{
						"astId": 1342,
						"contract": "contracts/Jimp.sol:Prophecy_Jimpsons",
						"label": "maxWalletAmount",
						"offset": 0,
						"slot": "10",
						"type": "t_uint256"
					},
					{
						"astId": 1344,
						"contract": "contracts/Jimp.sol:Prophecy_Jimpsons",
						"label": "tradingEnabled",
						"offset": 0,
						"slot": "11",
						"type": "t_bool"
					},
					{
						"astId": 1348,
						"contract": "contracts/Jimp.sol:Prophecy_Jimpsons",
						"label": "lastTransferTime",
						"offset": 0,
						"slot": "12",
						"type": "t_mapping(t_address,t_uint256)"
					},
					{
						"astId": 1352,
						"contract": "contracts/Jimp.sol:Prophecy_Jimpsons",
						"label": "tokenReceiveTime",
						"offset": 0,
						"slot": "13",
						"type": "t_mapping(t_address,t_uint256)"
					},
					{
						"astId": 1356,
						"contract": "contracts/Jimp.sol:Prophecy_Jimpsons",
						"label": "isBlacklisted",
						"offset": 0,
						"slot": "14",
						"type": "t_mapping(t_address,t_bool)"
					},
					{
						"astId": 1360,
						"contract": "contracts/Jimp.sol:Prophecy_Jimpsons",
						"label": "isWhitelisted",
						"offset": 0,
						"slot": "15",
						"type": "t_mapping(t_address,t_bool)"
					},
					{
						"astId": 1362,
						"contract": "contracts/Jimp.sol:Prophecy_Jimpsons",
						"label": "transferCooldown",
						"offset": 0,
						"slot": "16",
						"type": "t_uint256"
					}
				],
				"types": {
					"t_address": {
						"encoding": "inplace",
						"label": "address",
						"numberOfBytes": "20"
					},
					"t_bool": {
						"encoding": "inplace",
						"label": "bool",
						"numberOfBytes": "1"
					},
					"t_mapping(t_address,t_bool)": {
						"encoding": "mapping",
						"key": "t_address",
						"label": "mapping(address => bool)",
						"numberOfBytes": "32",
						"value": "t_bool"
					},
					"t_mapping(t_address,t_mapping(t_address,t_uint256))": {
						"encoding": "mapping",
						"key": "t_address",
						"label": "mapping(address => mapping(address => uint256))",
						"numberOfBytes": "32",
						"value": "t_mapping(t_address,t_uint256)"
					},
					"t_mapping(t_address,t_uint256)": {
						"encoding": "mapping",
						"key": "t_address",
						"label": "mapping(address => uint256)",
						"numberOfBytes": "32",
						"value": "t_uint256"
					},
					"t_string_storage": {
						"encoding": "bytes",
						"label": "string",
						"numberOfBytes": "32"
					},
					"t_uint256": {
						"encoding": "inplace",
						"label": "uint256",
						"numberOfBytes": "32"
					}
				}
			},
			"userdoc": {
				"kind": "user",
				"methods": {},
				"version": 1
			}
		}
	}
}